{
  "abi": [
    {
      "inputs": [
        {
          "internalType": "address",
          "name": "_router",
          "type": "address"
        }
      ],
      "stateMutability": "nonpayable",
      "type": "constructor"
    },
    {
      "inputs": [],
      "name": "EmptyArgs",
      "type": "error"
    },
    {
      "inputs": [],
      "name": "EmptySource",
      "type": "error"
    },
    {
      "inputs": [],
      "name": "NoInlineSecrets",
      "type": "error"
    },
    {
      "inputs": [
        {
          "internalType": "address",
          "name": "caller",
          "type": "address"
        },
        {
          "internalType": "address",
          "name": "owner",
          "type": "address"
        },
        {
          "internalType": "address",
          "name": "automationRegistry",
          "type": "address"
        }
      ],
      "name": "NotAllowedCaller",
      "type": "error"
    },
    {
      "inputs": [],
      "name": "OnlyRouterCanFulfill",
      "type": "error"
    },
    {
      "anonymous": false,
      "inputs": [
        {
          "indexed": true,
          "internalType": "address",
          "name": "user",
          "type": "address"
        },
        {
          "components": [
            {
              "internalType": "address",
              "name": "user",
              "type": "address"
            },
            {
              "internalType": "address",
              "name": "tokenIn",
              "type": "address"
            },
            {
              "internalType": "address",
              "name": "tokenOut",
              "type": "address"
            },
            {
              "internalType": "uint256",
              "name": "timeInterval",
              "type": "uint256"
            },
            {
              "internalType": "uint256",
              "name": "nextExecution",
              "type": "uint256"
            },
            {
              "internalType": "uint256",
              "name": "amount",
              "type": "uint256"
            },
            {
              "internalType": "uint256",
              "name": "limit",
              "type": "uint256"
            },
            {
              "internalType": "bytes",
              "name": "lastResponse",
              "type": "bytes"
            }
          ],
          "indexed": false,
          "internalType": "struct ILighterFi.UserStrategy",
          "name": "userStrategy",
          "type": "tuple"
        },
        {
          "indexed": false,
          "internalType": "uint256",
          "name": "strategyIndex",
          "type": "uint256"
        }
      ],
      "name": "NewUserStrategy",
      "type": "event"
    },
    {
      "anonymous": false,
      "inputs": [
        {
          "indexed": true,
          "internalType": "address",
          "name": "from",
          "type": "address"
        },
        {
          "indexed": true,
          "internalType": "address",
          "name": "to",
          "type": "address"
        }
      ],
      "name": "OwnershipTransferRequested",
      "type": "event"
    },
    {
      "anonymous": false,
      "inputs": [
        {
          "indexed": true,
          "internalType": "address",
          "name": "from",
          "type": "address"
        },
        {
          "indexed": true,
          "internalType": "address",
          "name": "to",
          "type": "address"
        }
      ],
      "name": "OwnershipTransferred",
      "type": "event"
    },
    {
      "anonymous": false,
      "inputs": [
        {
          "indexed": true,
          "internalType": "address",
          "name": "user",
          "type": "address"
        },
        {
          "indexed": false,
          "internalType": "uint256",
          "name": "strategyIndex",
          "type": "uint256"
        }
      ],
      "name": "RemovedUserStrategy",
      "type": "event"
    },
    {
      "anonymous": false,
      "inputs": [
        {
          "indexed": true,
          "internalType": "bytes32",
          "name": "id",
          "type": "bytes32"
        }
      ],
      "name": "RequestFulfilled",
      "type": "event"
    },
    {
      "anonymous": false,
      "inputs": [
        {
          "indexed": true,
          "internalType": "bytes32",
          "name": "requestId",
          "type": "bytes32"
        },
        {
          "indexed": false,
          "internalType": "uint256",
          "name": "strategyIndex",
          "type": "uint256"
        }
      ],
      "name": "RequestReceived",
      "type": "event"
    },
    {
      "anonymous": false,
      "inputs": [
        {
          "indexed": true,
          "internalType": "bytes32",
          "name": "id",
          "type": "bytes32"
        }
      ],
      "name": "RequestSent",
      "type": "event"
    },
    {
      "anonymous": false,
      "inputs": [
        {
          "indexed": true,
          "internalType": "bytes32",
          "name": "requestId",
          "type": "bytes32"
        },
        {
          "indexed": false,
          "internalType": "bytes",
          "name": "response",
          "type": "bytes"
        },
        {
          "indexed": false,
          "internalType": "bytes",
          "name": "err",
          "type": "bytes"
        }
      ],
      "name": "Response",
      "type": "event"
    },
    {
      "anonymous": false,
      "inputs": [
        {
          "indexed": true,
          "internalType": "bytes32",
          "name": "requestId",
          "type": "bytes32"
        },
        {
          "indexed": false,
          "internalType": "uint256",
          "name": "strategyIndex",
          "type": "uint256"
        },
        {
          "indexed": false,
          "internalType": "uint256",
          "name": "amountIn",
          "type": "uint256"
        },
        {
          "indexed": false,
          "internalType": "address",
          "name": "user",
          "type": "address"
        },
        {
          "indexed": false,
          "internalType": "address",
          "name": "tokenIn",
          "type": "address"
        },
        {
          "indexed": false,
          "internalType": "address",
          "name": "tokenOut",
          "type": "address"
        }
      ],
      "name": "SwapExecuted",
      "type": "event"
    },
    {
      "anonymous": false,
      "inputs": [
        {
          "indexed": true,
          "internalType": "address",
          "name": "user",
          "type": "address"
        },
        {
          "components": [
            {
              "internalType": "address",
              "name": "user",
              "type": "address"
            },
            {
              "internalType": "address",
              "name": "tokenIn",
              "type": "address"
            },
            {
              "internalType": "address",
              "name": "tokenOut",
              "type": "address"
            },
            {
              "internalType": "uint256",
              "name": "timeInterval",
              "type": "uint256"
            },
            {
              "internalType": "uint256",
              "name": "nextExecution",
              "type": "uint256"
            },
            {
              "internalType": "uint256",
              "name": "amount",
              "type": "uint256"
            },
            {
              "internalType": "uint256",
              "name": "limit",
              "type": "uint256"
            },
            {
              "internalType": "bytes",
              "name": "lastResponse",
              "type": "bytes"
            }
          ],
          "indexed": false,
          "internalType": "struct ILighterFi.UserStrategy",
          "name": "userStrategy",
          "type": "tuple"
        },
        {
          "indexed": false,
          "internalType": "uint256",
          "name": "strategyIndex",
          "type": "uint256"
        }
      ],
      "name": "UpdatedUserStrategy",
      "type": "event"
    },
    {
      "inputs": [],
      "name": "acceptOwnership",
      "outputs": [],
      "stateMutability": "nonpayable",
      "type": "function"
    },
    {
      "inputs": [],
      "name": "addressMappinglength",
      "outputs": [
        {
          "internalType": "uint256",
          "name": "",
          "type": "uint256"
        }
      ],
      "stateMutability": "view",
      "type": "function"
    },
    {
      "inputs": [
        {
          "components": [
            {
              "internalType": "uint256",
              "name": "index",
              "type": "uint256"
            },
            {
              "internalType": "uint256",
              "name": "timestamp",
              "type": "uint256"
            },
            {
              "internalType": "bytes32",
              "name": "txHash",
              "type": "bytes32"
            },
            {
              "internalType": "uint256",
              "name": "blockNumber",
              "type": "uint256"
            },
            {
              "internalType": "bytes32",
              "name": "blockHash",
              "type": "bytes32"
            },
            {
              "internalType": "address",
              "name": "source",
              "type": "address"
            },
            {
              "internalType": "bytes32[]",
              "name": "topics",
              "type": "bytes32[]"
            },
            {
              "internalType": "bytes",
              "name": "data",
              "type": "bytes"
            }
          ],
          "internalType": "struct Log",
          "name": "log",
          "type": "tuple"
        },
        {
          "internalType": "bytes",
          "name": "",
          "type": "bytes"
        }
      ],
      "name": "checkLog",
      "outputs": [
        {
          "internalType": "bool",
          "name": "upkeepNeeded",
          "type": "bool"
        },
        {
          "internalType": "bytes",
          "name": "performData",
          "type": "bytes"
        }
      ],
      "stateMutability": "pure",
      "type": "function"
    },
    {
      "inputs": [
        {
          "internalType": "bytes",
          "name": "",
          "type": "bytes"
        }
      ],
      "name": "checkUpkeep",
      "outputs": [
        {
          "internalType": "bool",
          "name": "upkeepNeeded",
          "type": "bool"
        },
        {
          "internalType": "bytes",
          "name": "performData",
          "type": "bytes"
        }
      ],
      "stateMutability": "view",
      "type": "function"
    },
    {
      "inputs": [
        {
          "internalType": "address",
          "name": "tokenFrom",
          "type": "address"
        },
        {
          "internalType": "address",
          "name": "tokenTo",
          "type": "address"
        },
        {
          "internalType": "uint256",
          "name": "timeInterval",
          "type": "uint256"
        },
        {
          "internalType": "uint256",
          "name": "tokenInAmount",
          "type": "uint256"
        },
        {
          "internalType": "uint256",
          "name": "limit",
          "type": "uint256"
        }
      ],
      "name": "createStrategy",
      "outputs": [],
      "stateMutability": "nonpayable",
      "type": "function"
    },
    {
      "inputs": [],
      "name": "donID",
      "outputs": [
        {
          "internalType": "bytes32",
          "name": "",
          "type": "bytes32"
        }
      ],
      "stateMutability": "view",
      "type": "function"
    },
    {
      "inputs": [],
      "name": "gasLimit",
      "outputs": [
        {
          "internalType": "uint32",
          "name": "",
          "type": "uint32"
        }
      ],
      "stateMutability": "view",
      "type": "function"
    },
    {
      "inputs": [],
      "name": "genericSwapFacet",
      "outputs": [
        {
          "internalType": "contract IGenericSwapFacet",
          "name": "",
          "type": "address"
        }
      ],
      "stateMutability": "view",
      "type": "function"
    },
    {
      "inputs": [
        {
          "internalType": "address",
          "name": "feedAddress",
          "type": "address"
        }
      ],
      "name": "getChainlinkDataFeedLatestAnswer",
      "outputs": [
        {
          "internalType": "int256",
          "name": "",
          "type": "int256"
        }
      ],
      "stateMutability": "view",
      "type": "function"
    },
    {
      "inputs": [
        {
          "internalType": "bytes32",
          "name": "requestId",
          "type": "bytes32"
        },
        {
          "internalType": "bytes",
          "name": "response",
          "type": "bytes"
        },
        {
          "internalType": "bytes",
          "name": "err",
          "type": "bytes"
        }
      ],
      "name": "handleOracleFulfillment",
      "outputs": [],
      "stateMutability": "nonpayable",
      "type": "function"
    },
    {
      "inputs": [
        {
          "internalType": "address",
          "name": "_usdcAddress",
          "type": "address"
        },
        {
          "internalType": "uint32",
          "name": "_gasLimit",
          "type": "uint32"
        },
        {
          "internalType": "bytes32",
          "name": "_donID",
          "type": "bytes32"
        },
        {
          "internalType": "uint64",
          "name": "_subscriptionId",
          "type": "uint64"
        },
        {
          "internalType": "address",
          "name": "_upkeepContract1",
          "type": "address"
        },
        {
          "internalType": "address",
          "name": "_upkeepContract2",
          "type": "address"
        }
      ],
      "name": "init",
      "outputs": [],
      "stateMutability": "nonpayable",
      "type": "function"
    },
    {
      "inputs": [],
      "name": "integrator",
      "outputs": [
        {
          "internalType": "string",
          "name": "",
          "type": "string"
        }
      ],
      "stateMutability": "view",
      "type": "function"
    },
    {
      "inputs": [],
      "name": "isInitialized",
      "outputs": [
        {
          "internalType": "bool",
          "name": "",
          "type": "bool"
        }
      ],
      "stateMutability": "view",
      "type": "function"
    },
    {
      "inputs": [],
      "name": "isPaused",
      "outputs": [
        {
          "internalType": "bool",
          "name": "",
          "type": "bool"
        }
      ],
      "stateMutability": "view",
      "type": "function"
    },
    {
      "inputs": [],
      "name": "lifiDiamond",
      "outputs": [
        {
          "internalType": "address",
          "name": "",
          "type": "address"
        }
      ],
      "stateMutability": "view",
      "type": "function"
    },
    {
      "inputs": [
        {
          "internalType": "address[]",
          "name": "tokenAddresses",
          "type": "address[]"
        }
      ],
      "name": "mapAddresses",
      "outputs": [],
      "stateMutability": "nonpayable",
      "type": "function"
    },
    {
      "inputs": [],
      "name": "owner",
      "outputs": [
        {
          "internalType": "address",
          "name": "",
          "type": "address"
        }
      ],
      "stateMutability": "view",
      "type": "function"
    },
    {
      "inputs": [
        {
          "internalType": "bytes",
          "name": "performData",
          "type": "bytes"
        }
      ],
      "name": "performUpkeep",
      "outputs": [],
      "stateMutability": "nonpayable",
      "type": "function"
    },
    {
      "inputs": [
        {
          "internalType": "bytes",
          "name": "data",
          "type": "bytes"
        },
        {
          "internalType": "uint256",
          "name": "amountIn",
          "type": "uint256"
        },
        {
          "internalType": "address",
          "name": "receiver",
          "type": "address"
        },
        {
          "internalType": "address",
          "name": "tokenFrom",
          "type": "address"
        },
        {
          "internalType": "address",
          "name": "tokenTo",
          "type": "address"
        }
      ],
      "name": "readResponseAndSwap",
      "outputs": [],
      "stateMutability": "nonpayable",
      "type": "function"
    },
    {
      "inputs": [],
      "name": "referrer",
      "outputs": [
        {
          "internalType": "string",
          "name": "",
          "type": "string"
        }
      ],
      "stateMutability": "view",
      "type": "function"
    },
    {
      "inputs": [
        {
          "internalType": "uint256",
          "name": "index",
          "type": "uint256"
        }
      ],
      "name": "removeStrategy",
      "outputs": [],
      "stateMutability": "nonpayable",
      "type": "function"
    },
    {
      "inputs": [
        {
          "internalType": "bytes32",
          "name": "",
          "type": "bytes32"
        }
      ],
      "name": "requestsIds",
      "outputs": [
        {
          "internalType": "uint256",
          "name": "",
          "type": "uint256"
        }
      ],
      "stateMutability": "view",
      "type": "function"
    },
    {
      "inputs": [
        {
          "internalType": "uint256",
          "name": "",
          "type": "uint256"
        }
      ],
      "name": "s_usersStrategies",
      "outputs": [
        {
          "internalType": "address",
          "name": "user",
          "type": "address"
        },
        {
          "internalType": "address",
          "name": "tokenIn",
          "type": "address"
        },
        {
          "internalType": "address",
          "name": "tokenOut",
          "type": "address"
        },
        {
          "internalType": "uint256",
          "name": "timeInterval",
          "type": "uint256"
        },
        {
          "internalType": "uint256",
          "name": "nextExecution",
          "type": "uint256"
        },
        {
          "internalType": "uint256",
          "name": "amount",
          "type": "uint256"
        },
        {
          "internalType": "uint256",
          "name": "limit",
          "type": "uint256"
        },
        {
          "internalType": "bytes",
          "name": "lastResponse",
          "type": "bytes"
        }
      ],
      "stateMutability": "view",
      "type": "function"
    },
    {
      "inputs": [],
      "name": "s_usersStrategiesLength",
      "outputs": [
        {
          "internalType": "uint256",
          "name": "",
          "type": "uint256"
        }
      ],
      "stateMutability": "view",
      "type": "function"
    },
    {
      "inputs": [
        {
          "internalType": "bool",
          "name": "pause",
          "type": "bool"
        }
      ],
      "name": "setPause",
      "outputs": [
        {
          "internalType": "bool",
          "name": "",
          "type": "bool"
        }
      ],
      "stateMutability": "nonpayable",
      "type": "function"
    },
    {
      "inputs": [
        {
          "internalType": "address",
          "name": "_upkeepContract1",
          "type": "address"
        },
        {
          "internalType": "address",
          "name": "_upkeepContract2",
          "type": "address"
        }
      ],
      "name": "setUpkeepForwarders",
      "outputs": [],
      "stateMutability": "nonpayable",
      "type": "function"
    },
    {
      "inputs": [],
      "name": "strategyIndex",
      "outputs": [
        {
          "internalType": "uint256",
          "name": "",
          "type": "uint256"
        }
      ],
      "stateMutability": "view",
      "type": "function"
    },
    {
      "inputs": [],
      "name": "subscriptionId",
      "outputs": [
        {
          "internalType": "uint64",
          "name": "",
          "type": "uint64"
        }
      ],
      "stateMutability": "view",
      "type": "function"
    },
    {
      "inputs": [
        {
          "internalType": "address",
          "name": "",
          "type": "address"
        }
      ],
      "name": "tokenAllowed",
      "outputs": [
        {
          "internalType": "bool",
          "name": "",
          "type": "bool"
        }
      ],
      "stateMutability": "view",
      "type": "function"
    },
    {
      "inputs": [
        {
          "internalType": "address",
          "name": "",
          "type": "address"
        }
      ],
      "name": "tokenIndexes",
      "outputs": [
        {
          "internalType": "uint256",
          "name": "",
          "type": "uint256"
        }
      ],
      "stateMutability": "view",
      "type": "function"
    },
    {
      "inputs": [
        {
          "internalType": "address",
          "name": "to",
          "type": "address"
        }
      ],
      "name": "transferOwnership",
      "outputs": [],
      "stateMutability": "nonpayable",
      "type": "function"
    },
    {
      "inputs": [
        {
          "internalType": "uint256",
          "name": "index",
          "type": "uint256"
        },
        {
          "internalType": "address",
          "name": "tokenFrom",
          "type": "address"
        },
        {
          "internalType": "address",
          "name": "tokenTo",
          "type": "address"
        },
        {
          "internalType": "uint256",
          "name": "timeInterval",
          "type": "uint256"
        },
        {
          "internalType": "uint256",
          "name": "amountTokenIn",
          "type": "uint256"
        },
        {
          "internalType": "uint256",
          "name": "limit",
          "type": "uint256"
        }
      ],
      "name": "upgradeStrategy",
      "outputs": [],
      "stateMutability": "nonpayable",
      "type": "function"
    },
    {
      "inputs": [],
      "name": "upkeepContract1",
      "outputs": [
        {
          "internalType": "address",
          "name": "",
          "type": "address"
        }
      ],
      "stateMutability": "view",
      "type": "function"
    },
    {
      "inputs": [],
      "name": "upkeepContract2",
      "outputs": [
        {
          "internalType": "address",
          "name": "",
          "type": "address"
        }
      ],
      "stateMutability": "view",
      "type": "function"
    },
    {
      "inputs": [],
      "name": "usdcAddress",
      "outputs": [
        {
          "internalType": "address",
          "name": "",
          "type": "address"
        }
      ],
      "stateMutability": "view",
      "type": "function"
    }
  ],
  "bytecode": {
    "object": "0x61012060405273d0d5e3db44de05e9f294bb0a3beeaf030de24ada60c0908152731c2252aeed50e0c9b64bdff2735ee3c932f5c40860e052730715a7794a1dc8e42615f059dd6e406a6594651a6101005262000060906002906003620002aa565b50731231deb6f5749ef6ce6943a275a1d3e7486f4eae60a0526040805180820190915260088152676c6966692d61706960c01b6020820152600790620000a79082620003d0565b506040518060600160405280602a8152602001620049f6602a9139600890620000d19082620003d0565b50604051806103e001604052806103a9815260200162004a206103a99139601190620000fe9082620003d0565b503480156200010c57600080fd5b5060405162004dc938038062004dc98339810160408190526200012f916200049c565b6001600160a01b0381166080523380600081620001935760405162461bcd60e51b815260206004820152601860248201527f43616e6e6f7420736574206f776e657220746f207a65726f000000000000000060448201526064015b60405180910390fd5b600080546001600160a01b0319166001600160a01b0384811691909117909155811615620001c657620001c681620001ff565b505060a051600680546001600160a01b0319166001600160a01b039092169190911790555050600e805460ff60a81b19169055620004ce565b336001600160a01b03821603620002595760405162461bcd60e51b815260206004820152601760248201527f43616e6e6f74207472616e7366657220746f2073656c6600000000000000000060448201526064016200018a565b600180546001600160a01b0319166001600160a01b0383811691821790925560008054604051929316917fed8889f560326eb138920d842192f0eb3dd22b4f139c87a2c57538e05bae12789190a350565b82805482825590600052602060002090810192821562000302579160200282015b828111156200030257825182546001600160a01b0319166001600160a01b03909116178255602090920191600190910190620002cb565b506200031092915062000314565b5090565b5b8082111562000310576000815560010162000315565b634e487b7160e01b600052604160045260246000fd5b600181811c908216806200035657607f821691505b6020821081036200037757634e487b7160e01b600052602260045260246000fd5b50919050565b601f821115620003cb57600081815260208120601f850160051c81016020861015620003a65750805b601f850160051c820191505b81811015620003c757828155600101620003b2565b5050505b505050565b81516001600160401b03811115620003ec57620003ec6200032b565b6200040481620003fd845462000341565b846200037d565b602080601f8311600181146200043c5760008415620004235750858301515b600019600386901b1c1916600185901b178555620003c7565b600085815260208120601f198616915b828110156200046d578886015182559484019460019091019084016200044c565b50858210156200048c5787850151600019600388901b60f8161c191681555b5050505050600190811b01905550565b600060208284031215620004af57600080fd5b81516001600160a01b0381168114620004c757600080fd5b9392505050565b60805160a0516144f462000502600039600081816102c0015261240b0152600081816105540152612c9201526144f46000f3fe608060405234801561001057600080fd5b50600436106102115760003560e01c80636e04ff0d11610125578063c0cbbca6116100ad578063e64463731161007c578063e6446373146104ed578063e7078f92146104f6578063f2fde38b14610509578063f68016b71461051c578063fc2f7cff1461054157600080fd5b8063c0cbbca6146104ab578063ceff496d146104be578063d1636095146104d1578063d201b264146104da57600080fd5b80638da5cb5b116100f45780638da5cb5b14610438578063a854af2c14610449578063b187bd2614610464578063b21ca09914610478578063bedb86fb1461049857600080fd5b80636e04ff0d146104015780636e74336b1461041457806371bdb5de1461041d57806379ba50971461043057600080fd5b80634ce3fa52116101a857806355219d5a1161017757806355219d5a1461039a5780635591ddc6146103bd57806357fa4508146103d057806365170a47146103e357806368447c93146103ec57600080fd5b80634ce3fa521461033a5780634f8391bc1461034d57806352f61f4114610374578063549e2b7f1461038757600080fd5b80632bd16c8f116101e45780632bd16c8f146102bb578063392e53cd146102e257806340691db4146103065780634585e33b1461032757600080fd5b806302d454571461021657806304bc3b1c1461024657806309c1ba2e146102745780630ca76175146102a6575b600080fd5b600e54610229906001600160a01b031681565b6040516001600160a01b0390911681526020015b60405180910390f35b6102666102543660046136ba565b60046020526000908152604090205481565b60405190815260200161023d565b600b5461028e90600160c01b90046001600160401b031681565b6040516001600160401b03909116815260200161023d565b6102b96102b4366004613777565b610549565b005b6102297f000000000000000000000000000000000000000000000000000000000000000081565b600e546102f690600160a81b900460ff1681565b604051901515815260200161023d565b6103196103143660046137e3565b6105cd565b60405161023d92919061389f565b6102b96103353660046138c2565b610664565b6102b9610348366004613933565b610b1a565b61036061035b366004613966565b610b60565b60405161023d98979695949392919061397f565b600c54610229906001600160a01b031681565b6102b96103953660046139da565b610c3d565b6102f66103a83660046136ba565b60056020526000908152604090205460ff1681565b6102b96103cb366004613a27565b611006565b6102b96103de366004613a89565b61101c565b61026660095481565b6103f4611197565b60405161023d9190613b01565b61031961040f3660046138c2565b611225565b610266600a5481565b6102b961042b366004613b14565b6114c5565b6102b9611809565b6000546001600160a01b0316610229565b600b546102299064010000000090046001600160a01b031681565b600e546102f690600160a01b900460ff1681565b610266610486366004613966565b60106020526000908152604090205481565b6102f66104a6366004613b7a565b6118b3565b6102b96104b9366004613966565b6118e6565b600654610229906001600160a01b031681565b61026660035481565b6102b96104e8366004613b97565b611b17565b610266600d5481565b6102666105043660046136ba565b611c17565b6102b96105173660046136ba565b611c88565b600b5461052c9063ffffffff1681565b60405163ffffffff909116815260200161023d565b6103f4611c9c565b336001600160a01b037f000000000000000000000000000000000000000000000000000000000000000016146105925760405163c6829f8360e01b815260040160405180910390fd5b61059d838383611ca9565b60405183907f85e1543bf2f84fe80c6badbce3648c8539ad1df4d2b3d822938ca0538be727e690600090a2505050565b600060606105de60c0850185613c1d565b60028181106105ef576105ef613c66565b90506020020135600014610606576000915061060b565b600191505b61061860c0850185613c1d565b600081811061062957610629613c66565b90506020020135600160405160200161064c929190918252602082015260400190565b60405160208183030381529060405290509250929050565b6000546001600160a01b031633148015906106925750600b5464010000000090046001600160a01b03163314155b80156106a95750600c546001600160a01b03163314155b1561070657336106c16000546001600160a01b031690565b600b5460405163426fbc7160e01b81526001600160a01b0393841660048201529183166024830152640100000000900490911660448201526064015b60405180910390fd5b600061071482840184613c7c565b9150508060000361087b57600061072d83850185613c7c565b506000818152600f6020908152604080832081516101008101835281546001600160a01b03908116825260018301548116948201949094526002820154909316918301919091526003810154606083015260048101546080830152600581015460a0830152600681015460c083015260078101805494955092939192909160e0840191906107ba90613c9e565b80601f01602080910402602001604051908101604052809291908181526020018280546107e690613c9e565b80156108335780601f1061080857610100808354040283529160200191610833565b820191906000526020600020905b81548152906001019060200180831161081657829003601f168201915b505050505081525050905080606001516000146108635760608101516108599042613cee565b608082015261086b565b600060c08201525b61087482611d14565b5050505050565b600061088983850185613c7c565b50600081815260106020908152604080832054808452600f835281842082516101008101845281546001600160a01b03908116825260018301548116958201959095526002820154909416928401929092526003820154606084015260048201546080840152600582015460a0840152600682015460c0840152600782018054959650909460e08401919061091d90613c9e565b80601f016020809104026020016040519081016040528092919081815260200182805461094990613c9e565b80156109965780601f1061096b57610100808354040283529160200191610996565b820191906000526020600020905b81548152906001019060200180831161097957829003601f168201915b505050505081525050905060008160c0015111156109ff576000828152600f6020526040808220600601919091555133907fd4bcfe01803d6cc1b6cb87942924062b921ce853a0e0ad1a59cb92fa77f3a8cc906109f69085815260200190565b60405180910390a25b6020810151815160a08301516040516323b872dd60e01b81526001600160a01b03928316600482015230602482015260448101919091529116906323b872dd906064016020604051808303816000875af1158015610a61573d6000803e3d6000fd5b505050506040513d601f19601f82011682018060405250810190610a859190613d01565b50610aa78160e001518260a0015183600001518460200151856040015161101c565b60a08082015182516020808501516040808701518151898152938401959095526001600160a01b0393841690830152821660608201529116608082015284917f2cbc8e6970e7a6e926100654a692677c7960085229cf130f3afa93a8b89ed387910160405180910390a25050505b505050565b610b22611fab565b600b8054640100000000600160c01b0319166401000000006001600160a01b0394851602179055600c80546001600160a01b03191691909216179055565b600f60205260009081526040902080546001820154600283015460038401546004850154600586015460068701546007880180546001600160a01b03988916999789169890961696949593949293919291610bba90613c9e565b80601f0160208091040260200160405190810160405280929190818152602001828054610be690613c9e565b8015610c335780601f10610c0857610100808354040283529160200191610c33565b820191906000526020600020905b815481529060010190602001808311610c1657829003601f168201915b5050505050905088565b600e54600160a01b900460ff1615610c895760405162461bcd60e51b815260206004820152600f60248201526e18dbdb9d1c9858dd081c185d5cd959608a1b60448201526064016106fd565b81600003610cd95760405162461bcd60e51b815260206004820152601d60248201527f696e76616c696420737472617465677920706172616d20616d6f756e7400000060448201526064016106fd565b6001600160a01b03841660009081526005602052604090205460ff16610d415760405162461bcd60e51b815260206004820152601e60248201527f696e76616c696420737472617465677920706172616d20746f6b656e546f000060448201526064016106fd565b6001600160a01b03851660009081526005602052604090205460ff16610da95760405162461bcd60e51b815260206004820181905260248201527f696e76616c696420737472617465677920706172616d20746f6b656e46726f6d60448201526064016106fd565b821580610db4575080155b610dd05760405162461bcd60e51b81526004016106fd90613d1e565b82158015610ddc575080155b15610e295760405162461bcd60e51b815260206004820152601c60248201527f4c696d697420616e642054696d65496e74657276616c2061726520300000000060448201526064016106fd565b60008315610e3e57610e3b8442613cee565b90505b6000604051806101000160405280336001600160a01b0316815260200160008711610e695788610e76565b600e546001600160a01b03165b6001600160a01b03168152602001876001600160a01b031681526020018681526020018381526020018581526020018481526020016040518060400160405280600181526020016000815250815250905080604001516001600160a01b031681602001516001600160a01b031603610f005760405162461bcd60e51b81526004016106fd90613d60565b600d546000818152600f6020908152604091829020845181546001600160a01b03199081166001600160a01b03928316178355928601516001830180548516918316919091179055928501516002820180549093169316929092179055606083015160038201556080830151600482015560a0830151600582015560c0830151600682015560e08301518391906007820190610f9c9082613df5565b5050600d805460019081019091556009805490910190555081516040516001600160a01b03909116907f76077091b25b37316df3930ef4f2b6248911c2aead51908ad20525fc8e099ea590610ff49085908590613eb4565b60405180910390a25050505050505050565b61100e611fab565b6110188282612000565b5050565b60008060008061102b89612116565b93509350935093506000825160026110439190613cee565b6001600160401b0381111561105a5761105a6136d5565b604051908082528060200260200182016040528015611083578160200160208202803683370190505b509050868160008151811061109a5761109a613c66565b60200260200101906001600160a01b031690816001600160a01b03168152505060005b8351811015611115578381815181106110d8576110d8613c66565b60200260200101518282600101815181106110f5576110f5613c66565b6001600160a01b03909216602092830291909101909101526001016110bd565b508581600183516111269190613f49565b8151811061113657611136613c66565b6001600160a01b03929092166020928302919091019091015283518251600091611164918c919085906122e6565b60208701518751875192935090918c91611188918d9060801c85808f8f888b612495565b50505050505050505050505050565b600880546111a490613c9e565b80601f01602080910402602001604051908101604052809291908181526020018280546111d090613c9e565b801561121d5780601f106111f25761010080835404028352916020019161121d565b820191906000526020600020905b81548152906001019060200180831161120057829003601f168201915b505050505081565b6000606060006112336126c0565b905060008060008060005b6009548110156114b7576000818152600f6020908152604080832081516101008101835281546001600160a01b03908116825260018301548116948201949094526002820154909316918301919091526003810154606083015260048101546080830152600581015460a0830152600681015460c083015260078101805460e0840191906112cb90613c9e565b80601f01602080910402602001604051908101604052809291908181526020018280546112f790613c9e565b80156113445780601f1061131957610100808354040283529160200191611344565b820191906000526020600020905b81548152906001019060200180831161132757829003601f168201915b5050509190925250508151919250506001600160a01b0316156114a4576060810151156113a75780608001514210159350839850816000604051602001611395929190918252602082015260400190565b60405160208183030381529060405297505b60608101511580156113bc575060c081015115155b1561149257600e5460208201516001600160a01b039081169116146114205760c08101516020808301516001600160a01b03166000908152600490915260409020548851899190811061141157611411613c66565b6020026020010151101561145e565b60c08101516040808301516001600160a01b03166000908152600460205220548851899190811061145357611453613c66565b602002602001015111155b9250829850816000604051602001611480929190918252602082015260400190565b60405160208183030381529060405297505b88156114a457505050505050506114be565b50806114af81613f5c565b91505061123e565b5050505050505b9250929050565b816000036115155760405162461bcd60e51b815260206004820152601d60248201527f696e76616c696420737472617465677920706172616d20616d6f756e7400000060448201526064016106fd565b6001600160a01b03841660009081526005602052604090205460ff1661157d5760405162461bcd60e51b815260206004820152601e60248201527f696e76616c696420737472617465677920706172616d20746f6b656e546f000060448201526064016106fd565b6001600160a01b03851660009081526005602052604090205460ff166115e55760405162461bcd60e51b815260206004820181905260248201527f696e76616c696420737472617465677920706172616d20746f6b656e46726f6d60448201526064016106fd565b8215806115f0575080155b61160c5760405162461bcd60e51b81526004016106fd90613d1e565b836001600160a01b0316856001600160a01b03160361163d5760405162461bcd60e51b81526004016106fd90613d60565b82158015611649575080155b156116965760405162461bcd60e51b815260206004820152601c60248201527f4c696d697420616e642054696d65496e74657276616c2061726520300000000060448201526064016106fd565b6009548611156116de5760405162461bcd60e51b8152602060048201526013602482015272496e646578206f7574206f6620626f756e647360681b60448201526064016106fd565b6000868152600f6020526040902080546001600160a01b031633146117345760405162461bcd60e51b815260206004820152600c60248201526b155b985d5d1a1bdc9a5e995960a21b60448201526064016106fd565b60008415611749576117468542613cee565b90505b600085116117575786611764565b600e546001600160a01b03165b6001830180546001600160a01b039283166001600160a01b03199182168117909255600285018054938a169390911683179055036117b45760405162461bcd60e51b81526004016106fd90613d60565b60038201859055600582018490556006820183905581546040516001600160a01b03909116907f6737b9f3a5b839875fd01c830b2f52c3bed21caeb651e7f8ee987351c10db2fd90610ff49085908c90613ff2565b6001546001600160a01b0316331461185c5760405162461bcd60e51b815260206004820152601660248201527526bab9ba10313290383937b837b9b2b21037bbb732b960511b60448201526064016106fd565b60008054336001600160a01b0319808316821784556001805490911690556040516001600160a01b0390921692909183917f8be0079c531659141344cd1fd0a4f28419497f9722a3daafe3b4186f6b6457e091a350565b60006118bd611fab565b50600e805460ff60a01b1916600160a01b8315158102919091179182905560ff9104165b919050565b60095481111561192e5760405162461bcd60e51b8152602060048201526013602482015272496e646578206f7574206f6620626f756e647360681b60448201526064016106fd565b6000818152600f6020908152604080832081516101008101835281546001600160a01b03908116825260018301548116948201949094526002820154909316918301919091526003810154606083015260048101546080830152600581015460a0830152600681015460c083015260078101805460e0840191906119b190613c9e565b80601f01602080910402602001604051908101604052809291908181526020018280546119dd90613c9e565b8015611a2a5780601f106119ff57610100808354040283529160200191611a2a565b820191906000526020600020905b815481529060010190602001808311611a0d57829003601f168201915b5050509190925250508151919250506001600160a01b03163314611a7f5760405162461bcd60e51b815260206004820152600c60248201526b155b985d5d1a1bdc9a5e995960a21b60448201526064016106fd565b6000828152600f6020526040812080546001600160a01b031990811682556001820180548216905560028201805490911690556003810182905560048101829055600581018290556006810182905590611adc60078301826135df565b505060405182815233907fd4bcfe01803d6cc1b6cb87942924062b921ce853a0e0ad1a59cb92fa77f3a8cc9060200160405180910390a25050565b611b1f611fab565b600e54600160a81b900460ff1615611b795760405162461bcd60e51b815260206004820152601e60248201527f4c69676874657246693a20616c726561647920696e697469616c697a6564000060448201526064016106fd565b600e8054600b8054600a979097556001600160a01b0394851664010000000002640100000000600160c01b03196001600160401b03909716600160c01b02640100000000600160c01b0390981663ffffffff90991698909817969096179490941695909517909355600c80549382166001600160a01b03199490941693909317909255600161ff0160a01b031916921691909117600160a81b179055565b600080826001600160a01b031663feaf968c6040518163ffffffff1660e01b815260040160a060405180830381865afa158015611c58573d6000803e3d6000fd5b505050506040513d601f19601f82011682018060405250810190611c7c91906140b9565b50919695505050505050565b611c90611fab565b611c998161277b565b50565b600780546111a490613c9e565b600083815260106020908152604080832054808452600f909252909120600701611cd38482613df5565b50837f7873807bf6ddc50401cd3d29bbe0decee23fd4d68d273f4b5eb83cded4d2f1728484604051611d069291906140fd565b60405180910390a250505050565b611d556040805160e0810190915280600081526020016000815260200160008152602001606081526020016060815260200160608152602001606081525090565b611df260118054611d6590613c9e565b80601f0160208091040260200160405190810160405280929190818152602001828054611d9190613c9e565b8015611dde5780601f10611db357610100808354040283529160200191611dde565b820191906000526020600020905b815481529060010190602001808311611dc157829003601f168201915b50505050508261282490919063ffffffff16565b6000828152600f6020908152604080832081516101008101835281546001600160a01b03908116825260018301548116948201949094526002820154909316918301919091526003810154606083015260048101546080830152600581015460a0830152600681015460c083015260078101805460e084019190611e7590613c9e565b80601f0160208091040260200160405190810160405280929190818152602001828054611ea190613c9e565b8015611eee5780601f10611ec357610100808354040283529160200191611eee565b820191906000526020600020905b815481529060010190602001808311611ed157829003601f168201915b50505050508152505090506000611f178260200151836040015184600001518560a00151612831565b9050611f23838261298b565b6000611f54611f31856129b5565b600b54600a546001600160401b03600160c01b8304169163ffffffff1690612c8d565b600081815260106020526040908190208790555190915081907f7b0781c2059d56137f2d3814f1213c0bbbd546ff1f4e1a95a7b41f4234e9ee3290611f9c9088815260200190565b60405180910390a25050505050565b6000546001600160a01b03163314611ffe5760405162461bcd60e51b815260206004820152601660248201527527b7363c9031b0b63630b1363290313c9037bbb732b960511b60448201526064016106fd565b565b60005b81811015610b15576005600084848481811061202157612021613c66565b905060200201602081019061203691906136ba565b6001600160a01b03168152602081019190915260400160009081205460ff161515900361210e576003546004600085858581811061207657612076613c66565b905060200201602081019061208b91906136ba565b6001600160a01b03166001600160a01b03168152602001908152602001600020819055506001600560008585858181106120c7576120c7613c66565b90506020020160208101906120dc91906136ba565b6001600160a01b031681526020810191909152604001600020805460ff19169115159190911790556003805460010190555b600101612003565b61211e613619565b612126613637565b6060612130613637565b6048855110156121825760405162461bcd60e51b815260206004820152601a60248201527f44617461206c656e677468206d757374206265203e3d2037322100000000000060448201526064016106fd565b61218a613619565b612192613637565b61219a613619565b6121a2613637565b602089810151855260408a0151845260508a015160601c90850152606489015181528851605c036121d557605c89015182525b88516070036121f057605c8901518252607089015160208301525b6000805b600281101561223857600084826002811061221157612211613c66565b60200201516001600160a01b0316146122305761222d82613f5c565b91505b6001016121f4565b506000816001600160401b03811115612253576122536136d5565b60405190808252806020026020018201604052801561227c578160200160208202803683370190505b50905060005b828110156122d35784816002811061229c5761229c613c66565b60200201518282815181106122b3576122b3613c66565b6001600160a01b0390921660209283029190910190910152600101612282565b50949a9399509397509550909350505050565b60606338ed173960e01b60a0600083815b875181101561239c5760006001600160a01b031688828151811061231d5761231d613c66565b60200260200101516001600160a01b03161461238c578161235d89838151811061234957612349613c66565b60200260200101516001600160a01b031690565b60405160200161236e92919061412b565b60405160208183030381529060405291508261238990613f5c565b92505b61239581613f5c565b90506122f7565b506040516123b190829060009060200161414d565b60408051808303601f19018152828252600060208401526fffffffffffffffffffffffffffffffff198b166030840152925085918b910160405160208183030381529060405261240090614179565b856001600160a01b037f00000000000000000000000000000000000000000000000000000000000000001660408051600060208201526001600160e01b03198d16603c8201520160405160208183030381529060405261245f90614179565b604051612478969594939291908990899060200161419d565b604051602081830303815290604052945050505050949350505050565b604080516001808252818301909252600091816020015b6040805160e0810182526000808252602080830182905292820181905260608083018290526080830182905260a083015260c082015282526000199092019101816124ac579050509050868160008151811061250a5761250a613c66565b6020026020010151600001906001600160a01b031690816001600160a01b031681525050858160008151811061254257612542613c66565b6020026020010151602001906001600160a01b031690816001600160a01b031681525050848160008151811061257a5761257a613c66565b6020026020010151604001906001600160a01b031690816001600160a01b03168152505083816000815181106125b2576125b2613c66565b6020026020010151606001906001600160a01b031690816001600160a01b03168152505082816000815181106125ea576125ea613c66565b60200260200101516080018181525050818160008151811061260e5761260e613c66565b602002602001015160a0018190525060018160008151811061263257612632613c66565b602090810291909101015190151560c0909101526006546040516308c6141b60e31b81526001600160a01b0390911690634630a0d890612682908d906007906008908f908f9089906004016141f6565b600060405180830381600087803b15801561269c57600080fd5b505af11580156126b0573d6000803e3d6000fd5b5050505050505050505050505050565b6002546060906000816001600160401b038111156126e0576126e06136d5565b604051908082528060200260200182016040528015612709578160200160208202803683370190505b50905060005b828110156127745761274f61274a6002838154811061273057612730613c66565b6000918252602090912001546001600160a01b0316611c17565b612d5f565b82828151811061276157612761613c66565b602090810291909101015260010161270f565b5092915050565b336001600160a01b038216036127d35760405162461bcd60e51b815260206004820152601760248201527f43616e6e6f74207472616e7366657220746f2073656c6600000000000000000060448201526064016106fd565b600180546001600160a01b0319166001600160a01b0383811691821790925560008054604051929316917fed8889f560326eb138920d842192f0eb3dd22b4f139c87a2c57538e05bae12789190a350565b6110188260008084612d72565b606060006128708660405160200161285c919060609190911b6001600160601b031916815260140190565b604051602081830303815290604052612df0565b6040516001600160601b0319606088901b1660208201529091506000906128999060340161285c565b6040516001600160601b0319606088901b1660208201529091506000906128c29060340161285c565b905060006128cf86613008565b60408051600480825260a0820190925291925060009190816020015b60608152602001906001900390816128eb579050509050848160008151811061291657612916613c66565b6020026020010181905250838160018151811061293557612935613c66565b6020026020010181905250828160028151811061295457612954613c66565b6020026020010181905250818160038151811061297357612973613c66565b60209081029190910101529998505050505050505050565b80516000036129ad5760405163fe936cb760e01b815260040160405180910390fd5b60a090910152565b606060006129c461010061309a565b90506129fd6040518060400160405280600c81526020016b31b7b232a637b1b0ba34b7b760a11b815250826130bb90919063ffffffff16565b8251612a1b906002811115612a1457612a14614301565b82906130d4565b6040805180820190915260088152676c616e677561676560c01b6020820152612a459082906130bb565b6040830151612a5c908015612a1457612a14614301565b604080518082019091526006815265736f7572636560d01b6020820152612a849082906130bb565b6060830151612a949082906130bb565b60a08301515115612b28576040805180820190915260048152636172677360e01b6020820152612ac59082906130bb565b612ace8161310d565b60005b8360a0015151811015612b1e57612b0e8460a001518281518110612af757612af7613c66565b6020026020010151836130bb90919063ffffffff16565b612b1781613f5c565b9050612ad1565b50612b2881613131565b60808301515115612bec57600083602001516002811115612b4b57612b4b614301565b03612b695760405163a80d31f760e01b815260040160405180910390fd5b60408051808201909152600f81526e39b2b1b932ba39a637b1b0ba34b7b760891b6020820152612b9a9082906130bb565b612bb383602001516002811115612a1457612a14614301565b6040805180820190915260078152667365637265747360c81b6020820152612bdc9082906130bb565b6080830151612bec90829061314f565b60c08301515115612c855760408051808201909152600981526862797465734172677360b81b6020820152612c229082906130bb565b612c2b8161310d565b60005b8360c0015151811015612c7b57612c6b8460c001518281518110612c5457612c54613c66565b60200260200101518361314f90919063ffffffff16565b612c7481613f5c565b9050612c2e565b50612c8581613131565b515192915050565b6000807f00000000000000000000000000000000000000000000000000000000000000006001600160a01b031663461d27628688600188886040518663ffffffff1660e01b8152600401612ce5959493929190614317565b6020604051808303816000875af1158015612d04573d6000803e3d6000fd5b505050506040513d601f19601f82011682018060405250810190612d289190614360565b60405190915081907f1131472297a800fee664d1d89cfa8f7676ff07189ecc53f80bbb5f4969099db890600090a295945050505050565b6000612d6c60648361438f565b92915050565b8051600003612d94576040516322ce3edd60e01b815260040160405180910390fd5b83836002811115612da757612da7614301565b90816002811115612dba57612dba614301565b90525060408401828015612dd057612dd0614301565b90818015612de057612de0614301565b9052506060909301929092525050565b60408051808201909152601081526f181899199a1a9b1b9c1cb0b131b232b360811b6020820152815160609190600090612e2b9060026143a3565b612e36906002613cee565b6001600160401b03811115612e4d57612e4d6136d5565b6040519080825280601f01601f191660200182016040528015612e77576020820181803683370190505b509050600360fc1b81600081518110612e9257612e92613c66565b60200101906001600160f81b031916908160001a905350600f60fb1b81600181518110612ec157612ec1613c66565b60200101906001600160f81b031916908160001a90535060005b845181101561300057826004868381518110612ef957612ef9613c66565b016020015182516001600160f81b031990911690911c60f81c908110612f2157612f21613c66565b01602001516001600160f81b03191682612f3c8360026143a3565b612f47906002613cee565b81518110612f5757612f57613c66565b60200101906001600160f81b031916908160001a90535082858281518110612f8157612f81613c66565b602091010151815160f89190911c600f16908110612fa157612fa1613c66565b01602001516001600160f81b03191682612fbc8360026143a3565b612fc7906003613cee565b81518110612fd757612fd7613c66565b60200101906001600160f81b031916908160001a90535080612ff881613f5c565b915050612edb565b509392505050565b606060006130158361315c565b60010190506000816001600160401b03811115613034576130346136d5565b6040519080825280601f01601f19166020018201604052801561305e576020820181803683370190505b5090508181016020015b600019016f181899199a1a9b1b9c1cb0b131b232b360811b600a86061a8153600a850494508461306857509392505050565b6130a2613655565b80516130ae9083613234565b5060006020820152919050565b6130c882600383516132ab565b8151610b1590826133ca565b81516130e19060c26133f2565b5061101882826040516020016130f991815260200190565b60405160208183030381529060405261314f565b61311881600461345b565b60018160200181815161312b9190613cee565b90525050565b61313c81600761345b565b60018160200181815161312b9190613f49565b6130c882600283516132ab565b60008072184f03e93ff9f4daa797ed6e38ed64bf6a1f0160401b831061319b5772184f03e93ff9f4daa797ed6e38ed64bf6a1f0160401b830492506040015b6d04ee2d6d415b85acef810000000083106131c7576d04ee2d6d415b85acef8100000000830492506020015b662386f26fc1000083106131e557662386f26fc10000830492506010015b6305f5e10083106131fd576305f5e100830492506008015b612710831061321157612710830492506004015b60648310613223576064830492506002015b600a8310612d6c5760010192915050565b6040805180820190915260608152600060208201526132546020836143ba565b1561327c576132646020836143ba565b61326f906020613f49565b6132799083613cee565b91505b6020808401839052604051808552600081529081840101818110156132a057600080fd5b604052509192915050565b6017816001600160401b0316116132d75782516132d19060e0600585901b1683176133f2565b50505050565b60ff816001600160401b0316116133175782516132ff906018611fe0600586901b16176133f2565b5082516132d1906001600160401b0383166001613472565b61ffff816001600160401b031611613358578251613340906019611fe0600586901b16176133f2565b5082516132d1906001600160401b0383166002613472565b63ffffffff816001600160401b03161161339b57825161338390601a611fe0600586901b16176133f2565b5082516132d1906001600160401b0383166004613472565b82516133b290601b611fe0600586901b16176133f2565b5082516132d1906001600160401b0383166008613472565b6040805180820190915260608152600060208201526133eb838384516134f7565b9392505050565b6040805180820190915260608152600060208201528251516000613417826001613cee565b90508460200151821061343857613438856134338360026143a3565b6135c8565b8451602083820101858153508051821115613451578181525b5093949350505050565b8151610b1590601f611fe0600585901b16176133f2565b60408051808201909152606081526000602082015283515160006134968285613cee565b905085602001518111156134b3576134b3866134338360026143a3565b600060016134c3866101006144b2565b6134cd9190613f49565b905086518281018783198251161781525080518311156134eb578281525b50959695505050505050565b604080518082019091526060815260006020820152825182111561351a57600080fd5b83515160006135298483613cee565b9050856020015181111561354657613546866134338360026143a3565b855180518382016020019160009180851115613560578482525b505050602086015b602086106135a0578051825261357f602083613cee565b915061358c602082613cee565b9050613599602087613f49565b9550613568565b51815160001960208890036101000a0190811690199190911617905250849150509392505050565b81516135d48383613234565b506132d183826133ca565b5080546135eb90613c9e565b6000825580601f106135fb575050565b601f016020900490600052602060002090810190611c99919061368a565b60405180604001604052806002906020820280368337509192915050565b60405180602001604052806001906020820280368337509192915050565b604051806040016040528061367d604051806040016040528060608152602001600081525090565b8152602001600081525090565b5b8082111561369f576000815560010161368b565b5090565b80356001600160a01b03811681146118e157600080fd5b6000602082840312156136cc57600080fd5b6133eb826136a3565b634e487b7160e01b600052604160045260246000fd5b600082601f8301126136fc57600080fd5b81356001600160401b0380821115613716576137166136d5565b604051601f8301601f19908116603f0116810190828211818310171561373e5761373e6136d5565b8160405283815286602085880101111561375757600080fd5b836020870160208301376000602085830101528094505050505092915050565b60008060006060848603121561378c57600080fd5b8335925060208401356001600160401b03808211156137aa57600080fd5b6137b6878388016136eb565b935060408601359150808211156137cc57600080fd5b506137d9868287016136eb565b9150509250925092565b600080604083850312156137f657600080fd5b82356001600160401b038082111561380d57600080fd5b90840190610100828703121561382257600080fd5b9092506020840135908082111561383857600080fd5b50613845858286016136eb565b9150509250929050565b60005b8381101561386a578181015183820152602001613852565b50506000910152565b6000815180845261388b81602086016020860161384f565b601f01601f19169290920160200192915050565b82151581526040602082015260006138ba6040830184613873565b949350505050565b600080602083850312156138d557600080fd5b82356001600160401b03808211156138ec57600080fd5b818501915085601f83011261390057600080fd5b81358181111561390f57600080fd5b86602082850101111561392157600080fd5b60209290920196919550909350505050565b6000806040838503121561394657600080fd5b61394f836136a3565b915061395d602084016136a3565b90509250929050565b60006020828403121561397857600080fd5b5035919050565b600061010060018060a01b03808c168452808b166020850152808a166040850152508760608401528660808401528560a08401528460c08401528060e08401526139cb81840185613873565b9b9a5050505050505050505050565b600080600080600060a086880312156139f257600080fd5b6139fb866136a3565b9450613a09602087016136a3565b94979496505050506040830135926060810135926080909101359150565b60008060208385031215613a3a57600080fd5b82356001600160401b0380821115613a5157600080fd5b818501915085601f830112613a6557600080fd5b813581811115613a7457600080fd5b8660208260051b850101111561392157600080fd5b600080600080600060a08688031215613aa157600080fd5b85356001600160401b03811115613ab757600080fd5b613ac3888289016136eb565b95505060208601359350613ad9604087016136a3565b9250613ae7606087016136a3565b9150613af5608087016136a3565b90509295509295909350565b6020815260006133eb6020830184613873565b60008060008060008060c08789031215613b2d57600080fd5b86359550613b3d602088016136a3565b9450613b4b604088016136a3565b9350606087013592506080870135915060a087013590509295509295509295565b8015158114611c9957600080fd5b600060208284031215613b8c57600080fd5b81356133eb81613b6c565b60008060008060008060c08789031215613bb057600080fd5b613bb9876136a3565b9550602087013563ffffffff81168114613bd257600080fd5b94506040870135935060608701356001600160401b0381168114613bf557600080fd5b9250613c03608088016136a3565b9150613c1160a088016136a3565b90509295509295509295565b6000808335601e19843603018112613c3457600080fd5b8301803591506001600160401b03821115613c4e57600080fd5b6020019150600581901b36038213156114be57600080fd5b634e487b7160e01b600052603260045260246000fd5b60008060408385031215613c8f57600080fd5b50508035926020909101359150565b600181811c90821680613cb257607f821691505b602082108103613cd257634e487b7160e01b600052602260045260246000fd5b50919050565b634e487b7160e01b600052601160045260246000fd5b80820180821115612d6c57612d6c613cd8565b600060208284031215613d1357600080fd5b81516133eb81613b6c565b60208082526022908201527f4569746865722073657420612074696d65496e74657276616c206f72204c696d6040820152611a5d60f21b606082015260800190565b60208082526027908201527f696e76616c6964207374727461677920706172616d3a20746f6b656e732061726040820152661948195c5d585b60ca1b606082015260800190565b601f821115610b1557600081815260208120601f850160051c81016020861015613dce5750805b601f850160051c820191505b81811015613ded57828155600101613dda565b505050505050565b81516001600160401b03811115613e0e57613e0e6136d5565b613e2281613e1c8454613c9e565b84613da7565b602080601f831160018114613e575760008415613e3f5750858301515b600019600386901b1c1916600185901b178555613ded565b600085815260208120601f198616915b82811015613e8657888601518255948401946001909101908401613e67565b5085821015613ea45787850151600019600388901b60f8161c191681555b5050505050600190811b01905550565b604080825283516001600160a01b03908116838301526020850151166060830152830151600090613ef060808401826001600160a01b03169052565b50606084015160a0830152608084015160c083015260a084015160e083015260c0840151610100818185015260e086015191508061012085015250613f39610140840182613873565b9150508260208301529392505050565b81810381811115612d6c57612d6c613cd8565b600060018201613f6e57613f6e613cd8565b5060010190565b60008154613f8281613c9e565b808552602060018381168015613f9f5760018114613fb957613fe7565b60ff1985168884015283151560051b880183019550613fe7565b866000528260002060005b85811015613fdf5781548a8201860152908301908401613fc4565b890184019650505b505050505092915050565b6040815261401b6040820161400e85546001600160a01b031690565b6001600160a01b03169052565b600061403160018501546001600160a01b031690565b6001600160a01b0390811660608401526002850154166080830152600384015460a0830152600484015460c0830152600584015460e0830152600684015461010080840191909152610120830152614090610140830160078601613f75565b90508260208301529392505050565b805169ffffffffffffffffffff811681146118e157600080fd5b600080600080600060a086880312156140d157600080fd5b6140da8661409f565b9450602086015193506040860151925060608601519150613af56080870161409f565b6040815260006141106040830185613873565b82810360208401526141228185613873565b95945050505050565b6000835161413d81846020880161384f565b9190910191825250602001919050565b6000835161415f81846020880161384f565b63ffffffff199390931691909201908152601c0192915050565b80516020808301519190811015613cd25760001960209190910360031b1b16919050565b63ffffffff60e01b891681528760048201528660248201528560448201528460648201528360848201528260a4820152600082516141e28160c485016020870161384f565b9190910160c4019998505050505050505050565b600060c0888352602081818501526142108285018a613f75565b604085820381870152614223828b613f75565b9150606060018060a01b03808b168289015260808a818a015260a0898603818b0152858b518088528888019150888160051b890101898e0160005b838110156142e657601f198b840301855281518051891684528c81015189168d8501528a81015189168b850152898101516001600160a01b03168a85015287810151888501528681015160e0888601819052906142bd82870182613873565b9150508e82015191506142d38f86018315159052565b958d0195935050908b019060010161425e565b5050809b505050505050505050505050979650505050505050565b634e487b7160e01b600052602160045260246000fd5b6001600160401b038616815260a06020820152600061433960a0830187613873565b61ffff9590951660408301525063ffffffff92909216606083015260809091015292915050565b60006020828403121561437257600080fd5b5051919050565b634e487b7160e01b600052601260045260246000fd5b60008261439e5761439e614379565b500490565b8082028115828204841417612d6c57612d6c613cd8565b6000826143c9576143c9614379565b500690565b600181815b808511156144095781600019048211156143ef576143ef613cd8565b808516156143fc57918102915b93841c93908002906143d3565b509250929050565b60008261442057506001612d6c565b8161442d57506000612d6c565b8160018114614443576002811461444d57614469565b6001915050612d6c565b60ff84111561445e5761445e613cd8565b50506001821b612d6c565b5060208310610133831016604e8410600b841016171561448c575081810a612d6c565b61449683836143ce565b80600019048211156144aa576144aa613cd8565b029392505050565b60006133eb838361441156fea26469706673582212208a7abab7d269b24223b667124aec8a2d1fe134eea189b3e4d6031b580cc3e66e64736f6c63430008140033307830303030303030303030303030303030303030303030303030303030303030303030303030303030636f6e73742066433d2027706f6c273b636f6e73742066543d617267735b305d3b636f6e73742074543d617267735b315d3b636f6e7374206641643d617267735b325d3b636f6e73742066416d3d617267735b335d3b636f6e7374206c5255726c203d206068747470733a2f2f6c692e71756573742f76312f71756f74653f66726f6d436861696e3d247b66437d26746f436861696e3d247b66437d2666726f6d546f6b656e3d247b66547d26746f546f6b656e3d247b74547d2666726f6d416464726573733d247b6641647d2666726f6d416d6f756e743d247b66416d7d603b636f6e7374206c52203d2061776169742046756e6374696f6e732e6d616b654874747052657175657374287b75726c3a206c5255726c2c6d6574686f643a2027474554272c686561646572733a207b27616363657074273a20276170706c69636174696f6e2f6a736f6e272c7d2c7d293b636f6e73742064617461203d206c522e646174612e7472616e73616374696f6e526571756573742e646174613b636f6e7374207444203d206c522e646174612e696e636c7564656453746570735b305d2e657374696d6174652e746f6f6c446174613b66756e6374696f6e207061727365627328627329207b636f6e7374207473203d2062732e736c696365283130293b636f6e73742074784964203d2074732e736c69636528302c203634293b636f6e7374206d696e4f7574203d2074732e736c696365283238382c20333230293b636f6e737420726f75746572203d2074442e726f75746572416464726573732e736c6963652832293b636f6e73742073656c6563746f72203d2074732e736c69636528313636342c2031363732293b6c6574206d6964646c65546f6b656e31203d2027273b6c6574206d6964646c65546f6b656e32203d2027273b6966202874442e706174682e6c656e677468203d3d3d2033297b6d6964646c65546f6b656e31203d2074442e706174685b315d2e736c6963652832293b7d6966202874442e706174682e6c656e677468203d3d3d2034297b6d6964646c65546f6b656e31203d2074442e706174685b315d2e736c6963652832293b6d6964646c65546f6b656e32203d2074442e706174685b325d2e736c6963652832293b7d72657475726e20747849642b6d696e4f75742b726f757465722b73656c6563746f722b6d6964646c65546f6b656e312b6d6964646c65546f6b656e323b7d72657475726e202846756e6374696f6e732e656e636f6465537472696e67287061727365627328646174612929293b",
    "linkReferences": {}
  },
  "methodIdentifiers": {
    "acceptOwnership()": "79ba5097",
    "addressMappinglength()": "d1636095",
    "checkLog((uint256,uint256,bytes32,uint256,bytes32,address,bytes32[],bytes),bytes)": "40691db4",
    "checkUpkeep(bytes)": "6e04ff0d",
    "createStrategy(address,address,uint256,uint256,uint256)": "549e2b7f",
    "donID()": "6e74336b",
    "gasLimit()": "f68016b7",
    "genericSwapFacet()": "ceff496d",
    "getChainlinkDataFeedLatestAnswer(address)": "e7078f92",
    "handleOracleFulfillment(bytes32,bytes,bytes)": "0ca76175",
    "init(address,uint32,bytes32,uint64,address,address)": "d201b264",
    "integrator()": "fc2f7cff",
    "isInitialized()": "392e53cd",
    "isPaused()": "b187bd26",
    "lifiDiamond()": "2bd16c8f",
    "mapAddresses(address[])": "5591ddc6",
    "owner()": "8da5cb5b",
    "performUpkeep(bytes)": "4585e33b",
    "readResponseAndSwap(bytes,uint256,address,address,address)": "57fa4508",
    "referrer()": "68447c93",
    "removeStrategy(uint256)": "c0cbbca6",
    "requestsIds(bytes32)": "b21ca099",
    "s_usersStrategies(uint256)": "4f8391bc",
    "s_usersStrategiesLength()": "65170a47",
    "setPause(bool)": "bedb86fb",
    "setUpkeepForwarders(address,address)": "4ce3fa52",
    "strategyIndex()": "e6446373",
    "subscriptionId()": "09c1ba2e",
    "tokenAllowed(address)": "55219d5a",
    "tokenIndexes(address)": "04bc3b1c",
    "transferOwnership(address)": "f2fde38b",
    "upgradeStrategy(uint256,address,address,uint256,uint256,uint256)": "71bdb5de",
    "upkeepContract1()": "a854af2c",
    "upkeepContract2()": "52f61f41",
    "usdcAddress()": "02d45457"
  },
  "id": 34
}