{
  "abi": [
    {
      "inputs": [],
      "stateMutability": "nonpayable",
      "type": "constructor"
    },
    {
      "inputs": [
        {
          "internalType": "uint256",
          "name": "amountIn",
          "type": "uint256"
        },
        {
          "internalType": "bytes16",
          "name": "minAmount",
          "type": "bytes16"
        },
        {
          "internalType": "address[]",
          "name": "path",
          "type": "address[]"
        },
        {
          "internalType": "bytes4",
          "name": "routerSelector",
          "type": "bytes4"
        }
      ],
      "name": "ConcatCalldata",
      "outputs": [
        {
          "internalType": "bytes",
          "name": "",
          "type": "bytes"
        }
      ],
      "stateMutability": "view",
      "type": "function"
    },
    {
      "inputs": [
        {
          "internalType": "address",
          "name": "addr",
          "type": "address"
        }
      ],
      "name": "addressToBytes32",
      "outputs": [
        {
          "internalType": "bytes32",
          "name": "",
          "type": "bytes32"
        }
      ],
      "stateMutability": "pure",
      "type": "function"
    },
    {
      "inputs": [
        {
          "internalType": "bytes32",
          "name": "b32",
          "type": "bytes32"
        }
      ],
      "name": "bytes32tobytes4",
      "outputs": [
        {
          "internalType": "bytes4",
          "name": "",
          "type": "bytes4"
        }
      ],
      "stateMutability": "pure",
      "type": "function"
    },
    {
      "inputs": [],
      "name": "genericSwapFacet",
      "outputs": [
        {
          "internalType": "contract IGenericSwapFacet",
          "name": "",
          "type": "address"
        }
      ],
      "stateMutability": "view",
      "type": "function"
    },
    {
      "inputs": [],
      "name": "integrator",
      "outputs": [
        {
          "internalType": "string",
          "name": "",
          "type": "string"
        }
      ],
      "stateMutability": "view",
      "type": "function"
    },
    {
      "inputs": [],
      "name": "lifiDiamond",
      "outputs": [
        {
          "internalType": "address",
          "name": "",
          "type": "address"
        }
      ],
      "stateMutability": "view",
      "type": "function"
    },
    {
      "inputs": [
        {
          "internalType": "bytes",
          "name": "data",
          "type": "bytes"
        },
        {
          "internalType": "uint256",
          "name": "amountIn",
          "type": "uint256"
        },
        {
          "internalType": "address",
          "name": "receiver",
          "type": "address"
        },
        {
          "internalType": "address",
          "name": "tokenFrom",
          "type": "address"
        },
        {
          "internalType": "address",
          "name": "tokenTo",
          "type": "address"
        }
      ],
      "name": "readResponseAndSwap",
      "outputs": [],
      "stateMutability": "nonpayable",
      "type": "function"
    },
    {
      "inputs": [],
      "name": "referrer",
      "outputs": [
        {
          "internalType": "string",
          "name": "",
          "type": "string"
        }
      ],
      "stateMutability": "view",
      "type": "function"
    },
    {
      "inputs": [
        {
          "internalType": "bytes32",
          "name": "_transactionId",
          "type": "bytes32"
        },
        {
          "internalType": "address payable",
          "name": "_receiver",
          "type": "address"
        },
        {
          "internalType": "uint256",
          "name": "_minAmount",
          "type": "uint256"
        },
        {
          "internalType": "address",
          "name": "_callTo",
          "type": "address"
        },
        {
          "internalType": "address",
          "name": "_approveTo",
          "type": "address"
        },
        {
          "internalType": "address",
          "name": "_sendingAssetId",
          "type": "address"
        },
        {
          "internalType": "address",
          "name": "_receivingAssetId",
          "type": "address"
        },
        {
          "internalType": "uint256",
          "name": "_fromAmount",
          "type": "uint256"
        },
        {
          "internalType": "bytes",
          "name": "_calldata",
          "type": "bytes"
        }
      ],
      "name": "swap",
      "outputs": [],
      "stateMutability": "nonpayable",
      "type": "function"
    },
    {
      "inputs": [
        {
          "internalType": "uint256",
          "name": "u256",
          "type": "uint256"
        }
      ],
      "name": "uintToBytes32",
      "outputs": [
        {
          "internalType": "bytes32",
          "name": "",
          "type": "bytes32"
        }
      ],
      "stateMutability": "pure",
      "type": "function"
    },
    {
      "inputs": [
        {
          "internalType": "bytes",
          "name": "data",
          "type": "bytes"
        }
      ],
      "name": "unpackBytes",
      "outputs": [
        {
          "internalType": "bytes32[2]",
          "name": "",
          "type": "bytes32[2]"
        },
        {
          "internalType": "bytes16[1]",
          "name": "",
          "type": "bytes16[1]"
        },
        {
          "internalType": "address[]",
          "name": "",
          "type": "address[]"
        },
        {
          "internalType": "bytes4[1]",
          "name": "",
          "type": "bytes4[1]"
        }
      ],
      "stateMutability": "pure",
      "type": "function"
    }
  ],
  "bytecode": {
    "object": "0x731231deb6f5749ef6ce6943a275a1d3e7486f4eae60805260e0604052600860a0908152676c6966692d61706960c01b60c05260019062000041908262000147565b506040518060600160405280602a815260200162001458602a91396002906200006b908262000147565b503480156200007957600080fd5b50608051600080546001600160a01b0319166001600160a01b0390921691909117905562000213565b634e487b7160e01b600052604160045260246000fd5b600181811c90821680620000cd57607f821691505b602082108103620000ee57634e487b7160e01b600052602260045260246000fd5b50919050565b601f8211156200014257600081815260208120601f850160051c810160208610156200011d5750805b601f850160051c820191505b818110156200013e5782815560010162000129565b5050505b505050565b81516001600160401b03811115620001635762000163620000a2565b6200017b81620001748454620000b8565b84620000f4565b602080601f831160018114620001b357600084156200019a5750858301515b600019600386901b1c1916600185901b1785556200013e565b600085815260208120601f198616915b82811015620001e457888601518255948401946001909101908401620001c3565b5085821015620002035787850151600019600388901b60f8161c191681555b5050505050600190811b01905550565b608051611223620002356000396000818160b3015261090601526112236000f3fe608060405234801561001057600080fd5b50600436106100a95760003560e01c806382c947b71161007157806382c947b714610152578063886d3db91461017a5780638ee8306b1461018b578063b39ef9c81461019e578063ceff496d146101c5578063fc2f7cff146101d857600080fd5b80632bd16c8f146100ae5780634506fd26146100f257806357fa4508146101075780635e92e6921461011a57806368447c931461013d575b600080fd5b6100d57f000000000000000000000000000000000000000000000000000000000000000081565b6040516001600160a01b0390911681526020015b60405180910390f35b610105610100366004610aa8565b6101e0565b005b610105610115366004610b60565b61040b565b61012d610128366004610be1565b610587565b6040516100e99493929190610c95565b61014561075c565b6040516100e99190610d6d565b61016c610160366004610d87565b6001600160a01b031690565b6040519081526020016100e9565b61016c610188366004610da4565b90565b610145610199366004610dda565b6107ea565b6101ac610188366004610da4565b6040516001600160e01b031990911681526020016100e9565b6000546100d5906001600160a01b031681565b610145610990565b604080516001808252818301909252600091816020015b6040805160e0810182526000808252602080830182905292820181905260608083018290526080830182905260a083015260c082015282526000199092019101816101f7579050509050868160008151811061025557610255610ec8565b6020026020010151600001906001600160a01b031690816001600160a01b031681525050858160008151811061028d5761028d610ec8565b6020026020010151602001906001600160a01b031690816001600160a01b03168152505084816000815181106102c5576102c5610ec8565b6020026020010151604001906001600160a01b031690816001600160a01b03168152505083816000815181106102fd576102fd610ec8565b6020026020010151606001906001600160a01b031690816001600160a01b031681525050828160008151811061033557610335610ec8565b60200260200101516080018181525050818160008151811061035957610359610ec8565b602002602001015160a0018190525060018160008151811061037d5761037d610ec8565b602090810291909101015190151560c0909101526000546040516308c6141b60e31b81526001600160a01b0390911690634630a0d8906103cd908d906001906002908f908f908990600401610fbc565b600060405180830381600087803b1580156103e757600080fd5b505af11580156103fb573d6000803e3d6000fd5b5050505050505050505050505050565b60008060008061041a89610587565b935093509350935060008251600261043291906110dd565b67ffffffffffffffff81111561044a5761044a6109f1565b604051908082528060200260200182016040528015610473578160200160208202803683370190505b509050868160008151811061048a5761048a610ec8565b60200260200101906001600160a01b031690816001600160a01b03168152505060005b8351811015610505578381815181106104c8576104c8610ec8565b60200260200101518282600101815181106104e5576104e5610ec8565b6001600160a01b03909216602092830291909101909101526001016104ad565b5085816001835161051691906110f6565b8151811061052657610526610ec8565b6001600160a01b03929092166020928302919091019091015283518251600091610554918c919085906107ea565b60208701518751875192935090918c91610578918d9060801c85808f8f888b6101e0565b50505050505050505050505050565b61058f61099d565b6105976109bb565b60606105a16109bb565b6048855110156105f75760405162461bcd60e51b815260206004820152601a60248201527f44617461206c656e677468206d757374206265203e3d20373221000000000000604482015260640160405180910390fd5b6105ff61099d565b6106076109bb565b61060f61099d565b6106176109bb565b602089810151855260408a0151845260508a015160601c90850152606489015181528851605c0361064a57605c89015182525b885160700361066557605c8901518252607089015160208301525b6000805b60028110156106ad57600084826002811061068657610686610ec8565b60200201516001600160a01b0316146106a5576106a282611109565b91505b600101610669565b5060008167ffffffffffffffff8111156106c9576106c96109f1565b6040519080825280602002602001820160405280156106f2578160200160208202803683370190505b50905060005b828110156107495784816002811061071257610712610ec8565b602002015182828151811061072957610729610ec8565b6001600160a01b03909216602092830291909101909101526001016106f8565b50949a9399509397509550909350505050565b6002805461076990610ede565b80601f016020809104026020016040519081016040528092919081815260200182805461079590610ede565b80156107e25780601f106107b7576101008083540402835291602001916107e2565b820191906000526020600020905b8154815290600101906020018083116107c557829003601f168201915b505050505081565b60606338ed173960e01b60a0600083815b87518110156108a05760006001600160a01b031688828151811061082157610821610ec8565b60200260200101516001600160a01b031614610890578161086189838151811061084d5761084d610ec8565b60200260200101516001600160a01b031690565b604051602001610872929190611122565b60405160208183030381529060405291508261088d90611109565b92505b61089981611109565b90506107fb565b506040516108b5908290600090602001611144565b60408051808303601f19018152828252600060208401526001600160801b03198b166030840152925085918b91016040516020818303038152906040526108fb90611170565b856001600160a01b037f00000000000000000000000000000000000000000000000000000000000000001660408051600060208201526001600160e01b03198d16603c8201520160405160208183030381529060405261095a90611170565b6040516109739695949392919089908990602001611194565b604051602081830303815290604052945050505050949350505050565b6001805461076990610ede565b60405180604001604052806002906020820280368337509192915050565b60405180602001604052806001906020820280368337509192915050565b6001600160a01b03811681146109ee57600080fd5b50565b634e487b7160e01b600052604160045260246000fd5b604051601f8201601f1916810167ffffffffffffffff81118282101715610a3057610a306109f1565b604052919050565b600082601f830112610a4957600080fd5b813567ffffffffffffffff811115610a6357610a636109f1565b610a76601f8201601f1916602001610a07565b818152846020838601011115610a8b57600080fd5b816020850160208301376000918101602001919091529392505050565b60008060008060008060008060006101208a8c031215610ac757600080fd5b8935985060208a0135610ad9816109d9565b975060408a0135965060608a0135610af0816109d9565b955060808a0135610b00816109d9565b945060a08a0135610b10816109d9565b935060c08a0135610b20816109d9565b925060e08a013591506101008a013567ffffffffffffffff811115610b4457600080fd5b610b508c828d01610a38565b9150509295985092959850929598565b600080600080600060a08688031215610b7857600080fd5b853567ffffffffffffffff811115610b8f57600080fd5b610b9b88828901610a38565b955050602086013593506040860135610bb3816109d9565b92506060860135610bc3816109d9565b91506080860135610bd3816109d9565b809150509295509295909350565b600060208284031215610bf357600080fd5b813567ffffffffffffffff811115610c0a57600080fd5b610c1684828501610a38565b949350505050565b600081518084526020808501945080840160005b83811015610c575781516001600160a01b031687529582019590820190600101610c32565b509495945050505050565b8060005b6001811015610c8f5781516001600160e01b031916845260209384019390910190600101610c66565b50505050565b60008186825b6002811015610cba578151835260209283019290910190600101610c9b565b505050604082018560005b6001811015610cee5781516001600160801b031916835260209283019290910190600101610cc5565b50505060a06060830152610d0560a0830185610c1e565b9050610d146080830184610c62565b95945050505050565b60005b83811015610d38578181015183820152602001610d20565b50506000910152565b60008151808452610d59816020860160208601610d1d565b601f01601f19169290920160200192915050565b602081526000610d806020830184610d41565b9392505050565b600060208284031215610d9957600080fd5b8135610d80816109d9565b600060208284031215610db657600080fd5b5035919050565b80356001600160e01b031981168114610dd557600080fd5b919050565b60008060008060808587031215610df057600080fd5b843593506020808601356001600160801b031981168114610e1057600080fd5b9350604086013567ffffffffffffffff80821115610e2d57600080fd5b818801915088601f830112610e4157600080fd5b813581811115610e5357610e536109f1565b8060051b9150610e64848301610a07565b818152918301840191848101908b841115610e7e57600080fd5b938501935b83851015610ea85784359250610e98836109d9565b8282529385019390850190610e83565b809750505050505050610ebd60608601610dbd565b905092959194509250565b634e487b7160e01b600052603260045260246000fd5b600181811c90821680610ef257607f821691505b602082108103610f1257634e487b7160e01b600052602260045260246000fd5b50919050565b8054600090600181811c9080831680610f3257607f831692505b60208084108203610f5357634e487b7160e01b600052602260045260246000fd5b83885260208801828015610f6e5760018114610f8457610faf565b60ff198716825285151560051b82019750610faf565b60008981526020902060005b87811015610fa957815484820152908601908401610f90565b83019850505b5050505050505092915050565b600060c088835260208181850152610fd68285018a610f18565b604085820381870152610fe9828b610f18565b9150606060018060a01b03808b168289015260808a818a015260a0898603818b0152858b518088528888019150888160051b890101898e0160005b838110156110ac57601f198b840301855281518051891684528c81015189168d8501528a81015189168b850152898101516001600160a01b03168a85015287810151888501528681015160e08886018190529061108382870182610d41565b9150508e82015191506110998f86018315159052565b958d0195935050908b0190600101611024565b5050809b505050505050505050505050979650505050505050565b634e487b7160e01b600052601160045260246000fd5b808201808211156110f0576110f06110c7565b92915050565b818103818111156110f0576110f06110c7565b60006001820161111b5761111b6110c7565b5060010190565b60008351611134818460208801610d1d565b9190910191825250602001919050565b60008351611156818460208801610d1d565b63ffffffff199390931691909201908152601c0192915050565b80516020808301519190811015610f125760001960209190910360031b1b16919050565b63ffffffff60e01b891681528760048201528660248201528560448201528460648201528360848201528260a4820152600082516111d98160c4850160208701610d1d565b9190910160c401999850505050505050505056fea264697066735822122033f90832a53d6f3bdf7fd3195a59c6c189419c4436b683bf6847d9221ba4d21164736f6c63430008140033307830303030303030303030303030303030303030303030303030303030303030303030303030303030",
    "linkReferences": {}
  },
  "methodIdentifiers": {
    "ConcatCalldata(uint256,bytes16,address[],bytes4)": "8ee8306b",
    "addressToBytes32(address)": "82c947b7",
    "bytes32tobytes4(bytes32)": "b39ef9c8",
    "genericSwapFacet()": "ceff496d",
    "integrator()": "fc2f7cff",
    "lifiDiamond()": "2bd16c8f",
    "readResponseAndSwap(bytes,uint256,address,address,address)": "57fa4508",
    "referrer()": "68447c93",
    "swap(bytes32,address,uint256,address,address,address,address,uint256,bytes)": "4506fd26",
    "uintToBytes32(uint256)": "886d3db9",
    "unpackBytes(bytes)": "5e92e692"
  },
  "id": 56
}