{
  "abi": [
    {
      "inputs": [],
      "stateMutability": "nonpayable",
      "type": "constructor"
    },
    {
      "inputs": [
        {
          "internalType": "int256",
          "name": "fuzz",
          "type": "int256"
        }
      ],
      "name": "_batchQuery",
      "outputs": [
        {
          "internalType": "uint256[]",
          "name": "",
          "type": "uint256[]"
        }
      ],
      "stateMutability": "view",
      "type": "function"
    },
    {
      "inputs": [
        {
          "internalType": "address[]",
          "name": "tokenAddresses",
          "type": "address[]"
        }
      ],
      "name": "_mapAddresses",
      "outputs": [],
      "stateMutability": "nonpayable",
      "type": "function"
    },
    {
      "inputs": [],
      "name": "addressMappinglength",
      "outputs": [
        {
          "internalType": "uint256",
          "name": "",
          "type": "uint256"
        }
      ],
      "stateMutability": "view",
      "type": "function"
    },
    {
      "inputs": [
        {
          "internalType": "address",
          "name": "feedAddress",
          "type": "address"
        },
        {
          "internalType": "int256",
          "name": "answer",
          "type": "int256"
        }
      ],
      "name": "getChainlinkDataFeedLatestAnswer",
      "outputs": [
        {
          "internalType": "int256",
          "name": "",
          "type": "int256"
        }
      ],
      "stateMutability": "view",
      "type": "function"
    },
    {
      "inputs": [
        {
          "internalType": "int256",
          "name": "price",
          "type": "int256"
        }
      ],
      "name": "reseizeDecimals",
      "outputs": [
        {
          "internalType": "uint256",
          "name": "",
          "type": "uint256"
        }
      ],
      "stateMutability": "pure",
      "type": "function"
    },
    {
      "inputs": [
        {
          "internalType": "address",
          "name": "",
          "type": "address"
        }
      ],
      "name": "tokenAllowed",
      "outputs": [
        {
          "internalType": "bool",
          "name": "",
          "type": "bool"
        }
      ],
      "stateMutability": "view",
      "type": "function"
    },
    {
      "inputs": [
        {
          "internalType": "address",
          "name": "",
          "type": "address"
        }
      ],
      "name": "tokenIndexes",
      "outputs": [
        {
          "internalType": "uint256",
          "name": "",
          "type": "uint256"
        }
      ],
      "stateMutability": "view",
      "type": "function"
    }
  ],
  "bytecode": {
    "object": "0x60e060405273d0d5e3db44de05e9f294bb0a3beeaf030de24ada6080908152731c2252aeed50e0c9b64bdff2735ee3c932f5c40860a052730715a7794a1dc8e42615f059dd6e406a6594651a60c05261005c90600090600361006f565b5034801561006957600080fd5b506100e9565b8280548282559060005260206000209081019282156100c4579160200282015b828111156100c457825182546001600160a01b0319166001600160a01b0390911617825560209092019160019091019061008f565b506100d09291506100d4565b5090565b5b808211156100d057600081556001016100d5565b6104d7806100f86000396000f3fe608060405234801561001057600080fd5b506004361061007d5760003560e01c8063289e5bb91161005b578063289e5bb9146100e857806355219d5a146100fb578063cdbd37591461012e578063d16360951461014357600080fd5b806304bc3b1c146100825780630b790986146100b55780630e372ff0146100d5575b600080fd5b6100a2610090366004610335565b60026020526000908152604090205481565b6040519081526020015b60405180910390f35b6100c86100c3366004610357565b61014c565b6040516100ac9190610370565b6100a26100e3366004610357565b6101f1565b6100a26100f63660046103b4565b919050565b61011e610109366004610335565b60036020526000908152604090205460ff1681565b60405190151581526020016100ac565b61014161013c3660046103de565b610204565b005b6100a260015481565b600080546060918167ffffffffffffffff81111561016c5761016c610453565b604051908082528060200260200182016040528015610195578160200160208202803683370190505b50905060005b828110156101e9576101c46100e3600083815481106101bc576101bc610469565b506000528690565b8282815181106101d6576101d6610469565b602090810291909101015260010161019b565b509392505050565b60006101fe60648361047f565b92915050565b60005b81811015610319576003600084848481811061022557610225610469565b905060200201602081019061023a9190610335565b6001600160a01b03168152602081019190915260400160009081205460ff1615159003610311576001546002600085858581811061027a5761027a610469565b905060200201602081019061028f9190610335565b6001600160a01b03166001600160a01b03168152602001908152602001600020819055506001600360008585858181106102cb576102cb610469565b90506020020160208101906102e09190610335565b6001600160a01b031681526020810191909152604001600020805460ff191691151591909117905560018054810190555b600101610207565b505050565b80356001600160a01b03811681146100f657600080fd5b60006020828403121561034757600080fd5b6103508261031e565b9392505050565b60006020828403121561036957600080fd5b5035919050565b6020808252825182820181905260009190848201906040850190845b818110156103a85783518352928401929184019160010161038c565b50909695505050505050565b600080604083850312156103c757600080fd5b6103d08361031e565b946020939093013593505050565b600080602083850312156103f157600080fd5b823567ffffffffffffffff8082111561040957600080fd5b818501915085601f83011261041d57600080fd5b81358181111561042c57600080fd5b8660208260051b850101111561044157600080fd5b60209290920196919550909350505050565b634e487b7160e01b600052604160045260246000fd5b634e487b7160e01b600052603260045260246000fd5b60008261049c57634e487b7160e01b600052601260045260246000fd5b50049056fea26469706673582212206390391ac82d3d72847a6f36eea9ed9550ca32b83689277e43d9a62f3ee8f51164736f6c63430008140033",
    "linkReferences": {}
  },
  "methodIdentifiers": {
    "_batchQuery(int256)": "0b790986",
    "_mapAddresses(address[])": "cdbd3759",
    "addressMappinglength()": "d1636095",
    "getChainlinkDataFeedLatestAnswer(address,int256)": "289e5bb9",
    "reseizeDecimals(int256)": "0e372ff0",
    "tokenAllowed(address)": "55219d5a",
    "tokenIndexes(address)": "04bc3b1c"
  },
  "id": 47
}