{
  "abi": [
    {
      "inputs": [
        {
          "internalType": "address",
          "name": "_router",
          "type": "address"
        }
      ],
      "stateMutability": "nonpayable",
      "type": "constructor"
    },
    {
      "inputs": [],
      "name": "EmptyArgs",
      "type": "error"
    },
    {
      "inputs": [],
      "name": "EmptySource",
      "type": "error"
    },
    {
      "inputs": [
        {
          "internalType": "address",
          "name": "caller",
          "type": "address"
        },
        {
          "internalType": "address",
          "name": "owner",
          "type": "address"
        },
        {
          "internalType": "address",
          "name": "automationRegistry",
          "type": "address"
        }
      ],
      "name": "NotAllowedCaller",
      "type": "error"
    },
    {
      "inputs": [],
      "name": "OnlyRouterCanFulfill",
      "type": "error"
    },
    {
      "anonymous": false,
      "inputs": [
        {
          "indexed": true,
          "internalType": "address",
          "name": "user",
          "type": "address"
        },
        {
          "components": [
            {
              "internalType": "address",
              "name": "user",
              "type": "address"
            },
            {
              "internalType": "address",
              "name": "tokenIn",
              "type": "address"
            },
            {
              "internalType": "address",
              "name": "tokenOut",
              "type": "address"
            },
            {
              "internalType": "uint256",
              "name": "timeInterval",
              "type": "uint256"
            },
            {
              "internalType": "uint256",
              "name": "nextExecution",
              "type": "uint256"
            },
            {
              "internalType": "uint256",
              "name": "amount",
              "type": "uint256"
            },
            {
              "internalType": "uint256",
              "name": "limit",
              "type": "uint256"
            },
            {
              "internalType": "bytes",
              "name": "lastResponse",
              "type": "bytes"
            }
          ],
          "indexed": false,
          "internalType": "struct ILighterFi.UserStrategy",
          "name": "userStrategy",
          "type": "tuple"
        },
        {
          "indexed": false,
          "internalType": "uint256",
          "name": "strategyIndex",
          "type": "uint256"
        }
      ],
      "name": "NewUserStrategy",
      "type": "event"
    },
    {
      "anonymous": false,
      "inputs": [
        {
          "indexed": true,
          "internalType": "address",
          "name": "from",
          "type": "address"
        },
        {
          "indexed": true,
          "internalType": "address",
          "name": "to",
          "type": "address"
        }
      ],
      "name": "OwnershipTransferRequested",
      "type": "event"
    },
    {
      "anonymous": false,
      "inputs": [
        {
          "indexed": true,
          "internalType": "address",
          "name": "from",
          "type": "address"
        },
        {
          "indexed": true,
          "internalType": "address",
          "name": "to",
          "type": "address"
        }
      ],
      "name": "OwnershipTransferred",
      "type": "event"
    },
    {
      "anonymous": false,
      "inputs": [
        {
          "indexed": true,
          "internalType": "address",
          "name": "user",
          "type": "address"
        },
        {
          "indexed": false,
          "internalType": "uint256",
          "name": "strategyIndex",
          "type": "uint256"
        }
      ],
      "name": "RemovedUserStrategy",
      "type": "event"
    },
    {
      "anonymous": false,
      "inputs": [
        {
          "indexed": true,
          "internalType": "bytes32",
          "name": "id",
          "type": "bytes32"
        }
      ],
      "name": "RequestFulfilled",
      "type": "event"
    },
    {
      "anonymous": false,
      "inputs": [
        {
          "indexed": true,
          "internalType": "bytes32",
          "name": "requestId",
          "type": "bytes32"
        },
        {
          "indexed": false,
          "internalType": "uint256",
          "name": "strategyIndex",
          "type": "uint256"
        }
      ],
      "name": "RequestReceived",
      "type": "event"
    },
    {
      "anonymous": false,
      "inputs": [
        {
          "indexed": true,
          "internalType": "bytes32",
          "name": "id",
          "type": "bytes32"
        }
      ],
      "name": "RequestSent",
      "type": "event"
    },
    {
      "anonymous": false,
      "inputs": [
        {
          "indexed": true,
          "internalType": "bytes32",
          "name": "requestId",
          "type": "bytes32"
        },
        {
          "indexed": false,
          "internalType": "bytes",
          "name": "response",
          "type": "bytes"
        },
        {
          "indexed": false,
          "internalType": "bytes",
          "name": "err",
          "type": "bytes"
        }
      ],
      "name": "Response",
      "type": "event"
    },
    {
      "anonymous": false,
      "inputs": [
        {
          "indexed": true,
          "internalType": "bytes32",
          "name": "requestId",
          "type": "bytes32"
        },
        {
          "indexed": false,
          "internalType": "uint256",
          "name": "strategyIndex",
          "type": "uint256"
        },
        {
          "indexed": false,
          "internalType": "uint256",
          "name": "amountIn",
          "type": "uint256"
        },
        {
          "indexed": false,
          "internalType": "address",
          "name": "user",
          "type": "address"
        },
        {
          "indexed": false,
          "internalType": "address",
          "name": "tokenIn",
          "type": "address"
        },
        {
          "indexed": false,
          "internalType": "address",
          "name": "tokenOut",
          "type": "address"
        }
      ],
      "name": "SwapExecuted",
      "type": "event"
    },
    {
      "anonymous": false,
      "inputs": [
        {
          "indexed": true,
          "internalType": "address",
          "name": "user",
          "type": "address"
        },
        {
          "components": [
            {
              "internalType": "address",
              "name": "user",
              "type": "address"
            },
            {
              "internalType": "address",
              "name": "tokenIn",
              "type": "address"
            },
            {
              "internalType": "address",
              "name": "tokenOut",
              "type": "address"
            },
            {
              "internalType": "uint256",
              "name": "timeInterval",
              "type": "uint256"
            },
            {
              "internalType": "uint256",
              "name": "nextExecution",
              "type": "uint256"
            },
            {
              "internalType": "uint256",
              "name": "amount",
              "type": "uint256"
            },
            {
              "internalType": "uint256",
              "name": "limit",
              "type": "uint256"
            },
            {
              "internalType": "bytes",
              "name": "lastResponse",
              "type": "bytes"
            }
          ],
          "indexed": false,
          "internalType": "struct ILighterFi.UserStrategy",
          "name": "userStrategy",
          "type": "tuple"
        },
        {
          "indexed": false,
          "internalType": "uint256",
          "name": "strategyIndex",
          "type": "uint256"
        }
      ],
      "name": "UpdatedUserStrategy",
      "type": "event"
    },
    {
      "inputs": [
        {
          "internalType": "uint256",
          "name": "amountIn",
          "type": "uint256"
        },
        {
          "internalType": "bytes16",
          "name": "minAmount",
          "type": "bytes16"
        },
        {
          "internalType": "address[]",
          "name": "path",
          "type": "address[]"
        },
        {
          "internalType": "bytes4",
          "name": "routerSelector",
          "type": "bytes4"
        }
      ],
      "name": "ConcatCalldata",
      "outputs": [
        {
          "internalType": "bytes",
          "name": "",
          "type": "bytes"
        }
      ],
      "stateMutability": "view",
      "type": "function"
    },
    {
      "inputs": [
        {
          "internalType": "int256",
          "name": "fuzz",
          "type": "int256"
        }
      ],
      "name": "_batchQuery",
      "outputs": [
        {
          "internalType": "uint256[]",
          "name": "",
          "type": "uint256[]"
        }
      ],
      "stateMutability": "view",
      "type": "function"
    },
    {
      "inputs": [
        {
          "internalType": "address[]",
          "name": "tokenAddresses",
          "type": "address[]"
        }
      ],
      "name": "_mapAddresses",
      "outputs": [],
      "stateMutability": "nonpayable",
      "type": "function"
    },
    {
      "inputs": [],
      "name": "acceptOwnership",
      "outputs": [],
      "stateMutability": "nonpayable",
      "type": "function"
    },
    {
      "inputs": [],
      "name": "addressMappinglength",
      "outputs": [
        {
          "internalType": "uint256",
          "name": "",
          "type": "uint256"
        }
      ],
      "stateMutability": "view",
      "type": "function"
    },
    {
      "inputs": [
        {
          "internalType": "address",
          "name": "addr",
          "type": "address"
        }
      ],
      "name": "addressToBytes32",
      "outputs": [
        {
          "internalType": "bytes32",
          "name": "",
          "type": "bytes32"
        }
      ],
      "stateMutability": "pure",
      "type": "function"
    },
    {
      "inputs": [
        {
          "internalType": "address",
          "name": "a",
          "type": "address"
        },
        {
          "internalType": "uint256",
          "name": "am",
          "type": "uint256"
        },
        {
          "internalType": "address",
          "name": "to",
          "type": "address"
        }
      ],
      "name": "bal",
      "outputs": [],
      "stateMutability": "nonpayable",
      "type": "function"
    },
    {
      "inputs": [
        {
          "internalType": "bytes32",
          "name": "b32",
          "type": "bytes32"
        }
      ],
      "name": "bytes32tobytes4",
      "outputs": [
        {
          "internalType": "bytes4",
          "name": "",
          "type": "bytes4"
        }
      ],
      "stateMutability": "pure",
      "type": "function"
    },
    {
      "inputs": [
        {
          "components": [
            {
              "internalType": "uint256",
              "name": "index",
              "type": "uint256"
            },
            {
              "internalType": "uint256",
              "name": "timestamp",
              "type": "uint256"
            },
            {
              "internalType": "bytes32",
              "name": "txHash",
              "type": "bytes32"
            },
            {
              "internalType": "uint256",
              "name": "blockNumber",
              "type": "uint256"
            },
            {
              "internalType": "bytes32",
              "name": "blockHash",
              "type": "bytes32"
            },
            {
              "internalType": "address",
              "name": "source",
              "type": "address"
            },
            {
              "internalType": "bytes32[]",
              "name": "topics",
              "type": "bytes32[]"
            },
            {
              "internalType": "bytes",
              "name": "data",
              "type": "bytes"
            }
          ],
          "internalType": "struct Log",
          "name": "log",
          "type": "tuple"
        },
        {
          "internalType": "bytes",
          "name": "",
          "type": "bytes"
        }
      ],
      "name": "checkLog",
      "outputs": [
        {
          "internalType": "bool",
          "name": "upkeepNeeded",
          "type": "bool"
        },
        {
          "internalType": "bytes",
          "name": "performData",
          "type": "bytes"
        }
      ],
      "stateMutability": "pure",
      "type": "function"
    },
    {
      "inputs": [
        {
          "internalType": "bytes",
          "name": "",
          "type": "bytes"
        },
        {
          "internalType": "int256",
          "name": "fuzz",
          "type": "int256"
        }
      ],
      "name": "checkUpkeep",
      "outputs": [
        {
          "internalType": "bool",
          "name": "upkeepNeeded",
          "type": "bool"
        },
        {
          "internalType": "bytes",
          "name": "performData",
          "type": "bytes"
        }
      ],
      "stateMutability": "view",
      "type": "function"
    },
    {
      "inputs": [
        {
          "internalType": "address",
          "name": "tokenFrom",
          "type": "address"
        },
        {
          "internalType": "address",
          "name": "tokenTo",
          "type": "address"
        },
        {
          "internalType": "uint256",
          "name": "timeInterval",
          "type": "uint256"
        },
        {
          "internalType": "uint256",
          "name": "tokenInAmount",
          "type": "uint256"
        },
        {
          "internalType": "uint256",
          "name": "limit",
          "type": "uint256"
        }
      ],
      "name": "createStrategy",
      "outputs": [],
      "stateMutability": "nonpayable",
      "type": "function"
    },
    {
      "inputs": [],
      "name": "donID",
      "outputs": [
        {
          "internalType": "bytes32",
          "name": "",
          "type": "bytes32"
        }
      ],
      "stateMutability": "view",
      "type": "function"
    },
    {
      "inputs": [
        {
          "internalType": "bytes32",
          "name": "requestId",
          "type": "bytes32"
        },
        {
          "internalType": "bytes",
          "name": "response",
          "type": "bytes"
        },
        {
          "internalType": "bytes",
          "name": "err",
          "type": "bytes"
        }
      ],
      "name": "fulfillRequest",
      "outputs": [],
      "stateMutability": "nonpayable",
      "type": "function"
    },
    {
      "inputs": [],
      "name": "gasLimit",
      "outputs": [
        {
          "internalType": "uint32",
          "name": "",
          "type": "uint32"
        }
      ],
      "stateMutability": "view",
      "type": "function"
    },
    {
      "inputs": [
        {
          "internalType": "address",
          "name": "_tokenFrom",
          "type": "address"
        },
        {
          "internalType": "address",
          "name": "_tokenTo",
          "type": "address"
        },
        {
          "internalType": "address",
          "name": "user",
          "type": "address"
        },
        {
          "internalType": "uint256",
          "name": "amount",
          "type": "uint256"
        }
      ],
      "name": "generateArgForRequest",
      "outputs": [
        {
          "internalType": "string[]",
          "name": "",
          "type": "string[]"
        }
      ],
      "stateMutability": "pure",
      "type": "function"
    },
    {
      "inputs": [],
      "name": "genericSwapFacet",
      "outputs": [
        {
          "internalType": "contract IGenericSwapFacet",
          "name": "",
          "type": "address"
        }
      ],
      "stateMutability": "view",
      "type": "function"
    },
    {
      "inputs": [
        {
          "internalType": "address",
          "name": "feedAddress",
          "type": "address"
        },
        {
          "internalType": "int256",
          "name": "answer",
          "type": "int256"
        }
      ],
      "name": "getChainlinkDataFeedLatestAnswer",
      "outputs": [
        {
          "internalType": "int256",
          "name": "",
          "type": "int256"
        }
      ],
      "stateMutability": "view",
      "type": "function"
    },
    {
      "inputs": [
        {
          "internalType": "bytes32",
          "name": "requestId",
          "type": "bytes32"
        },
        {
          "internalType": "bytes",
          "name": "response",
          "type": "bytes"
        },
        {
          "internalType": "bytes",
          "name": "err",
          "type": "bytes"
        }
      ],
      "name": "handleOracleFulfillment",
      "outputs": [],
      "stateMutability": "nonpayable",
      "type": "function"
    },
    {
      "inputs": [
        {
          "internalType": "address",
          "name": "_usdcAddress",
          "type": "address"
        },
        {
          "internalType": "uint32",
          "name": "_gasLimit",
          "type": "uint32"
        },
        {
          "internalType": "bytes32",
          "name": "_donID",
          "type": "bytes32"
        },
        {
          "internalType": "uint64",
          "name": "_subscriptionId",
          "type": "uint64"
        },
        {
          "internalType": "address",
          "name": "_upkeepContract1",
          "type": "address"
        },
        {
          "internalType": "address",
          "name": "_upkeepContract2",
          "type": "address"
        }
      ],
      "name": "init",
      "outputs": [],
      "stateMutability": "nonpayable",
      "type": "function"
    },
    {
      "inputs": [],
      "name": "integrator",
      "outputs": [
        {
          "internalType": "string",
          "name": "",
          "type": "string"
        }
      ],
      "stateMutability": "view",
      "type": "function"
    },
    {
      "inputs": [],
      "name": "isInitialized",
      "outputs": [
        {
          "internalType": "bool",
          "name": "",
          "type": "bool"
        }
      ],
      "stateMutability": "view",
      "type": "function"
    },
    {
      "inputs": [],
      "name": "isPaused",
      "outputs": [
        {
          "internalType": "bool",
          "name": "",
          "type": "bool"
        }
      ],
      "stateMutability": "view",
      "type": "function"
    },
    {
      "inputs": [],
      "name": "lifiDiamond",
      "outputs": [
        {
          "internalType": "address",
          "name": "",
          "type": "address"
        }
      ],
      "stateMutability": "view",
      "type": "function"
    },
    {
      "inputs": [
        {
          "internalType": "address[]",
          "name": "tokenAddresses",
          "type": "address[]"
        }
      ],
      "name": "mapAddresses",
      "outputs": [],
      "stateMutability": "nonpayable",
      "type": "function"
    },
    {
      "inputs": [],
      "name": "owner",
      "outputs": [
        {
          "internalType": "address",
          "name": "",
          "type": "address"
        }
      ],
      "stateMutability": "view",
      "type": "function"
    },
    {
      "inputs": [
        {
          "internalType": "bytes",
          "name": "performData",
          "type": "bytes"
        }
      ],
      "name": "performUpkeep",
      "outputs": [],
      "stateMutability": "nonpayable",
      "type": "function"
    },
    {
      "inputs": [
        {
          "internalType": "bytes",
          "name": "data",
          "type": "bytes"
        },
        {
          "internalType": "uint256",
          "name": "amountIn",
          "type": "uint256"
        },
        {
          "internalType": "address",
          "name": "receiver",
          "type": "address"
        },
        {
          "internalType": "address",
          "name": "tokenFrom",
          "type": "address"
        },
        {
          "internalType": "address",
          "name": "tokenTo",
          "type": "address"
        }
      ],
      "name": "readResponseAndSwap",
      "outputs": [],
      "stateMutability": "nonpayable",
      "type": "function"
    },
    {
      "inputs": [],
      "name": "referrer",
      "outputs": [
        {
          "internalType": "string",
          "name": "",
          "type": "string"
        }
      ],
      "stateMutability": "view",
      "type": "function"
    },
    {
      "inputs": [
        {
          "internalType": "uint256",
          "name": "index",
          "type": "uint256"
        }
      ],
      "name": "removeStrategy",
      "outputs": [],
      "stateMutability": "nonpayable",
      "type": "function"
    },
    {
      "inputs": [
        {
          "internalType": "bytes32",
          "name": "",
          "type": "bytes32"
        }
      ],
      "name": "requestsIds",
      "outputs": [
        {
          "internalType": "uint256",
          "name": "",
          "type": "uint256"
        }
      ],
      "stateMutability": "view",
      "type": "function"
    },
    {
      "inputs": [
        {
          "internalType": "int256",
          "name": "price",
          "type": "int256"
        }
      ],
      "name": "reseizeDecimals",
      "outputs": [
        {
          "internalType": "uint256",
          "name": "",
          "type": "uint256"
        }
      ],
      "stateMutability": "pure",
      "type": "function"
    },
    {
      "inputs": [
        {
          "internalType": "uint256",
          "name": "",
          "type": "uint256"
        }
      ],
      "name": "s_usersStrategies",
      "outputs": [
        {
          "internalType": "address",
          "name": "user",
          "type": "address"
        },
        {
          "internalType": "address",
          "name": "tokenIn",
          "type": "address"
        },
        {
          "internalType": "address",
          "name": "tokenOut",
          "type": "address"
        },
        {
          "internalType": "uint256",
          "name": "timeInterval",
          "type": "uint256"
        },
        {
          "internalType": "uint256",
          "name": "nextExecution",
          "type": "uint256"
        },
        {
          "internalType": "uint256",
          "name": "amount",
          "type": "uint256"
        },
        {
          "internalType": "uint256",
          "name": "limit",
          "type": "uint256"
        },
        {
          "internalType": "bytes",
          "name": "lastResponse",
          "type": "bytes"
        }
      ],
      "stateMutability": "view",
      "type": "function"
    },
    {
      "inputs": [],
      "name": "s_usersStrategiesLength",
      "outputs": [
        {
          "internalType": "uint256",
          "name": "",
          "type": "uint256"
        }
      ],
      "stateMutability": "view",
      "type": "function"
    },
    {
      "inputs": [
        {
          "internalType": "uint256",
          "name": "index",
          "type": "uint256"
        }
      ],
      "name": "sendRequest",
      "outputs": [],
      "stateMutability": "nonpayable",
      "type": "function"
    },
    {
      "inputs": [
        {
          "internalType": "bool",
          "name": "pause",
          "type": "bool"
        }
      ],
      "name": "setPause",
      "outputs": [
        {
          "internalType": "bool",
          "name": "",
          "type": "bool"
        }
      ],
      "stateMutability": "nonpayable",
      "type": "function"
    },
    {
      "inputs": [
        {
          "internalType": "address",
          "name": "_upkeepContract1",
          "type": "address"
        },
        {
          "internalType": "address",
          "name": "_upkeepContract2",
          "type": "address"
        }
      ],
      "name": "setUpkeepForwarders",
      "outputs": [],
      "stateMutability": "nonpayable",
      "type": "function"
    },
    {
      "inputs": [],
      "name": "strategyIndex",
      "outputs": [
        {
          "internalType": "uint256",
          "name": "",
          "type": "uint256"
        }
      ],
      "stateMutability": "view",
      "type": "function"
    },
    {
      "inputs": [],
      "name": "subscriptionId",
      "outputs": [
        {
          "internalType": "uint64",
          "name": "",
          "type": "uint64"
        }
      ],
      "stateMutability": "view",
      "type": "function"
    },
    {
      "inputs": [
        {
          "internalType": "bytes32",
          "name": "_transactionId",
          "type": "bytes32"
        },
        {
          "internalType": "address payable",
          "name": "_receiver",
          "type": "address"
        },
        {
          "internalType": "uint256",
          "name": "_minAmount",
          "type": "uint256"
        },
        {
          "internalType": "address",
          "name": "_callTo",
          "type": "address"
        },
        {
          "internalType": "address",
          "name": "_approveTo",
          "type": "address"
        },
        {
          "internalType": "address",
          "name": "_sendingAssetId",
          "type": "address"
        },
        {
          "internalType": "address",
          "name": "_receivingAssetId",
          "type": "address"
        },
        {
          "internalType": "uint256",
          "name": "_fromAmount",
          "type": "uint256"
        },
        {
          "internalType": "bytes",
          "name": "_calldata",
          "type": "bytes"
        }
      ],
      "name": "swap",
      "outputs": [],
      "stateMutability": "nonpayable",
      "type": "function"
    },
    {
      "inputs": [
        {
          "internalType": "address",
          "name": "",
          "type": "address"
        }
      ],
      "name": "tokenAllowed",
      "outputs": [
        {
          "internalType": "bool",
          "name": "",
          "type": "bool"
        }
      ],
      "stateMutability": "view",
      "type": "function"
    },
    {
      "inputs": [
        {
          "internalType": "address",
          "name": "",
          "type": "address"
        }
      ],
      "name": "tokenIndexes",
      "outputs": [
        {
          "internalType": "uint256",
          "name": "",
          "type": "uint256"
        }
      ],
      "stateMutability": "view",
      "type": "function"
    },
    {
      "inputs": [
        {
          "internalType": "address",
          "name": "to",
          "type": "address"
        }
      ],
      "name": "transferOwnership",
      "outputs": [],
      "stateMutability": "nonpayable",
      "type": "function"
    },
    {
      "inputs": [
        {
          "internalType": "uint256",
          "name": "u256",
          "type": "uint256"
        }
      ],
      "name": "uintToBytes32",
      "outputs": [
        {
          "internalType": "bytes32",
          "name": "",
          "type": "bytes32"
        }
      ],
      "stateMutability": "pure",
      "type": "function"
    },
    {
      "inputs": [
        {
          "internalType": "uint256",
          "name": "value",
          "type": "uint256"
        }
      ],
      "name": "uintToString",
      "outputs": [
        {
          "internalType": "string",
          "name": "",
          "type": "string"
        }
      ],
      "stateMutability": "pure",
      "type": "function"
    },
    {
      "inputs": [
        {
          "internalType": "bytes",
          "name": "data",
          "type": "bytes"
        }
      ],
      "name": "unpackBytes",
      "outputs": [
        {
          "internalType": "bytes32[2]",
          "name": "",
          "type": "bytes32[2]"
        },
        {
          "internalType": "bytes16[1]",
          "name": "",
          "type": "bytes16[1]"
        },
        {
          "internalType": "address[]",
          "name": "",
          "type": "address[]"
        },
        {
          "internalType": "bytes4[1]",
          "name": "",
          "type": "bytes4[1]"
        }
      ],
      "stateMutability": "pure",
      "type": "function"
    },
    {
      "inputs": [
        {
          "internalType": "uint256",
          "name": "index",
          "type": "uint256"
        },
        {
          "internalType": "address",
          "name": "tokenFrom",
          "type": "address"
        },
        {
          "internalType": "address",
          "name": "tokenTo",
          "type": "address"
        },
        {
          "internalType": "uint256",
          "name": "timeInterval",
          "type": "uint256"
        },
        {
          "internalType": "uint256",
          "name": "amountTokenIn",
          "type": "uint256"
        },
        {
          "internalType": "uint256",
          "name": "limit",
          "type": "uint256"
        }
      ],
      "name": "upgradeStrategy",
      "outputs": [],
      "stateMutability": "nonpayable",
      "type": "function"
    },
    {
      "inputs": [],
      "name": "upkeepContract1",
      "outputs": [
        {
          "internalType": "address",
          "name": "",
          "type": "address"
        }
      ],
      "stateMutability": "view",
      "type": "function"
    },
    {
      "inputs": [],
      "name": "upkeepContract2",
      "outputs": [
        {
          "internalType": "address",
          "name": "",
          "type": "address"
        }
      ],
      "stateMutability": "view",
      "type": "function"
    },
    {
      "inputs": [],
      "name": "usdcAddress",
      "outputs": [
        {
          "internalType": "address",
          "name": "",
          "type": "address"
        }
      ],
      "stateMutability": "view",
      "type": "function"
    }
  ],
  "bytecode": {
    "object": "0x61012060405273d0d5e3db44de05e9f294bb0a3beeaf030de24ada60c0908152731c2252aeed50e0c9b64bdff2735ee3c932f5c40860e052730715a7794a1dc8e42615f059dd6e406a6594651a6101005262000060906002906003620002c6565b50731231deb6f5749ef6ce6943a275a1d3e7486f4eae60a0526040805180820190915260088152676c6966692d61706960c01b6020820152600790620000a79082620003ec565b506040518060600160405280602a8152602001620044e4602a9139600890620000d19082620003ec565b50604051806103e001604052806103a981526020016200450e6103a99139601190620000fe9082620003ec565b503480156200010c57600080fd5b50604051620048b7380380620048b78339810160408190526200012f91620004b8565b6001600160a01b0381166080523380600081620001935760405162461bcd60e51b815260206004820152601860248201527f43616e6e6f7420736574206f776e657220746f207a65726f000000000000000060448201526064015b60405180910390fd5b600080546001600160a01b0319166001600160a01b0384811691909117909155811615620001c657620001c6816200021b565b505060a051600680546001600160a01b039092166001600160a01b03199092169190911790555050600e8054600161ff0160a01b031916732791bca1f2de4661ed88a30c99a7a9449aa84174179055620004ea565b336001600160a01b03821603620002755760405162461bcd60e51b815260206004820152601760248201527f43616e6e6f74207472616e7366657220746f2073656c6600000000000000000060448201526064016200018a565b600180546001600160a01b0319166001600160a01b0383811691821790925560008054604051929316917fed8889f560326eb138920d842192f0eb3dd22b4f139c87a2c57538e05bae12789190a350565b8280548282559060005260206000209081019282156200031e579160200282015b828111156200031e57825182546001600160a01b0319166001600160a01b03909116178255602090920191600190910190620002e7565b506200032c92915062000330565b5090565b5b808211156200032c576000815560010162000331565b634e487b7160e01b600052604160045260246000fd5b600181811c908216806200037257607f821691505b6020821081036200039357634e487b7160e01b600052602260045260246000fd5b50919050565b601f821115620003e757600081815260208120601f850160051c81016020861015620003c25750805b601f850160051c820191505b81811015620003e357828155600101620003ce565b5050505b505050565b81516001600160401b0381111562000408576200040862000347565b62000420816200041984546200035d565b8462000399565b602080601f8311600181146200045857600084156200043f5750858301515b600019600386901b1c1916600185901b178555620003e3565b600085815260208120601f198616915b82811015620004895788860151825594840194600190910190840162000468565b5085821015620004a85787850151600019600388901b60f8161c191681555b5050505050600190811b01905550565b600060208284031215620004cb57600080fd5b81516001600160a01b0381168114620004e357600080fd5b9392505050565b60805160a051613fcd62000517600039600081816103e3015261222b015260006108660152613fcd6000f3fe608060405234801561001057600080fd5b50600436106102ba5760003560e01c806365170a4711610182578063b39ef9c8116100e9578063d201b264116100a2578063e93956791161007c578063e9395679146106ec578063f2fde38b146106ff578063f68016b714610712578063fc2f7cff1461073757600080fd5b8063d201b264146106b0578063de8ce1bd146106c3578063e6446373146106e357600080fd5b8063b39ef9c814610634578063bedb86fb1461065b578063c0cbbca61461066e578063cdbd375914610681578063ceff496d14610694578063d1636095146106a757600080fd5b8063886d3db91161013b578063886d3db9146105b05780638da5cb5b146105c15780638ee8306b146105d2578063a854af2c146105e5578063b187bd2614610600578063b21ca0991461061457600080fd5b806365170a471461055457806368447c931461055d5780636e74336b1461057257806371bdb5de1461057b57806379ba50971461058e57806382c947b71461059657600080fd5b806339b051221161022657806352f61f41116101df57806352f61f41146104c2578063549e2b7f146104d557806355219d5a146104e85780635591ddc61461050b57806357fa45081461051e5780635e92e6921461053157600080fd5b806339b051221461043c57806340691db41461044f5780634506fd26146104625780634585e33b146104755780634ce3fa52146104885780634f8391bc1461049b57600080fd5b80630e372ff0116102785780630e372ff01461039757806321d1fdd0146103aa578063289e5bb9146103cb5780632bd16c8f146103de57806331e7050814610405578063392e53cd1461041857600080fd5b806207f536146102bf57806302d45457146102d457806304bc3b1c1461030457806309c1ba2e146103325780630b790986146103645780630ca7617514610384575b600080fd5b6102d26102cd366004612e7a565b61073f565b005b600e546102e7906001600160a01b031681565b6040516001600160a01b0390911681526020015b60405180910390f35b610324610312366004612ebc565b60046020526000908152604090205481565b6040519081526020016102fb565b600b5461034c90600160c01b90046001600160401b031681565b6040516001600160401b0390911681526020016102fb565b610377610372366004612ee0565b6107b6565b6040516102fb9190612ef9565b6102d2610392366004612ff2565b61085b565b6103246103a5366004612ee0565b6108df565b6103bd6103b83660046130a6565b6108f2565b6040516102fb929190613141565b6103246103d9366004613164565b919050565b6102e77f000000000000000000000000000000000000000000000000000000000000000081565b6102d2610413366004612ee0565b610c71565b600e5461042c90600160a81b900460ff1681565b60405190151581526020016102fb565b6102d261044a366004612ff2565b610ef7565b6103bd61045d366004613190565b610f62565b6102d26104703660046131fc565b610fbf565b6102d26104833660046132b3565b6111ea565b6102d26104963660046132f4565b611446565b6104ae6104a9366004612ee0565b61148c565b6040516102fb98979695949392919061332d565b600c546102e7906001600160a01b031681565b6102d26104e3366004613388565b611569565b61042c6104f6366004612ebc565b60056020526000908152604090205460ff1681565b6102d26105193660046133d9565b611932565b6102d261052c36600461344d565b611948565b61054461053f3660046134cd565b611ac3565b6040516102fb9493929190613578565b61032460095481565b610565611c93565b6040516102fb9190613600565b610324600a5481565b6102d2610589366004613613565b611d21565b6102d2612065565b6103246105a4366004612ebc565b6001600160a01b031690565b6103246105be366004612ee0565b90565b6000546001600160a01b03166102e7565b6105656105e0366004613687565b61210f565b600b546102e79064010000000090046001600160a01b031681565b600e5461042c90600160a01b900460ff1681565b610324610622366004612ee0565b60106020526000908152604090205481565b6106426105be366004612ee0565b6040516001600160e01b031990911681526020016102fb565b61042c610669366004613774565b6122b5565b6102d261067c366004612ee0565b6122e7565b6102d261068f3660046133d9565b612518565b6006546102e7906001600160a01b031681565b61032460035481565b6102d26106be366004613796565b61262e565b6106d66106d1366004613824565b61272e565b6040516102fb9190613875565b610324600d5481565b6105656106fa366004612ee0565b612888565b6102d261070d366004612ebc565b61291a565b600b546107229063ffffffff1681565b60405163ffffffff90911681526020016102fb565b61056561292e565b6040516370a0823160e01b81526001600160a01b03828116600483015260009184918616906370a0823190602401602060405180830381865afa15801561078a573d6000803e3d6000fd5b505050506040513d601f19601f820116820180604052508101906107ae91906138d7565b505050505050565b6002546060906000816001600160401b038111156107d6576107d6612f3d565b6040519080825280602002602001820160405280156107ff578160200160208202803683370190505b50905060005b828110156108535761082e6103a560028381548110610826576108266138f0565b506000528690565b828281518110610840576108406138f0565b6020908102919091010152600101610805565b509392505050565b336001600160a01b037f000000000000000000000000000000000000000000000000000000000000000016146108a45760405163c6829f8360e01b815260040160405180910390fd5b6108af838383610ef7565b60405183907f85e1543bf2f84fe80c6badbce3648c8539ad1df4d2b3d822938ca0538be727e690600090a2505050565b60006108ec60648361391c565b92915050565b600060606000610901846107b6565b905060008060008060005b600954811015610c62576000818152600f6020908152604080832081516101008101835281546001600160a01b03908116825260018301548116948201949094526002820154909316918301919091526003810154606083015260048101546080830152600581015460a0830152600681015460c083015260078101805460e0840191906109999061393e565b80601f01602080910402602001604051908101604052809291908181526020018280546109c59061393e565b8015610a125780601f106109e757610100808354040283529160200191610a12565b820191906000526020600020905b8154815290600101906020018083116109f557829003601f168201915b5050509190925250508151919250506001600160a01b031615610c4f57606081015115610a4457806080015142101593505b6060810151158015610a59575060c081015115155b15610afe57600e5460208201516001600160a01b03908116911614610abd5760c08101516020808301516001600160a01b031660009081526004909152604090205488518991908110610aae57610aae6138f0565b60200260200101511015610afb565b60c08101516040808301516001600160a01b031660009081526004602052205488518991908110610af057610af06138f0565b602002602001015111155b92505b8280610b075750835b15610c4f5760a0810151602082015182516040516370a0823160e01b81526001600160a01b0391821660048201529116906370a0823190602401602060405180830381865afa158015610b5e573d6000803e3d6000fd5b505050506040513d601f19601f82011682018060405250810190610b8291906138d7565b60a083015160208401518451604051636eb1769f60e11b81526001600160a01b03918216600482015230602482015294909310159950909291169063dd62ed3e90604401602060405180830381865afa158015610be3573d6000803e3d6000fd5b505050506040513d601f19601f82011682018060405250810190610c0791906138d7565b1015945060019850816000604051602001610c2c929190918252602082015260400190565b60405160208183030381529060405297508815610c4f5750505050505050610c69565b5080610c5a81613978565b91505061090c565b5050505050505b935093915050565b610cb26040805160e0810190915280600081526020016000815260200160008152602001606081526020016060815260200160608152602001606081525090565b610d4f60118054610cc29061393e565b80601f0160208091040260200160405190810160405280929190818152602001828054610cee9061393e565b8015610d3b5780601f10610d1057610100808354040283529160200191610d3b565b820191906000526020600020905b815481529060010190602001808311610d1e57829003601f168201915b50505050508261293b90919063ffffffff16565b6000828152600f6020908152604080832081516101008101835281546001600160a01b03908116825260018301548116948201949094526002820154909316918301919091526003810154606083015260048101546080830152600581015460a0830152600681015460c083015260078101805460e084019190610dd29061393e565b80601f0160208091040260200160405190810160405280929190818152602001828054610dfe9061393e565b8015610e4b5780601f10610e2057610100808354040283529160200191610e4b565b820191906000526020600020905b815481529060010190602001808311610e2e57829003601f168201915b50505050508152505090506000610e748260200151836040015184600001518560a0015161272e565b9050610e808382612948565b681c995c5d595cdd125960ba1b6000819052601060209081527fbbdbb72e8f82049b214755d692907364a2285e3e4225b3dd9ae52821e20afb3c86905560405186815282917f7b0781c2059d56137f2d3814f1213c0bbbd546ff1f4e1a95a7b41f4234e9ee32910160405180910390a25050505050565b600083815260106020908152604080832054808452600f909252909120600701610f2184826139d7565b50837f7873807bf6ddc50401cd3d29bbe0decee23fd4d68d273f4b5eb83cded4d2f1728484604051610f54929190613a96565b60405180910390a250505050565b60016060610f7360c0850185613abb565b6000818110610f8457610f846138f0565b905060200201356001604051602001610fa7929190918252602082015260400190565b60405160208183030381529060405290509250929050565b604080516001808252818301909252600091816020015b6040805160e0810182526000808252602080830182905292820181905260608083018290526080830182905260a083015260c08201528252600019909201910181610fd65790505090508681600081518110611034576110346138f0565b6020026020010151600001906001600160a01b031690816001600160a01b031681525050858160008151811061106c5761106c6138f0565b6020026020010151602001906001600160a01b031690816001600160a01b03168152505084816000815181106110a4576110a46138f0565b6020026020010151604001906001600160a01b031690816001600160a01b03168152505083816000815181106110dc576110dc6138f0565b6020026020010151606001906001600160a01b031690816001600160a01b0316815250508281600081518110611114576111146138f0565b602002602001015160800181815250508181600081518110611138576111386138f0565b602002602001015160a0018190525060018160008151811061115c5761115c6138f0565b602090810291909101015190151560c0909101526006546040516308c6141b60e31b81526001600160a01b0390911690634630a0d8906111ac908d906007906008908f908f908990600401613b81565b600060405180830381600087803b1580156111c657600080fd5b505af11580156111da573d6000803e3d6000fd5b5050505050505050505050505050565b6000546001600160a01b031633148015906112185750600b5464010000000090046001600160a01b03163314155b801561122f5750600c546001600160a01b03163314155b1561128c57336112476000546001600160a01b031690565b600b5460405163426fbc7160e01b81526001600160a01b0393841660048201529183166024830152640100000000900490911660448201526064015b60405180910390fd5b600061129a82840184613c8c565b915050806000036113015760006112b383850185613c8c565b506000818152600f60205260409020600381015491925090156112e95760038101546112df9042613cae565b60048201556112f1565b600060068201555b6112fa82610c71565b5050505050565b600061130f83850185613c8c565b50600081815260106020908152604080832054808452600f90925290912060068101549293509091156113d1576000828152600f6020526040812080546001600160a01b0319908116825560018201805482169055600282018054909116905560038101829055600481018290556005810182905560068101829055906113996007830182612dd6565b505060405182815233907fd4bcfe01803d6cc1b6cb87942924062b921ce853a0e0ad1a59cb92fa77f3a8cc9060200160405180910390a25b60058101548154600183015460028401546040805187815260208101959095526001600160a01b0393841690850152908216606084015216608082015283907f2cbc8e6970e7a6e926100654a692677c7960085229cf130f3afa93a8b89ed3879060a00160405180910390a25050505b505050565b61144e612972565b600b8054640100000000600160c01b0319166401000000006001600160a01b0394851602179055600c80546001600160a01b03191691909216179055565b600f60205260009081526040902080546001820154600283015460038401546004850154600586015460068701546007880180546001600160a01b039889169997891698909616969495939492939192916114e69061393e565b80601f01602080910402602001604051908101604052809291908181526020018280546115129061393e565b801561155f5780601f106115345761010080835404028352916020019161155f565b820191906000526020600020905b81548152906001019060200180831161154257829003601f168201915b5050505050905088565b600e54600160a01b900460ff16156115b55760405162461bcd60e51b815260206004820152600f60248201526e18dbdb9d1c9858dd081c185d5cd959608a1b6044820152606401611283565b816000036116055760405162461bcd60e51b815260206004820152601d60248201527f696e76616c696420737472617465677920706172616d20616d6f756e740000006044820152606401611283565b6001600160a01b03841660009081526005602052604090205460ff1661166d5760405162461bcd60e51b815260206004820152601e60248201527f696e76616c696420737472617465677920706172616d20746f6b656e546f00006044820152606401611283565b6001600160a01b03851660009081526005602052604090205460ff166116d55760405162461bcd60e51b815260206004820181905260248201527f696e76616c696420737472617465677920706172616d20746f6b656e46726f6d6044820152606401611283565b8215806116e0575080155b6116fc5760405162461bcd60e51b815260040161128390613cc1565b82158015611708575080155b156117555760405162461bcd60e51b815260206004820152601c60248201527f4c696d697420616e642054696d65496e74657276616c206172652030000000006044820152606401611283565b6000831561176a576117678442613cae565b90505b6000604051806101000160405280336001600160a01b031681526020016000871161179557886117a2565b600e546001600160a01b03165b6001600160a01b03168152602001876001600160a01b031681526020018681526020018381526020018581526020018481526020016040518060400160405280600181526020016000815250815250905080604001516001600160a01b031681602001516001600160a01b03160361182c5760405162461bcd60e51b815260040161128390613d03565b600d546000818152600f6020908152604091829020845181546001600160a01b03199081166001600160a01b03928316178355928601516001830180548516918316919091179055928501516002820180549093169316929092179055606083015160038201556080830151600482015560a0830151600582015560c0830151600682015560e083015183919060078201906118c890826139d7565b5050600d805460019081019091556009805490910190555081516040516001600160a01b03909116907f76077091b25b37316df3930ef4f2b6248911c2aead51908ad20525fc8e099ea5906119209085908590613d4a565b60405180910390a25050505050505050565b61193a612972565b6119448282612518565b5050565b60008060008061195789611ac3565b935093509350935060008251600261196f9190613cae565b6001600160401b0381111561198657611986612f3d565b6040519080825280602002602001820160405280156119af578160200160208202803683370190505b50905086816000815181106119c6576119c66138f0565b60200260200101906001600160a01b031690816001600160a01b03168152505060005b8351811015611a4157838181518110611a0457611a046138f0565b6020026020010151828260010181518110611a2157611a216138f0565b6001600160a01b03909216602092830291909101909101526001016119e9565b50858160018351611a529190613ddf565b81518110611a6257611a626138f0565b6001600160a01b03929092166020928302919091019091015283518251600091611a90918c9190859061210f565b60208701518751875192935090918c91611ab4918d9060801c85808f8f888b610fbf565b50505050505050505050505050565b611acb612e10565b611ad3612e2e565b6060611add612e2e565b604885511015611b2f5760405162461bcd60e51b815260206004820152601a60248201527f44617461206c656e677468206d757374206265203e3d203732210000000000006044820152606401611283565b611b37612e10565b611b3f612e2e565b611b47612e10565b611b4f612e2e565b602089810151855260408a0151845260508a015160601c90850152606489015181528851605c03611b8257605c89015182525b8851607003611b9d57605c8901518252607089015160208301525b6000805b6002811015611be5576000848260028110611bbe57611bbe6138f0565b60200201516001600160a01b031614611bdd57611bda82613978565b91505b600101611ba1565b506000816001600160401b03811115611c0057611c00612f3d565b604051908082528060200260200182016040528015611c29578160200160208202803683370190505b50905060005b82811015611c8057848160028110611c4957611c496138f0565b6020020151828281518110611c6057611c606138f0565b6001600160a01b0390921660209283029190910190910152600101611c2f565b50949a9399509397509550909350505050565b60088054611ca09061393e565b80601f0160208091040260200160405190810160405280929190818152602001828054611ccc9061393e565b8015611d195780601f10611cee57610100808354040283529160200191611d19565b820191906000526020600020905b815481529060010190602001808311611cfc57829003601f168201915b505050505081565b81600003611d715760405162461bcd60e51b815260206004820152601d60248201527f696e76616c696420737472617465677920706172616d20616d6f756e740000006044820152606401611283565b6001600160a01b03841660009081526005602052604090205460ff16611dd95760405162461bcd60e51b815260206004820152601e60248201527f696e76616c696420737472617465677920706172616d20746f6b656e546f00006044820152606401611283565b6001600160a01b03851660009081526005602052604090205460ff16611e415760405162461bcd60e51b815260206004820181905260248201527f696e76616c696420737472617465677920706172616d20746f6b656e46726f6d6044820152606401611283565b821580611e4c575080155b611e685760405162461bcd60e51b815260040161128390613cc1565b836001600160a01b0316856001600160a01b031603611e995760405162461bcd60e51b815260040161128390613d03565b82158015611ea5575080155b15611ef25760405162461bcd60e51b815260206004820152601c60248201527f4c696d697420616e642054696d65496e74657276616c206172652030000000006044820152606401611283565b600954861115611f3a5760405162461bcd60e51b8152602060048201526013602482015272496e646578206f7574206f6620626f756e647360681b6044820152606401611283565b6000868152600f6020526040902080546001600160a01b03163314611f905760405162461bcd60e51b815260206004820152600c60248201526b155b985d5d1a1bdc9a5e995960a21b6044820152606401611283565b60008415611fa557611fa28542613cae565b90505b60008511611fb35786611fc0565b600e546001600160a01b03165b6001830180546001600160a01b039283166001600160a01b03199182168117909255600285018054938a169390911683179055036120105760405162461bcd60e51b815260040161128390613d03565b60038201859055600582018490556006820183905581546040516001600160a01b03909116907f6737b9f3a5b839875fd01c830b2f52c3bed21caeb651e7f8ee987351c10db2fd906119209085908c90613df2565b6001546001600160a01b031633146120b85760405162461bcd60e51b815260206004820152601660248201527526bab9ba10313290383937b837b9b2b21037bbb732b960511b6044820152606401611283565b60008054336001600160a01b0319808316821784556001805490911690556040516001600160a01b0390921692909183917f8be0079c531659141344cd1fd0a4f28419497f9722a3daafe3b4186f6b6457e091a350565b60606338ed173960e01b60a0600083815b87518110156121c55760006001600160a01b0316888281518110612146576121466138f0565b60200260200101516001600160a01b0316146121b55781612186898381518110612172576121726138f0565b60200260200101516001600160a01b031690565b604051602001612197929190613e9f565b6040516020818303038152906040529150826121b290613978565b92505b6121be81613978565b9050612120565b506040516121da908290600090602001613ec1565b60408051808303601f19018152828252600060208401526001600160801b03198b166030840152925085918b910160405160208183030381529060405261222090613eed565b856001600160a01b037f00000000000000000000000000000000000000000000000000000000000000001660408051600060208201526001600160e01b03198d16603c8201520160405160208183030381529060405261227f90613eed565b6040516122989695949392919089908990602001613f11565b604051602081830303815290604052945050505050949350505050565b60006122bf612972565b50600e805460ff60a01b1916600160a01b8315158102919091179182905560ff910416919050565b60095481111561232f5760405162461bcd60e51b8152602060048201526013602482015272496e646578206f7574206f6620626f756e647360681b6044820152606401611283565b6000818152600f6020908152604080832081516101008101835281546001600160a01b03908116825260018301548116948201949094526002820154909316918301919091526003810154606083015260048101546080830152600581015460a0830152600681015460c083015260078101805460e0840191906123b29061393e565b80601f01602080910402602001604051908101604052809291908181526020018280546123de9061393e565b801561242b5780601f106124005761010080835404028352916020019161242b565b820191906000526020600020905b81548152906001019060200180831161240e57829003601f168201915b5050509190925250508151919250506001600160a01b031633146124805760405162461bcd60e51b815260206004820152600c60248201526b155b985d5d1a1bdc9a5e995960a21b6044820152606401611283565b6000828152600f6020526040812080546001600160a01b0319908116825560018201805482169055600282018054909116905560038101829055600481018290556005810182905560068101829055906124dd6007830182612dd6565b505060405182815233907fd4bcfe01803d6cc1b6cb87942924062b921ce853a0e0ad1a59cb92fa77f3a8cc9060200160405180910390a25050565b60005b818110156114415760056000848484818110612539576125396138f0565b905060200201602081019061254e9190612ebc565b6001600160a01b03168152602081019190915260400160009081205460ff1615159003612626576003546004600085858581811061258e5761258e6138f0565b90506020020160208101906125a39190612ebc565b6001600160a01b03166001600160a01b03168152602001908152602001600020819055506001600560008585858181106125df576125df6138f0565b90506020020160208101906125f49190612ebc565b6001600160a01b031681526020810191909152604001600020805460ff19169115159190911790556003805460010190555b60010161251b565b612636612972565b600e54600160a81b900460ff16156126905760405162461bcd60e51b815260206004820152601e60248201527f4c69676874657246693a20616c726561647920696e697469616c697a656400006044820152606401611283565b600e8054600b8054600a979097556001600160a01b0394851664010000000002640100000000600160c01b03196001600160401b03909716600160c01b02640100000000600160c01b0390981663ffffffff90991698909817969096179490941695909517909355600c80549382166001600160a01b03199490941693909317909255600161ff0160a01b031916921691909117600160a81b179055565b6060600061276d86604051602001612759919060609190911b6001600160601b031916815260140190565b6040516020818303038152906040526129c7565b6040516001600160601b0319606088901b16602082015290915060009061279690603401612759565b6040516001600160601b0319606088901b1660208201529091506000906127bf90603401612759565b905060006127cc86612888565b60408051600480825260a0820190925291925060009190816020015b60608152602001906001900390816127e85790505090508481600081518110612813576128136138f0565b60200260200101819052508381600181518110612832576128326138f0565b60200260200101819052508281600281518110612851576128516138f0565b60200260200101819052508181600381518110612870576128706138f0565b60209081029190910101529998505050505050505050565b6060600061289583612bd7565b60010190506000816001600160401b038111156128b4576128b4612f3d565b6040519080825280601f01601f1916602001820160405280156128de576020820181803683370190505b5090508181016020015b600019016f181899199a1a9b1b9c1cb0b131b232b360811b600a86061a8153600a85049450846128e857509392505050565b612922612972565b61292b81612caf565b50565b60078054611ca09061393e565b6119448260008084612d58565b805160000361296a5760405163fe936cb760e01b815260040160405180910390fd5b60a090910152565b6000546001600160a01b031633146129c55760405162461bcd60e51b815260206004820152601660248201527527b7363c9031b0b63630b1363290313c9037bbb732b960511b6044820152606401611283565b565b60408051808201909152601081526f181899199a1a9b1b9c1cb0b131b232b360811b6020820152815160609190600090612a02906002613f6a565b612a0d906002613cae565b6001600160401b03811115612a2457612a24612f3d565b6040519080825280601f01601f191660200182016040528015612a4e576020820181803683370190505b509050600360fc1b81600081518110612a6957612a696138f0565b60200101906001600160f81b031916908160001a905350600f60fb1b81600181518110612a9857612a986138f0565b60200101906001600160f81b031916908160001a90535060005b845181101561085357826004868381518110612ad057612ad06138f0565b016020015182516001600160f81b031990911690911c60f81c908110612af857612af86138f0565b01602001516001600160f81b03191682612b13836002613f6a565b612b1e906002613cae565b81518110612b2e57612b2e6138f0565b60200101906001600160f81b031916908160001a90535082858281518110612b5857612b586138f0565b602091010151815160f89190911c600f16908110612b7857612b786138f0565b01602001516001600160f81b03191682612b93836002613f6a565b612b9e906003613cae565b81518110612bae57612bae6138f0565b60200101906001600160f81b031916908160001a90535080612bcf81613978565b915050612ab2565b60008072184f03e93ff9f4daa797ed6e38ed64bf6a1f0160401b8310612c165772184f03e93ff9f4daa797ed6e38ed64bf6a1f0160401b830492506040015b6d04ee2d6d415b85acef81000000008310612c42576d04ee2d6d415b85acef8100000000830492506020015b662386f26fc100008310612c6057662386f26fc10000830492506010015b6305f5e1008310612c78576305f5e100830492506008015b6127108310612c8c57612710830492506004015b60648310612c9e576064830492506002015b600a83106108ec5760010192915050565b336001600160a01b03821603612d075760405162461bcd60e51b815260206004820152601760248201527f43616e6e6f74207472616e7366657220746f2073656c660000000000000000006044820152606401611283565b600180546001600160a01b0319166001600160a01b0383811691821790925560008054604051929316917fed8889f560326eb138920d842192f0eb3dd22b4f139c87a2c57538e05bae12789190a350565b8051600003612d7a576040516322ce3edd60e01b815260040160405180910390fd5b83836002811115612d8d57612d8d613f81565b90816002811115612da057612da0613f81565b90525060408401828015612db657612db6613f81565b90818015612dc657612dc6613f81565b9052506060909301929092525050565b508054612de29061393e565b6000825580601f10612df2575050565b601f01602090049060005260206000209081019061292b9190612e4c565b60405180604001604052806002906020820280368337509192915050565b60405180602001604052806001906020820280368337509192915050565b5b80821115612e615760008155600101612e4d565b5090565b6001600160a01b038116811461292b57600080fd5b600080600060608486031215612e8f57600080fd5b8335612e9a81612e65565b9250602084013591506040840135612eb181612e65565b809150509250925092565b600060208284031215612ece57600080fd5b8135612ed981612e65565b9392505050565b600060208284031215612ef257600080fd5b5035919050565b6020808252825182820181905260009190848201906040850190845b81811015612f3157835183529284019291840191600101612f15565b50909695505050505050565b634e487b7160e01b600052604160045260246000fd5b604051601f8201601f191681016001600160401b0381118282101715612f7b57612f7b612f3d565b604052919050565b600082601f830112612f9457600080fd5b81356001600160401b03811115612fad57612fad612f3d565b612fc0601f8201601f1916602001612f53565b818152846020838601011115612fd557600080fd5b816020850160208301376000918101602001919091529392505050565b60008060006060848603121561300757600080fd5b8335925060208401356001600160401b038082111561302557600080fd5b61303187838801612f83565b9350604086013591508082111561304757600080fd5b5061305486828701612f83565b9150509250925092565b60008083601f84011261307057600080fd5b5081356001600160401b0381111561308757600080fd5b60208301915083602082850101111561309f57600080fd5b9250929050565b6000806000604084860312156130bb57600080fd5b83356001600160401b038111156130d157600080fd5b6130dd8682870161305e565b909790965060209590950135949350505050565b60005b8381101561310c5781810151838201526020016130f4565b50506000910152565b6000815180845261312d8160208601602086016130f1565b601f01601f19169290920160200192915050565b821515815260406020820152600061315c6040830184613115565b949350505050565b6000806040838503121561317757600080fd5b823561318281612e65565b946020939093013593505050565b600080604083850312156131a357600080fd5b82356001600160401b03808211156131ba57600080fd5b9084019061010082870312156131cf57600080fd5b909250602084013590808211156131e557600080fd5b506131f285828601612f83565b9150509250929050565b60008060008060008060008060006101208a8c03121561321b57600080fd5b8935985060208a013561322d81612e65565b975060408a0135965060608a013561324481612e65565b955060808a013561325481612e65565b945060a08a013561326481612e65565b935060c08a013561327481612e65565b925060e08a013591506101008a01356001600160401b0381111561329757600080fd5b6132a38c828d01612f83565b9150509295985092959850929598565b600080602083850312156132c657600080fd5b82356001600160401b038111156132dc57600080fd5b6132e88582860161305e565b90969095509350505050565b6000806040838503121561330757600080fd5b823561331281612e65565b9150602083013561332281612e65565b809150509250929050565b600061010060018060a01b03808c168452808b166020850152808a166040850152508760608401528660808401528560a08401528460c08401528060e084015261337981840185613115565b9b9a5050505050505050505050565b600080600080600060a086880312156133a057600080fd5b85356133ab81612e65565b945060208601356133bb81612e65565b94979496505050506040830135926060810135926080909101359150565b600080602083850312156133ec57600080fd5b82356001600160401b038082111561340357600080fd5b818501915085601f83011261341757600080fd5b81358181111561342657600080fd5b8660208260051b850101111561343b57600080fd5b60209290920196919550909350505050565b600080600080600060a0868803121561346557600080fd5b85356001600160401b0381111561347b57600080fd5b61348788828901612f83565b95505060208601359350604086013561349f81612e65565b925060608601356134af81612e65565b915060808601356134bf81612e65565b809150509295509295909350565b6000602082840312156134df57600080fd5b81356001600160401b038111156134f557600080fd5b61315c84828501612f83565b600081518084526020808501945080840160005b8381101561353a5781516001600160a01b031687529582019590820190600101613515565b509495945050505050565b8060005b60018110156135725781516001600160e01b031916845260209384019390910190600101613549565b50505050565b60008186825b600281101561359d57815183526020928301929091019060010161357e565b505050604082018560005b60018110156135d15781516001600160801b0319168352602092830192909101906001016135a8565b50505060a060608301526135e860a0830185613501565b90506135f76080830184613545565b95945050505050565b602081526000612ed96020830184613115565b60008060008060008060c0878903121561362c57600080fd5b86359550602087013561363e81612e65565b9450604087013561364e81612e65565b959894975094956060810135955060808101359460a0909101359350915050565b80356001600160e01b0319811681146103d957600080fd5b6000806000806080858703121561369d57600080fd5b843593506020808601356001600160801b0319811681146136bd57600080fd5b935060408601356001600160401b03808211156136d957600080fd5b818801915088601f8301126136ed57600080fd5b8135818111156136ff576136ff612f3d565b8060051b9150613710848301612f53565b818152918301840191848101908b84111561372a57600080fd5b938501935b83851015613754578435925061374483612e65565b828252938501939085019061372f565b8097505050505050506137696060860161366f565b905092959194509250565b60006020828403121561378657600080fd5b81358015158114612ed957600080fd5b60008060008060008060c087890312156137af57600080fd5b86356137ba81612e65565b9550602087013563ffffffff811681146137d357600080fd5b94506040870135935060608701356001600160401b03811681146137f657600080fd5b9250608087013561380681612e65565b915060a087013561381681612e65565b809150509295509295509295565b6000806000806080858703121561383a57600080fd5b843561384581612e65565b9350602085013561385581612e65565b9250604085013561386581612e65565b9396929550929360600135925050565b6000602080830181845280855180835260408601915060408160051b870101925083870160005b828110156138ca57603f198886030184526138b8858351613115565b9450928501929085019060010161389c565b5092979650505050505050565b6000602082840312156138e957600080fd5b5051919050565b634e487b7160e01b600052603260045260246000fd5b634e487b7160e01b600052601160045260246000fd5b60008261393957634e487b7160e01b600052601260045260246000fd5b500490565b600181811c9082168061395257607f821691505b60208210810361397257634e487b7160e01b600052602260045260246000fd5b50919050565b60006001820161398a5761398a613906565b5060010190565b601f82111561144157600081815260208120601f850160051c810160208610156139b85750805b601f850160051c820191505b818110156107ae578281556001016139c4565b81516001600160401b038111156139f0576139f0612f3d565b613a04816139fe845461393e565b84613991565b602080601f831160018114613a395760008415613a215750858301515b600019600386901b1c1916600185901b1785556107ae565b600085815260208120601f198616915b82811015613a6857888601518255948401946001909101908401613a49565b5085821015613a865787850151600019600388901b60f8161c191681555b5050505050600190811b01905550565b604081526000613aa96040830185613115565b82810360208401526135f78185613115565b6000808335601e19843603018112613ad257600080fd5b8301803591506001600160401b03821115613aec57600080fd5b6020019150600581901b360382131561309f57600080fd5b60008154613b118161393e565b808552602060018381168015613b2e5760018114613b4857613b76565b60ff1985168884015283151560051b880183019550613b76565b866000528260002060005b85811015613b6e5781548a8201860152908301908401613b53565b890184019650505b505050505092915050565b600060c088835260208181850152613b9b8285018a613b04565b604085820381870152613bae828b613b04565b9150606060018060a01b03808b168289015260808a818a015260a0898603818b0152858b518088528888019150888160051b890101898e0160005b83811015613c7157601f198b840301855281518051891684528c81015189168d8501528a81015189168b850152898101516001600160a01b03168a85015287810151888501528681015160e088860181905290613c4882870182613115565b9150508e8201519150613c5e8f86018315159052565b958d0195935050908b0190600101613be9565b5050809b505050505050505050505050979650505050505050565b60008060408385031215613c9f57600080fd5b50508035926020909101359150565b808201808211156108ec576108ec613906565b60208082526022908201527f4569746865722073657420612074696d65496e74657276616c206f72204c696d6040820152611a5d60f21b606082015260800190565b60208082526027908201527f696e76616c6964207374727461677920706172616d3a20746f6b656e732061726040820152661948195c5d585b60ca1b606082015260800190565b604080825283516001600160a01b03908116838301526020850151166060830152830151600090613d8660808401826001600160a01b03169052565b50606084015160a0830152608084015160c083015260a084015160e083015260c0840151610100818185015260e086015191508061012085015250613dcf610140840182613115565b9150508260208301529392505050565b818103818111156108ec576108ec613906565b60408152613e1b60408201613e0e85546001600160a01b031690565b6001600160a01b03169052565b6000613e3160018501546001600160a01b031690565b6001600160a01b0390811660608401526002850154166080830152600384015460a0830152600484015460c0830152600584015460e0830152600684015461010080840191909152610120830152613e90610140830160078601613b04565b90508260208301529392505050565b60008351613eb18184602088016130f1565b9190910191825250602001919050565b60008351613ed38184602088016130f1565b63ffffffff199390931691909201908152601c0192915050565b805160208083015191908110156139725760001960209190910360031b1b16919050565b63ffffffff60e01b891681528760048201528660248201528560448201528460648201528360848201528260a482015260008251613f568160c48501602087016130f1565b9190910160c4019998505050505050505050565b80820281158282048414176108ec576108ec613906565b634e487b7160e01b600052602160045260246000fdfea2646970667358221220aef21adf09414805c133c65a407a592f1dc1af740998992ea8c6f745479ee70764736f6c63430008140033307830303030303030303030303030303030303030303030303030303030303030303030303030303030636f6e73742066433d2027706f6c273b636f6e73742066543d617267735b305d3b636f6e73742074543d617267735b315d3b636f6e7374206641643d617267735b325d3b636f6e73742066416d3d617267735b335d3b636f6e7374206c5255726c203d206068747470733a2f2f6c692e71756573742f76312f71756f74653f66726f6d436861696e3d247b66437d26746f436861696e3d247b66437d2666726f6d546f6b656e3d247b66547d26746f546f6b656e3d247b74547d2666726f6d416464726573733d247b6641647d2666726f6d416d6f756e743d247b66416d7d603b636f6e7374206c52203d2061776169742046756e6374696f6e732e6d616b654874747052657175657374287b75726c3a206c5255726c2c6d6574686f643a2027474554272c686561646572733a207b27616363657074273a20276170706c69636174696f6e2f6a736f6e272c7d2c7d293b636f6e73742064617461203d206c522e646174612e7472616e73616374696f6e526571756573742e646174613b636f6e7374207444203d206c522e646174612e696e636c7564656453746570735b305d2e657374696d6174652e746f6f6c446174613b66756e6374696f6e207061727365627328627329207b636f6e7374207473203d2062732e736c696365283130293b636f6e73742074784964203d2074732e736c69636528302c203634293b636f6e7374206d696e4f7574203d2074732e736c696365283238382c20333230293b636f6e737420726f75746572203d2074442e726f75746572416464726573732e736c6963652832293b636f6e73742073656c6563746f72203d2074732e736c69636528313636342c2031363732293b6c6574206d6964646c65546f6b656e31203d2027273b6c6574206d6964646c65546f6b656e32203d2027273b6966202874442e706174682e6c656e677468203d3d3d2033297b6d6964646c65546f6b656e31203d2074442e706174685b315d2e736c6963652832293b7d6966202874442e706174682e6c656e677468203d3d3d2034297b6d6964646c65546f6b656e31203d2074442e706174685b315d2e736c6963652832293b6d6964646c65546f6b656e32203d2074442e706174685b325d2e736c6963652832293b7d72657475726e20747849642b6d696e4f75742b726f757465722b73656c6563746f722b6d6964646c65546f6b656e312b6d6964646c65546f6b656e323b7d72657475726e202846756e6374696f6e732e656e636f6465537472696e67287061727365627328646174612929293b",
    "linkReferences": {}
  },
  "methodIdentifiers": {
    "ConcatCalldata(uint256,bytes16,address[],bytes4)": "8ee8306b",
    "_batchQuery(int256)": "0b790986",
    "_mapAddresses(address[])": "cdbd3759",
    "acceptOwnership()": "79ba5097",
    "addressMappinglength()": "d1636095",
    "addressToBytes32(address)": "82c947b7",
    "bal(address,uint256,address)": "0007f536",
    "bytes32tobytes4(bytes32)": "b39ef9c8",
    "checkLog((uint256,uint256,bytes32,uint256,bytes32,address,bytes32[],bytes),bytes)": "40691db4",
    "checkUpkeep(bytes,int256)": "21d1fdd0",
    "createStrategy(address,address,uint256,uint256,uint256)": "549e2b7f",
    "donID()": "6e74336b",
    "fulfillRequest(bytes32,bytes,bytes)": "39b05122",
    "gasLimit()": "f68016b7",
    "generateArgForRequest(address,address,address,uint256)": "de8ce1bd",
    "genericSwapFacet()": "ceff496d",
    "getChainlinkDataFeedLatestAnswer(address,int256)": "289e5bb9",
    "handleOracleFulfillment(bytes32,bytes,bytes)": "0ca76175",
    "init(address,uint32,bytes32,uint64,address,address)": "d201b264",
    "integrator()": "fc2f7cff",
    "isInitialized()": "392e53cd",
    "isPaused()": "b187bd26",
    "lifiDiamond()": "2bd16c8f",
    "mapAddresses(address[])": "5591ddc6",
    "owner()": "8da5cb5b",
    "performUpkeep(bytes)": "4585e33b",
    "readResponseAndSwap(bytes,uint256,address,address,address)": "57fa4508",
    "referrer()": "68447c93",
    "removeStrategy(uint256)": "c0cbbca6",
    "requestsIds(bytes32)": "b21ca099",
    "reseizeDecimals(int256)": "0e372ff0",
    "s_usersStrategies(uint256)": "4f8391bc",
    "s_usersStrategiesLength()": "65170a47",
    "sendRequest(uint256)": "31e70508",
    "setPause(bool)": "bedb86fb",
    "setUpkeepForwarders(address,address)": "4ce3fa52",
    "strategyIndex()": "e6446373",
    "subscriptionId()": "09c1ba2e",
    "swap(bytes32,address,uint256,address,address,address,address,uint256,bytes)": "4506fd26",
    "tokenAllowed(address)": "55219d5a",
    "tokenIndexes(address)": "04bc3b1c",
    "transferOwnership(address)": "f2fde38b",
    "uintToBytes32(uint256)": "886d3db9",
    "uintToString(uint256)": "e9395679",
    "unpackBytes(bytes)": "5e92e692",
    "upgradeStrategy(uint256,address,address,uint256,uint256,uint256)": "71bdb5de",
    "upkeepContract1()": "a854af2c",
    "upkeepContract2()": "52f61f41",
    "usdcAddress()": "02d45457"
  },
  "id": 41
}