{
	"data": {
		"bytecode": {
			"linkReferences": {},
			"object": "731231deb6f5749ef6ce6943a275a1d3e7486f4eae60a052610100604052600860c0908152676c6966692d61706960c01b60e052600390620000429082620002d5565b506040518060600160405280602a815260200162003b7a602a91396004906200006c9082620002d5565b50604051806103e001604052806103bd8152602001620037bd6103bd9139600e90620000999082620002d5565b50348015620000a6575f80fd5b5060405162003ba438038062003ba4833981016040819052620000c9916200039d565b6001600160a01b03811660805233805f816200012c5760405162461bcd60e51b815260206004820152601860248201527f43616e6e6f7420736574206f776e657220746f207a65726f000000000000000060448201526064015b60405180910390fd5b5f80546001600160a01b0319166001600160a01b03848116919091179091558116156200015e576200015e816200018b565b505060a051600280546001600160a01b0319166001600160a01b0390921691909117905550620003cc9050565b336001600160a01b03821603620001e55760405162461bcd60e51b815260206004820152601760248201527f43616e6e6f74207472616e7366657220746f2073656c66000000000000000000604482015260640162000123565b600180546001600160a01b0319166001600160a01b038381169182179092555f8054604051929316917fed8889f560326eb138920d842192f0eb3dd22b4f139c87a2c57538e05bae12789190a350565b634e487b7160e01b5f52604160045260245ffd5b600181811c908216806200025e57607f821691505b6020821081036200027d57634e487b7160e01b5f52602260045260245ffd5b50919050565b601f821115620002d0575f81815260208120601f850160051c81016020861015620002ab5750805b601f850160051c820191505b81811015620002cc57828155600101620002b7565b5050505b505050565b81516001600160401b03811115620002f157620002f162000235565b620003098162000302845462000249565b8462000283565b602080601f8311600181146200033f575f8415620003275750858301515b5f19600386901b1c1916600185901b178555620002cc565b5f85815260208120601f198616915b828110156200036f578886015182559484019460019091019084016200034e565b50858210156200038d57878501515f19600388901b60f8161c191681555b5050505050600190811b01905550565b5f60208284031215620003ae575f80fd5b81516001600160a01b0381168114620003c5575f80fd5b9392505050565b60805160a0516133c1620003fc5f395f81816102530152611a7401525f818161048e01526116bd01526133c15ff3fe608060405234801561000f575f80fd5b50600436106101d1575f3560e01c806385b403f8116100fe578063ceff496d1161009e578063f335bcce1161006e578063f335bcce1461043b578063f42c13bf1461044e578063f68016b714610456578063fc2f7cff1461047b575f80fd5b8063ceff496d146103f9578063d201b2641461040c578063e64463731461041f578063f2fde38b14610428575f80fd5b8063b187bd26116100d9578063b187bd2614610397578063b21ca099146103b4578063bedb86fb146103d3578063c7330555146103e6575f80fd5b806385b403f8146103595780638da5cb5b1461036c578063a854af2c1461037c575f80fd5b80634f8391bc1161017457806368447c931161014457806368447c93146103205780636e04ff0d146103355780636e74336b1461034857806379ba509714610351575f80fd5b80634f8391bc146102bc57806352f61f41146102e357806357fa4508146102f657806365170a4714610309575f80fd5b80632bd16c8f116101af5780632bd16c8f1461024e57806331e705081461027557806340691db4146102885780634585e33b146102a9575f80fd5b806302d45457146101d557806309c1ba2e146102055780630ca7617514610239575b5f80fd5b6009546101e8906001600160a01b031681565b6040516001600160a01b0390911681526020015b60405180910390f35b60075461022090600160c01b900467ffffffffffffffff1681565b60405167ffffffffffffffff90911681526020016101fc565b61024c6102473660046127a5565b610483565b005b6101e87f000000000000000000000000000000000000000000000000000000000000000081565b61024c61028336600461280d565b610506565b61029b610296366004612824565b610743565b6040516101fc9291906128d9565b61024c6102b73660046128fb565b6107a2565b6102cf6102ca36600461280d565b61085d565b6040516101fc989796959493929190612967565b6008546101e8906001600160a01b031681565b61024c6103043660046129db565b610938565b61031260055481565b6040519081526020016101fc565b610328610aae565b6040516101fc9190612a4f565b61029b6103433660046128fb565b610b3a565b61031260065481565b61024c610cc3565b610312610367366004612a70565b610d73565b5f546001600160a01b03166101e8565b6007546101e89064010000000090046001600160a01b031681565b600b546103a49060ff1681565b60405190151581526020016101fc565b6103126103c236600461280d565b600d6020525f908152604090205481565b6103a46103e1366004612ab0565b610eb8565b61024c6103f4366004612ac9565b610edc565b6002546101e8906001600160a01b031681565b61024c61041a366004612afa565b610f2f565b610312600a5481565b61024c610436366004612b7b565b610fdc565b61024c610449366004612b94565b610ff0565b61024c61116f565b6007546104669063ffffffff1681565b60405163ffffffff90911681526020016101fc565b6103286111a9565b336001600160a01b037f000000000000000000000000000000000000000000000000000000000000000016146104cc5760405163c6829f8360e01b815260040160405180910390fd5b6104d78383836111b6565b60405183907f85e1543bf2f84fe80c6badbce3648c8539ad1df4d2b3d822938ca0538be727e6905f90a2505050565b5f546001600160a01b03163314801590610533575060075464010000000090046001600160a01b03163314155b801561054a57506008546001600160a01b03163314155b156105a657336105615f546001600160a01b031690565b60075460405163426fbc7160e01b81526001600160a01b0393841660048201529183166024830152640100000000900490911660448201526064015b60405180910390fd5b6105e46040805160e08101909152805f81526020015f81526020015f8152602001606081526020016060815260200160608152602001606081525090565b61067f600e80546105f490612bd7565b80601f016020809104026020016040519081016040528092919081815260200182805461062090612bd7565b801561066b5780601f106106425761010080835404028352916020019161066b565b820191905f5260205f20905b81548152906001019060200180831161064e57829003601f168201915b50505050508261122290919063ffffffff16565b5f828152600c602052604081206002810154815460058301549293926106b2926001600160a01b03908116921690611232565b90506106be8382611347565b5f6106ef6106cb85611370565b60075460065467ffffffffffffffff600160c01b8304169163ffffffff16906116b9565b5f818152600d602090815260409182902088905581518381529081018890529192507f7b0781c2059d56137f2d3814f1213c0bbbd546ff1f4e1a95a7b41f4234e9ee32910160405180910390a15050505050565b6001606061075460c0850185612c0f565b5f81811061076457610764612c55565b90506020020135600160405160200161078a92919091825260ff16602082015260400190565b60405160208183030381529060405290509250929050565b5f6107af82840184612c79565b9150508060ff165f036107fe575f6107c983850185612c79565b505f818152600c602052604090209091506107e382610506565b60038101546107f29042612cae565b60049091015550505050565b5f61080b83850185612c79565b505f818152600d6020908152604080832054808452600c9092528083209051939450909290917f86ddac84eaaec71fdae4fe8d465ddeee49dbee5f47c5a521be72b338363a380d91a15050505b505050565b600c6020525f908152604090208054600182015460028301546003840154600485015460058601546006870180546001600160a01b039788169896881697909516959394929391926108ae90612bd7565b80601f01602080910402602001604051908101604052809291908181526020018280546108da90612bd7565b80156109255780601f106108fc57610100808354040283529160200191610925565b820191905f5260205f20905b81548152906001019060200180831161090857829003601f168201915b5050506007909301549192505060ff1688565b5f805f8061094589611786565b93509350935093505f8251600261095c9190612cae565b67ffffffffffffffff81111561097457610974612708565b60405190808252806020026020018201604052801561099d578160200160208202803683370190505b50905086815f815181106109b3576109b3612c55565b60200260200101906001600160a01b031690816001600160a01b0316815250505f5b8351811015610a2d578381815181106109f0576109f0612c55565b6020026020010151828260010181518110610a0d57610a0d612c55565b6001600160a01b03909216602092830291909101909101526001016109d5565b50858160018351610a3e9190612cc1565b81518110610a4e57610a4e612c55565b6001600160a01b039290921660209283029190910190910152835182515f91610a7b918c91908590611953565b60208701518751875192935090918c91610a9f918d9060801c85808f8f888b611b15565b50505050505050505050505050565b60048054610abb90612bd7565b80601f0160208091040260200160405190810160405280929190818152602001828054610ae790612bd7565b8015610b325780601f10610b0957610100808354040283529160200191610b32565b820191905f5260205f20905b815481529060010190602001808311610b1557829003601f168201915b505050505081565b5f60605f5b600554811015610cba575f818152600c6020908152604080832081516101008101835281546001600160a01b03908116825260018301548116948201949094526002820154909316918301919091526003810154606083015260048101546080830152600581015460a083015260068101805460c084019190610bc190612bd7565b80601f0160208091040260200160405190810160405280929190818152602001828054610bed90612bd7565b8015610c385780601f10610c0f57610100808354040283529160200191610c38565b820191905f5260205f20905b815481529060010190602001808311610c1b57829003601f168201915b50505091835250506007919091015460ff16151560209091015280519091506001600160a01b031615610ca757608081015160408051602081018590525f8183015281518082038301815260609091019091524291909110801595509093508490610ca557505050610cbc565b505b5080610cb281612cd4565b915050610b3f565b505b9250929050565b6001546001600160a01b03163314610d1d5760405162461bcd60e51b815260206004820152601660248201527f4d7573742062652070726f706f736564206f776e657200000000000000000000604482015260640161059d565b5f8054336001600160a01b0319808316821784556001805490911690556040516001600160a01b0390921692909183917f8be0079c531659141344cd1fd0a4f28419497f9722a3daafe3b4186f6b6457e091a350565b5f600554861115610dc65760405162461bcd60e51b815260206004820152601360248201527f496e646578206f7574206f6620626f756e647300000000000000000000000000604482015260640161059d565b5f868152600c6020526040902080546001600160a01b03163314610e2c5760405162461bcd60e51b815260206004820152600c60248201527f556e617574686f72697a65640000000000000000000000000000000000000000604482015260640161059d565b6002810180546001600160a01b0319166001600160a01b0388811691909117909155600382018690556005820185905560078201805460ff191685151517905581546040519116907fe37e30806160897c744bf2d44d2950af6d5919d67c9c6670901b6c3cb06704a290610ea5908a9085904290612d65565b60405180910390a2509495945050505050565b5f610ec1611d2f565b50600b805460ff191682151590811790915560ff165b919050565b610ee4611d2f565b6007805477ffffffffffffffffffffffffffffffffffffffff0000000019166401000000006001600160a01b0394851602179055600880546001600160a01b03191691909216179055565b610f37611d2f565b600980546001600160a01b039788166001600160a01b031991821617909155600780546006969096559287166401000000000277ffffffffffffffffffffffffffffffffffffffff000000001967ffffffffffffffff909516600160c01b0277ffffffffffffffffffffffffffffffffffffffff0000000090961663ffffffff9097169690961794909417929092169390931790925560088054929093169116179055565b610fe4611d2f565b610fed81611d8a565b50565b60408051610100810182523381526009546001600160a01b039081166020830152861691810191909152606081018490525f90608081016110318642612cae565b8152602080820186905260408051808201825260018082525f82850181905283860192909252871515606095860152600a54808352600c855291839020865181546001600160a01b03199081166001600160a01b03928316178355958801519282018054871693821693909317909255928601516002840180549095169116179092559183015160038301556080830151600483015560a0830151600583015560c08301519293509183919060068201906110ec9082612e67565b5060e091909101516007909101805460ff1916911515919091179055600a8054600190810190915560058054909101905581516040516001600160a01b03909116907f1ea3633187516d8d1dcffac00317ae427b9d580b6f39e021dac78033f94eb08b9061115f90859085904290612f23565b60405180910390a2505050505050565b5f801b7f7873807bf6ddc50401cd3d29bbe0decee23fd4d68d273f4b5eb83cded4d2f17260405161119f90612fc8565b60405180910390a2565b60038054610abb90612bd7565b5f838152600d6020908152604080832054808452600c909252909120600681016111e08582612e67565b50847f7873807bf6ddc50401cd3d29bbe0decee23fd4d68d273f4b5eb83cded4d2f1728585604051611213929190613000565b60405180910390a25050505050565b61122e825f8084611e32565b5050565b60605f61127585604051602001611261919060609190911b6bffffffffffffffffffffffff1916815260140190565b604051602081830303815290604052611eaf565b6040516bffffffffffffffffffffffff19606087901b1660208201529091505f906112a290603401611261565b90505f6112ae856120c1565b604080516003808252608082019092529192505f9190816020015b60608152602001906001900390816112c957905050905083815f815181106112f3576112f3612c55565b6020026020010181905250828160018151811061131257611312612c55565b6020026020010181905250818160028151811061133157611331612c55565b6020908102919091010152979650505050505050565b80515f036113685760405163fe936cb760e01b815260040160405180910390fd5b60a090910152565b60605f61137e610100612151565b90506113c86040518060400160405280600c81526020017f636f64654c6f636174696f6e00000000000000000000000000000000000000008152508261217190919063ffffffff16565b82516113e69060028111156113df576113df61302d565b829061218a565b60408051808201909152600881527f6c616e67756167650000000000000000000000000000000000000000000000006020820152611425908290612171565b604083015161143c9080156113df576113df61302d565b60408051808201909152600681527f736f757263650000000000000000000000000000000000000000000000000000602082015261147b908290612171565b606083015161148b908290612171565b60a0830151511561151e576040805180820190915260048152636172677360e01b60208201526114bc908290612171565b6114c5816121c3565b5f5b8360a0015151811015611514576115048460a0015182815181106114ed576114ed612c55565b60200260200101518361217190919063ffffffff16565b61150d81612cd4565b90506114c7565b5061151e816121e7565b60808301515115611605575f836020015160028111156115405761154061302d565b0361155e5760405163a80d31f760e01b815260040160405180910390fd5b60408051808201909152600f81527f736563726574734c6f636174696f6e0000000000000000000000000000000000602082015261159d908290612171565b6115b6836020015160028111156113df576113df61302d565b60408051808201909152600781527f736563726574730000000000000000000000000000000000000000000000000060208201526115f5908290612171565b6080830151611605908290612205565b60c083015151156116b15760408051808201909152600981527f6279746573417267730000000000000000000000000000000000000000000000602082015261164f908290612171565b611658816121c3565b5f5b8360c00151518110156116a7576116978460c00151828151811061168057611680612c55565b60200260200101518361220590919063ffffffff16565b6116a081612cd4565b905061165a565b506116b1816121e7565b515192915050565b5f807f00000000000000000000000000000000000000000000000000000000000000006001600160a01b031663461d27628688600188886040518663ffffffff1660e01b8152600401611710959493929190613041565b6020604051808303815f875af115801561172c573d5f803e3d5ffd5b505050506040513d601f19601f82011682018060405250810190611750919061308a565b60405190915081907f1131472297a800fee664d1d89cfa8f7676ff07189ecc53f80bbb5f4969099db8905f90a295945050505050565b61178e612699565b6117966126b7565b60606117a06126b7565b6048855110156117f25760405162461bcd60e51b815260206004820152601a60248201527f44617461206c656e677468206d757374206265203e3d20373221000000000000604482015260640161059d565b6117fa612699565b6118026126b7565b61180a612699565b6118126126b7565b602089810151855260408a0151845260508a015160601c90850152606489015181528851605c0361184557605c89015182525b885160700361186057605c8901518252607089015160208301525b5f805b60028110156118a6575f84826002811061187f5761187f612c55565b60200201516001600160a01b03161461189e5761189b82612cd4565b91505b600101611863565b505f8167ffffffffffffffff8111156118c1576118c1612708565b6040519080825280602002602001820160405280156118ea578160200160208202803683370190505b5090505f5b828110156119405784816002811061190957611909612c55565b602002015182828151811061192057611920612c55565b6001600160a01b03909216602092830291909101909101526001016118ef565b50949a9399509397509550909350505050565b60606338ed173960e01b60a05f83815b8751811015611a07575f6001600160a01b031688828151811061198857611988612c55565b60200260200101516001600160a01b0316146119f757816119c88983815181106119b4576119b4612c55565b60200260200101516001600160a01b031690565b6040516020016119d99291906130a1565b6040516020818303038152906040529150826119f490612cd4565b92505b611a0081612cd4565b9050611963565b50604051611a1b9082905f906020016130c2565b60408051808303601f190181528282525f60208401526fffffffffffffffffffffffffffffffff198b166030840152925085918b9101604051602081830303815290604052611a69906130ed565b856001600160a01b037f000000000000000000000000000000000000000000000000000000000000000016604080515f60208201527fffffffff000000000000000000000000000000000000000000000000000000008d16603c82015201604051602081830303815290604052611adf906130ed565b604051611af89695949392919089908990602001613110565b604051602081830303815290604052945050505050949350505050565b6040805160018082528183019092525f91816020015b6040805160e0810182525f808252602080830182905292820181905260608083018290526080830182905260a083015260c082015282525f19909201910181611b2b57905050905086815f81518110611b8657611b86612c55565b60200260200101515f01906001600160a01b031690816001600160a01b03168152505085815f81518110611bbc57611bbc612c55565b6020026020010151602001906001600160a01b031690816001600160a01b03168152505084815f81518110611bf357611bf3612c55565b6020026020010151604001906001600160a01b031690816001600160a01b03168152505083815f81518110611c2a57611c2a612c55565b6020026020010151606001906001600160a01b031690816001600160a01b03168152505082815f81518110611c6157611c61612c55565b6020026020010151608001818152505081815f81518110611c8457611c84612c55565b602002602001015160a001819052506001815f81518110611ca757611ca7612c55565b602090810291909101015190151560c0909101526002546040516308c6141b60e31b81526001600160a01b0390911690634630a0d890611cf6908d906003906004908f908f9089908401613168565b5f604051808303815f87803b158015611d0d575f80fd5b505af1158015611d1f573d5f803e3d5ffd5b5050505050505050505050505050565b5f546001600160a01b03163314611d885760405162461bcd60e51b815260206004820152601660248201527f4f6e6c792063616c6c61626c65206279206f776e657200000000000000000000604482015260640161059d565b565b336001600160a01b03821603611de25760405162461bcd60e51b815260206004820152601760248201527f43616e6e6f74207472616e7366657220746f2073656c66000000000000000000604482015260640161059d565b600180546001600160a01b0319166001600160a01b038381169182179092555f8054604051929316917fed8889f560326eb138920d842192f0eb3dd22b4f139c87a2c57538e05bae12789190a350565b80515f03611e53576040516322ce3edd60e01b815260040160405180910390fd5b83836002811115611e6657611e6661302d565b90816002811115611e7957611e7961302d565b90525060408401828015611e8f57611e8f61302d565b90818015611e9f57611e9f61302d565b9052506060909301929092525050565b60408051808201909152601081526f181899199a1a9b1b9c1cb0b131b232b360811b60208201528151606091905f90611ee9906002613272565b611ef4906002612cae565b67ffffffffffffffff811115611f0c57611f0c612708565b6040519080825280601f01601f191660200182016040528015611f36576020820181803683370190505b509050600360fc1b815f81518110611f5057611f50612c55565b60200101906001600160f81b03191690815f1a905350600f60fb1b81600181518110611f7e57611f7e612c55565b60200101906001600160f81b03191690815f1a9053505f5b84518110156120b957826004868381518110611fb457611fb4612c55565b016020015182516001600160f81b031990911690911c60f81c908110611fdc57611fdc612c55565b01602001516001600160f81b03191682611ff7836002613272565b612002906002612cae565b8151811061201257612012612c55565b60200101906001600160f81b03191690815f1a9053508285828151811061203b5761203b612c55565b602091010151815160f89190911c600f1690811061205b5761205b612c55565b01602001516001600160f81b03191682612076836002613272565b612081906003612cae565b8151811061209157612091612c55565b60200101906001600160f81b03191690815f1a905350806120b181612cd4565b915050611f96565b509392505050565b60605f6120cd83612212565b60010190505f8167ffffffffffffffff8111156120ec576120ec612708565b6040519080825280601f01601f191660200182016040528015612116576020820181803683370190505b5090508181016020015b5f19016f181899199a1a9b1b9c1cb0b131b232b360811b600a86061a8153600a850494508461212057509392505050565b6121596126d5565b805161216590836122f4565b505f6020820152919050565b61217e8260038351612368565b8151610858908261248f565b81516121979060c26124b6565b5061122e82826040516020016121af91815260200190565b604051602081830303815290604052612205565b6121ce81600461251d565b6001816020018181516121e19190612cae565b90525050565b6121f281600761251d565b6001816020018181516121e19190612cc1565b61217e8260028351612368565b5f807a184f03e93ff9f4daa797ed6e38ed64bf6a1f010000000000000000831061225a577a184f03e93ff9f4daa797ed6e38ed64bf6a1f010000000000000000830492506040015b6d04ee2d6d415b85acef81000000008310612286576d04ee2d6d415b85acef8100000000830492506020015b662386f26fc1000083106122a457662386f26fc10000830492506010015b6305f5e10083106122bc576305f5e100830492506008015b61271083106122d057612710830492506004015b606483106122e2576064830492506002015b600a83106122ee576001015b92915050565b60408051808201909152606081525f6020820152612313602083613289565b1561233b57612323602083613289565b61232e906020612cc1565b6123389083612cae565b91505b60208084018390526040518085525f815290818401018181101561235d575f80fd5b604052509192915050565b60178167ffffffffffffffff161161239557825161238f9060e0600585901b1683176124b6565b50505050565b60ff8167ffffffffffffffff16116123d75782516123be906018611fe0600586901b16176124b6565b50825161238f9067ffffffffffffffff83166001612534565b61ffff8167ffffffffffffffff161161241a578251612401906019611fe0600586901b16176124b6565b50825161238f9067ffffffffffffffff83166002612534565b63ffffffff8167ffffffffffffffff161161245f57825161244690601a611fe0600586901b16176124b6565b50825161238f9067ffffffffffffffff83166004612534565b825161247690601b611fe0600586901b16176124b6565b50825161238f9067ffffffffffffffff83166008612534565b60408051808201909152606081525f60208201526124af838384516125b6565b9392505050565b60408051808201909152606081525f60208201528251515f6124d9826001612cae565b9050846020015182106124fa576124fa856124f5836002613272565b612682565b8451602083820101858153508051821115612513578181525b5093949350505050565b815161085890601f611fe0600585901b16176124b6565b60408051808201909152606081525f60208201528351515f6125568285612cae565b9050856020015181111561257357612573866124f5836002613272565b5f600161258286610100613380565b61258c9190612cc1565b905086518281018783198251161781525080518311156125aa578281525b50959695505050505050565b60408051808201909152606081525f602082015282518211156125d7575f80fd5b8351515f6125e58483612cae565b9050856020015181111561260257612602866124f5836002613272565b85518051838201602001915f918085111561261b578482525b505050602086015b6020861061265b578051825261263a602083612cae565b9150612647602082612cae565b9050612654602087612cc1565b9550612623565b5181515f1960208890036101000a0190811690199190911617905250849150509392505050565b815161268e83836122f4565b5061238f838261248f565b60405180604001604052806002906020820280368337509192915050565b60405180602001604052806001906020820280368337509192915050565b60405180604001604052806126fc6040518060400160405280606081526020015f81525090565b81526020015f81525090565b634e487b7160e01b5f52604160045260245ffd5b5f82601f83011261272b575f80fd5b813567ffffffffffffffff8082111561274657612746612708565b604051601f8301601f19908116603f0116810190828211818310171561276e5761276e612708565b81604052838152866020858801011115612786575f80fd5b836020870160208301375f602085830101528094505050505092915050565b5f805f606084860312156127b7575f80fd5b83359250602084013567ffffffffffffffff808211156127d5575f80fd5b6127e18783880161271c565b935060408601359150808211156127f6575f80fd5b506128038682870161271c565b9150509250925092565b5f6020828403121561281d575f80fd5b5035919050565b5f8060408385031215612835575f80fd5b823567ffffffffffffffff8082111561284c575f80fd5b908401906101008287031215612860575f80fd5b90925060208401359080821115612875575f80fd5b506128828582860161271c565b9150509250929050565b5f5b838110156128a657818101518382015260200161288e565b50505f910152565b5f81518084526128c581602086016020860161288c565b601f01601f19169290920160200192915050565b8215158152604060208201525f6128f360408301846128ae565b949350505050565b5f806020838503121561290c575f80fd5b823567ffffffffffffffff80821115612923575f80fd5b818501915085601f830112612936575f80fd5b813581811115612944575f80fd5b866020828501011115612955575f80fd5b60209290920196919550909350505050565b5f6101006001600160a01b03808c168452808b166020850152808a166040850152508760608401528660808401528560a08401528060c08401526129ad818401866128ae565b91505082151560e08301529998505050505050505050565b80356001600160a01b0381168114610ed7575f80fd5b5f805f805f60a086880312156129ef575f80fd5b853567ffffffffffffffff811115612a05575f80fd5b612a118882890161271c565b95505060208601359350612a27604087016129c5565b9250612a35606087016129c5565b9150612a43608087016129c5565b90509295509295909350565b602081525f6124af60208301846128ae565b80358015158114610ed7575f80fd5b5f805f805f60a08688031215612a84575f80fd5b85359450612a94602087016129c5565b93506040860135925060608601359150612a4360808701612a61565b5f60208284031215612ac0575f80fd5b6124af82612a61565b5f8060408385031215612ada575f80fd5b612ae3836129c5565b9150612af1602084016129c5565b90509250929050565b5f805f805f8060c08789031215612b0f575f80fd5b612b18876129c5565b9550602087013563ffffffff81168114612b30575f80fd5b945060408701359350606087013567ffffffffffffffff81168114612b53575f80fd5b9250612b61608088016129c5565b9150612b6f60a088016129c5565b90509295509295509295565b5f60208284031215612b8b575f80fd5b6124af826129c5565b5f805f8060808587031215612ba7575f80fd5b612bb0856129c5565b93506020850135925060408501359150612bcc60608601612a61565b905092959194509250565b600181811c90821680612beb57607f821691505b602082108103612c0957634e487b7160e01b5f52602260045260245ffd5b50919050565b5f808335601e19843603018112612c24575f80fd5b83018035915067ffffffffffffffff821115612c3e575f80fd5b6020019150600581901b3603821315610cbc575f80fd5b634e487b7160e01b5f52603260045260245ffd5b803560ff81168114610ed7575f80fd5b5f8060408385031215612c8a575f80fd5b82359150612af160208401612c69565b634e487b7160e01b5f52601160045260245ffd5b808201808211156122ee576122ee612c9a565b818103818111156122ee576122ee612c9a565b5f60018201612ce557612ce5612c9a565b5060010190565b5f8154612cf881612bd7565b808552602060018381168015612d155760018114612d2f57612d5a565b60ff1985168884015283151560051b880183019550612d5a565b865f52825f205f5b85811015612d525781548a8201860152908301908401612d37565b890184019650505b505050505092915050565b83815260606020820152612d9460608201612d8785546001600160a01b031690565b6001600160a01b03169052565b5f612da960018501546001600160a01b031690565b6001600160a01b03908116608084015260028501541660a0830152600384015460c0830152600484015460e0830152600584015461010080840191909152610120830152612dfe610160830160068601612cec565b6007949094015460ff1615156101408301525060400152919050565b601f821115610858575f81815260208120601f850160051c81016020861015612e405750805b601f850160051c820191505b81811015612e5f57828155600101612e4c565b505050505050565b815167ffffffffffffffff811115612e8157612e81612708565b612e9581612e8f8454612bd7565b84612e1a565b602080601f831160018114612ec8575f8415612eb15750858301515b5f19600386901b1c1916600185901b178555612e5f565b5f85815260208120601f198616915b82811015612ef657888601518255948401946001909101908401612ed7565b5085821015612f1357878501515f19600388901b60f8161c191681555b5050505050600190811b01905550565b606081525f6001600160a01b03808651166060840152806020870151166080840152506040850151612f6060a08401826001600160a01b03169052565b50606085015160c0830152608085015160e083015260a0850151610100818185015260c087015191508061012085015250612f9f6101608401826128ae565b905060e0860151612fb561014085018215159052565b5060208301949094525060400152919050565b604081525f612fe460408301600181525f602082015260400190565b82810360208401526124af81600181525f602082015260400190565b604081525f61301260408301856128ae565b828103602084015261302481856128ae565b95945050505050565b634e487b7160e01b5f52602160045260245ffd5b67ffffffffffffffff8616815260a060208201525f61306360a08301876128ae565b61ffff9590951660408301525063ffffffff92909216606083015260809091015292915050565b5f6020828403121561309a575f80fd5b5051919050565b5f83516130b281846020880161288c565b9190910191825250602001919050565b5f83516130d381846020880161288c565b63ffffffff199390931691909201908152601c0192915050565b80516020808301519190811015612c09575f1960209190910360031b1b16919050565b63ffffffff60e01b891681528760048201528660248201528560448201528460648201528360848201528260a48201525f82516131548160c485016020870161288c565b9190910160c4019998505050505050505050565b5f60c0888352602081818501526131818285018a612cec565b604085820381870152613194828b612cec565b915060606001600160a01b03808b168289015260808a818a015260a0898603818b0152858b518088528888019150888160051b890101898e015f5b8381101561325757601f198b840301855281518051891684528c81015189168d8501528a81015189168b850152898101516001600160a01b03168a85015287810151888501528681015160e08886018190529061322e828701826128ae565b9150508e82015191506132448f86018315159052565b958d0195935050908b01906001016131cf565b5050809b505050505050505050505050979650505050505050565b80820281158282048414176122ee576122ee612c9a565b5f826132a357634e487b7160e01b5f52601260045260245ffd5b500690565b600181815b80851115610cba57815f19048211156132c8576132c8612c9a565b808516156132d557918102915b93841c93908002906132ad565b5f826132f0575060016122ee565b816132fc57505f6122ee565b8160018114613312576002811461331c57613338565b60019150506122ee565b60ff84111561332d5761332d612c9a565b50506001821b6122ee565b5060208310610133831016604e8410600b841016171561335b575081810a6122ee565b61336583836132a8565b805f190482111561337857613378612c9a565b029392505050565b5f6124af83836132e256fea2646970667358221220fba80d0888fb1a595424c34fb9acbdd6f37f036befae5c8d80f7cb4212786b7764736f6c63430008140033636f6e73742066433d2027706f6c273b636f6e73742074543d617267735b305d3b636f6e7374206641643d617267735b315d3b636f6e73742066416d3d617267735b325d3b636f6e7374206c5255726c203d206068747470733a2f2f6c692e71756573742f76312f71756f74653f66726f6d436861696e3d247b66437d26746f436861696e3d247b66437d2666726f6d546f6b656e3d30783237393142636131663264653436363145443838413330433939413761393434394161383431373426746f546f6b656e3d247b74547d2666726f6d416464726573733d247b6641647d2666726f6d416d6f756e743d247b66416d7d603b636f6e7374206c52203d2061776169742046756e6374696f6e732e6d616b654874747052657175657374287b75726c3a206c5255726c2c6d6574686f643a2027474554272c686561646572733a207b27616363657074273a20276170706c69636174696f6e2f6a736f6e272c7d2c7d293b636f6e73742064617461203d206c522e646174612e7472616e73616374696f6e526571756573742e646174613b636f6e7374207444203d206c522e646174612e696e636c7564656453746570735b305d2e657374696d6174652e746f6f6c446174613b66756e6374696f6e207061727365627328627329207b636f6e7374207473203d2062732e736c696365283130293b636f6e73742074784964203d2074732e736c69636528302c203634293b636f6e7374206d696e4f7574203d2074732e736c696365283238382c20333230293b636f6e737420726f75746572203d2074442e726f75746572416464726573732e736c6963652832293b636f6e73742073656c6563746f72203d2074732e736c69636528313636342c2031363732293b6c6574206d6964646c65546f6b656e31203d2027273b6c6574206d6964646c65546f6b656e32203d2027273b6966202874442e706174682e6c656e677468203d3d3d2033297b6d6964646c65546f6b656e31203d2074442e706174685b315d2e736c6963652832293b7d6966202874442e706174682e6c656e677468203d3d3d2034297b6d6964646c65546f6b656e31203d2074442e706174685b315d2e736c6963652832293b6d6964646c65546f6b656e32203d2074442e706174685b325d2e736c6963652832293b7d72657475726e20747849642b6d696e4f75742b726f757465722b73656c6563746f722b6d6964646c65546f6b656e312b6d6964646c65546f6b656e323b7d72657475726e202846756e6374696f6e732e656e636f6465537472696e67287061727365627328646174612929293b307830303030303030303030303030303030303030303030303030303030303030303030303030303030",
			"opcodes": "PUSH20 0x1231DEB6F5749EF6CE6943A275A1D3E7486F4EAE PUSH1 0xA0 MSTORE PUSH2 0x100 PUSH1 0x40 MSTORE PUSH1 0x8 PUSH1 0xC0 SWAP1 DUP2 MSTORE PUSH8 0x6C6966692D617069 PUSH1 0xC0 SHL PUSH1 0xE0 MSTORE PUSH1 0x3 SWAP1 PUSH3 0x42 SWAP1 DUP3 PUSH3 0x2D5 JUMP JUMPDEST POP PUSH1 0x40 MLOAD DUP1 PUSH1 0x60 ADD PUSH1 0x40 MSTORE DUP1 PUSH1 0x2A DUP2 MSTORE PUSH1 0x20 ADD PUSH3 0x3B7A PUSH1 0x2A SWAP2 CODECOPY PUSH1 0x4 SWAP1 PUSH3 0x6C SWAP1 DUP3 PUSH3 0x2D5 JUMP JUMPDEST POP PUSH1 0x40 MLOAD DUP1 PUSH2 0x3E0 ADD PUSH1 0x40 MSTORE DUP1 PUSH2 0x3BD DUP2 MSTORE PUSH1 0x20 ADD PUSH3 0x37BD PUSH2 0x3BD SWAP2 CODECOPY PUSH1 0xE SWAP1 PUSH3 0x99 SWAP1 DUP3 PUSH3 0x2D5 JUMP JUMPDEST POP CALLVALUE DUP1 ISZERO PUSH3 0xA6 JUMPI PUSH0 DUP1 REVERT JUMPDEST POP PUSH1 0x40 MLOAD PUSH3 0x3BA4 CODESIZE SUB DUP1 PUSH3 0x3BA4 DUP4 CODECOPY DUP2 ADD PUSH1 0x40 DUP2 SWAP1 MSTORE PUSH3 0xC9 SWAP2 PUSH3 0x39D JUMP JUMPDEST PUSH1 0x1 PUSH1 0x1 PUSH1 0xA0 SHL SUB DUP2 AND PUSH1 0x80 MSTORE CALLER DUP1 PUSH0 DUP2 PUSH3 0x12C JUMPI PUSH1 0x40 MLOAD PUSH3 0x461BCD PUSH1 0xE5 SHL DUP2 MSTORE PUSH1 0x20 PUSH1 0x4 DUP3 ADD MSTORE PUSH1 0x18 PUSH1 0x24 DUP3 ADD MSTORE PUSH32 0x43616E6E6F7420736574206F776E657220746F207A65726F0000000000000000 PUSH1 0x44 DUP3 ADD MSTORE PUSH1 0x64 ADD JUMPDEST PUSH1 0x40 MLOAD DUP1 SWAP2 SUB SWAP1 REVERT JUMPDEST PUSH0 DUP1 SLOAD PUSH1 0x1 PUSH1 0x1 PUSH1 0xA0 SHL SUB NOT AND PUSH1 0x1 PUSH1 0x1 PUSH1 0xA0 SHL SUB DUP5 DUP2 AND SWAP2 SWAP1 SWAP2 OR SWAP1 SWAP2 SSTORE DUP2 AND ISZERO PUSH3 0x15E JUMPI PUSH3 0x15E DUP2 PUSH3 0x18B JUMP JUMPDEST POP POP PUSH1 0xA0 MLOAD PUSH1 0x2 DUP1 SLOAD PUSH1 0x1 PUSH1 0x1 PUSH1 0xA0 SHL SUB NOT AND PUSH1 0x1 PUSH1 0x1 PUSH1 0xA0 SHL SUB SWAP1 SWAP3 AND SWAP2 SWAP1 SWAP2 OR SWAP1 SSTORE POP PUSH3 0x3CC SWAP1 POP JUMP JUMPDEST CALLER PUSH1 0x1 PUSH1 0x1 PUSH1 0xA0 SHL SUB DUP3 AND SUB PUSH3 0x1E5 JUMPI PUSH1 0x40 MLOAD PUSH3 0x461BCD PUSH1 0xE5 SHL DUP2 MSTORE PUSH1 0x20 PUSH1 0x4 DUP3 ADD MSTORE PUSH1 0x17 PUSH1 0x24 DUP3 ADD MSTORE PUSH32 0x43616E6E6F74207472616E7366657220746F2073656C66000000000000000000 PUSH1 0x44 DUP3 ADD MSTORE PUSH1 0x64 ADD PUSH3 0x123 JUMP JUMPDEST PUSH1 0x1 DUP1 SLOAD PUSH1 0x1 PUSH1 0x1 PUSH1 0xA0 SHL SUB NOT AND PUSH1 0x1 PUSH1 0x1 PUSH1 0xA0 SHL SUB DUP4 DUP2 AND SWAP2 DUP3 OR SWAP1 SWAP3 SSTORE PUSH0 DUP1 SLOAD PUSH1 0x40 MLOAD SWAP3 SWAP4 AND SWAP2 PUSH32 0xED8889F560326EB138920D842192F0EB3DD22B4F139C87A2C57538E05BAE1278 SWAP2 SWAP1 LOG3 POP JUMP JUMPDEST PUSH4 0x4E487B71 PUSH1 0xE0 SHL PUSH0 MSTORE PUSH1 0x41 PUSH1 0x4 MSTORE PUSH1 0x24 PUSH0 REVERT JUMPDEST PUSH1 0x1 DUP2 DUP2 SHR SWAP1 DUP3 AND DUP1 PUSH3 0x25E JUMPI PUSH1 0x7F DUP3 AND SWAP2 POP JUMPDEST PUSH1 0x20 DUP3 LT DUP2 SUB PUSH3 0x27D JUMPI PUSH4 0x4E487B71 PUSH1 0xE0 SHL PUSH0 MSTORE PUSH1 0x22 PUSH1 0x4 MSTORE PUSH1 0x24 PUSH0 REVERT JUMPDEST POP SWAP2 SWAP1 POP JUMP JUMPDEST PUSH1 0x1F DUP3 GT ISZERO PUSH3 0x2D0 JUMPI PUSH0 DUP2 DUP2 MSTORE PUSH1 0x20 DUP2 KECCAK256 PUSH1 0x1F DUP6 ADD PUSH1 0x5 SHR DUP2 ADD PUSH1 0x20 DUP7 LT ISZERO PUSH3 0x2AB JUMPI POP DUP1 JUMPDEST PUSH1 0x1F DUP6 ADD PUSH1 0x5 SHR DUP3 ADD SWAP2 POP JUMPDEST DUP2 DUP2 LT ISZERO PUSH3 0x2CC JUMPI DUP3 DUP2 SSTORE PUSH1 0x1 ADD PUSH3 0x2B7 JUMP JUMPDEST POP POP POP JUMPDEST POP POP POP JUMP JUMPDEST DUP2 MLOAD PUSH1 0x1 PUSH1 0x1 PUSH1 0x40 SHL SUB DUP2 GT ISZERO PUSH3 0x2F1 JUMPI PUSH3 0x2F1 PUSH3 0x235 JUMP JUMPDEST PUSH3 0x309 DUP2 PUSH3 0x302 DUP5 SLOAD PUSH3 0x249 JUMP JUMPDEST DUP5 PUSH3 0x283 JUMP JUMPDEST PUSH1 0x20 DUP1 PUSH1 0x1F DUP4 GT PUSH1 0x1 DUP2 EQ PUSH3 0x33F JUMPI PUSH0 DUP5 ISZERO PUSH3 0x327 JUMPI POP DUP6 DUP4 ADD MLOAD JUMPDEST PUSH0 NOT PUSH1 0x3 DUP7 SWAP1 SHL SHR NOT AND PUSH1 0x1 DUP6 SWAP1 SHL OR DUP6 SSTORE PUSH3 0x2CC JUMP JUMPDEST PUSH0 DUP6 DUP2 MSTORE PUSH1 0x20 DUP2 KECCAK256 PUSH1 0x1F NOT DUP7 AND SWAP2 JUMPDEST DUP3 DUP2 LT ISZERO PUSH3 0x36F JUMPI DUP9 DUP7 ADD MLOAD DUP3 SSTORE SWAP5 DUP5 ADD SWAP5 PUSH1 0x1 SWAP1 SWAP2 ADD SWAP1 DUP5 ADD PUSH3 0x34E JUMP JUMPDEST POP DUP6 DUP3 LT ISZERO PUSH3 0x38D JUMPI DUP8 DUP6 ADD MLOAD PUSH0 NOT PUSH1 0x3 DUP9 SWAP1 SHL PUSH1 0xF8 AND SHR NOT AND DUP2 SSTORE JUMPDEST POP POP POP POP POP PUSH1 0x1 SWAP1 DUP2 SHL ADD SWAP1 SSTORE POP JUMP JUMPDEST PUSH0 PUSH1 0x20 DUP3 DUP5 SUB SLT ISZERO PUSH3 0x3AE JUMPI PUSH0 DUP1 REVERT JUMPDEST DUP2 MLOAD PUSH1 0x1 PUSH1 0x1 PUSH1 0xA0 SHL SUB DUP2 AND DUP2 EQ PUSH3 0x3C5 JUMPI PUSH0 DUP1 REVERT JUMPDEST SWAP4 SWAP3 POP POP POP JUMP JUMPDEST PUSH1 0x80 MLOAD PUSH1 0xA0 MLOAD PUSH2 0x33C1 PUSH3 0x3FC PUSH0 CODECOPY PUSH0 DUP2 DUP2 PUSH2 0x253 ADD MSTORE PUSH2 0x1A74 ADD MSTORE PUSH0 DUP2 DUP2 PUSH2 0x48E ADD MSTORE PUSH2 0x16BD ADD MSTORE PUSH2 0x33C1 PUSH0 RETURN INVALID PUSH1 0x80 PUSH1 0x40 MSTORE CALLVALUE DUP1 ISZERO PUSH2 0xF JUMPI PUSH0 DUP1 REVERT JUMPDEST POP PUSH1 0x4 CALLDATASIZE LT PUSH2 0x1D1 JUMPI PUSH0 CALLDATALOAD PUSH1 0xE0 SHR DUP1 PUSH4 0x85B403F8 GT PUSH2 0xFE JUMPI DUP1 PUSH4 0xCEFF496D GT PUSH2 0x9E JUMPI DUP1 PUSH4 0xF335BCCE GT PUSH2 0x6E JUMPI DUP1 PUSH4 0xF335BCCE EQ PUSH2 0x43B JUMPI DUP1 PUSH4 0xF42C13BF EQ PUSH2 0x44E JUMPI DUP1 PUSH4 0xF68016B7 EQ PUSH2 0x456 JUMPI DUP1 PUSH4 0xFC2F7CFF EQ PUSH2 0x47B JUMPI PUSH0 DUP1 REVERT JUMPDEST DUP1 PUSH4 0xCEFF496D EQ PUSH2 0x3F9 JUMPI DUP1 PUSH4 0xD201B264 EQ PUSH2 0x40C JUMPI DUP1 PUSH4 0xE6446373 EQ PUSH2 0x41F JUMPI DUP1 PUSH4 0xF2FDE38B EQ PUSH2 0x428 JUMPI PUSH0 DUP1 REVERT JUMPDEST DUP1 PUSH4 0xB187BD26 GT PUSH2 0xD9 JUMPI DUP1 PUSH4 0xB187BD26 EQ PUSH2 0x397 JUMPI DUP1 PUSH4 0xB21CA099 EQ PUSH2 0x3B4 JUMPI DUP1 PUSH4 0xBEDB86FB EQ PUSH2 0x3D3 JUMPI DUP1 PUSH4 0xC7330555 EQ PUSH2 0x3E6 JUMPI PUSH0 DUP1 REVERT JUMPDEST DUP1 PUSH4 0x85B403F8 EQ PUSH2 0x359 JUMPI DUP1 PUSH4 0x8DA5CB5B EQ PUSH2 0x36C JUMPI DUP1 PUSH4 0xA854AF2C EQ PUSH2 0x37C JUMPI PUSH0 DUP1 REVERT JUMPDEST DUP1 PUSH4 0x4F8391BC GT PUSH2 0x174 JUMPI DUP1 PUSH4 0x68447C93 GT PUSH2 0x144 JUMPI DUP1 PUSH4 0x68447C93 EQ PUSH2 0x320 JUMPI DUP1 PUSH4 0x6E04FF0D EQ PUSH2 0x335 JUMPI DUP1 PUSH4 0x6E74336B EQ PUSH2 0x348 JUMPI DUP1 PUSH4 0x79BA5097 EQ PUSH2 0x351 JUMPI PUSH0 DUP1 REVERT JUMPDEST DUP1 PUSH4 0x4F8391BC EQ PUSH2 0x2BC JUMPI DUP1 PUSH4 0x52F61F41 EQ PUSH2 0x2E3 JUMPI DUP1 PUSH4 0x57FA4508 EQ PUSH2 0x2F6 JUMPI DUP1 PUSH4 0x65170A47 EQ PUSH2 0x309 JUMPI PUSH0 DUP1 REVERT JUMPDEST DUP1 PUSH4 0x2BD16C8F GT PUSH2 0x1AF JUMPI DUP1 PUSH4 0x2BD16C8F EQ PUSH2 0x24E JUMPI DUP1 PUSH4 0x31E70508 EQ PUSH2 0x275 JUMPI DUP1 PUSH4 0x40691DB4 EQ PUSH2 0x288 JUMPI DUP1 PUSH4 0x4585E33B EQ PUSH2 0x2A9 JUMPI PUSH0 DUP1 REVERT JUMPDEST DUP1 PUSH4 0x2D45457 EQ PUSH2 0x1D5 JUMPI DUP1 PUSH4 0x9C1BA2E EQ PUSH2 0x205 JUMPI DUP1 PUSH4 0xCA76175 EQ PUSH2 0x239 JUMPI JUMPDEST PUSH0 DUP1 REVERT JUMPDEST PUSH1 0x9 SLOAD PUSH2 0x1E8 SWAP1 PUSH1 0x1 PUSH1 0x1 PUSH1 0xA0 SHL SUB AND DUP2 JUMP JUMPDEST PUSH1 0x40 MLOAD PUSH1 0x1 PUSH1 0x1 PUSH1 0xA0 SHL SUB SWAP1 SWAP2 AND DUP2 MSTORE PUSH1 0x20 ADD JUMPDEST PUSH1 0x40 MLOAD DUP1 SWAP2 SUB SWAP1 RETURN JUMPDEST PUSH1 0x7 SLOAD PUSH2 0x220 SWAP1 PUSH1 0x1 PUSH1 0xC0 SHL SWAP1 DIV PUSH8 0xFFFFFFFFFFFFFFFF AND DUP2 JUMP JUMPDEST PUSH1 0x40 MLOAD PUSH8 0xFFFFFFFFFFFFFFFF SWAP1 SWAP2 AND DUP2 MSTORE PUSH1 0x20 ADD PUSH2 0x1FC JUMP JUMPDEST PUSH2 0x24C PUSH2 0x247 CALLDATASIZE PUSH1 0x4 PUSH2 0x27A5 JUMP JUMPDEST PUSH2 0x483 JUMP JUMPDEST STOP JUMPDEST PUSH2 0x1E8 PUSH32 0x0 DUP2 JUMP JUMPDEST PUSH2 0x24C PUSH2 0x283 CALLDATASIZE PUSH1 0x4 PUSH2 0x280D JUMP JUMPDEST PUSH2 0x506 JUMP JUMPDEST PUSH2 0x29B PUSH2 0x296 CALLDATASIZE PUSH1 0x4 PUSH2 0x2824 JUMP JUMPDEST PUSH2 0x743 JUMP JUMPDEST PUSH1 0x40 MLOAD PUSH2 0x1FC SWAP3 SWAP2 SWAP1 PUSH2 0x28D9 JUMP JUMPDEST PUSH2 0x24C PUSH2 0x2B7 CALLDATASIZE PUSH1 0x4 PUSH2 0x28FB JUMP JUMPDEST PUSH2 0x7A2 JUMP JUMPDEST PUSH2 0x2CF PUSH2 0x2CA CALLDATASIZE PUSH1 0x4 PUSH2 0x280D JUMP JUMPDEST PUSH2 0x85D JUMP JUMPDEST PUSH1 0x40 MLOAD PUSH2 0x1FC SWAP9 SWAP8 SWAP7 SWAP6 SWAP5 SWAP4 SWAP3 SWAP2 SWAP1 PUSH2 0x2967 JUMP JUMPDEST PUSH1 0x8 SLOAD PUSH2 0x1E8 SWAP1 PUSH1 0x1 PUSH1 0x1 PUSH1 0xA0 SHL SUB AND DUP2 JUMP JUMPDEST PUSH2 0x24C PUSH2 0x304 CALLDATASIZE PUSH1 0x4 PUSH2 0x29DB JUMP JUMPDEST PUSH2 0x938 JUMP JUMPDEST PUSH2 0x312 PUSH1 0x5 SLOAD DUP2 JUMP JUMPDEST PUSH1 0x40 MLOAD SWAP1 DUP2 MSTORE PUSH1 0x20 ADD PUSH2 0x1FC JUMP JUMPDEST PUSH2 0x328 PUSH2 0xAAE JUMP JUMPDEST PUSH1 0x40 MLOAD PUSH2 0x1FC SWAP2 SWAP1 PUSH2 0x2A4F JUMP JUMPDEST PUSH2 0x29B PUSH2 0x343 CALLDATASIZE PUSH1 0x4 PUSH2 0x28FB JUMP JUMPDEST PUSH2 0xB3A JUMP JUMPDEST PUSH2 0x312 PUSH1 0x6 SLOAD DUP2 JUMP JUMPDEST PUSH2 0x24C PUSH2 0xCC3 JUMP JUMPDEST PUSH2 0x312 PUSH2 0x367 CALLDATASIZE PUSH1 0x4 PUSH2 0x2A70 JUMP JUMPDEST PUSH2 0xD73 JUMP JUMPDEST PUSH0 SLOAD PUSH1 0x1 PUSH1 0x1 PUSH1 0xA0 SHL SUB AND PUSH2 0x1E8 JUMP JUMPDEST PUSH1 0x7 SLOAD PUSH2 0x1E8 SWAP1 PUSH5 0x100000000 SWAP1 DIV PUSH1 0x1 PUSH1 0x1 PUSH1 0xA0 SHL SUB AND DUP2 JUMP JUMPDEST PUSH1 0xB SLOAD PUSH2 0x3A4 SWAP1 PUSH1 0xFF AND DUP2 JUMP JUMPDEST PUSH1 0x40 MLOAD SWAP1 ISZERO ISZERO DUP2 MSTORE PUSH1 0x20 ADD PUSH2 0x1FC JUMP JUMPDEST PUSH2 0x312 PUSH2 0x3C2 CALLDATASIZE PUSH1 0x4 PUSH2 0x280D JUMP JUMPDEST PUSH1 0xD PUSH1 0x20 MSTORE PUSH0 SWAP1 DUP2 MSTORE PUSH1 0x40 SWAP1 KECCAK256 SLOAD DUP2 JUMP JUMPDEST PUSH2 0x3A4 PUSH2 0x3E1 CALLDATASIZE PUSH1 0x4 PUSH2 0x2AB0 JUMP JUMPDEST PUSH2 0xEB8 JUMP JUMPDEST PUSH2 0x24C PUSH2 0x3F4 CALLDATASIZE PUSH1 0x4 PUSH2 0x2AC9 JUMP JUMPDEST PUSH2 0xEDC JUMP JUMPDEST PUSH1 0x2 SLOAD PUSH2 0x1E8 SWAP1 PUSH1 0x1 PUSH1 0x1 PUSH1 0xA0 SHL SUB AND DUP2 JUMP JUMPDEST PUSH2 0x24C PUSH2 0x41A CALLDATASIZE PUSH1 0x4 PUSH2 0x2AFA JUMP JUMPDEST PUSH2 0xF2F JUMP JUMPDEST PUSH2 0x312 PUSH1 0xA SLOAD DUP2 JUMP JUMPDEST PUSH2 0x24C PUSH2 0x436 CALLDATASIZE PUSH1 0x4 PUSH2 0x2B7B JUMP JUMPDEST PUSH2 0xFDC JUMP JUMPDEST PUSH2 0x24C PUSH2 0x449 CALLDATASIZE PUSH1 0x4 PUSH2 0x2B94 JUMP JUMPDEST PUSH2 0xFF0 JUMP JUMPDEST PUSH2 0x24C PUSH2 0x116F JUMP JUMPDEST PUSH1 0x7 SLOAD PUSH2 0x466 SWAP1 PUSH4 0xFFFFFFFF AND DUP2 JUMP JUMPDEST PUSH1 0x40 MLOAD PUSH4 0xFFFFFFFF SWAP1 SWAP2 AND DUP2 MSTORE PUSH1 0x20 ADD PUSH2 0x1FC JUMP JUMPDEST PUSH2 0x328 PUSH2 0x11A9 JUMP JUMPDEST CALLER PUSH1 0x1 PUSH1 0x1 PUSH1 0xA0 SHL SUB PUSH32 0x0 AND EQ PUSH2 0x4CC JUMPI PUSH1 0x40 MLOAD PUSH4 0xC6829F83 PUSH1 0xE0 SHL DUP2 MSTORE PUSH1 0x4 ADD PUSH1 0x40 MLOAD DUP1 SWAP2 SUB SWAP1 REVERT JUMPDEST PUSH2 0x4D7 DUP4 DUP4 DUP4 PUSH2 0x11B6 JUMP JUMPDEST PUSH1 0x40 MLOAD DUP4 SWAP1 PUSH32 0x85E1543BF2F84FE80C6BADBCE3648C8539AD1DF4D2B3D822938CA0538BE727E6 SWAP1 PUSH0 SWAP1 LOG2 POP POP POP JUMP JUMPDEST PUSH0 SLOAD PUSH1 0x1 PUSH1 0x1 PUSH1 0xA0 SHL SUB AND CALLER EQ DUP1 ISZERO SWAP1 PUSH2 0x533 JUMPI POP PUSH1 0x7 SLOAD PUSH5 0x100000000 SWAP1 DIV PUSH1 0x1 PUSH1 0x1 PUSH1 0xA0 SHL SUB AND CALLER EQ ISZERO JUMPDEST DUP1 ISZERO PUSH2 0x54A JUMPI POP PUSH1 0x8 SLOAD PUSH1 0x1 PUSH1 0x1 PUSH1 0xA0 SHL SUB AND CALLER EQ ISZERO JUMPDEST ISZERO PUSH2 0x5A6 JUMPI CALLER PUSH2 0x561 PUSH0 SLOAD PUSH1 0x1 PUSH1 0x1 PUSH1 0xA0 SHL SUB AND SWAP1 JUMP JUMPDEST PUSH1 0x7 SLOAD PUSH1 0x40 MLOAD PUSH4 0x426FBC71 PUSH1 0xE0 SHL DUP2 MSTORE PUSH1 0x1 PUSH1 0x1 PUSH1 0xA0 SHL SUB SWAP4 DUP5 AND PUSH1 0x4 DUP3 ADD MSTORE SWAP2 DUP4 AND PUSH1 0x24 DUP4 ADD MSTORE PUSH5 0x100000000 SWAP1 DIV SWAP1 SWAP2 AND PUSH1 0x44 DUP3 ADD MSTORE PUSH1 0x64 ADD JUMPDEST PUSH1 0x40 MLOAD DUP1 SWAP2 SUB SWAP1 REVERT JUMPDEST PUSH2 0x5E4 PUSH1 0x40 DUP1 MLOAD PUSH1 0xE0 DUP2 ADD SWAP1 SWAP2 MSTORE DUP1 PUSH0 DUP2 MSTORE PUSH1 0x20 ADD PUSH0 DUP2 MSTORE PUSH1 0x20 ADD PUSH0 DUP2 MSTORE PUSH1 0x20 ADD PUSH1 0x60 DUP2 MSTORE PUSH1 0x20 ADD PUSH1 0x60 DUP2 MSTORE PUSH1 0x20 ADD PUSH1 0x60 DUP2 MSTORE PUSH1 0x20 ADD PUSH1 0x60 DUP2 MSTORE POP SWAP1 JUMP JUMPDEST PUSH2 0x67F PUSH1 0xE DUP1 SLOAD PUSH2 0x5F4 SWAP1 PUSH2 0x2BD7 JUMP JUMPDEST DUP1 PUSH1 0x1F ADD PUSH1 0x20 DUP1 SWAP2 DIV MUL PUSH1 0x20 ADD PUSH1 0x40 MLOAD SWAP1 DUP2 ADD PUSH1 0x40 MSTORE DUP1 SWAP3 SWAP2 SWAP1 DUP2 DUP2 MSTORE PUSH1 0x20 ADD DUP3 DUP1 SLOAD PUSH2 0x620 SWAP1 PUSH2 0x2BD7 JUMP JUMPDEST DUP1 ISZERO PUSH2 0x66B JUMPI DUP1 PUSH1 0x1F LT PUSH2 0x642 JUMPI PUSH2 0x100 DUP1 DUP4 SLOAD DIV MUL DUP4 MSTORE SWAP2 PUSH1 0x20 ADD SWAP2 PUSH2 0x66B JUMP JUMPDEST DUP3 ADD SWAP2 SWAP1 PUSH0 MSTORE PUSH1 0x20 PUSH0 KECCAK256 SWAP1 JUMPDEST DUP2 SLOAD DUP2 MSTORE SWAP1 PUSH1 0x1 ADD SWAP1 PUSH1 0x20 ADD DUP1 DUP4 GT PUSH2 0x64E JUMPI DUP3 SWAP1 SUB PUSH1 0x1F AND DUP3 ADD SWAP2 JUMPDEST POP POP POP POP POP DUP3 PUSH2 0x1222 SWAP1 SWAP2 SWAP1 PUSH4 0xFFFFFFFF AND JUMP JUMPDEST PUSH0 DUP3 DUP2 MSTORE PUSH1 0xC PUSH1 0x20 MSTORE PUSH1 0x40 DUP2 KECCAK256 PUSH1 0x2 DUP2 ADD SLOAD DUP2 SLOAD PUSH1 0x5 DUP4 ADD SLOAD SWAP3 SWAP4 SWAP3 PUSH2 0x6B2 SWAP3 PUSH1 0x1 PUSH1 0x1 PUSH1 0xA0 SHL SUB SWAP1 DUP2 AND SWAP3 AND SWAP1 PUSH2 0x1232 JUMP JUMPDEST SWAP1 POP PUSH2 0x6BE DUP4 DUP3 PUSH2 0x1347 JUMP JUMPDEST PUSH0 PUSH2 0x6EF PUSH2 0x6CB DUP6 PUSH2 0x1370 JUMP JUMPDEST PUSH1 0x7 SLOAD PUSH1 0x6 SLOAD PUSH8 0xFFFFFFFFFFFFFFFF PUSH1 0x1 PUSH1 0xC0 SHL DUP4 DIV AND SWAP2 PUSH4 0xFFFFFFFF AND SWAP1 PUSH2 0x16B9 JUMP JUMPDEST PUSH0 DUP2 DUP2 MSTORE PUSH1 0xD PUSH1 0x20 SWAP1 DUP2 MSTORE PUSH1 0x40 SWAP2 DUP3 SWAP1 KECCAK256 DUP9 SWAP1 SSTORE DUP2 MLOAD DUP4 DUP2 MSTORE SWAP1 DUP2 ADD DUP9 SWAP1 MSTORE SWAP2 SWAP3 POP PUSH32 0x7B0781C2059D56137F2D3814F1213C0BBBD546FF1F4E1A95A7B41F4234E9EE32 SWAP2 ADD PUSH1 0x40 MLOAD DUP1 SWAP2 SUB SWAP1 LOG1 POP POP POP POP POP JUMP JUMPDEST PUSH1 0x1 PUSH1 0x60 PUSH2 0x754 PUSH1 0xC0 DUP6 ADD DUP6 PUSH2 0x2C0F JUMP JUMPDEST PUSH0 DUP2 DUP2 LT PUSH2 0x764 JUMPI PUSH2 0x764 PUSH2 0x2C55 JUMP JUMPDEST SWAP1 POP PUSH1 0x20 MUL ADD CALLDATALOAD PUSH1 0x1 PUSH1 0x40 MLOAD PUSH1 0x20 ADD PUSH2 0x78A SWAP3 SWAP2 SWAP1 SWAP2 DUP3 MSTORE PUSH1 0xFF AND PUSH1 0x20 DUP3 ADD MSTORE PUSH1 0x40 ADD SWAP1 JUMP JUMPDEST PUSH1 0x40 MLOAD PUSH1 0x20 DUP2 DUP4 SUB SUB DUP2 MSTORE SWAP1 PUSH1 0x40 MSTORE SWAP1 POP SWAP3 POP SWAP3 SWAP1 POP JUMP JUMPDEST PUSH0 PUSH2 0x7AF DUP3 DUP5 ADD DUP5 PUSH2 0x2C79 JUMP JUMPDEST SWAP2 POP POP DUP1 PUSH1 0xFF AND PUSH0 SUB PUSH2 0x7FE JUMPI PUSH0 PUSH2 0x7C9 DUP4 DUP6 ADD DUP6 PUSH2 0x2C79 JUMP JUMPDEST POP PUSH0 DUP2 DUP2 MSTORE PUSH1 0xC PUSH1 0x20 MSTORE PUSH1 0x40 SWAP1 KECCAK256 SWAP1 SWAP2 POP PUSH2 0x7E3 DUP3 PUSH2 0x506 JUMP JUMPDEST PUSH1 0x3 DUP2 ADD SLOAD PUSH2 0x7F2 SWAP1 TIMESTAMP PUSH2 0x2CAE JUMP JUMPDEST PUSH1 0x4 SWAP1 SWAP2 ADD SSTORE POP POP POP POP JUMP JUMPDEST PUSH0 PUSH2 0x80B DUP4 DUP6 ADD DUP6 PUSH2 0x2C79 JUMP JUMPDEST POP PUSH0 DUP2 DUP2 MSTORE PUSH1 0xD PUSH1 0x20 SWAP1 DUP2 MSTORE PUSH1 0x40 DUP1 DUP4 KECCAK256 SLOAD DUP1 DUP5 MSTORE PUSH1 0xC SWAP1 SWAP3 MSTORE DUP1 DUP4 KECCAK256 SWAP1 MLOAD SWAP4 SWAP5 POP SWAP1 SWAP3 SWAP1 SWAP2 PUSH32 0x86DDAC84EAAEC71FDAE4FE8D465DDEEE49DBEE5F47C5A521BE72B338363A380D SWAP2 LOG1 POP POP POP JUMPDEST POP POP POP JUMP JUMPDEST PUSH1 0xC PUSH1 0x20 MSTORE PUSH0 SWAP1 DUP2 MSTORE PUSH1 0x40 SWAP1 KECCAK256 DUP1 SLOAD PUSH1 0x1 DUP3 ADD SLOAD PUSH1 0x2 DUP4 ADD SLOAD PUSH1 0x3 DUP5 ADD SLOAD PUSH1 0x4 DUP6 ADD SLOAD PUSH1 0x5 DUP7 ADD SLOAD PUSH1 0x6 DUP8 ADD DUP1 SLOAD PUSH1 0x1 PUSH1 0x1 PUSH1 0xA0 SHL SUB SWAP8 DUP9 AND SWAP9 SWAP7 DUP9 AND SWAP8 SWAP1 SWAP6 AND SWAP6 SWAP4 SWAP5 SWAP3 SWAP4 SWAP2 SWAP3 PUSH2 0x8AE SWAP1 PUSH2 0x2BD7 JUMP JUMPDEST DUP1 PUSH1 0x1F ADD PUSH1 0x20 DUP1 SWAP2 DIV MUL PUSH1 0x20 ADD PUSH1 0x40 MLOAD SWAP1 DUP2 ADD PUSH1 0x40 MSTORE DUP1 SWAP3 SWAP2 SWAP1 DUP2 DUP2 MSTORE PUSH1 0x20 ADD DUP3 DUP1 SLOAD PUSH2 0x8DA SWAP1 PUSH2 0x2BD7 JUMP JUMPDEST DUP1 ISZERO PUSH2 0x925 JUMPI DUP1 PUSH1 0x1F LT PUSH2 0x8FC JUMPI PUSH2 0x100 DUP1 DUP4 SLOAD DIV MUL DUP4 MSTORE SWAP2 PUSH1 0x20 ADD SWAP2 PUSH2 0x925 JUMP JUMPDEST DUP3 ADD SWAP2 SWAP1 PUSH0 MSTORE PUSH1 0x20 PUSH0 KECCAK256 SWAP1 JUMPDEST DUP2 SLOAD DUP2 MSTORE SWAP1 PUSH1 0x1 ADD SWAP1 PUSH1 0x20 ADD DUP1 DUP4 GT PUSH2 0x908 JUMPI DUP3 SWAP1 SUB PUSH1 0x1F AND DUP3 ADD SWAP2 JUMPDEST POP POP POP PUSH1 0x7 SWAP1 SWAP4 ADD SLOAD SWAP2 SWAP3 POP POP PUSH1 0xFF AND DUP9 JUMP JUMPDEST PUSH0 DUP1 PUSH0 DUP1 PUSH2 0x945 DUP10 PUSH2 0x1786 JUMP JUMPDEST SWAP4 POP SWAP4 POP SWAP4 POP SWAP4 POP PUSH0 DUP3 MLOAD PUSH1 0x2 PUSH2 0x95C SWAP2 SWAP1 PUSH2 0x2CAE JUMP JUMPDEST PUSH8 0xFFFFFFFFFFFFFFFF DUP2 GT ISZERO PUSH2 0x974 JUMPI PUSH2 0x974 PUSH2 0x2708 JUMP JUMPDEST PUSH1 0x40 MLOAD SWAP1 DUP1 DUP3 MSTORE DUP1 PUSH1 0x20 MUL PUSH1 0x20 ADD DUP3 ADD PUSH1 0x40 MSTORE DUP1 ISZERO PUSH2 0x99D JUMPI DUP2 PUSH1 0x20 ADD PUSH1 0x20 DUP3 MUL DUP1 CALLDATASIZE DUP4 CALLDATACOPY ADD SWAP1 POP JUMPDEST POP SWAP1 POP DUP7 DUP2 PUSH0 DUP2 MLOAD DUP2 LT PUSH2 0x9B3 JUMPI PUSH2 0x9B3 PUSH2 0x2C55 JUMP JUMPDEST PUSH1 0x20 MUL PUSH1 0x20 ADD ADD SWAP1 PUSH1 0x1 PUSH1 0x1 PUSH1 0xA0 SHL SUB AND SWAP1 DUP2 PUSH1 0x1 PUSH1 0x1 PUSH1 0xA0 SHL SUB AND DUP2 MSTORE POP POP PUSH0 JUMPDEST DUP4 MLOAD DUP2 LT ISZERO PUSH2 0xA2D JUMPI DUP4 DUP2 DUP2 MLOAD DUP2 LT PUSH2 0x9F0 JUMPI PUSH2 0x9F0 PUSH2 0x2C55 JUMP JUMPDEST PUSH1 0x20 MUL PUSH1 0x20 ADD ADD MLOAD DUP3 DUP3 PUSH1 0x1 ADD DUP2 MLOAD DUP2 LT PUSH2 0xA0D JUMPI PUSH2 0xA0D PUSH2 0x2C55 JUMP JUMPDEST PUSH1 0x1 PUSH1 0x1 PUSH1 0xA0 SHL SUB SWAP1 SWAP3 AND PUSH1 0x20 SWAP3 DUP4 MUL SWAP2 SWAP1 SWAP2 ADD SWAP1 SWAP2 ADD MSTORE PUSH1 0x1 ADD PUSH2 0x9D5 JUMP JUMPDEST POP DUP6 DUP2 PUSH1 0x1 DUP4 MLOAD PUSH2 0xA3E SWAP2 SWAP1 PUSH2 0x2CC1 JUMP JUMPDEST DUP2 MLOAD DUP2 LT PUSH2 0xA4E JUMPI PUSH2 0xA4E PUSH2 0x2C55 JUMP JUMPDEST PUSH1 0x1 PUSH1 0x1 PUSH1 0xA0 SHL SUB SWAP3 SWAP1 SWAP3 AND PUSH1 0x20 SWAP3 DUP4 MUL SWAP2 SWAP1 SWAP2 ADD SWAP1 SWAP2 ADD MSTORE DUP4 MLOAD DUP3 MLOAD PUSH0 SWAP2 PUSH2 0xA7B SWAP2 DUP13 SWAP2 SWAP1 DUP6 SWAP1 PUSH2 0x1953 JUMP JUMPDEST PUSH1 0x20 DUP8 ADD MLOAD DUP8 MLOAD DUP8 MLOAD SWAP3 SWAP4 POP SWAP1 SWAP2 DUP13 SWAP2 PUSH2 0xA9F SWAP2 DUP14 SWAP1 PUSH1 0x80 SHR DUP6 DUP1 DUP16 DUP16 DUP9 DUP12 PUSH2 0x1B15 JUMP JUMPDEST POP POP POP POP POP POP POP POP POP POP POP POP POP JUMP JUMPDEST PUSH1 0x4 DUP1 SLOAD PUSH2 0xABB SWAP1 PUSH2 0x2BD7 JUMP JUMPDEST DUP1 PUSH1 0x1F ADD PUSH1 0x20 DUP1 SWAP2 DIV MUL PUSH1 0x20 ADD PUSH1 0x40 MLOAD SWAP1 DUP2 ADD PUSH1 0x40 MSTORE DUP1 SWAP3 SWAP2 SWAP1 DUP2 DUP2 MSTORE PUSH1 0x20 ADD DUP3 DUP1 SLOAD PUSH2 0xAE7 SWAP1 PUSH2 0x2BD7 JUMP JUMPDEST DUP1 ISZERO PUSH2 0xB32 JUMPI DUP1 PUSH1 0x1F LT PUSH2 0xB09 JUMPI PUSH2 0x100 DUP1 DUP4 SLOAD DIV MUL DUP4 MSTORE SWAP2 PUSH1 0x20 ADD SWAP2 PUSH2 0xB32 JUMP JUMPDEST DUP3 ADD SWAP2 SWAP1 PUSH0 MSTORE PUSH1 0x20 PUSH0 KECCAK256 SWAP1 JUMPDEST DUP2 SLOAD DUP2 MSTORE SWAP1 PUSH1 0x1 ADD SWAP1 PUSH1 0x20 ADD DUP1 DUP4 GT PUSH2 0xB15 JUMPI DUP3 SWAP1 SUB PUSH1 0x1F AND DUP3 ADD SWAP2 JUMPDEST POP POP POP POP POP DUP2 JUMP JUMPDEST PUSH0 PUSH1 0x60 PUSH0 JUMPDEST PUSH1 0x5 SLOAD DUP2 LT ISZERO PUSH2 0xCBA JUMPI PUSH0 DUP2 DUP2 MSTORE PUSH1 0xC PUSH1 0x20 SWAP1 DUP2 MSTORE PUSH1 0x40 DUP1 DUP4 KECCAK256 DUP2 MLOAD PUSH2 0x100 DUP2 ADD DUP4 MSTORE DUP2 SLOAD PUSH1 0x1 PUSH1 0x1 PUSH1 0xA0 SHL SUB SWAP1 DUP2 AND DUP3 MSTORE PUSH1 0x1 DUP4 ADD SLOAD DUP2 AND SWAP5 DUP3 ADD SWAP5 SWAP1 SWAP5 MSTORE PUSH1 0x2 DUP3 ADD SLOAD SWAP1 SWAP4 AND SWAP2 DUP4 ADD SWAP2 SWAP1 SWAP2 MSTORE PUSH1 0x3 DUP2 ADD SLOAD PUSH1 0x60 DUP4 ADD MSTORE PUSH1 0x4 DUP2 ADD SLOAD PUSH1 0x80 DUP4 ADD MSTORE PUSH1 0x5 DUP2 ADD SLOAD PUSH1 0xA0 DUP4 ADD MSTORE PUSH1 0x6 DUP2 ADD DUP1 SLOAD PUSH1 0xC0 DUP5 ADD SWAP2 SWAP1 PUSH2 0xBC1 SWAP1 PUSH2 0x2BD7 JUMP JUMPDEST DUP1 PUSH1 0x1F ADD PUSH1 0x20 DUP1 SWAP2 DIV MUL PUSH1 0x20 ADD PUSH1 0x40 MLOAD SWAP1 DUP2 ADD PUSH1 0x40 MSTORE DUP1 SWAP3 SWAP2 SWAP1 DUP2 DUP2 MSTORE PUSH1 0x20 ADD DUP3 DUP1 SLOAD PUSH2 0xBED SWAP1 PUSH2 0x2BD7 JUMP JUMPDEST DUP1 ISZERO PUSH2 0xC38 JUMPI DUP1 PUSH1 0x1F LT PUSH2 0xC0F JUMPI PUSH2 0x100 DUP1 DUP4 SLOAD DIV MUL DUP4 MSTORE SWAP2 PUSH1 0x20 ADD SWAP2 PUSH2 0xC38 JUMP JUMPDEST DUP3 ADD SWAP2 SWAP1 PUSH0 MSTORE PUSH1 0x20 PUSH0 KECCAK256 SWAP1 JUMPDEST DUP2 SLOAD DUP2 MSTORE SWAP1 PUSH1 0x1 ADD SWAP1 PUSH1 0x20 ADD DUP1 DUP4 GT PUSH2 0xC1B JUMPI DUP3 SWAP1 SUB PUSH1 0x1F AND DUP3 ADD SWAP2 JUMPDEST POP POP POP SWAP2 DUP4 MSTORE POP POP PUSH1 0x7 SWAP2 SWAP1 SWAP2 ADD SLOAD PUSH1 0xFF AND ISZERO ISZERO PUSH1 0x20 SWAP1 SWAP2 ADD MSTORE DUP1 MLOAD SWAP1 SWAP2 POP PUSH1 0x1 PUSH1 0x1 PUSH1 0xA0 SHL SUB AND ISZERO PUSH2 0xCA7 JUMPI PUSH1 0x80 DUP2 ADD MLOAD PUSH1 0x40 DUP1 MLOAD PUSH1 0x20 DUP2 ADD DUP6 SWAP1 MSTORE PUSH0 DUP2 DUP4 ADD MSTORE DUP2 MLOAD DUP1 DUP3 SUB DUP4 ADD DUP2 MSTORE PUSH1 0x60 SWAP1 SWAP2 ADD SWAP1 SWAP2 MSTORE TIMESTAMP SWAP2 SWAP1 SWAP2 LT DUP1 ISZERO SWAP6 POP SWAP1 SWAP4 POP DUP5 SWAP1 PUSH2 0xCA5 JUMPI POP POP POP PUSH2 0xCBC JUMP JUMPDEST POP JUMPDEST POP DUP1 PUSH2 0xCB2 DUP2 PUSH2 0x2CD4 JUMP JUMPDEST SWAP2 POP POP PUSH2 0xB3F JUMP JUMPDEST POP JUMPDEST SWAP3 POP SWAP3 SWAP1 POP JUMP JUMPDEST PUSH1 0x1 SLOAD PUSH1 0x1 PUSH1 0x1 PUSH1 0xA0 SHL SUB AND CALLER EQ PUSH2 0xD1D JUMPI PUSH1 0x40 MLOAD PUSH3 0x461BCD PUSH1 0xE5 SHL DUP2 MSTORE PUSH1 0x20 PUSH1 0x4 DUP3 ADD MSTORE PUSH1 0x16 PUSH1 0x24 DUP3 ADD MSTORE PUSH32 0x4D7573742062652070726F706F736564206F776E657200000000000000000000 PUSH1 0x44 DUP3 ADD MSTORE PUSH1 0x64 ADD PUSH2 0x59D JUMP JUMPDEST PUSH0 DUP1 SLOAD CALLER PUSH1 0x1 PUSH1 0x1 PUSH1 0xA0 SHL SUB NOT DUP1 DUP4 AND DUP3 OR DUP5 SSTORE PUSH1 0x1 DUP1 SLOAD SWAP1 SWAP2 AND SWAP1 SSTORE PUSH1 0x40 MLOAD PUSH1 0x1 PUSH1 0x1 PUSH1 0xA0 SHL SUB SWAP1 SWAP3 AND SWAP3 SWAP1 SWAP2 DUP4 SWAP2 PUSH32 0x8BE0079C531659141344CD1FD0A4F28419497F9722A3DAAFE3B4186F6B6457E0 SWAP2 LOG3 POP JUMP JUMPDEST PUSH0 PUSH1 0x5 SLOAD DUP7 GT ISZERO PUSH2 0xDC6 JUMPI PUSH1 0x40 MLOAD PUSH3 0x461BCD PUSH1 0xE5 SHL DUP2 MSTORE PUSH1 0x20 PUSH1 0x4 DUP3 ADD MSTORE PUSH1 0x13 PUSH1 0x24 DUP3 ADD MSTORE PUSH32 0x496E646578206F7574206F6620626F756E647300000000000000000000000000 PUSH1 0x44 DUP3 ADD MSTORE PUSH1 0x64 ADD PUSH2 0x59D JUMP JUMPDEST PUSH0 DUP7 DUP2 MSTORE PUSH1 0xC PUSH1 0x20 MSTORE PUSH1 0x40 SWAP1 KECCAK256 DUP1 SLOAD PUSH1 0x1 PUSH1 0x1 PUSH1 0xA0 SHL SUB AND CALLER EQ PUSH2 0xE2C JUMPI PUSH1 0x40 MLOAD PUSH3 0x461BCD PUSH1 0xE5 SHL DUP2 MSTORE PUSH1 0x20 PUSH1 0x4 DUP3 ADD MSTORE PUSH1 0xC PUSH1 0x24 DUP3 ADD MSTORE PUSH32 0x556E617574686F72697A65640000000000000000000000000000000000000000 PUSH1 0x44 DUP3 ADD MSTORE PUSH1 0x64 ADD PUSH2 0x59D JUMP JUMPDEST PUSH1 0x2 DUP2 ADD DUP1 SLOAD PUSH1 0x1 PUSH1 0x1 PUSH1 0xA0 SHL SUB NOT AND PUSH1 0x1 PUSH1 0x1 PUSH1 0xA0 SHL SUB DUP9 DUP2 AND SWAP2 SWAP1 SWAP2 OR SWAP1 SWAP2 SSTORE PUSH1 0x3 DUP3 ADD DUP7 SWAP1 SSTORE PUSH1 0x5 DUP3 ADD DUP6 SWAP1 SSTORE PUSH1 0x7 DUP3 ADD DUP1 SLOAD PUSH1 0xFF NOT AND DUP6 ISZERO ISZERO OR SWAP1 SSTORE DUP2 SLOAD PUSH1 0x40 MLOAD SWAP2 AND SWAP1 PUSH32 0xE37E30806160897C744BF2D44D2950AF6D5919D67C9C6670901B6C3CB06704A2 SWAP1 PUSH2 0xEA5 SWAP1 DUP11 SWAP1 DUP6 SWAP1 TIMESTAMP SWAP1 PUSH2 0x2D65 JUMP JUMPDEST PUSH1 0x40 MLOAD DUP1 SWAP2 SUB SWAP1 LOG2 POP SWAP5 SWAP6 SWAP5 POP POP POP POP POP JUMP JUMPDEST PUSH0 PUSH2 0xEC1 PUSH2 0x1D2F JUMP JUMPDEST POP PUSH1 0xB DUP1 SLOAD PUSH1 0xFF NOT AND DUP3 ISZERO ISZERO SWAP1 DUP2 OR SWAP1 SWAP2 SSTORE PUSH1 0xFF AND JUMPDEST SWAP2 SWAP1 POP JUMP JUMPDEST PUSH2 0xEE4 PUSH2 0x1D2F JUMP JUMPDEST PUSH1 0x7 DUP1 SLOAD PUSH24 0xFFFFFFFFFFFFFFFFFFFFFFFFFFFFFFFFFFFFFFFF00000000 NOT AND PUSH5 0x100000000 PUSH1 0x1 PUSH1 0x1 PUSH1 0xA0 SHL SUB SWAP5 DUP6 AND MUL OR SWAP1 SSTORE PUSH1 0x8 DUP1 SLOAD PUSH1 0x1 PUSH1 0x1 PUSH1 0xA0 SHL SUB NOT AND SWAP2 SWAP1 SWAP3 AND OR SWAP1 SSTORE JUMP JUMPDEST PUSH2 0xF37 PUSH2 0x1D2F JUMP JUMPDEST PUSH1 0x9 DUP1 SLOAD PUSH1 0x1 PUSH1 0x1 PUSH1 0xA0 SHL SUB SWAP8 DUP9 AND PUSH1 0x1 PUSH1 0x1 PUSH1 0xA0 SHL SUB NOT SWAP2 DUP3 AND OR SWAP1 SWAP2 SSTORE PUSH1 0x7 DUP1 SLOAD PUSH1 0x6 SWAP7 SWAP1 SWAP7 SSTORE SWAP3 DUP8 AND PUSH5 0x100000000 MUL PUSH24 0xFFFFFFFFFFFFFFFFFFFFFFFFFFFFFFFFFFFFFFFF00000000 NOT PUSH8 0xFFFFFFFFFFFFFFFF SWAP1 SWAP6 AND PUSH1 0x1 PUSH1 0xC0 SHL MUL PUSH24 0xFFFFFFFFFFFFFFFFFFFFFFFFFFFFFFFFFFFFFFFF00000000 SWAP1 SWAP7 AND PUSH4 0xFFFFFFFF SWAP1 SWAP8 AND SWAP7 SWAP1 SWAP7 OR SWAP5 SWAP1 SWAP5 OR SWAP3 SWAP1 SWAP3 AND SWAP4 SWAP1 SWAP4 OR SWAP1 SWAP3 SSTORE PUSH1 0x8 DUP1 SLOAD SWAP3 SWAP1 SWAP4 AND SWAP2 AND OR SWAP1 SSTORE JUMP JUMPDEST PUSH2 0xFE4 PUSH2 0x1D2F JUMP JUMPDEST PUSH2 0xFED DUP2 PUSH2 0x1D8A JUMP JUMPDEST POP JUMP JUMPDEST PUSH1 0x40 DUP1 MLOAD PUSH2 0x100 DUP2 ADD DUP3 MSTORE CALLER DUP2 MSTORE PUSH1 0x9 SLOAD PUSH1 0x1 PUSH1 0x1 PUSH1 0xA0 SHL SUB SWAP1 DUP2 AND PUSH1 0x20 DUP4 ADD MSTORE DUP7 AND SWAP2 DUP2 ADD SWAP2 SWAP1 SWAP2 MSTORE PUSH1 0x60 DUP2 ADD DUP5 SWAP1 MSTORE PUSH0 SWAP1 PUSH1 0x80 DUP2 ADD PUSH2 0x1031 DUP7 TIMESTAMP PUSH2 0x2CAE JUMP JUMPDEST DUP2 MSTORE PUSH1 0x20 DUP1 DUP3 ADD DUP7 SWAP1 MSTORE PUSH1 0x40 DUP1 MLOAD DUP1 DUP3 ADD DUP3 MSTORE PUSH1 0x1 DUP1 DUP3 MSTORE PUSH0 DUP3 DUP6 ADD DUP2 SWAP1 MSTORE DUP4 DUP7 ADD SWAP3 SWAP1 SWAP3 MSTORE DUP8 ISZERO ISZERO PUSH1 0x60 SWAP6 DUP7 ADD MSTORE PUSH1 0xA SLOAD DUP1 DUP4 MSTORE PUSH1 0xC DUP6 MSTORE SWAP2 DUP4 SWAP1 KECCAK256 DUP7 MLOAD DUP2 SLOAD PUSH1 0x1 PUSH1 0x1 PUSH1 0xA0 SHL SUB NOT SWAP1 DUP2 AND PUSH1 0x1 PUSH1 0x1 PUSH1 0xA0 SHL SUB SWAP3 DUP4 AND OR DUP4 SSTORE SWAP6 DUP9 ADD MLOAD SWAP3 DUP3 ADD DUP1 SLOAD DUP8 AND SWAP4 DUP3 AND SWAP4 SWAP1 SWAP4 OR SWAP1 SWAP3 SSTORE SWAP3 DUP7 ADD MLOAD PUSH1 0x2 DUP5 ADD DUP1 SLOAD SWAP1 SWAP6 AND SWAP2 AND OR SWAP1 SWAP3 SSTORE SWAP2 DUP4 ADD MLOAD PUSH1 0x3 DUP4 ADD SSTORE PUSH1 0x80 DUP4 ADD MLOAD PUSH1 0x4 DUP4 ADD SSTORE PUSH1 0xA0 DUP4 ADD MLOAD PUSH1 0x5 DUP4 ADD SSTORE PUSH1 0xC0 DUP4 ADD MLOAD SWAP3 SWAP4 POP SWAP2 DUP4 SWAP2 SWAP1 PUSH1 0x6 DUP3 ADD SWAP1 PUSH2 0x10EC SWAP1 DUP3 PUSH2 0x2E67 JUMP JUMPDEST POP PUSH1 0xE0 SWAP2 SWAP1 SWAP2 ADD MLOAD PUSH1 0x7 SWAP1 SWAP2 ADD DUP1 SLOAD PUSH1 0xFF NOT AND SWAP2 ISZERO ISZERO SWAP2 SWAP1 SWAP2 OR SWAP1 SSTORE PUSH1 0xA DUP1 SLOAD PUSH1 0x1 SWAP1 DUP2 ADD SWAP1 SWAP2 SSTORE PUSH1 0x5 DUP1 SLOAD SWAP1 SWAP2 ADD SWAP1 SSTORE DUP2 MLOAD PUSH1 0x40 MLOAD PUSH1 0x1 PUSH1 0x1 PUSH1 0xA0 SHL SUB SWAP1 SWAP2 AND SWAP1 PUSH32 0x1EA3633187516D8D1DCFFAC00317AE427B9D580B6F39E021DAC78033F94EB08B SWAP1 PUSH2 0x115F SWAP1 DUP6 SWAP1 DUP6 SWAP1 TIMESTAMP SWAP1 PUSH2 0x2F23 JUMP JUMPDEST PUSH1 0x40 MLOAD DUP1 SWAP2 SUB SWAP1 LOG2 POP POP POP POP POP POP JUMP JUMPDEST PUSH0 DUP1 SHL PUSH32 0x7873807BF6DDC50401CD3D29BBE0DECEE23FD4D68D273F4B5EB83CDED4D2F172 PUSH1 0x40 MLOAD PUSH2 0x119F SWAP1 PUSH2 0x2FC8 JUMP JUMPDEST PUSH1 0x40 MLOAD DUP1 SWAP2 SUB SWAP1 LOG2 JUMP JUMPDEST PUSH1 0x3 DUP1 SLOAD PUSH2 0xABB SWAP1 PUSH2 0x2BD7 JUMP JUMPDEST PUSH0 DUP4 DUP2 MSTORE PUSH1 0xD PUSH1 0x20 SWAP1 DUP2 MSTORE PUSH1 0x40 DUP1 DUP4 KECCAK256 SLOAD DUP1 DUP5 MSTORE PUSH1 0xC SWAP1 SWAP3 MSTORE SWAP1 SWAP2 KECCAK256 PUSH1 0x6 DUP2 ADD PUSH2 0x11E0 DUP6 DUP3 PUSH2 0x2E67 JUMP JUMPDEST POP DUP5 PUSH32 0x7873807BF6DDC50401CD3D29BBE0DECEE23FD4D68D273F4B5EB83CDED4D2F172 DUP6 DUP6 PUSH1 0x40 MLOAD PUSH2 0x1213 SWAP3 SWAP2 SWAP1 PUSH2 0x3000 JUMP JUMPDEST PUSH1 0x40 MLOAD DUP1 SWAP2 SUB SWAP1 LOG2 POP POP POP POP POP JUMP JUMPDEST PUSH2 0x122E DUP3 PUSH0 DUP1 DUP5 PUSH2 0x1E32 JUMP JUMPDEST POP POP JUMP JUMPDEST PUSH1 0x60 PUSH0 PUSH2 0x1275 DUP6 PUSH1 0x40 MLOAD PUSH1 0x20 ADD PUSH2 0x1261 SWAP2 SWAP1 PUSH1 0x60 SWAP2 SWAP1 SWAP2 SHL PUSH12 0xFFFFFFFFFFFFFFFFFFFFFFFF NOT AND DUP2 MSTORE PUSH1 0x14 ADD SWAP1 JUMP JUMPDEST PUSH1 0x40 MLOAD PUSH1 0x20 DUP2 DUP4 SUB SUB DUP2 MSTORE SWAP1 PUSH1 0x40 MSTORE PUSH2 0x1EAF JUMP JUMPDEST PUSH1 0x40 MLOAD PUSH12 0xFFFFFFFFFFFFFFFFFFFFFFFF NOT PUSH1 0x60 DUP8 SWAP1 SHL AND PUSH1 0x20 DUP3 ADD MSTORE SWAP1 SWAP2 POP PUSH0 SWAP1 PUSH2 0x12A2 SWAP1 PUSH1 0x34 ADD PUSH2 0x1261 JUMP JUMPDEST SWAP1 POP PUSH0 PUSH2 0x12AE DUP6 PUSH2 0x20C1 JUMP JUMPDEST PUSH1 0x40 DUP1 MLOAD PUSH1 0x3 DUP1 DUP3 MSTORE PUSH1 0x80 DUP3 ADD SWAP1 SWAP3 MSTORE SWAP2 SWAP3 POP PUSH0 SWAP2 SWAP1 DUP2 PUSH1 0x20 ADD JUMPDEST PUSH1 0x60 DUP2 MSTORE PUSH1 0x20 ADD SWAP1 PUSH1 0x1 SWAP1 SUB SWAP1 DUP2 PUSH2 0x12C9 JUMPI SWAP1 POP POP SWAP1 POP DUP4 DUP2 PUSH0 DUP2 MLOAD DUP2 LT PUSH2 0x12F3 JUMPI PUSH2 0x12F3 PUSH2 0x2C55 JUMP JUMPDEST PUSH1 0x20 MUL PUSH1 0x20 ADD ADD DUP2 SWAP1 MSTORE POP DUP3 DUP2 PUSH1 0x1 DUP2 MLOAD DUP2 LT PUSH2 0x1312 JUMPI PUSH2 0x1312 PUSH2 0x2C55 JUMP JUMPDEST PUSH1 0x20 MUL PUSH1 0x20 ADD ADD DUP2 SWAP1 MSTORE POP DUP2 DUP2 PUSH1 0x2 DUP2 MLOAD DUP2 LT PUSH2 0x1331 JUMPI PUSH2 0x1331 PUSH2 0x2C55 JUMP JUMPDEST PUSH1 0x20 SWAP1 DUP2 MUL SWAP2 SWAP1 SWAP2 ADD ADD MSTORE SWAP8 SWAP7 POP POP POP POP POP POP POP JUMP JUMPDEST DUP1 MLOAD PUSH0 SUB PUSH2 0x1368 JUMPI PUSH1 0x40 MLOAD PUSH4 0xFE936CB7 PUSH1 0xE0 SHL DUP2 MSTORE PUSH1 0x4 ADD PUSH1 0x40 MLOAD DUP1 SWAP2 SUB SWAP1 REVERT JUMPDEST PUSH1 0xA0 SWAP1 SWAP2 ADD MSTORE JUMP JUMPDEST PUSH1 0x60 PUSH0 PUSH2 0x137E PUSH2 0x100 PUSH2 0x2151 JUMP JUMPDEST SWAP1 POP PUSH2 0x13C8 PUSH1 0x40 MLOAD DUP1 PUSH1 0x40 ADD PUSH1 0x40 MSTORE DUP1 PUSH1 0xC DUP2 MSTORE PUSH1 0x20 ADD PUSH32 0x636F64654C6F636174696F6E0000000000000000000000000000000000000000 DUP2 MSTORE POP DUP3 PUSH2 0x2171 SWAP1 SWAP2 SWAP1 PUSH4 0xFFFFFFFF AND JUMP JUMPDEST DUP3 MLOAD PUSH2 0x13E6 SWAP1 PUSH1 0x2 DUP2 GT ISZERO PUSH2 0x13DF JUMPI PUSH2 0x13DF PUSH2 0x302D JUMP JUMPDEST DUP3 SWAP1 PUSH2 0x218A JUMP JUMPDEST PUSH1 0x40 DUP1 MLOAD DUP1 DUP3 ADD SWAP1 SWAP2 MSTORE PUSH1 0x8 DUP2 MSTORE PUSH32 0x6C616E6775616765000000000000000000000000000000000000000000000000 PUSH1 0x20 DUP3 ADD MSTORE PUSH2 0x1425 SWAP1 DUP3 SWAP1 PUSH2 0x2171 JUMP JUMPDEST PUSH1 0x40 DUP4 ADD MLOAD PUSH2 0x143C SWAP1 DUP1 ISZERO PUSH2 0x13DF JUMPI PUSH2 0x13DF PUSH2 0x302D JUMP JUMPDEST PUSH1 0x40 DUP1 MLOAD DUP1 DUP3 ADD SWAP1 SWAP2 MSTORE PUSH1 0x6 DUP2 MSTORE PUSH32 0x736F757263650000000000000000000000000000000000000000000000000000 PUSH1 0x20 DUP3 ADD MSTORE PUSH2 0x147B SWAP1 DUP3 SWAP1 PUSH2 0x2171 JUMP JUMPDEST PUSH1 0x60 DUP4 ADD MLOAD PUSH2 0x148B SWAP1 DUP3 SWAP1 PUSH2 0x2171 JUMP JUMPDEST PUSH1 0xA0 DUP4 ADD MLOAD MLOAD ISZERO PUSH2 0x151E JUMPI PUSH1 0x40 DUP1 MLOAD DUP1 DUP3 ADD SWAP1 SWAP2 MSTORE PUSH1 0x4 DUP2 MSTORE PUSH4 0x61726773 PUSH1 0xE0 SHL PUSH1 0x20 DUP3 ADD MSTORE PUSH2 0x14BC SWAP1 DUP3 SWAP1 PUSH2 0x2171 JUMP JUMPDEST PUSH2 0x14C5 DUP2 PUSH2 0x21C3 JUMP JUMPDEST PUSH0 JUMPDEST DUP4 PUSH1 0xA0 ADD MLOAD MLOAD DUP2 LT ISZERO PUSH2 0x1514 JUMPI PUSH2 0x1504 DUP5 PUSH1 0xA0 ADD MLOAD DUP3 DUP2 MLOAD DUP2 LT PUSH2 0x14ED JUMPI PUSH2 0x14ED PUSH2 0x2C55 JUMP JUMPDEST PUSH1 0x20 MUL PUSH1 0x20 ADD ADD MLOAD DUP4 PUSH2 0x2171 SWAP1 SWAP2 SWAP1 PUSH4 0xFFFFFFFF AND JUMP JUMPDEST PUSH2 0x150D DUP2 PUSH2 0x2CD4 JUMP JUMPDEST SWAP1 POP PUSH2 0x14C7 JUMP JUMPDEST POP PUSH2 0x151E DUP2 PUSH2 0x21E7 JUMP JUMPDEST PUSH1 0x80 DUP4 ADD MLOAD MLOAD ISZERO PUSH2 0x1605 JUMPI PUSH0 DUP4 PUSH1 0x20 ADD MLOAD PUSH1 0x2 DUP2 GT ISZERO PUSH2 0x1540 JUMPI PUSH2 0x1540 PUSH2 0x302D JUMP JUMPDEST SUB PUSH2 0x155E JUMPI PUSH1 0x40 MLOAD PUSH4 0xA80D31F7 PUSH1 0xE0 SHL DUP2 MSTORE PUSH1 0x4 ADD PUSH1 0x40 MLOAD DUP1 SWAP2 SUB SWAP1 REVERT JUMPDEST PUSH1 0x40 DUP1 MLOAD DUP1 DUP3 ADD SWAP1 SWAP2 MSTORE PUSH1 0xF DUP2 MSTORE PUSH32 0x736563726574734C6F636174696F6E0000000000000000000000000000000000 PUSH1 0x20 DUP3 ADD MSTORE PUSH2 0x159D SWAP1 DUP3 SWAP1 PUSH2 0x2171 JUMP JUMPDEST PUSH2 0x15B6 DUP4 PUSH1 0x20 ADD MLOAD PUSH1 0x2 DUP2 GT ISZERO PUSH2 0x13DF JUMPI PUSH2 0x13DF PUSH2 0x302D JUMP JUMPDEST PUSH1 0x40 DUP1 MLOAD DUP1 DUP3 ADD SWAP1 SWAP2 MSTORE PUSH1 0x7 DUP2 MSTORE PUSH32 0x7365637265747300000000000000000000000000000000000000000000000000 PUSH1 0x20 DUP3 ADD MSTORE PUSH2 0x15F5 SWAP1 DUP3 SWAP1 PUSH2 0x2171 JUMP JUMPDEST PUSH1 0x80 DUP4 ADD MLOAD PUSH2 0x1605 SWAP1 DUP3 SWAP1 PUSH2 0x2205 JUMP JUMPDEST PUSH1 0xC0 DUP4 ADD MLOAD MLOAD ISZERO PUSH2 0x16B1 JUMPI PUSH1 0x40 DUP1 MLOAD DUP1 DUP3 ADD SWAP1 SWAP2 MSTORE PUSH1 0x9 DUP2 MSTORE PUSH32 0x6279746573417267730000000000000000000000000000000000000000000000 PUSH1 0x20 DUP3 ADD MSTORE PUSH2 0x164F SWAP1 DUP3 SWAP1 PUSH2 0x2171 JUMP JUMPDEST PUSH2 0x1658 DUP2 PUSH2 0x21C3 JUMP JUMPDEST PUSH0 JUMPDEST DUP4 PUSH1 0xC0 ADD MLOAD MLOAD DUP2 LT ISZERO PUSH2 0x16A7 JUMPI PUSH2 0x1697 DUP5 PUSH1 0xC0 ADD MLOAD DUP3 DUP2 MLOAD DUP2 LT PUSH2 0x1680 JUMPI PUSH2 0x1680 PUSH2 0x2C55 JUMP JUMPDEST PUSH1 0x20 MUL PUSH1 0x20 ADD ADD MLOAD DUP4 PUSH2 0x2205 SWAP1 SWAP2 SWAP1 PUSH4 0xFFFFFFFF AND JUMP JUMPDEST PUSH2 0x16A0 DUP2 PUSH2 0x2CD4 JUMP JUMPDEST SWAP1 POP PUSH2 0x165A JUMP JUMPDEST POP PUSH2 0x16B1 DUP2 PUSH2 0x21E7 JUMP JUMPDEST MLOAD MLOAD SWAP3 SWAP2 POP POP JUMP JUMPDEST PUSH0 DUP1 PUSH32 0x0 PUSH1 0x1 PUSH1 0x1 PUSH1 0xA0 SHL SUB AND PUSH4 0x461D2762 DUP7 DUP9 PUSH1 0x1 DUP9 DUP9 PUSH1 0x40 MLOAD DUP7 PUSH4 0xFFFFFFFF AND PUSH1 0xE0 SHL DUP2 MSTORE PUSH1 0x4 ADD PUSH2 0x1710 SWAP6 SWAP5 SWAP4 SWAP3 SWAP2 SWAP1 PUSH2 0x3041 JUMP JUMPDEST PUSH1 0x20 PUSH1 0x40 MLOAD DUP1 DUP4 SUB DUP2 PUSH0 DUP8 GAS CALL ISZERO DUP1 ISZERO PUSH2 0x172C JUMPI RETURNDATASIZE PUSH0 DUP1 RETURNDATACOPY RETURNDATASIZE PUSH0 REVERT JUMPDEST POP POP POP POP PUSH1 0x40 MLOAD RETURNDATASIZE PUSH1 0x1F NOT PUSH1 0x1F DUP3 ADD AND DUP3 ADD DUP1 PUSH1 0x40 MSTORE POP DUP2 ADD SWAP1 PUSH2 0x1750 SWAP2 SWAP1 PUSH2 0x308A JUMP JUMPDEST PUSH1 0x40 MLOAD SWAP1 SWAP2 POP DUP2 SWAP1 PUSH32 0x1131472297A800FEE664D1D89CFA8F7676FF07189ECC53F80BBB5F4969099DB8 SWAP1 PUSH0 SWAP1 LOG2 SWAP6 SWAP5 POP POP POP POP POP JUMP JUMPDEST PUSH2 0x178E PUSH2 0x2699 JUMP JUMPDEST PUSH2 0x1796 PUSH2 0x26B7 JUMP JUMPDEST PUSH1 0x60 PUSH2 0x17A0 PUSH2 0x26B7 JUMP JUMPDEST PUSH1 0x48 DUP6 MLOAD LT ISZERO PUSH2 0x17F2 JUMPI PUSH1 0x40 MLOAD PUSH3 0x461BCD PUSH1 0xE5 SHL DUP2 MSTORE PUSH1 0x20 PUSH1 0x4 DUP3 ADD MSTORE PUSH1 0x1A PUSH1 0x24 DUP3 ADD MSTORE PUSH32 0x44617461206C656E677468206D757374206265203E3D20373221000000000000 PUSH1 0x44 DUP3 ADD MSTORE PUSH1 0x64 ADD PUSH2 0x59D JUMP JUMPDEST PUSH2 0x17FA PUSH2 0x2699 JUMP JUMPDEST PUSH2 0x1802 PUSH2 0x26B7 JUMP JUMPDEST PUSH2 0x180A PUSH2 0x2699 JUMP JUMPDEST PUSH2 0x1812 PUSH2 0x26B7 JUMP JUMPDEST PUSH1 0x20 DUP10 DUP2 ADD MLOAD DUP6 MSTORE PUSH1 0x40 DUP11 ADD MLOAD DUP5 MSTORE PUSH1 0x50 DUP11 ADD MLOAD PUSH1 0x60 SHR SWAP1 DUP6 ADD MSTORE PUSH1 0x64 DUP10 ADD MLOAD DUP2 MSTORE DUP9 MLOAD PUSH1 0x5C SUB PUSH2 0x1845 JUMPI PUSH1 0x5C DUP10 ADD MLOAD DUP3 MSTORE JUMPDEST DUP9 MLOAD PUSH1 0x70 SUB PUSH2 0x1860 JUMPI PUSH1 0x5C DUP10 ADD MLOAD DUP3 MSTORE PUSH1 0x70 DUP10 ADD MLOAD PUSH1 0x20 DUP4 ADD MSTORE JUMPDEST PUSH0 DUP1 JUMPDEST PUSH1 0x2 DUP2 LT ISZERO PUSH2 0x18A6 JUMPI PUSH0 DUP5 DUP3 PUSH1 0x2 DUP2 LT PUSH2 0x187F JUMPI PUSH2 0x187F PUSH2 0x2C55 JUMP JUMPDEST PUSH1 0x20 MUL ADD MLOAD PUSH1 0x1 PUSH1 0x1 PUSH1 0xA0 SHL SUB AND EQ PUSH2 0x189E JUMPI PUSH2 0x189B DUP3 PUSH2 0x2CD4 JUMP JUMPDEST SWAP2 POP JUMPDEST PUSH1 0x1 ADD PUSH2 0x1863 JUMP JUMPDEST POP PUSH0 DUP2 PUSH8 0xFFFFFFFFFFFFFFFF DUP2 GT ISZERO PUSH2 0x18C1 JUMPI PUSH2 0x18C1 PUSH2 0x2708 JUMP JUMPDEST PUSH1 0x40 MLOAD SWAP1 DUP1 DUP3 MSTORE DUP1 PUSH1 0x20 MUL PUSH1 0x20 ADD DUP3 ADD PUSH1 0x40 MSTORE DUP1 ISZERO PUSH2 0x18EA JUMPI DUP2 PUSH1 0x20 ADD PUSH1 0x20 DUP3 MUL DUP1 CALLDATASIZE DUP4 CALLDATACOPY ADD SWAP1 POP JUMPDEST POP SWAP1 POP PUSH0 JUMPDEST DUP3 DUP2 LT ISZERO PUSH2 0x1940 JUMPI DUP5 DUP2 PUSH1 0x2 DUP2 LT PUSH2 0x1909 JUMPI PUSH2 0x1909 PUSH2 0x2C55 JUMP JUMPDEST PUSH1 0x20 MUL ADD MLOAD DUP3 DUP3 DUP2 MLOAD DUP2 LT PUSH2 0x1920 JUMPI PUSH2 0x1920 PUSH2 0x2C55 JUMP JUMPDEST PUSH1 0x1 PUSH1 0x1 PUSH1 0xA0 SHL SUB SWAP1 SWAP3 AND PUSH1 0x20 SWAP3 DUP4 MUL SWAP2 SWAP1 SWAP2 ADD SWAP1 SWAP2 ADD MSTORE PUSH1 0x1 ADD PUSH2 0x18EF JUMP JUMPDEST POP SWAP5 SWAP11 SWAP4 SWAP10 POP SWAP4 SWAP8 POP SWAP6 POP SWAP1 SWAP4 POP POP POP POP JUMP JUMPDEST PUSH1 0x60 PUSH4 0x38ED1739 PUSH1 0xE0 SHL PUSH1 0xA0 PUSH0 DUP4 DUP2 JUMPDEST DUP8 MLOAD DUP2 LT ISZERO PUSH2 0x1A07 JUMPI PUSH0 PUSH1 0x1 PUSH1 0x1 PUSH1 0xA0 SHL SUB AND DUP9 DUP3 DUP2 MLOAD DUP2 LT PUSH2 0x1988 JUMPI PUSH2 0x1988 PUSH2 0x2C55 JUMP JUMPDEST PUSH1 0x20 MUL PUSH1 0x20 ADD ADD MLOAD PUSH1 0x1 PUSH1 0x1 PUSH1 0xA0 SHL SUB AND EQ PUSH2 0x19F7 JUMPI DUP2 PUSH2 0x19C8 DUP10 DUP4 DUP2 MLOAD DUP2 LT PUSH2 0x19B4 JUMPI PUSH2 0x19B4 PUSH2 0x2C55 JUMP JUMPDEST PUSH1 0x20 MUL PUSH1 0x20 ADD ADD MLOAD PUSH1 0x1 PUSH1 0x1 PUSH1 0xA0 SHL SUB AND SWAP1 JUMP JUMPDEST PUSH1 0x40 MLOAD PUSH1 0x20 ADD PUSH2 0x19D9 SWAP3 SWAP2 SWAP1 PUSH2 0x30A1 JUMP JUMPDEST PUSH1 0x40 MLOAD PUSH1 0x20 DUP2 DUP4 SUB SUB DUP2 MSTORE SWAP1 PUSH1 0x40 MSTORE SWAP2 POP DUP3 PUSH2 0x19F4 SWAP1 PUSH2 0x2CD4 JUMP JUMPDEST SWAP3 POP JUMPDEST PUSH2 0x1A00 DUP2 PUSH2 0x2CD4 JUMP JUMPDEST SWAP1 POP PUSH2 0x1963 JUMP JUMPDEST POP PUSH1 0x40 MLOAD PUSH2 0x1A1B SWAP1 DUP3 SWAP1 PUSH0 SWAP1 PUSH1 0x20 ADD PUSH2 0x30C2 JUMP JUMPDEST PUSH1 0x40 DUP1 MLOAD DUP1 DUP4 SUB PUSH1 0x1F NOT ADD DUP2 MSTORE DUP3 DUP3 MSTORE PUSH0 PUSH1 0x20 DUP5 ADD MSTORE PUSH16 0xFFFFFFFFFFFFFFFFFFFFFFFFFFFFFFFF NOT DUP12 AND PUSH1 0x30 DUP5 ADD MSTORE SWAP3 POP DUP6 SWAP2 DUP12 SWAP2 ADD PUSH1 0x40 MLOAD PUSH1 0x20 DUP2 DUP4 SUB SUB DUP2 MSTORE SWAP1 PUSH1 0x40 MSTORE PUSH2 0x1A69 SWAP1 PUSH2 0x30ED JUMP JUMPDEST DUP6 PUSH1 0x1 PUSH1 0x1 PUSH1 0xA0 SHL SUB PUSH32 0x0 AND PUSH1 0x40 DUP1 MLOAD PUSH0 PUSH1 0x20 DUP3 ADD MSTORE PUSH32 0xFFFFFFFF00000000000000000000000000000000000000000000000000000000 DUP14 AND PUSH1 0x3C DUP3 ADD MSTORE ADD PUSH1 0x40 MLOAD PUSH1 0x20 DUP2 DUP4 SUB SUB DUP2 MSTORE SWAP1 PUSH1 0x40 MSTORE PUSH2 0x1ADF SWAP1 PUSH2 0x30ED JUMP JUMPDEST PUSH1 0x40 MLOAD PUSH2 0x1AF8 SWAP7 SWAP6 SWAP5 SWAP4 SWAP3 SWAP2 SWAP1 DUP10 SWAP1 DUP10 SWAP1 PUSH1 0x20 ADD PUSH2 0x3110 JUMP JUMPDEST PUSH1 0x40 MLOAD PUSH1 0x20 DUP2 DUP4 SUB SUB DUP2 MSTORE SWAP1 PUSH1 0x40 MSTORE SWAP5 POP POP POP POP POP SWAP5 SWAP4 POP POP POP POP JUMP JUMPDEST PUSH1 0x40 DUP1 MLOAD PUSH1 0x1 DUP1 DUP3 MSTORE DUP2 DUP4 ADD SWAP1 SWAP3 MSTORE PUSH0 SWAP2 DUP2 PUSH1 0x20 ADD JUMPDEST PUSH1 0x40 DUP1 MLOAD PUSH1 0xE0 DUP2 ADD DUP3 MSTORE PUSH0 DUP1 DUP3 MSTORE PUSH1 0x20 DUP1 DUP4 ADD DUP3 SWAP1 MSTORE SWAP3 DUP3 ADD DUP2 SWAP1 MSTORE PUSH1 0x60 DUP1 DUP4 ADD DUP3 SWAP1 MSTORE PUSH1 0x80 DUP4 ADD DUP3 SWAP1 MSTORE PUSH1 0xA0 DUP4 ADD MSTORE PUSH1 0xC0 DUP3 ADD MSTORE DUP3 MSTORE PUSH0 NOT SWAP1 SWAP3 ADD SWAP2 ADD DUP2 PUSH2 0x1B2B JUMPI SWAP1 POP POP SWAP1 POP DUP7 DUP2 PUSH0 DUP2 MLOAD DUP2 LT PUSH2 0x1B86 JUMPI PUSH2 0x1B86 PUSH2 0x2C55 JUMP JUMPDEST PUSH1 0x20 MUL PUSH1 0x20 ADD ADD MLOAD PUSH0 ADD SWAP1 PUSH1 0x1 PUSH1 0x1 PUSH1 0xA0 SHL SUB AND SWAP1 DUP2 PUSH1 0x1 PUSH1 0x1 PUSH1 0xA0 SHL SUB AND DUP2 MSTORE POP POP DUP6 DUP2 PUSH0 DUP2 MLOAD DUP2 LT PUSH2 0x1BBC JUMPI PUSH2 0x1BBC PUSH2 0x2C55 JUMP JUMPDEST PUSH1 0x20 MUL PUSH1 0x20 ADD ADD MLOAD PUSH1 0x20 ADD SWAP1 PUSH1 0x1 PUSH1 0x1 PUSH1 0xA0 SHL SUB AND SWAP1 DUP2 PUSH1 0x1 PUSH1 0x1 PUSH1 0xA0 SHL SUB AND DUP2 MSTORE POP POP DUP5 DUP2 PUSH0 DUP2 MLOAD DUP2 LT PUSH2 0x1BF3 JUMPI PUSH2 0x1BF3 PUSH2 0x2C55 JUMP JUMPDEST PUSH1 0x20 MUL PUSH1 0x20 ADD ADD MLOAD PUSH1 0x40 ADD SWAP1 PUSH1 0x1 PUSH1 0x1 PUSH1 0xA0 SHL SUB AND SWAP1 DUP2 PUSH1 0x1 PUSH1 0x1 PUSH1 0xA0 SHL SUB AND DUP2 MSTORE POP POP DUP4 DUP2 PUSH0 DUP2 MLOAD DUP2 LT PUSH2 0x1C2A JUMPI PUSH2 0x1C2A PUSH2 0x2C55 JUMP JUMPDEST PUSH1 0x20 MUL PUSH1 0x20 ADD ADD MLOAD PUSH1 0x60 ADD SWAP1 PUSH1 0x1 PUSH1 0x1 PUSH1 0xA0 SHL SUB AND SWAP1 DUP2 PUSH1 0x1 PUSH1 0x1 PUSH1 0xA0 SHL SUB AND DUP2 MSTORE POP POP DUP3 DUP2 PUSH0 DUP2 MLOAD DUP2 LT PUSH2 0x1C61 JUMPI PUSH2 0x1C61 PUSH2 0x2C55 JUMP JUMPDEST PUSH1 0x20 MUL PUSH1 0x20 ADD ADD MLOAD PUSH1 0x80 ADD DUP2 DUP2 MSTORE POP POP DUP2 DUP2 PUSH0 DUP2 MLOAD DUP2 LT PUSH2 0x1C84 JUMPI PUSH2 0x1C84 PUSH2 0x2C55 JUMP JUMPDEST PUSH1 0x20 MUL PUSH1 0x20 ADD ADD MLOAD PUSH1 0xA0 ADD DUP2 SWAP1 MSTORE POP PUSH1 0x1 DUP2 PUSH0 DUP2 MLOAD DUP2 LT PUSH2 0x1CA7 JUMPI PUSH2 0x1CA7 PUSH2 0x2C55 JUMP JUMPDEST PUSH1 0x20 SWAP1 DUP2 MUL SWAP2 SWAP1 SWAP2 ADD ADD MLOAD SWAP1 ISZERO ISZERO PUSH1 0xC0 SWAP1 SWAP2 ADD MSTORE PUSH1 0x2 SLOAD PUSH1 0x40 MLOAD PUSH4 0x8C6141B PUSH1 0xE3 SHL DUP2 MSTORE PUSH1 0x1 PUSH1 0x1 PUSH1 0xA0 SHL SUB SWAP1 SWAP2 AND SWAP1 PUSH4 0x4630A0D8 SWAP1 PUSH2 0x1CF6 SWAP1 DUP14 SWAP1 PUSH1 0x3 SWAP1 PUSH1 0x4 SWAP1 DUP16 SWAP1 DUP16 SWAP1 DUP10 SWAP1 DUP5 ADD PUSH2 0x3168 JUMP JUMPDEST PUSH0 PUSH1 0x40 MLOAD DUP1 DUP4 SUB DUP2 PUSH0 DUP8 DUP1 EXTCODESIZE ISZERO DUP1 ISZERO PUSH2 0x1D0D JUMPI PUSH0 DUP1 REVERT JUMPDEST POP GAS CALL ISZERO DUP1 ISZERO PUSH2 0x1D1F JUMPI RETURNDATASIZE PUSH0 DUP1 RETURNDATACOPY RETURNDATASIZE PUSH0 REVERT JUMPDEST POP POP POP POP POP POP POP POP POP POP POP POP POP POP JUMP JUMPDEST PUSH0 SLOAD PUSH1 0x1 PUSH1 0x1 PUSH1 0xA0 SHL SUB AND CALLER EQ PUSH2 0x1D88 JUMPI PUSH1 0x40 MLOAD PUSH3 0x461BCD PUSH1 0xE5 SHL DUP2 MSTORE PUSH1 0x20 PUSH1 0x4 DUP3 ADD MSTORE PUSH1 0x16 PUSH1 0x24 DUP3 ADD MSTORE PUSH32 0x4F6E6C792063616C6C61626C65206279206F776E657200000000000000000000 PUSH1 0x44 DUP3 ADD MSTORE PUSH1 0x64 ADD PUSH2 0x59D JUMP JUMPDEST JUMP JUMPDEST CALLER PUSH1 0x1 PUSH1 0x1 PUSH1 0xA0 SHL SUB DUP3 AND SUB PUSH2 0x1DE2 JUMPI PUSH1 0x40 MLOAD PUSH3 0x461BCD PUSH1 0xE5 SHL DUP2 MSTORE PUSH1 0x20 PUSH1 0x4 DUP3 ADD MSTORE PUSH1 0x17 PUSH1 0x24 DUP3 ADD MSTORE PUSH32 0x43616E6E6F74207472616E7366657220746F2073656C66000000000000000000 PUSH1 0x44 DUP3 ADD MSTORE PUSH1 0x64 ADD PUSH2 0x59D JUMP JUMPDEST PUSH1 0x1 DUP1 SLOAD PUSH1 0x1 PUSH1 0x1 PUSH1 0xA0 SHL SUB NOT AND PUSH1 0x1 PUSH1 0x1 PUSH1 0xA0 SHL SUB DUP4 DUP2 AND SWAP2 DUP3 OR SWAP1 SWAP3 SSTORE PUSH0 DUP1 SLOAD PUSH1 0x40 MLOAD SWAP3 SWAP4 AND SWAP2 PUSH32 0xED8889F560326EB138920D842192F0EB3DD22B4F139C87A2C57538E05BAE1278 SWAP2 SWAP1 LOG3 POP JUMP JUMPDEST DUP1 MLOAD PUSH0 SUB PUSH2 0x1E53 JUMPI PUSH1 0x40 MLOAD PUSH4 0x22CE3EDD PUSH1 0xE0 SHL DUP2 MSTORE PUSH1 0x4 ADD PUSH1 0x40 MLOAD DUP1 SWAP2 SUB SWAP1 REVERT JUMPDEST DUP4 DUP4 PUSH1 0x2 DUP2 GT ISZERO PUSH2 0x1E66 JUMPI PUSH2 0x1E66 PUSH2 0x302D JUMP JUMPDEST SWAP1 DUP2 PUSH1 0x2 DUP2 GT ISZERO PUSH2 0x1E79 JUMPI PUSH2 0x1E79 PUSH2 0x302D JUMP JUMPDEST SWAP1 MSTORE POP PUSH1 0x40 DUP5 ADD DUP3 DUP1 ISZERO PUSH2 0x1E8F JUMPI PUSH2 0x1E8F PUSH2 0x302D JUMP JUMPDEST SWAP1 DUP2 DUP1 ISZERO PUSH2 0x1E9F JUMPI PUSH2 0x1E9F PUSH2 0x302D JUMP JUMPDEST SWAP1 MSTORE POP PUSH1 0x60 SWAP1 SWAP4 ADD SWAP3 SWAP1 SWAP3 MSTORE POP POP JUMP JUMPDEST PUSH1 0x40 DUP1 MLOAD DUP1 DUP3 ADD SWAP1 SWAP2 MSTORE PUSH1 0x10 DUP2 MSTORE PUSH16 0x181899199A1A9B1B9C1CB0B131B232B3 PUSH1 0x81 SHL PUSH1 0x20 DUP3 ADD MSTORE DUP2 MLOAD PUSH1 0x60 SWAP2 SWAP1 PUSH0 SWAP1 PUSH2 0x1EE9 SWAP1 PUSH1 0x2 PUSH2 0x3272 JUMP JUMPDEST PUSH2 0x1EF4 SWAP1 PUSH1 0x2 PUSH2 0x2CAE JUMP JUMPDEST PUSH8 0xFFFFFFFFFFFFFFFF DUP2 GT ISZERO PUSH2 0x1F0C JUMPI PUSH2 0x1F0C PUSH2 0x2708 JUMP JUMPDEST PUSH1 0x40 MLOAD SWAP1 DUP1 DUP3 MSTORE DUP1 PUSH1 0x1F ADD PUSH1 0x1F NOT AND PUSH1 0x20 ADD DUP3 ADD PUSH1 0x40 MSTORE DUP1 ISZERO PUSH2 0x1F36 JUMPI PUSH1 0x20 DUP3 ADD DUP2 DUP1 CALLDATASIZE DUP4 CALLDATACOPY ADD SWAP1 POP JUMPDEST POP SWAP1 POP PUSH1 0x3 PUSH1 0xFC SHL DUP2 PUSH0 DUP2 MLOAD DUP2 LT PUSH2 0x1F50 JUMPI PUSH2 0x1F50 PUSH2 0x2C55 JUMP JUMPDEST PUSH1 0x20 ADD ADD SWAP1 PUSH1 0x1 PUSH1 0x1 PUSH1 0xF8 SHL SUB NOT AND SWAP1 DUP2 PUSH0 BYTE SWAP1 MSTORE8 POP PUSH1 0xF PUSH1 0xFB SHL DUP2 PUSH1 0x1 DUP2 MLOAD DUP2 LT PUSH2 0x1F7E JUMPI PUSH2 0x1F7E PUSH2 0x2C55 JUMP JUMPDEST PUSH1 0x20 ADD ADD SWAP1 PUSH1 0x1 PUSH1 0x1 PUSH1 0xF8 SHL SUB NOT AND SWAP1 DUP2 PUSH0 BYTE SWAP1 MSTORE8 POP PUSH0 JUMPDEST DUP5 MLOAD DUP2 LT ISZERO PUSH2 0x20B9 JUMPI DUP3 PUSH1 0x4 DUP7 DUP4 DUP2 MLOAD DUP2 LT PUSH2 0x1FB4 JUMPI PUSH2 0x1FB4 PUSH2 0x2C55 JUMP JUMPDEST ADD PUSH1 0x20 ADD MLOAD DUP3 MLOAD PUSH1 0x1 PUSH1 0x1 PUSH1 0xF8 SHL SUB NOT SWAP1 SWAP2 AND SWAP1 SWAP2 SHR PUSH1 0xF8 SHR SWAP1 DUP2 LT PUSH2 0x1FDC JUMPI PUSH2 0x1FDC PUSH2 0x2C55 JUMP JUMPDEST ADD PUSH1 0x20 ADD MLOAD PUSH1 0x1 PUSH1 0x1 PUSH1 0xF8 SHL SUB NOT AND DUP3 PUSH2 0x1FF7 DUP4 PUSH1 0x2 PUSH2 0x3272 JUMP JUMPDEST PUSH2 0x2002 SWAP1 PUSH1 0x2 PUSH2 0x2CAE JUMP JUMPDEST DUP2 MLOAD DUP2 LT PUSH2 0x2012 JUMPI PUSH2 0x2012 PUSH2 0x2C55 JUMP JUMPDEST PUSH1 0x20 ADD ADD SWAP1 PUSH1 0x1 PUSH1 0x1 PUSH1 0xF8 SHL SUB NOT AND SWAP1 DUP2 PUSH0 BYTE SWAP1 MSTORE8 POP DUP3 DUP6 DUP3 DUP2 MLOAD DUP2 LT PUSH2 0x203B JUMPI PUSH2 0x203B PUSH2 0x2C55 JUMP JUMPDEST PUSH1 0x20 SWAP2 ADD ADD MLOAD DUP2 MLOAD PUSH1 0xF8 SWAP2 SWAP1 SWAP2 SHR PUSH1 0xF AND SWAP1 DUP2 LT PUSH2 0x205B JUMPI PUSH2 0x205B PUSH2 0x2C55 JUMP JUMPDEST ADD PUSH1 0x20 ADD MLOAD PUSH1 0x1 PUSH1 0x1 PUSH1 0xF8 SHL SUB NOT AND DUP3 PUSH2 0x2076 DUP4 PUSH1 0x2 PUSH2 0x3272 JUMP JUMPDEST PUSH2 0x2081 SWAP1 PUSH1 0x3 PUSH2 0x2CAE JUMP JUMPDEST DUP2 MLOAD DUP2 LT PUSH2 0x2091 JUMPI PUSH2 0x2091 PUSH2 0x2C55 JUMP JUMPDEST PUSH1 0x20 ADD ADD SWAP1 PUSH1 0x1 PUSH1 0x1 PUSH1 0xF8 SHL SUB NOT AND SWAP1 DUP2 PUSH0 BYTE SWAP1 MSTORE8 POP DUP1 PUSH2 0x20B1 DUP2 PUSH2 0x2CD4 JUMP JUMPDEST SWAP2 POP POP PUSH2 0x1F96 JUMP JUMPDEST POP SWAP4 SWAP3 POP POP POP JUMP JUMPDEST PUSH1 0x60 PUSH0 PUSH2 0x20CD DUP4 PUSH2 0x2212 JUMP JUMPDEST PUSH1 0x1 ADD SWAP1 POP PUSH0 DUP2 PUSH8 0xFFFFFFFFFFFFFFFF DUP2 GT ISZERO PUSH2 0x20EC JUMPI PUSH2 0x20EC PUSH2 0x2708 JUMP JUMPDEST PUSH1 0x40 MLOAD SWAP1 DUP1 DUP3 MSTORE DUP1 PUSH1 0x1F ADD PUSH1 0x1F NOT AND PUSH1 0x20 ADD DUP3 ADD PUSH1 0x40 MSTORE DUP1 ISZERO PUSH2 0x2116 JUMPI PUSH1 0x20 DUP3 ADD DUP2 DUP1 CALLDATASIZE DUP4 CALLDATACOPY ADD SWAP1 POP JUMPDEST POP SWAP1 POP DUP2 DUP2 ADD PUSH1 0x20 ADD JUMPDEST PUSH0 NOT ADD PUSH16 0x181899199A1A9B1B9C1CB0B131B232B3 PUSH1 0x81 SHL PUSH1 0xA DUP7 MOD BYTE DUP2 MSTORE8 PUSH1 0xA DUP6 DIV SWAP5 POP DUP5 PUSH2 0x2120 JUMPI POP SWAP4 SWAP3 POP POP POP JUMP JUMPDEST PUSH2 0x2159 PUSH2 0x26D5 JUMP JUMPDEST DUP1 MLOAD PUSH2 0x2165 SWAP1 DUP4 PUSH2 0x22F4 JUMP JUMPDEST POP PUSH0 PUSH1 0x20 DUP3 ADD MSTORE SWAP2 SWAP1 POP JUMP JUMPDEST PUSH2 0x217E DUP3 PUSH1 0x3 DUP4 MLOAD PUSH2 0x2368 JUMP JUMPDEST DUP2 MLOAD PUSH2 0x858 SWAP1 DUP3 PUSH2 0x248F JUMP JUMPDEST DUP2 MLOAD PUSH2 0x2197 SWAP1 PUSH1 0xC2 PUSH2 0x24B6 JUMP JUMPDEST POP PUSH2 0x122E DUP3 DUP3 PUSH1 0x40 MLOAD PUSH1 0x20 ADD PUSH2 0x21AF SWAP2 DUP2 MSTORE PUSH1 0x20 ADD SWAP1 JUMP JUMPDEST PUSH1 0x40 MLOAD PUSH1 0x20 DUP2 DUP4 SUB SUB DUP2 MSTORE SWAP1 PUSH1 0x40 MSTORE PUSH2 0x2205 JUMP JUMPDEST PUSH2 0x21CE DUP2 PUSH1 0x4 PUSH2 0x251D JUMP JUMPDEST PUSH1 0x1 DUP2 PUSH1 0x20 ADD DUP2 DUP2 MLOAD PUSH2 0x21E1 SWAP2 SWAP1 PUSH2 0x2CAE JUMP JUMPDEST SWAP1 MSTORE POP POP JUMP JUMPDEST PUSH2 0x21F2 DUP2 PUSH1 0x7 PUSH2 0x251D JUMP JUMPDEST PUSH1 0x1 DUP2 PUSH1 0x20 ADD DUP2 DUP2 MLOAD PUSH2 0x21E1 SWAP2 SWAP1 PUSH2 0x2CC1 JUMP JUMPDEST PUSH2 0x217E DUP3 PUSH1 0x2 DUP4 MLOAD PUSH2 0x2368 JUMP JUMPDEST PUSH0 DUP1 PUSH27 0x184F03E93FF9F4DAA797ED6E38ED64BF6A1F010000000000000000 DUP4 LT PUSH2 0x225A JUMPI PUSH27 0x184F03E93FF9F4DAA797ED6E38ED64BF6A1F010000000000000000 DUP4 DIV SWAP3 POP PUSH1 0x40 ADD JUMPDEST PUSH14 0x4EE2D6D415B85ACEF8100000000 DUP4 LT PUSH2 0x2286 JUMPI PUSH14 0x4EE2D6D415B85ACEF8100000000 DUP4 DIV SWAP3 POP PUSH1 0x20 ADD JUMPDEST PUSH7 0x2386F26FC10000 DUP4 LT PUSH2 0x22A4 JUMPI PUSH7 0x2386F26FC10000 DUP4 DIV SWAP3 POP PUSH1 0x10 ADD JUMPDEST PUSH4 0x5F5E100 DUP4 LT PUSH2 0x22BC JUMPI PUSH4 0x5F5E100 DUP4 DIV SWAP3 POP PUSH1 0x8 ADD JUMPDEST PUSH2 0x2710 DUP4 LT PUSH2 0x22D0 JUMPI PUSH2 0x2710 DUP4 DIV SWAP3 POP PUSH1 0x4 ADD JUMPDEST PUSH1 0x64 DUP4 LT PUSH2 0x22E2 JUMPI PUSH1 0x64 DUP4 DIV SWAP3 POP PUSH1 0x2 ADD JUMPDEST PUSH1 0xA DUP4 LT PUSH2 0x22EE JUMPI PUSH1 0x1 ADD JUMPDEST SWAP3 SWAP2 POP POP JUMP JUMPDEST PUSH1 0x40 DUP1 MLOAD DUP1 DUP3 ADD SWAP1 SWAP2 MSTORE PUSH1 0x60 DUP2 MSTORE PUSH0 PUSH1 0x20 DUP3 ADD MSTORE PUSH2 0x2313 PUSH1 0x20 DUP4 PUSH2 0x3289 JUMP JUMPDEST ISZERO PUSH2 0x233B JUMPI PUSH2 0x2323 PUSH1 0x20 DUP4 PUSH2 0x3289 JUMP JUMPDEST PUSH2 0x232E SWAP1 PUSH1 0x20 PUSH2 0x2CC1 JUMP JUMPDEST PUSH2 0x2338 SWAP1 DUP4 PUSH2 0x2CAE JUMP JUMPDEST SWAP2 POP JUMPDEST PUSH1 0x20 DUP1 DUP5 ADD DUP4 SWAP1 MSTORE PUSH1 0x40 MLOAD DUP1 DUP6 MSTORE PUSH0 DUP2 MSTORE SWAP1 DUP2 DUP5 ADD ADD DUP2 DUP2 LT ISZERO PUSH2 0x235D JUMPI PUSH0 DUP1 REVERT JUMPDEST PUSH1 0x40 MSTORE POP SWAP2 SWAP3 SWAP2 POP POP JUMP JUMPDEST PUSH1 0x17 DUP2 PUSH8 0xFFFFFFFFFFFFFFFF AND GT PUSH2 0x2395 JUMPI DUP3 MLOAD PUSH2 0x238F SWAP1 PUSH1 0xE0 PUSH1 0x5 DUP6 SWAP1 SHL AND DUP4 OR PUSH2 0x24B6 JUMP JUMPDEST POP POP POP POP JUMP JUMPDEST PUSH1 0xFF DUP2 PUSH8 0xFFFFFFFFFFFFFFFF AND GT PUSH2 0x23D7 JUMPI DUP3 MLOAD PUSH2 0x23BE SWAP1 PUSH1 0x18 PUSH2 0x1FE0 PUSH1 0x5 DUP7 SWAP1 SHL AND OR PUSH2 0x24B6 JUMP JUMPDEST POP DUP3 MLOAD PUSH2 0x238F SWAP1 PUSH8 0xFFFFFFFFFFFFFFFF DUP4 AND PUSH1 0x1 PUSH2 0x2534 JUMP JUMPDEST PUSH2 0xFFFF DUP2 PUSH8 0xFFFFFFFFFFFFFFFF AND GT PUSH2 0x241A JUMPI DUP3 MLOAD PUSH2 0x2401 SWAP1 PUSH1 0x19 PUSH2 0x1FE0 PUSH1 0x5 DUP7 SWAP1 SHL AND OR PUSH2 0x24B6 JUMP JUMPDEST POP DUP3 MLOAD PUSH2 0x238F SWAP1 PUSH8 0xFFFFFFFFFFFFFFFF DUP4 AND PUSH1 0x2 PUSH2 0x2534 JUMP JUMPDEST PUSH4 0xFFFFFFFF DUP2 PUSH8 0xFFFFFFFFFFFFFFFF AND GT PUSH2 0x245F JUMPI DUP3 MLOAD PUSH2 0x2446 SWAP1 PUSH1 0x1A PUSH2 0x1FE0 PUSH1 0x5 DUP7 SWAP1 SHL AND OR PUSH2 0x24B6 JUMP JUMPDEST POP DUP3 MLOAD PUSH2 0x238F SWAP1 PUSH8 0xFFFFFFFFFFFFFFFF DUP4 AND PUSH1 0x4 PUSH2 0x2534 JUMP JUMPDEST DUP3 MLOAD PUSH2 0x2476 SWAP1 PUSH1 0x1B PUSH2 0x1FE0 PUSH1 0x5 DUP7 SWAP1 SHL AND OR PUSH2 0x24B6 JUMP JUMPDEST POP DUP3 MLOAD PUSH2 0x238F SWAP1 PUSH8 0xFFFFFFFFFFFFFFFF DUP4 AND PUSH1 0x8 PUSH2 0x2534 JUMP JUMPDEST PUSH1 0x40 DUP1 MLOAD DUP1 DUP3 ADD SWAP1 SWAP2 MSTORE PUSH1 0x60 DUP2 MSTORE PUSH0 PUSH1 0x20 DUP3 ADD MSTORE PUSH2 0x24AF DUP4 DUP4 DUP5 MLOAD PUSH2 0x25B6 JUMP JUMPDEST SWAP4 SWAP3 POP POP POP JUMP JUMPDEST PUSH1 0x40 DUP1 MLOAD DUP1 DUP3 ADD SWAP1 SWAP2 MSTORE PUSH1 0x60 DUP2 MSTORE PUSH0 PUSH1 0x20 DUP3 ADD MSTORE DUP3 MLOAD MLOAD PUSH0 PUSH2 0x24D9 DUP3 PUSH1 0x1 PUSH2 0x2CAE JUMP JUMPDEST SWAP1 POP DUP5 PUSH1 0x20 ADD MLOAD DUP3 LT PUSH2 0x24FA JUMPI PUSH2 0x24FA DUP6 PUSH2 0x24F5 DUP4 PUSH1 0x2 PUSH2 0x3272 JUMP JUMPDEST PUSH2 0x2682 JUMP JUMPDEST DUP5 MLOAD PUSH1 0x20 DUP4 DUP3 ADD ADD DUP6 DUP2 MSTORE8 POP DUP1 MLOAD DUP3 GT ISZERO PUSH2 0x2513 JUMPI DUP2 DUP2 MSTORE JUMPDEST POP SWAP4 SWAP5 SWAP4 POP POP POP POP JUMP JUMPDEST DUP2 MLOAD PUSH2 0x858 SWAP1 PUSH1 0x1F PUSH2 0x1FE0 PUSH1 0x5 DUP6 SWAP1 SHL AND OR PUSH2 0x24B6 JUMP JUMPDEST PUSH1 0x40 DUP1 MLOAD DUP1 DUP3 ADD SWAP1 SWAP2 MSTORE PUSH1 0x60 DUP2 MSTORE PUSH0 PUSH1 0x20 DUP3 ADD MSTORE DUP4 MLOAD MLOAD PUSH0 PUSH2 0x2556 DUP3 DUP6 PUSH2 0x2CAE JUMP JUMPDEST SWAP1 POP DUP6 PUSH1 0x20 ADD MLOAD DUP2 GT ISZERO PUSH2 0x2573 JUMPI PUSH2 0x2573 DUP7 PUSH2 0x24F5 DUP4 PUSH1 0x2 PUSH2 0x3272 JUMP JUMPDEST PUSH0 PUSH1 0x1 PUSH2 0x2582 DUP7 PUSH2 0x100 PUSH2 0x3380 JUMP JUMPDEST PUSH2 0x258C SWAP2 SWAP1 PUSH2 0x2CC1 JUMP JUMPDEST SWAP1 POP DUP7 MLOAD DUP3 DUP2 ADD DUP8 DUP4 NOT DUP3 MLOAD AND OR DUP2 MSTORE POP DUP1 MLOAD DUP4 GT ISZERO PUSH2 0x25AA JUMPI DUP3 DUP2 MSTORE JUMPDEST POP SWAP6 SWAP7 SWAP6 POP POP POP POP POP POP JUMP JUMPDEST PUSH1 0x40 DUP1 MLOAD DUP1 DUP3 ADD SWAP1 SWAP2 MSTORE PUSH1 0x60 DUP2 MSTORE PUSH0 PUSH1 0x20 DUP3 ADD MSTORE DUP3 MLOAD DUP3 GT ISZERO PUSH2 0x25D7 JUMPI PUSH0 DUP1 REVERT JUMPDEST DUP4 MLOAD MLOAD PUSH0 PUSH2 0x25E5 DUP5 DUP4 PUSH2 0x2CAE JUMP JUMPDEST SWAP1 POP DUP6 PUSH1 0x20 ADD MLOAD DUP2 GT ISZERO PUSH2 0x2602 JUMPI PUSH2 0x2602 DUP7 PUSH2 0x24F5 DUP4 PUSH1 0x2 PUSH2 0x3272 JUMP JUMPDEST DUP6 MLOAD DUP1 MLOAD DUP4 DUP3 ADD PUSH1 0x20 ADD SWAP2 PUSH0 SWAP2 DUP1 DUP6 GT ISZERO PUSH2 0x261B JUMPI DUP5 DUP3 MSTORE JUMPDEST POP POP POP PUSH1 0x20 DUP7 ADD JUMPDEST PUSH1 0x20 DUP7 LT PUSH2 0x265B JUMPI DUP1 MLOAD DUP3 MSTORE PUSH2 0x263A PUSH1 0x20 DUP4 PUSH2 0x2CAE JUMP JUMPDEST SWAP2 POP PUSH2 0x2647 PUSH1 0x20 DUP3 PUSH2 0x2CAE JUMP JUMPDEST SWAP1 POP PUSH2 0x2654 PUSH1 0x20 DUP8 PUSH2 0x2CC1 JUMP JUMPDEST SWAP6 POP PUSH2 0x2623 JUMP JUMPDEST MLOAD DUP2 MLOAD PUSH0 NOT PUSH1 0x20 DUP9 SWAP1 SUB PUSH2 0x100 EXP ADD SWAP1 DUP2 AND SWAP1 NOT SWAP2 SWAP1 SWAP2 AND OR SWAP1 MSTORE POP DUP5 SWAP2 POP POP SWAP4 SWAP3 POP POP POP JUMP JUMPDEST DUP2 MLOAD PUSH2 0x268E DUP4 DUP4 PUSH2 0x22F4 JUMP JUMPDEST POP PUSH2 0x238F DUP4 DUP3 PUSH2 0x248F JUMP JUMPDEST PUSH1 0x40 MLOAD DUP1 PUSH1 0x40 ADD PUSH1 0x40 MSTORE DUP1 PUSH1 0x2 SWAP1 PUSH1 0x20 DUP3 MUL DUP1 CALLDATASIZE DUP4 CALLDATACOPY POP SWAP2 SWAP3 SWAP2 POP POP JUMP JUMPDEST PUSH1 0x40 MLOAD DUP1 PUSH1 0x20 ADD PUSH1 0x40 MSTORE DUP1 PUSH1 0x1 SWAP1 PUSH1 0x20 DUP3 MUL DUP1 CALLDATASIZE DUP4 CALLDATACOPY POP SWAP2 SWAP3 SWAP2 POP POP JUMP JUMPDEST PUSH1 0x40 MLOAD DUP1 PUSH1 0x40 ADD PUSH1 0x40 MSTORE DUP1 PUSH2 0x26FC PUSH1 0x40 MLOAD DUP1 PUSH1 0x40 ADD PUSH1 0x40 MSTORE DUP1 PUSH1 0x60 DUP2 MSTORE PUSH1 0x20 ADD PUSH0 DUP2 MSTORE POP SWAP1 JUMP JUMPDEST DUP2 MSTORE PUSH1 0x20 ADD PUSH0 DUP2 MSTORE POP SWAP1 JUMP JUMPDEST PUSH4 0x4E487B71 PUSH1 0xE0 SHL PUSH0 MSTORE PUSH1 0x41 PUSH1 0x4 MSTORE PUSH1 0x24 PUSH0 REVERT JUMPDEST PUSH0 DUP3 PUSH1 0x1F DUP4 ADD SLT PUSH2 0x272B JUMPI PUSH0 DUP1 REVERT JUMPDEST DUP2 CALLDATALOAD PUSH8 0xFFFFFFFFFFFFFFFF DUP1 DUP3 GT ISZERO PUSH2 0x2746 JUMPI PUSH2 0x2746 PUSH2 0x2708 JUMP JUMPDEST PUSH1 0x40 MLOAD PUSH1 0x1F DUP4 ADD PUSH1 0x1F NOT SWAP1 DUP2 AND PUSH1 0x3F ADD AND DUP2 ADD SWAP1 DUP3 DUP3 GT DUP2 DUP4 LT OR ISZERO PUSH2 0x276E JUMPI PUSH2 0x276E PUSH2 0x2708 JUMP JUMPDEST DUP2 PUSH1 0x40 MSTORE DUP4 DUP2 MSTORE DUP7 PUSH1 0x20 DUP6 DUP9 ADD ADD GT ISZERO PUSH2 0x2786 JUMPI PUSH0 DUP1 REVERT JUMPDEST DUP4 PUSH1 0x20 DUP8 ADD PUSH1 0x20 DUP4 ADD CALLDATACOPY PUSH0 PUSH1 0x20 DUP6 DUP4 ADD ADD MSTORE DUP1 SWAP5 POP POP POP POP POP SWAP3 SWAP2 POP POP JUMP JUMPDEST PUSH0 DUP1 PUSH0 PUSH1 0x60 DUP5 DUP7 SUB SLT ISZERO PUSH2 0x27B7 JUMPI PUSH0 DUP1 REVERT JUMPDEST DUP4 CALLDATALOAD SWAP3 POP PUSH1 0x20 DUP5 ADD CALLDATALOAD PUSH8 0xFFFFFFFFFFFFFFFF DUP1 DUP3 GT ISZERO PUSH2 0x27D5 JUMPI PUSH0 DUP1 REVERT JUMPDEST PUSH2 0x27E1 DUP8 DUP4 DUP9 ADD PUSH2 0x271C JUMP JUMPDEST SWAP4 POP PUSH1 0x40 DUP7 ADD CALLDATALOAD SWAP2 POP DUP1 DUP3 GT ISZERO PUSH2 0x27F6 JUMPI PUSH0 DUP1 REVERT JUMPDEST POP PUSH2 0x2803 DUP7 DUP3 DUP8 ADD PUSH2 0x271C JUMP JUMPDEST SWAP2 POP POP SWAP3 POP SWAP3 POP SWAP3 JUMP JUMPDEST PUSH0 PUSH1 0x20 DUP3 DUP5 SUB SLT ISZERO PUSH2 0x281D JUMPI PUSH0 DUP1 REVERT JUMPDEST POP CALLDATALOAD SWAP2 SWAP1 POP JUMP JUMPDEST PUSH0 DUP1 PUSH1 0x40 DUP4 DUP6 SUB SLT ISZERO PUSH2 0x2835 JUMPI PUSH0 DUP1 REVERT JUMPDEST DUP3 CALLDATALOAD PUSH8 0xFFFFFFFFFFFFFFFF DUP1 DUP3 GT ISZERO PUSH2 0x284C JUMPI PUSH0 DUP1 REVERT JUMPDEST SWAP1 DUP5 ADD SWAP1 PUSH2 0x100 DUP3 DUP8 SUB SLT ISZERO PUSH2 0x2860 JUMPI PUSH0 DUP1 REVERT JUMPDEST SWAP1 SWAP3 POP PUSH1 0x20 DUP5 ADD CALLDATALOAD SWAP1 DUP1 DUP3 GT ISZERO PUSH2 0x2875 JUMPI PUSH0 DUP1 REVERT JUMPDEST POP PUSH2 0x2882 DUP6 DUP3 DUP7 ADD PUSH2 0x271C JUMP JUMPDEST SWAP2 POP POP SWAP3 POP SWAP3 SWAP1 POP JUMP JUMPDEST PUSH0 JUMPDEST DUP4 DUP2 LT ISZERO PUSH2 0x28A6 JUMPI DUP2 DUP2 ADD MLOAD DUP4 DUP3 ADD MSTORE PUSH1 0x20 ADD PUSH2 0x288E JUMP JUMPDEST POP POP PUSH0 SWAP2 ADD MSTORE JUMP JUMPDEST PUSH0 DUP2 MLOAD DUP1 DUP5 MSTORE PUSH2 0x28C5 DUP2 PUSH1 0x20 DUP7 ADD PUSH1 0x20 DUP7 ADD PUSH2 0x288C JUMP JUMPDEST PUSH1 0x1F ADD PUSH1 0x1F NOT AND SWAP3 SWAP1 SWAP3 ADD PUSH1 0x20 ADD SWAP3 SWAP2 POP POP JUMP JUMPDEST DUP3 ISZERO ISZERO DUP2 MSTORE PUSH1 0x40 PUSH1 0x20 DUP3 ADD MSTORE PUSH0 PUSH2 0x28F3 PUSH1 0x40 DUP4 ADD DUP5 PUSH2 0x28AE JUMP JUMPDEST SWAP5 SWAP4 POP POP POP POP JUMP JUMPDEST PUSH0 DUP1 PUSH1 0x20 DUP4 DUP6 SUB SLT ISZERO PUSH2 0x290C JUMPI PUSH0 DUP1 REVERT JUMPDEST DUP3 CALLDATALOAD PUSH8 0xFFFFFFFFFFFFFFFF DUP1 DUP3 GT ISZERO PUSH2 0x2923 JUMPI PUSH0 DUP1 REVERT JUMPDEST DUP2 DUP6 ADD SWAP2 POP DUP6 PUSH1 0x1F DUP4 ADD SLT PUSH2 0x2936 JUMPI PUSH0 DUP1 REVERT JUMPDEST DUP2 CALLDATALOAD DUP2 DUP2 GT ISZERO PUSH2 0x2944 JUMPI PUSH0 DUP1 REVERT JUMPDEST DUP7 PUSH1 0x20 DUP3 DUP6 ADD ADD GT ISZERO PUSH2 0x2955 JUMPI PUSH0 DUP1 REVERT JUMPDEST PUSH1 0x20 SWAP3 SWAP1 SWAP3 ADD SWAP7 SWAP2 SWAP6 POP SWAP1 SWAP4 POP POP POP POP JUMP JUMPDEST PUSH0 PUSH2 0x100 PUSH1 0x1 PUSH1 0x1 PUSH1 0xA0 SHL SUB DUP1 DUP13 AND DUP5 MSTORE DUP1 DUP12 AND PUSH1 0x20 DUP6 ADD MSTORE DUP1 DUP11 AND PUSH1 0x40 DUP6 ADD MSTORE POP DUP8 PUSH1 0x60 DUP5 ADD MSTORE DUP7 PUSH1 0x80 DUP5 ADD MSTORE DUP6 PUSH1 0xA0 DUP5 ADD MSTORE DUP1 PUSH1 0xC0 DUP5 ADD MSTORE PUSH2 0x29AD DUP2 DUP5 ADD DUP7 PUSH2 0x28AE JUMP JUMPDEST SWAP2 POP POP DUP3 ISZERO ISZERO PUSH1 0xE0 DUP4 ADD MSTORE SWAP10 SWAP9 POP POP POP POP POP POP POP POP POP JUMP JUMPDEST DUP1 CALLDATALOAD PUSH1 0x1 PUSH1 0x1 PUSH1 0xA0 SHL SUB DUP2 AND DUP2 EQ PUSH2 0xED7 JUMPI PUSH0 DUP1 REVERT JUMPDEST PUSH0 DUP1 PUSH0 DUP1 PUSH0 PUSH1 0xA0 DUP7 DUP9 SUB SLT ISZERO PUSH2 0x29EF JUMPI PUSH0 DUP1 REVERT JUMPDEST DUP6 CALLDATALOAD PUSH8 0xFFFFFFFFFFFFFFFF DUP2 GT ISZERO PUSH2 0x2A05 JUMPI PUSH0 DUP1 REVERT JUMPDEST PUSH2 0x2A11 DUP9 DUP3 DUP10 ADD PUSH2 0x271C JUMP JUMPDEST SWAP6 POP POP PUSH1 0x20 DUP7 ADD CALLDATALOAD SWAP4 POP PUSH2 0x2A27 PUSH1 0x40 DUP8 ADD PUSH2 0x29C5 JUMP JUMPDEST SWAP3 POP PUSH2 0x2A35 PUSH1 0x60 DUP8 ADD PUSH2 0x29C5 JUMP JUMPDEST SWAP2 POP PUSH2 0x2A43 PUSH1 0x80 DUP8 ADD PUSH2 0x29C5 JUMP JUMPDEST SWAP1 POP SWAP3 SWAP6 POP SWAP3 SWAP6 SWAP1 SWAP4 POP JUMP JUMPDEST PUSH1 0x20 DUP2 MSTORE PUSH0 PUSH2 0x24AF PUSH1 0x20 DUP4 ADD DUP5 PUSH2 0x28AE JUMP JUMPDEST DUP1 CALLDATALOAD DUP1 ISZERO ISZERO DUP2 EQ PUSH2 0xED7 JUMPI PUSH0 DUP1 REVERT JUMPDEST PUSH0 DUP1 PUSH0 DUP1 PUSH0 PUSH1 0xA0 DUP7 DUP9 SUB SLT ISZERO PUSH2 0x2A84 JUMPI PUSH0 DUP1 REVERT JUMPDEST DUP6 CALLDATALOAD SWAP5 POP PUSH2 0x2A94 PUSH1 0x20 DUP8 ADD PUSH2 0x29C5 JUMP JUMPDEST SWAP4 POP PUSH1 0x40 DUP7 ADD CALLDATALOAD SWAP3 POP PUSH1 0x60 DUP7 ADD CALLDATALOAD SWAP2 POP PUSH2 0x2A43 PUSH1 0x80 DUP8 ADD PUSH2 0x2A61 JUMP JUMPDEST PUSH0 PUSH1 0x20 DUP3 DUP5 SUB SLT ISZERO PUSH2 0x2AC0 JUMPI PUSH0 DUP1 REVERT JUMPDEST PUSH2 0x24AF DUP3 PUSH2 0x2A61 JUMP JUMPDEST PUSH0 DUP1 PUSH1 0x40 DUP4 DUP6 SUB SLT ISZERO PUSH2 0x2ADA JUMPI PUSH0 DUP1 REVERT JUMPDEST PUSH2 0x2AE3 DUP4 PUSH2 0x29C5 JUMP JUMPDEST SWAP2 POP PUSH2 0x2AF1 PUSH1 0x20 DUP5 ADD PUSH2 0x29C5 JUMP JUMPDEST SWAP1 POP SWAP3 POP SWAP3 SWAP1 POP JUMP JUMPDEST PUSH0 DUP1 PUSH0 DUP1 PUSH0 DUP1 PUSH1 0xC0 DUP8 DUP10 SUB SLT ISZERO PUSH2 0x2B0F JUMPI PUSH0 DUP1 REVERT JUMPDEST PUSH2 0x2B18 DUP8 PUSH2 0x29C5 JUMP JUMPDEST SWAP6 POP PUSH1 0x20 DUP8 ADD CALLDATALOAD PUSH4 0xFFFFFFFF DUP2 AND DUP2 EQ PUSH2 0x2B30 JUMPI PUSH0 DUP1 REVERT JUMPDEST SWAP5 POP PUSH1 0x40 DUP8 ADD CALLDATALOAD SWAP4 POP PUSH1 0x60 DUP8 ADD CALLDATALOAD PUSH8 0xFFFFFFFFFFFFFFFF DUP2 AND DUP2 EQ PUSH2 0x2B53 JUMPI PUSH0 DUP1 REVERT JUMPDEST SWAP3 POP PUSH2 0x2B61 PUSH1 0x80 DUP9 ADD PUSH2 0x29C5 JUMP JUMPDEST SWAP2 POP PUSH2 0x2B6F PUSH1 0xA0 DUP9 ADD PUSH2 0x29C5 JUMP JUMPDEST SWAP1 POP SWAP3 SWAP6 POP SWAP3 SWAP6 POP SWAP3 SWAP6 JUMP JUMPDEST PUSH0 PUSH1 0x20 DUP3 DUP5 SUB SLT ISZERO PUSH2 0x2B8B JUMPI PUSH0 DUP1 REVERT JUMPDEST PUSH2 0x24AF DUP3 PUSH2 0x29C5 JUMP JUMPDEST PUSH0 DUP1 PUSH0 DUP1 PUSH1 0x80 DUP6 DUP8 SUB SLT ISZERO PUSH2 0x2BA7 JUMPI PUSH0 DUP1 REVERT JUMPDEST PUSH2 0x2BB0 DUP6 PUSH2 0x29C5 JUMP JUMPDEST SWAP4 POP PUSH1 0x20 DUP6 ADD CALLDATALOAD SWAP3 POP PUSH1 0x40 DUP6 ADD CALLDATALOAD SWAP2 POP PUSH2 0x2BCC PUSH1 0x60 DUP7 ADD PUSH2 0x2A61 JUMP JUMPDEST SWAP1 POP SWAP3 SWAP6 SWAP2 SWAP5 POP SWAP3 POP JUMP JUMPDEST PUSH1 0x1 DUP2 DUP2 SHR SWAP1 DUP3 AND DUP1 PUSH2 0x2BEB JUMPI PUSH1 0x7F DUP3 AND SWAP2 POP JUMPDEST PUSH1 0x20 DUP3 LT DUP2 SUB PUSH2 0x2C09 JUMPI PUSH4 0x4E487B71 PUSH1 0xE0 SHL PUSH0 MSTORE PUSH1 0x22 PUSH1 0x4 MSTORE PUSH1 0x24 PUSH0 REVERT JUMPDEST POP SWAP2 SWAP1 POP JUMP JUMPDEST PUSH0 DUP1 DUP4 CALLDATALOAD PUSH1 0x1E NOT DUP5 CALLDATASIZE SUB ADD DUP2 SLT PUSH2 0x2C24 JUMPI PUSH0 DUP1 REVERT JUMPDEST DUP4 ADD DUP1 CALLDATALOAD SWAP2 POP PUSH8 0xFFFFFFFFFFFFFFFF DUP3 GT ISZERO PUSH2 0x2C3E JUMPI PUSH0 DUP1 REVERT JUMPDEST PUSH1 0x20 ADD SWAP2 POP PUSH1 0x5 DUP2 SWAP1 SHL CALLDATASIZE SUB DUP3 SGT ISZERO PUSH2 0xCBC JUMPI PUSH0 DUP1 REVERT JUMPDEST PUSH4 0x4E487B71 PUSH1 0xE0 SHL PUSH0 MSTORE PUSH1 0x32 PUSH1 0x4 MSTORE PUSH1 0x24 PUSH0 REVERT JUMPDEST DUP1 CALLDATALOAD PUSH1 0xFF DUP2 AND DUP2 EQ PUSH2 0xED7 JUMPI PUSH0 DUP1 REVERT JUMPDEST PUSH0 DUP1 PUSH1 0x40 DUP4 DUP6 SUB SLT ISZERO PUSH2 0x2C8A JUMPI PUSH0 DUP1 REVERT JUMPDEST DUP3 CALLDATALOAD SWAP2 POP PUSH2 0x2AF1 PUSH1 0x20 DUP5 ADD PUSH2 0x2C69 JUMP JUMPDEST PUSH4 0x4E487B71 PUSH1 0xE0 SHL PUSH0 MSTORE PUSH1 0x11 PUSH1 0x4 MSTORE PUSH1 0x24 PUSH0 REVERT JUMPDEST DUP1 DUP3 ADD DUP1 DUP3 GT ISZERO PUSH2 0x22EE JUMPI PUSH2 0x22EE PUSH2 0x2C9A JUMP JUMPDEST DUP2 DUP2 SUB DUP2 DUP2 GT ISZERO PUSH2 0x22EE JUMPI PUSH2 0x22EE PUSH2 0x2C9A JUMP JUMPDEST PUSH0 PUSH1 0x1 DUP3 ADD PUSH2 0x2CE5 JUMPI PUSH2 0x2CE5 PUSH2 0x2C9A JUMP JUMPDEST POP PUSH1 0x1 ADD SWAP1 JUMP JUMPDEST PUSH0 DUP2 SLOAD PUSH2 0x2CF8 DUP2 PUSH2 0x2BD7 JUMP JUMPDEST DUP1 DUP6 MSTORE PUSH1 0x20 PUSH1 0x1 DUP4 DUP2 AND DUP1 ISZERO PUSH2 0x2D15 JUMPI PUSH1 0x1 DUP2 EQ PUSH2 0x2D2F JUMPI PUSH2 0x2D5A JUMP JUMPDEST PUSH1 0xFF NOT DUP6 AND DUP9 DUP5 ADD MSTORE DUP4 ISZERO ISZERO PUSH1 0x5 SHL DUP9 ADD DUP4 ADD SWAP6 POP PUSH2 0x2D5A JUMP JUMPDEST DUP7 PUSH0 MSTORE DUP3 PUSH0 KECCAK256 PUSH0 JUMPDEST DUP6 DUP2 LT ISZERO PUSH2 0x2D52 JUMPI DUP2 SLOAD DUP11 DUP3 ADD DUP7 ADD MSTORE SWAP1 DUP4 ADD SWAP1 DUP5 ADD PUSH2 0x2D37 JUMP JUMPDEST DUP10 ADD DUP5 ADD SWAP7 POP POP JUMPDEST POP POP POP POP POP SWAP3 SWAP2 POP POP JUMP JUMPDEST DUP4 DUP2 MSTORE PUSH1 0x60 PUSH1 0x20 DUP3 ADD MSTORE PUSH2 0x2D94 PUSH1 0x60 DUP3 ADD PUSH2 0x2D87 DUP6 SLOAD PUSH1 0x1 PUSH1 0x1 PUSH1 0xA0 SHL SUB AND SWAP1 JUMP JUMPDEST PUSH1 0x1 PUSH1 0x1 PUSH1 0xA0 SHL SUB AND SWAP1 MSTORE JUMP JUMPDEST PUSH0 PUSH2 0x2DA9 PUSH1 0x1 DUP6 ADD SLOAD PUSH1 0x1 PUSH1 0x1 PUSH1 0xA0 SHL SUB AND SWAP1 JUMP JUMPDEST PUSH1 0x1 PUSH1 0x1 PUSH1 0xA0 SHL SUB SWAP1 DUP2 AND PUSH1 0x80 DUP5 ADD MSTORE PUSH1 0x2 DUP6 ADD SLOAD AND PUSH1 0xA0 DUP4 ADD MSTORE PUSH1 0x3 DUP5 ADD SLOAD PUSH1 0xC0 DUP4 ADD MSTORE PUSH1 0x4 DUP5 ADD SLOAD PUSH1 0xE0 DUP4 ADD MSTORE PUSH1 0x5 DUP5 ADD SLOAD PUSH2 0x100 DUP1 DUP5 ADD SWAP2 SWAP1 SWAP2 MSTORE PUSH2 0x120 DUP4 ADD MSTORE PUSH2 0x2DFE PUSH2 0x160 DUP4 ADD PUSH1 0x6 DUP7 ADD PUSH2 0x2CEC JUMP JUMPDEST PUSH1 0x7 SWAP5 SWAP1 SWAP5 ADD SLOAD PUSH1 0xFF AND ISZERO ISZERO PUSH2 0x140 DUP4 ADD MSTORE POP PUSH1 0x40 ADD MSTORE SWAP2 SWAP1 POP JUMP JUMPDEST PUSH1 0x1F DUP3 GT ISZERO PUSH2 0x858 JUMPI PUSH0 DUP2 DUP2 MSTORE PUSH1 0x20 DUP2 KECCAK256 PUSH1 0x1F DUP6 ADD PUSH1 0x5 SHR DUP2 ADD PUSH1 0x20 DUP7 LT ISZERO PUSH2 0x2E40 JUMPI POP DUP1 JUMPDEST PUSH1 0x1F DUP6 ADD PUSH1 0x5 SHR DUP3 ADD SWAP2 POP JUMPDEST DUP2 DUP2 LT ISZERO PUSH2 0x2E5F JUMPI DUP3 DUP2 SSTORE PUSH1 0x1 ADD PUSH2 0x2E4C JUMP JUMPDEST POP POP POP POP POP POP JUMP JUMPDEST DUP2 MLOAD PUSH8 0xFFFFFFFFFFFFFFFF DUP2 GT ISZERO PUSH2 0x2E81 JUMPI PUSH2 0x2E81 PUSH2 0x2708 JUMP JUMPDEST PUSH2 0x2E95 DUP2 PUSH2 0x2E8F DUP5 SLOAD PUSH2 0x2BD7 JUMP JUMPDEST DUP5 PUSH2 0x2E1A JUMP JUMPDEST PUSH1 0x20 DUP1 PUSH1 0x1F DUP4 GT PUSH1 0x1 DUP2 EQ PUSH2 0x2EC8 JUMPI PUSH0 DUP5 ISZERO PUSH2 0x2EB1 JUMPI POP DUP6 DUP4 ADD MLOAD JUMPDEST PUSH0 NOT PUSH1 0x3 DUP7 SWAP1 SHL SHR NOT AND PUSH1 0x1 DUP6 SWAP1 SHL OR DUP6 SSTORE PUSH2 0x2E5F JUMP JUMPDEST PUSH0 DUP6 DUP2 MSTORE PUSH1 0x20 DUP2 KECCAK256 PUSH1 0x1F NOT DUP7 AND SWAP2 JUMPDEST DUP3 DUP2 LT ISZERO PUSH2 0x2EF6 JUMPI DUP9 DUP7 ADD MLOAD DUP3 SSTORE SWAP5 DUP5 ADD SWAP5 PUSH1 0x1 SWAP1 SWAP2 ADD SWAP1 DUP5 ADD PUSH2 0x2ED7 JUMP JUMPDEST POP DUP6 DUP3 LT ISZERO PUSH2 0x2F13 JUMPI DUP8 DUP6 ADD MLOAD PUSH0 NOT PUSH1 0x3 DUP9 SWAP1 SHL PUSH1 0xF8 AND SHR NOT AND DUP2 SSTORE JUMPDEST POP POP POP POP POP PUSH1 0x1 SWAP1 DUP2 SHL ADD SWAP1 SSTORE POP JUMP JUMPDEST PUSH1 0x60 DUP2 MSTORE PUSH0 PUSH1 0x1 PUSH1 0x1 PUSH1 0xA0 SHL SUB DUP1 DUP7 MLOAD AND PUSH1 0x60 DUP5 ADD MSTORE DUP1 PUSH1 0x20 DUP8 ADD MLOAD AND PUSH1 0x80 DUP5 ADD MSTORE POP PUSH1 0x40 DUP6 ADD MLOAD PUSH2 0x2F60 PUSH1 0xA0 DUP5 ADD DUP3 PUSH1 0x1 PUSH1 0x1 PUSH1 0xA0 SHL SUB AND SWAP1 MSTORE JUMP JUMPDEST POP PUSH1 0x60 DUP6 ADD MLOAD PUSH1 0xC0 DUP4 ADD MSTORE PUSH1 0x80 DUP6 ADD MLOAD PUSH1 0xE0 DUP4 ADD MSTORE PUSH1 0xA0 DUP6 ADD MLOAD PUSH2 0x100 DUP2 DUP2 DUP6 ADD MSTORE PUSH1 0xC0 DUP8 ADD MLOAD SWAP2 POP DUP1 PUSH2 0x120 DUP6 ADD MSTORE POP PUSH2 0x2F9F PUSH2 0x160 DUP5 ADD DUP3 PUSH2 0x28AE JUMP JUMPDEST SWAP1 POP PUSH1 0xE0 DUP7 ADD MLOAD PUSH2 0x2FB5 PUSH2 0x140 DUP6 ADD DUP3 ISZERO ISZERO SWAP1 MSTORE JUMP JUMPDEST POP PUSH1 0x20 DUP4 ADD SWAP5 SWAP1 SWAP5 MSTORE POP PUSH1 0x40 ADD MSTORE SWAP2 SWAP1 POP JUMP JUMPDEST PUSH1 0x40 DUP2 MSTORE PUSH0 PUSH2 0x2FE4 PUSH1 0x40 DUP4 ADD PUSH1 0x1 DUP2 MSTORE PUSH0 PUSH1 0x20 DUP3 ADD MSTORE PUSH1 0x40 ADD SWAP1 JUMP JUMPDEST DUP3 DUP2 SUB PUSH1 0x20 DUP5 ADD MSTORE PUSH2 0x24AF DUP2 PUSH1 0x1 DUP2 MSTORE PUSH0 PUSH1 0x20 DUP3 ADD MSTORE PUSH1 0x40 ADD SWAP1 JUMP JUMPDEST PUSH1 0x40 DUP2 MSTORE PUSH0 PUSH2 0x3012 PUSH1 0x40 DUP4 ADD DUP6 PUSH2 0x28AE JUMP JUMPDEST DUP3 DUP2 SUB PUSH1 0x20 DUP5 ADD MSTORE PUSH2 0x3024 DUP2 DUP6 PUSH2 0x28AE JUMP JUMPDEST SWAP6 SWAP5 POP POP POP POP POP JUMP JUMPDEST PUSH4 0x4E487B71 PUSH1 0xE0 SHL PUSH0 MSTORE PUSH1 0x21 PUSH1 0x4 MSTORE PUSH1 0x24 PUSH0 REVERT JUMPDEST PUSH8 0xFFFFFFFFFFFFFFFF DUP7 AND DUP2 MSTORE PUSH1 0xA0 PUSH1 0x20 DUP3 ADD MSTORE PUSH0 PUSH2 0x3063 PUSH1 0xA0 DUP4 ADD DUP8 PUSH2 0x28AE JUMP JUMPDEST PUSH2 0xFFFF SWAP6 SWAP1 SWAP6 AND PUSH1 0x40 DUP4 ADD MSTORE POP PUSH4 0xFFFFFFFF SWAP3 SWAP1 SWAP3 AND PUSH1 0x60 DUP4 ADD MSTORE PUSH1 0x80 SWAP1 SWAP2 ADD MSTORE SWAP3 SWAP2 POP POP JUMP JUMPDEST PUSH0 PUSH1 0x20 DUP3 DUP5 SUB SLT ISZERO PUSH2 0x309A JUMPI PUSH0 DUP1 REVERT JUMPDEST POP MLOAD SWAP2 SWAP1 POP JUMP JUMPDEST PUSH0 DUP4 MLOAD PUSH2 0x30B2 DUP2 DUP5 PUSH1 0x20 DUP9 ADD PUSH2 0x288C JUMP JUMPDEST SWAP2 SWAP1 SWAP2 ADD SWAP2 DUP3 MSTORE POP PUSH1 0x20 ADD SWAP2 SWAP1 POP JUMP JUMPDEST PUSH0 DUP4 MLOAD PUSH2 0x30D3 DUP2 DUP5 PUSH1 0x20 DUP9 ADD PUSH2 0x288C JUMP JUMPDEST PUSH4 0xFFFFFFFF NOT SWAP4 SWAP1 SWAP4 AND SWAP2 SWAP1 SWAP3 ADD SWAP1 DUP2 MSTORE PUSH1 0x1C ADD SWAP3 SWAP2 POP POP JUMP JUMPDEST DUP1 MLOAD PUSH1 0x20 DUP1 DUP4 ADD MLOAD SWAP2 SWAP1 DUP2 LT ISZERO PUSH2 0x2C09 JUMPI PUSH0 NOT PUSH1 0x20 SWAP2 SWAP1 SWAP2 SUB PUSH1 0x3 SHL SHL AND SWAP2 SWAP1 POP JUMP JUMPDEST PUSH4 0xFFFFFFFF PUSH1 0xE0 SHL DUP10 AND DUP2 MSTORE DUP8 PUSH1 0x4 DUP3 ADD MSTORE DUP7 PUSH1 0x24 DUP3 ADD MSTORE DUP6 PUSH1 0x44 DUP3 ADD MSTORE DUP5 PUSH1 0x64 DUP3 ADD MSTORE DUP4 PUSH1 0x84 DUP3 ADD MSTORE DUP3 PUSH1 0xA4 DUP3 ADD MSTORE PUSH0 DUP3 MLOAD PUSH2 0x3154 DUP2 PUSH1 0xC4 DUP6 ADD PUSH1 0x20 DUP8 ADD PUSH2 0x288C JUMP JUMPDEST SWAP2 SWAP1 SWAP2 ADD PUSH1 0xC4 ADD SWAP10 SWAP9 POP POP POP POP POP POP POP POP POP JUMP JUMPDEST PUSH0 PUSH1 0xC0 DUP9 DUP4 MSTORE PUSH1 0x20 DUP2 DUP2 DUP6 ADD MSTORE PUSH2 0x3181 DUP3 DUP6 ADD DUP11 PUSH2 0x2CEC JUMP JUMPDEST PUSH1 0x40 DUP6 DUP3 SUB DUP2 DUP8 ADD MSTORE PUSH2 0x3194 DUP3 DUP12 PUSH2 0x2CEC JUMP JUMPDEST SWAP2 POP PUSH1 0x60 PUSH1 0x1 PUSH1 0x1 PUSH1 0xA0 SHL SUB DUP1 DUP12 AND DUP3 DUP10 ADD MSTORE PUSH1 0x80 DUP11 DUP2 DUP11 ADD MSTORE PUSH1 0xA0 DUP10 DUP7 SUB DUP2 DUP12 ADD MSTORE DUP6 DUP12 MLOAD DUP1 DUP9 MSTORE DUP9 DUP9 ADD SWAP2 POP DUP9 DUP2 PUSH1 0x5 SHL DUP10 ADD ADD DUP10 DUP15 ADD PUSH0 JUMPDEST DUP4 DUP2 LT ISZERO PUSH2 0x3257 JUMPI PUSH1 0x1F NOT DUP12 DUP5 SUB ADD DUP6 MSTORE DUP2 MLOAD DUP1 MLOAD DUP10 AND DUP5 MSTORE DUP13 DUP2 ADD MLOAD DUP10 AND DUP14 DUP6 ADD MSTORE DUP11 DUP2 ADD MLOAD DUP10 AND DUP12 DUP6 ADD MSTORE DUP10 DUP2 ADD MLOAD PUSH1 0x1 PUSH1 0x1 PUSH1 0xA0 SHL SUB AND DUP11 DUP6 ADD MSTORE DUP8 DUP2 ADD MLOAD DUP9 DUP6 ADD MSTORE DUP7 DUP2 ADD MLOAD PUSH1 0xE0 DUP9 DUP7 ADD DUP2 SWAP1 MSTORE SWAP1 PUSH2 0x322E DUP3 DUP8 ADD DUP3 PUSH2 0x28AE JUMP JUMPDEST SWAP2 POP POP DUP15 DUP3 ADD MLOAD SWAP2 POP PUSH2 0x3244 DUP16 DUP7 ADD DUP4 ISZERO ISZERO SWAP1 MSTORE JUMP JUMPDEST SWAP6 DUP14 ADD SWAP6 SWAP4 POP POP SWAP1 DUP12 ADD SWAP1 PUSH1 0x1 ADD PUSH2 0x31CF JUMP JUMPDEST POP POP DUP1 SWAP12 POP POP POP POP POP POP POP POP POP POP POP POP SWAP8 SWAP7 POP POP POP POP POP POP POP JUMP JUMPDEST DUP1 DUP3 MUL DUP2 ISZERO DUP3 DUP3 DIV DUP5 EQ OR PUSH2 0x22EE JUMPI PUSH2 0x22EE PUSH2 0x2C9A JUMP JUMPDEST PUSH0 DUP3 PUSH2 0x32A3 JUMPI PUSH4 0x4E487B71 PUSH1 0xE0 SHL PUSH0 MSTORE PUSH1 0x12 PUSH1 0x4 MSTORE PUSH1 0x24 PUSH0 REVERT JUMPDEST POP MOD SWAP1 JUMP JUMPDEST PUSH1 0x1 DUP2 DUP2 JUMPDEST DUP1 DUP6 GT ISZERO PUSH2 0xCBA JUMPI DUP2 PUSH0 NOT DIV DUP3 GT ISZERO PUSH2 0x32C8 JUMPI PUSH2 0x32C8 PUSH2 0x2C9A JUMP JUMPDEST DUP1 DUP6 AND ISZERO PUSH2 0x32D5 JUMPI SWAP2 DUP2 MUL SWAP2 JUMPDEST SWAP4 DUP5 SHR SWAP4 SWAP1 DUP1 MUL SWAP1 PUSH2 0x32AD JUMP JUMPDEST PUSH0 DUP3 PUSH2 0x32F0 JUMPI POP PUSH1 0x1 PUSH2 0x22EE JUMP JUMPDEST DUP2 PUSH2 0x32FC JUMPI POP PUSH0 PUSH2 0x22EE JUMP JUMPDEST DUP2 PUSH1 0x1 DUP2 EQ PUSH2 0x3312 JUMPI PUSH1 0x2 DUP2 EQ PUSH2 0x331C JUMPI PUSH2 0x3338 JUMP JUMPDEST PUSH1 0x1 SWAP2 POP POP PUSH2 0x22EE JUMP JUMPDEST PUSH1 0xFF DUP5 GT ISZERO PUSH2 0x332D JUMPI PUSH2 0x332D PUSH2 0x2C9A JUMP JUMPDEST POP POP PUSH1 0x1 DUP3 SHL PUSH2 0x22EE JUMP JUMPDEST POP PUSH1 0x20 DUP4 LT PUSH2 0x133 DUP4 LT AND PUSH1 0x4E DUP5 LT PUSH1 0xB DUP5 LT AND OR ISZERO PUSH2 0x335B JUMPI POP DUP2 DUP2 EXP PUSH2 0x22EE JUMP JUMPDEST PUSH2 0x3365 DUP4 DUP4 PUSH2 0x32A8 JUMP JUMPDEST DUP1 PUSH0 NOT DIV DUP3 GT ISZERO PUSH2 0x3378 JUMPI PUSH2 0x3378 PUSH2 0x2C9A JUMP JUMPDEST MUL SWAP4 SWAP3 POP POP POP JUMP JUMPDEST PUSH0 PUSH2 0x24AF DUP4 DUP4 PUSH2 0x32E2 JUMP INVALID LOG2 PUSH5 0x6970667358 0x22 SLT KECCAK256 0xFB 0xA8 0xD ADDMOD DUP9 0xFB BYTE MSIZE SLOAD 0x24 0xC3 0x4F 0xB9 0xAC 0xBD 0xD6 RETURN PUSH32 0x36BEFAE5C8D80F7CB4212786B7764736F6C63430008140033636F6E73742066 NUMBER RETURNDATASIZE KECCAK256 0x27 PUSH17 0x6F6C273B636F6E73742074543D61726773 JUMPDEST ADDRESS 0x5D EXTCODESIZE PUSH4 0x6F6E7374 KECCAK256 PUSH7 0x41643D61726773 JUMPDEST BALANCE 0x5D EXTCODESIZE PUSH4 0x6F6E7374 KECCAK256 PUSH7 0x416D3D61726773 JUMPDEST ORIGIN 0x5D EXTCODESIZE PUSH4 0x6F6E7374 KECCAK256 PUSH13 0x5255726C203D20606874747073 GASPRICE 0x2F 0x2F PUSH13 0x692E71756573742F76312F7175 PUSH16 0x74653F66726F6D436861696E3D247B66 NUMBER PUSH30 0x26746F436861696E3D247B66437D2666726F6D546F6B656E3D3078323739 BALANCE TIMESTAMP PUSH4 0x61316632 PUSH5 0x6534363631 GASLIMIT PREVRANDAO CODESIZE CODESIZE COINBASE CALLER ADDRESS NUMBER CODECOPY CODECOPY COINBASE CALLDATACOPY PUSH2 0x3934 CALLVALUE CODECOPY COINBASE PUSH2 0x3834 BALANCE CALLDATACOPY CALLVALUE 0x26 PUSH21 0x6F546F6B656E3D247B74547D2666726F6D41646472 PUSH6 0x73733D247B66 COINBASE PUSH5 0x7D2666726F PUSH14 0x416D6F756E743D247B66416D7D60 EXTCODESIZE PUSH4 0x6F6E7374 KECCAK256 PUSH13 0x52203D2061776169742046756E PUSH4 0x74696F6E PUSH20 0x2E6D616B654874747052657175657374287B7572 PUSH13 0x3A206C5255726C2C6D6574686F PUSH5 0x3A20274745 SLOAD 0x27 0x2C PUSH9 0x6561646572733A207B 0x27 PUSH2 0x6363 PUSH6 0x7074273A2027 PUSH2 0x7070 PUSH13 0x69636174696F6E2F6A736F6E27 0x2C PUSH30 0x2C7D293B636F6E73742064617461203D206C522E646174612E7472616E73 PUSH2 0x6374 PUSH10 0x6F6E526571756573742E PUSH5 0x6174613B63 PUSH16 0x6E7374207444203D206C522E64617461 0x2E PUSH10 0x6E636C75646564537465 PUSH17 0x735B305D2E657374696D6174652E746F6F PUSH13 0x446174613B66756E6374696F6E KECCAK256 PUSH17 0x61727365627328627329207B636F6E7374 KECCAK256 PUSH21 0x73203D2062732E736C696365283130293B636F6E73 PUSH21 0x2074784964203D2074732E736C69636528302C2036 CALLVALUE 0x29 EXTCODESIZE PUSH4 0x6F6E7374 KECCAK256 PUSH14 0x696E4F7574203D2074732E736C69 PUSH4 0x65283238 CODESIZE 0x2C KECCAK256 CALLER ORIGIN ADDRESS 0x29 EXTCODESIZE PUSH4 0x6F6E7374 KECCAK256 PUSH19 0x6F75746572203D2074442E726F757465724164 PUSH5 0x726573732E PUSH20 0x6C6963652832293B636F6E73742073656C656374 PUSH16 0x72203D2074732E736C69636528313636 CALLVALUE 0x2C KECCAK256 BALANCE CALLDATASIZE CALLDATACOPY ORIGIN 0x29 EXTCODESIZE PUSH13 0x6574206D6964646C65546F6B65 PUSH15 0x31203D2027273B6C6574206D696464 PUSH13 0x65546F6B656E32203D2027273B PUSH10 0x66202874442E70617468 0x2E PUSH13 0x656E677468203D3D3D2033297B PUSH14 0x6964646C65546F6B656E31203D20 PUSH21 0x442E706174685B315D2E736C6963652832293B7D69 PUSH7 0x202874442E7061 PUSH21 0x682E6C656E677468203D3D3D2034297B6D6964646C PUSH6 0x546F6B656E31 KECCAK256 RETURNDATASIZE KECCAK256 PUSH21 0x442E706174685B315D2E736C6963652832293B6D69 PUSH5 0x646C65546F PUSH12 0x656E32203D2074442E706174 PUSH9 0x5B325D2E736C696365 0x28 ORIGIN 0x29 EXTCODESIZE PUSH30 0x72657475726E20747849642B6D696E4F75742B726F757465722B73656C65 PUSH4 0x746F722B PUSH14 0x6964646C65546F6B656E312B6D69 PUSH5 0x646C65546F PUSH12 0x656E323B7D72657475726E20 0x28 CHAINID PUSH22 0x6E6374696F6E732E656E636F6465537472696E672870 PUSH2 0x7273 PUSH6 0x627328646174 PUSH2 0x2929 0x29 EXTCODESIZE ADDRESS PUSH25 0x30303030303030303030303030303030303030303030303030 ADDRESS ADDRESS ADDRESS ADDRESS ADDRESS ADDRESS ADDRESS ADDRESS ADDRESS ADDRESS ADDRESS ADDRESS ADDRESS ADDRESS ADDRESS "
		},
		"gasEstimates": {
			"creation": {
				"codeDepositCost": "2649800",
				"executionCost": "infinite",
				"totalCost": "infinite"
			},
			"external": {
				"acceptOwnership()": "52408",
				"checkLog((uint256,uint256,bytes32,uint256,bytes32,address,bytes32[],bytes),bytes)": "infinite",
				"checkUpkeep(bytes)": "infinite",
				"createStrategy(address,uint256,uint256,bool)": "infinite",
				"donID()": "2383",
				"emitLog()": "3097",
				"gasLimit()": "2400",
				"genericSwapFacet()": "2370",
				"handleOracleFulfillment(bytes32,bytes,bytes)": "infinite",
				"init(address,uint32,bytes32,uint64,address,address)": "infinite",
				"integrator()": "infinite",
				"isPaused()": "2354",
				"lifiDiamond()": "infinite",
				"owner()": "2386",
				"performUpkeep(bytes)": "infinite",
				"readResponseAndSwap(bytes,uint256,address,address,address)": "infinite",
				"referrer()": "infinite",
				"requestsIds(bytes32)": "2502",
				"s_usersStrategies(uint256)": "infinite",
				"s_usersStrategiesLength()": "2406",
				"sendRequest(uint256)": "infinite",
				"setAutomationCronContract(address,address)": "infinite",
				"setPause(bool)": "infinite",
				"strategyIndex()": "2383",
				"subscriptionId()": "2398",
				"transferOwnership(address)": "30543",
				"upgradeStrategy(uint256,address,uint256,uint256,bool)": "infinite",
				"upkeepContract1()": "2426",
				"upkeepContract2()": "2393",
				"usdcAddress()": "2372"
			},
			"internal": {
				"addressToString(bytes memory)": "infinite",
				"fulfillRequest(bytes32,bytes memory,bytes memory)": "infinite",
				"generateArgForRequest(address,address,uint256)": "infinite",
				"uintToString(uint256)": "infinite"
			}
		},
		"methodIdentifiers": {
			"acceptOwnership()": "79ba5097",
			"checkLog((uint256,uint256,bytes32,uint256,bytes32,address,bytes32[],bytes),bytes)": "40691db4",
			"checkUpkeep(bytes)": "6e04ff0d",
			"createStrategy(address,uint256,uint256,bool)": "f335bcce",
			"donID()": "6e74336b",
			"emitLog()": "f42c13bf",
			"gasLimit()": "f68016b7",
			"genericSwapFacet()": "ceff496d",
			"handleOracleFulfillment(bytes32,bytes,bytes)": "0ca76175",
			"init(address,uint32,bytes32,uint64,address,address)": "d201b264",
			"integrator()": "fc2f7cff",
			"isPaused()": "b187bd26",
			"lifiDiamond()": "2bd16c8f",
			"owner()": "8da5cb5b",
			"performUpkeep(bytes)": "4585e33b",
			"readResponseAndSwap(bytes,uint256,address,address,address)": "57fa4508",
			"referrer()": "68447c93",
			"requestsIds(bytes32)": "b21ca099",
			"s_usersStrategies(uint256)": "4f8391bc",
			"s_usersStrategiesLength()": "65170a47",
			"sendRequest(uint256)": "31e70508",
			"setAutomationCronContract(address,address)": "c7330555",
			"setPause(bool)": "bedb86fb",
			"strategyIndex()": "e6446373",
			"subscriptionId()": "09c1ba2e",
			"transferOwnership(address)": "f2fde38b",
			"upgradeStrategy(uint256,address,uint256,uint256,bool)": "85b403f8",
			"upkeepContract1()": "a854af2c",
			"upkeepContract2()": "52f61f41",
			"usdcAddress()": "02d45457"
		}
	},
	"abi": [
		{
			"inputs": [
				{
					"internalType": "address",
					"name": "_router",
					"type": "address"
				}
			],
			"stateMutability": "nonpayable",
			"type": "constructor"
		},
		{
			"inputs": [],
			"name": "EmptyArgs",
			"type": "error"
		},
		{
			"inputs": [],
			"name": "EmptySource",
			"type": "error"
		},
		{
			"inputs": [],
			"name": "NoInlineSecrets",
			"type": "error"
		},
		{
			"inputs": [
				{
					"internalType": "address",
					"name": "caller",
					"type": "address"
				},
				{
					"internalType": "address",
					"name": "owner",
					"type": "address"
				},
				{
					"internalType": "address",
					"name": "automationRegistry",
					"type": "address"
				}
			],
			"name": "NotAllowedCaller",
			"type": "error"
		},
		{
			"inputs": [],
			"name": "OnlyRouterCanFulfill",
			"type": "error"
		},
		{
			"anonymous": false,
			"inputs": [
				{
					"indexed": true,
					"internalType": "address",
					"name": "",
					"type": "address"
				},
				{
					"components": [
						{
							"internalType": "address",
							"name": "user",
							"type": "address"
						},
						{
							"internalType": "address",
							"name": "tokenIn",
							"type": "address"
						},
						{
							"internalType": "address",
							"name": "tokenOut",
							"type": "address"
						},
						{
							"internalType": "uint256",
							"name": "timeInterval",
							"type": "uint256"
						},
						{
							"internalType": "uint256",
							"name": "nextExecution",
							"type": "uint256"
						},
						{
							"internalType": "uint256",
							"name": "amount",
							"type": "uint256"
						},
						{
							"internalType": "bytes",
							"name": "lastResponse",
							"type": "bytes"
						},
						{
							"internalType": "bool",
							"name": "isFixedAmount",
							"type": "bool"
						}
					],
					"indexed": false,
					"internalType": "struct IDCA.UserStrategy",
					"name": "",
					"type": "tuple"
				},
				{
					"indexed": false,
					"internalType": "uint256",
					"name": "",
					"type": "uint256"
				},
				{
					"indexed": false,
					"internalType": "uint256",
					"name": "",
					"type": "uint256"
				}
			],
			"name": "NewUserStrategy",
			"type": "event"
		},
		{
			"anonymous": false,
			"inputs": [
				{
					"indexed": true,
					"internalType": "address",
					"name": "from",
					"type": "address"
				},
				{
					"indexed": true,
					"internalType": "address",
					"name": "to",
					"type": "address"
				}
			],
			"name": "OwnershipTransferRequested",
			"type": "event"
		},
		{
			"anonymous": false,
			"inputs": [
				{
					"indexed": true,
					"internalType": "address",
					"name": "from",
					"type": "address"
				},
				{
					"indexed": true,
					"internalType": "address",
					"name": "to",
					"type": "address"
				}
			],
			"name": "OwnershipTransferred",
			"type": "event"
		},
		{
			"anonymous": false,
			"inputs": [
				{
					"indexed": true,
					"internalType": "address",
					"name": "",
					"type": "address"
				},
				{
					"indexed": false,
					"internalType": "uint256",
					"name": "",
					"type": "uint256"
				},
				{
					"indexed": false,
					"internalType": "uint256",
					"name": "",
					"type": "uint256"
				}
			],
			"name": "RemovedUserStrategy",
			"type": "event"
		},
		{
			"anonymous": false,
			"inputs": [
				{
					"indexed": true,
					"internalType": "bytes32",
					"name": "id",
					"type": "bytes32"
				}
			],
			"name": "RequestFulfilled",
			"type": "event"
		},
		{
			"anonymous": false,
			"inputs": [
				{
					"indexed": false,
					"internalType": "bytes32",
					"name": "",
					"type": "bytes32"
				},
				{
					"indexed": false,
					"internalType": "uint256",
					"name": "",
					"type": "uint256"
				}
			],
			"name": "RequestReceived",
			"type": "event"
		},
		{
			"anonymous": false,
			"inputs": [
				{
					"indexed": true,
					"internalType": "bytes32",
					"name": "id",
					"type": "bytes32"
				}
			],
			"name": "RequestSent",
			"type": "event"
		},
		{
			"anonymous": false,
			"inputs": [
				{
					"indexed": true,
					"internalType": "bytes32",
					"name": "responseId",
					"type": "bytes32"
				},
				{
					"indexed": false,
					"internalType": "bytes",
					"name": "topic1",
					"type": "bytes"
				},
				{
					"indexed": false,
					"internalType": "bytes",
					"name": "topic2",
					"type": "bytes"
				}
			],
			"name": "Response",
			"type": "event"
		},
		{
			"anonymous": false,
			"inputs": [],
			"name": "SwapExecuted",
			"type": "event"
		},
		{
			"anonymous": false,
			"inputs": [
				{
					"indexed": true,
					"internalType": "address",
					"name": "",
					"type": "address"
				},
				{
					"indexed": false,
					"internalType": "uint256",
					"name": "",
					"type": "uint256"
				},
				{
					"components": [
						{
							"internalType": "address",
							"name": "user",
							"type": "address"
						},
						{
							"internalType": "address",
							"name": "tokenIn",
							"type": "address"
						},
						{
							"internalType": "address",
							"name": "tokenOut",
							"type": "address"
						},
						{
							"internalType": "uint256",
							"name": "timeInterval",
							"type": "uint256"
						},
						{
							"internalType": "uint256",
							"name": "nextExecution",
							"type": "uint256"
						},
						{
							"internalType": "uint256",
							"name": "amount",
							"type": "uint256"
						},
						{
							"internalType": "bytes",
							"name": "lastResponse",
							"type": "bytes"
						},
						{
							"internalType": "bool",
							"name": "isFixedAmount",
							"type": "bool"
						}
					],
					"indexed": false,
					"internalType": "struct IDCA.UserStrategy",
					"name": "",
					"type": "tuple"
				},
				{
					"indexed": false,
					"internalType": "uint256",
					"name": "",
					"type": "uint256"
				}
			],
			"name": "UpdatedUserStrategy",
			"type": "event"
		},
		{
			"inputs": [],
			"name": "acceptOwnership",
			"outputs": [],
			"stateMutability": "nonpayable",
			"type": "function"
		},
		{
			"inputs": [
				{
					"components": [
						{
							"internalType": "uint256",
							"name": "index",
							"type": "uint256"
						},
						{
							"internalType": "uint256",
							"name": "timestamp",
							"type": "uint256"
						},
						{
							"internalType": "bytes32",
							"name": "txHash",
							"type": "bytes32"
						},
						{
							"internalType": "uint256",
							"name": "blockNumber",
							"type": "uint256"
						},
						{
							"internalType": "bytes32",
							"name": "blockHash",
							"type": "bytes32"
						},
						{
							"internalType": "address",
							"name": "source",
							"type": "address"
						},
						{
							"internalType": "bytes32[]",
							"name": "topics",
							"type": "bytes32[]"
						},
						{
							"internalType": "bytes",
							"name": "data",
							"type": "bytes"
						}
					],
					"internalType": "struct Log",
					"name": "log",
					"type": "tuple"
				},
				{
					"internalType": "bytes",
					"name": "",
					"type": "bytes"
				}
			],
			"name": "checkLog",
			"outputs": [
				{
					"internalType": "bool",
					"name": "upkeepNeeded",
					"type": "bool"
				},
				{
					"internalType": "bytes",
					"name": "performData",
					"type": "bytes"
				}
			],
			"stateMutability": "pure",
			"type": "function"
		},
		{
			"inputs": [
				{
					"internalType": "bytes",
					"name": "",
					"type": "bytes"
				}
			],
			"name": "checkUpkeep",
			"outputs": [
				{
					"internalType": "bool",
					"name": "upkeepNeeded",
					"type": "bool"
				},
				{
					"internalType": "bytes",
					"name": "performData",
					"type": "bytes"
				}
			],
			"stateMutability": "view",
			"type": "function"
		},
		{
			"inputs": [
				{
					"internalType": "address",
					"name": "tokenTo",
					"type": "address"
				},
				{
					"internalType": "uint256",
					"name": "timeInterval",
					"type": "uint256"
				},
				{
					"internalType": "uint256",
					"name": "tokenInAmount",
					"type": "uint256"
				},
				{
					"internalType": "bool",
					"name": "isFixedAmount",
					"type": "bool"
				}
			],
			"name": "createStrategy",
			"outputs": [],
			"stateMutability": "nonpayable",
			"type": "function"
		},
		{
			"inputs": [],
			"name": "donID",
			"outputs": [
				{
					"internalType": "bytes32",
					"name": "",
					"type": "bytes32"
				}
			],
			"stateMutability": "view",
			"type": "function"
		},
		{
			"inputs": [],
			"name": "emitLog",
			"outputs": [],
			"stateMutability": "nonpayable",
			"type": "function"
		},
		{
			"inputs": [],
			"name": "gasLimit",
			"outputs": [
				{
					"internalType": "uint32",
					"name": "",
					"type": "uint32"
				}
			],
			"stateMutability": "view",
			"type": "function"
		},
		{
			"inputs": [],
			"name": "genericSwapFacet",
			"outputs": [
				{
					"internalType": "contract IGenericSwapFacet",
					"name": "",
					"type": "address"
				}
			],
			"stateMutability": "view",
			"type": "function"
		},
		{
			"inputs": [
				{
					"internalType": "bytes32",
					"name": "requestId",
					"type": "bytes32"
				},
				{
					"internalType": "bytes",
					"name": "response",
					"type": "bytes"
				},
				{
					"internalType": "bytes",
					"name": "err",
					"type": "bytes"
				}
			],
			"name": "handleOracleFulfillment",
			"outputs": [],
			"stateMutability": "nonpayable",
			"type": "function"
		},
		{
			"inputs": [
				{
					"internalType": "address",
					"name": "_usdcAddress",
					"type": "address"
				},
				{
					"internalType": "uint32",
					"name": "_gasLimit",
					"type": "uint32"
				},
				{
					"internalType": "bytes32",
					"name": "_donID",
					"type": "bytes32"
				},
				{
					"internalType": "uint64",
					"name": "_subscriptionId",
					"type": "uint64"
				},
				{
					"internalType": "address",
					"name": "_upkeepContract1",
					"type": "address"
				},
				{
					"internalType": "address",
					"name": "_upkeepContract2",
					"type": "address"
				}
			],
			"name": "init",
			"outputs": [],
			"stateMutability": "nonpayable",
			"type": "function"
		},
		{
			"inputs": [],
			"name": "integrator",
			"outputs": [
				{
					"internalType": "string",
					"name": "",
					"type": "string"
				}
			],
			"stateMutability": "view",
			"type": "function"
		},
		{
			"inputs": [],
			"name": "isPaused",
			"outputs": [
				{
					"internalType": "bool",
					"name": "",
					"type": "bool"
				}
			],
			"stateMutability": "view",
			"type": "function"
		},
		{
			"inputs": [],
			"name": "lifiDiamond",
			"outputs": [
				{
					"internalType": "address",
					"name": "",
					"type": "address"
				}
			],
			"stateMutability": "view",
			"type": "function"
		},
		{
			"inputs": [],
			"name": "owner",
			"outputs": [
				{
					"internalType": "address",
					"name": "",
					"type": "address"
				}
			],
			"stateMutability": "view",
			"type": "function"
		},
		{
			"inputs": [
				{
					"internalType": "bytes",
					"name": "performData",
					"type": "bytes"
				}
			],
			"name": "performUpkeep",
			"outputs": [],
			"stateMutability": "nonpayable",
			"type": "function"
		},
		{
			"inputs": [
				{
					"internalType": "bytes",
					"name": "data",
					"type": "bytes"
				},
				{
					"internalType": "uint256",
					"name": "amountIn",
					"type": "uint256"
				},
				{
					"internalType": "address",
					"name": "receiver",
					"type": "address"
				},
				{
					"internalType": "address",
					"name": "tokenFrom",
					"type": "address"
				},
				{
					"internalType": "address",
					"name": "tokenTo",
					"type": "address"
				}
			],
			"name": "readResponseAndSwap",
			"outputs": [],
			"stateMutability": "nonpayable",
			"type": "function"
		},
		{
			"inputs": [],
			"name": "referrer",
			"outputs": [
				{
					"internalType": "string",
					"name": "",
					"type": "string"
				}
			],
			"stateMutability": "view",
			"type": "function"
		},
		{
			"inputs": [
				{
					"internalType": "bytes32",
					"name": "",
					"type": "bytes32"
				}
			],
			"name": "requestsIds",
			"outputs": [
				{
					"internalType": "uint256",
					"name": "",
					"type": "uint256"
				}
			],
			"stateMutability": "view",
			"type": "function"
		},
		{
			"inputs": [
				{
					"internalType": "uint256",
					"name": "",
					"type": "uint256"
				}
			],
			"name": "s_usersStrategies",
			"outputs": [
				{
					"internalType": "address",
					"name": "user",
					"type": "address"
				},
				{
					"internalType": "address",
					"name": "tokenIn",
					"type": "address"
				},
				{
					"internalType": "address",
					"name": "tokenOut",
					"type": "address"
				},
				{
					"internalType": "uint256",
					"name": "timeInterval",
					"type": "uint256"
				},
				{
					"internalType": "uint256",
					"name": "nextExecution",
					"type": "uint256"
				},
				{
					"internalType": "uint256",
					"name": "amount",
					"type": "uint256"
				},
				{
					"internalType": "bytes",
					"name": "lastResponse",
					"type": "bytes"
				},
				{
					"internalType": "bool",
					"name": "isFixedAmount",
					"type": "bool"
				}
			],
			"stateMutability": "view",
			"type": "function"
		},
		{
			"inputs": [],
			"name": "s_usersStrategiesLength",
			"outputs": [
				{
					"internalType": "uint256",
					"name": "",
					"type": "uint256"
				}
			],
			"stateMutability": "view",
			"type": "function"
		},
		{
			"inputs": [
				{
					"internalType": "uint256",
					"name": "index",
					"type": "uint256"
				}
			],
			"name": "sendRequest",
			"outputs": [],
			"stateMutability": "nonpayable",
			"type": "function"
		},
		{
			"inputs": [
				{
					"internalType": "address",
					"name": "_upkeepContract1",
					"type": "address"
				},
				{
					"internalType": "address",
					"name": "_upkeepContract2",
					"type": "address"
				}
			],
			"name": "setAutomationCronContract",
			"outputs": [],
			"stateMutability": "nonpayable",
			"type": "function"
		},
		{
			"inputs": [
				{
					"internalType": "bool",
					"name": "pause",
					"type": "bool"
				}
			],
			"name": "setPause",
			"outputs": [
				{
					"internalType": "bool",
					"name": "",
					"type": "bool"
				}
			],
			"stateMutability": "nonpayable",
			"type": "function"
		},
		{
			"inputs": [],
			"name": "strategyIndex",
			"outputs": [
				{
					"internalType": "uint256",
					"name": "",
					"type": "uint256"
				}
			],
			"stateMutability": "view",
			"type": "function"
		},
		{
			"inputs": [],
			"name": "subscriptionId",
			"outputs": [
				{
					"internalType": "uint64",
					"name": "",
					"type": "uint64"
				}
			],
			"stateMutability": "view",
			"type": "function"
		},
		{
			"inputs": [
				{
					"internalType": "address",
					"name": "to",
					"type": "address"
				}
			],
			"name": "transferOwnership",
			"outputs": [],
			"stateMutability": "nonpayable",
			"type": "function"
		},
		{
			"inputs": [
				{
					"internalType": "uint256",
					"name": "index",
					"type": "uint256"
				},
				{
					"internalType": "address",
					"name": "tokenTo",
					"type": "address"
				},
				{
					"internalType": "uint256",
					"name": "timeInterval",
					"type": "uint256"
				},
				{
					"internalType": "uint256",
					"name": "amountTokenIn",
					"type": "uint256"
				},
				{
					"internalType": "bool",
					"name": "isFixedAmount",
					"type": "bool"
				}
			],
			"name": "upgradeStrategy",
			"outputs": [
				{
					"internalType": "uint256",
					"name": "",
					"type": "uint256"
				}
			],
			"stateMutability": "nonpayable",
			"type": "function"
		},
		{
			"inputs": [],
			"name": "upkeepContract1",
			"outputs": [
				{
					"internalType": "address",
					"name": "",
					"type": "address"
				}
			],
			"stateMutability": "view",
			"type": "function"
		},
		{
			"inputs": [],
			"name": "upkeepContract2",
			"outputs": [
				{
					"internalType": "address",
					"name": "",
					"type": "address"
				}
			],
			"stateMutability": "view",
			"type": "function"
		},
		{
			"inputs": [],
			"name": "usdcAddress",
			"outputs": [
				{
					"internalType": "address",
					"name": "",
					"type": "address"
				}
			],
			"stateMutability": "view",
			"type": "function"
		}
	]
}