{
  "abi": [
    {
      "inputs": [],
      "stateMutability": "nonpayable",
      "type": "constructor"
    },
    {
      "inputs": [],
      "name": "addressMappinglength",
      "outputs": [
        {
          "internalType": "uint256",
          "name": "",
          "type": "uint256"
        }
      ],
      "stateMutability": "view",
      "type": "function"
    },
    {
      "inputs": [
        {
          "internalType": "address",
          "name": "feedAddress",
          "type": "address"
        }
      ],
      "name": "getChainlinkDataFeedLatestAnswer",
      "outputs": [
        {
          "internalType": "int256",
          "name": "",
          "type": "int256"
        }
      ],
      "stateMutability": "view",
      "type": "function"
    },
    {
      "inputs": [
        {
          "internalType": "address",
          "name": "",
          "type": "address"
        }
      ],
      "name": "tokenAllowed",
      "outputs": [
        {
          "internalType": "bool",
          "name": "",
          "type": "bool"
        }
      ],
      "stateMutability": "view",
      "type": "function"
    },
    {
      "inputs": [
        {
          "internalType": "address",
          "name": "",
          "type": "address"
        }
      ],
      "name": "tokenIndexes",
      "outputs": [
        {
          "internalType": "uint256",
          "name": "",
          "type": "uint256"
        }
      ],
      "stateMutability": "view",
      "type": "function"
    }
  ],
  "bytecode": {
    "object": "0x60e060405273d0d5e3db44de05e9f294bb0a3beeaf030de24ada6080908152731c2252aeed50e0c9b64bdff2735ee3c932f5c40860a052730715a7794a1dc8e42615f059dd6e406a6594651a60c05261005c90600090600361006f565b5034801561006957600080fd5b506100e9565b8280548282559060005260206000209081019282156100c4579160200282015b828111156100c457825182546001600160a01b0319166001600160a01b0390911617825560209092019160019091019061008f565b506100d09291506100d4565b5090565b5b808211156100d057600081556001016100d5565b610214806100f86000396000f3fe608060405234801561001057600080fd5b506004361061004c5760003560e01c806304bc3b1c1461005157806355219d5a14610084578063d1636095146100b7578063e7078f92146100c0575b600080fd5b61007161005f36600461013f565b60026020526000908152604090205481565b6040519081526020015b60405180910390f35b6100a761009236600461013f565b60036020526000908152604090205460ff1681565b604051901515815260200161007b565b61007160015481565b6100716100ce36600461013f565b600080826001600160a01b031663feaf968c6040518163ffffffff1660e01b815260040160a060405180830381865afa15801561010f573d6000803e3d6000fd5b505050506040513d601f19601f82011682018060405250810190610133919061018e565b50919695505050505050565b60006020828403121561015157600080fd5b81356001600160a01b038116811461016857600080fd5b9392505050565b805169ffffffffffffffffffff8116811461018957600080fd5b919050565b600080600080600060a086880312156101a657600080fd5b6101af8661016f565b94506020860151935060408601519250606086015191506101d26080870161016f565b9050929550929590935056fea26469706673582212207b27fba2c8235bd34422aab2b098192c5a535e65ecbb5a4030b49ad867f11e3864736f6c63430008140033",
    "linkReferences": {}
  },
  "methodIdentifiers": {
    "addressMappinglength()": "d1636095",
    "getChainlinkDataFeedLatestAnswer(address)": "e7078f92",
    "tokenAllowed(address)": "55219d5a",
    "tokenIndexes(address)": "04bc3b1c"
  },
  "id": 33
}