{
  "abi": [
    {
      "inputs": [
        {
          "internalType": "address",
          "name": "_tokenFrom",
          "type": "address"
        },
        {
          "internalType": "address",
          "name": "_tokenTo",
          "type": "address"
        },
        {
          "internalType": "address",
          "name": "user",
          "type": "address"
        },
        {
          "internalType": "uint256",
          "name": "amount",
          "type": "uint256"
        }
      ],
      "name": "generateArgForRequest",
      "outputs": [
        {
          "internalType": "string[]",
          "name": "",
          "type": "string[]"
        }
      ],
      "stateMutability": "pure",
      "type": "function"
    },
    {
      "inputs": [
        {
          "internalType": "uint256",
          "name": "value",
          "type": "uint256"
        }
      ],
      "name": "uintToString",
      "outputs": [
        {
          "internalType": "string",
          "name": "",
          "type": "string"
        }
      ],
      "stateMutability": "pure",
      "type": "function"
    }
  ],
  "bytecode": {
    "object": "0x608060405234801561001057600080fd5b50610759806100206000396000f3fe608060405234801561001057600080fd5b50600436106100365760003560e01c8063de8ce1bd1461003b578063e939567914610064575b600080fd5b61004e610049366004610578565b610084565b60405161005b9190610609565b60405180910390f35b61007761007236600461066b565b6101de565b60405161005b9190610684565b606060006100c3866040516020016100af919060609190911b6001600160601b031916815260140190565b604051602081830303815290604052610272565b6040516001600160601b0319606088901b1660208201529091506000906100ec906034016100af565b6040516001600160601b0319606088901b166020820152909150600090610115906034016100af565b90506000610122866101de565b60408051600480825260a0820190925291925060009190816020015b606081526020019060019003908161013e5790505090508481600081518110610169576101696106b4565b60200260200101819052508381600181518110610188576101886106b4565b602002602001018190525082816002815181106101a7576101a76106b4565b602002602001018190525081816003815181106101c6576101c66106b4565b60209081029190910101529998505050505050505050565b606060006101eb83610483565b600101905060008167ffffffffffffffff81111561020b5761020b61069e565b6040519080825280601f01601f191660200182016040528015610235576020820181803683370190505b5090508181016020015b600019016f181899199a1a9b1b9c1cb0b131b232b360811b600a86061a8153600a850494508461023f575b509392505050565b60408051808201909152601081526f181899199a1a9b1b9c1cb0b131b232b360811b60208201528151606091906000906102ad9060026106e0565b6102b89060026106f7565b67ffffffffffffffff8111156102d0576102d061069e565b6040519080825280601f01601f1916602001820160405280156102fa576020820181803683370190505b509050600360fc1b81600081518110610315576103156106b4565b60200101906001600160f81b031916908160001a905350600f60fb1b81600181518110610344576103446106b4565b60200101906001600160f81b031916908160001a90535060005b845181101561026a5782600486838151811061037c5761037c6106b4565b016020015182516001600160f81b031990911690911c60f81c9081106103a4576103a46106b4565b01602001516001600160f81b031916826103bf8360026106e0565b6103ca9060026106f7565b815181106103da576103da6106b4565b60200101906001600160f81b031916908160001a90535082858281518110610404576104046106b4565b602091010151815160f89190911c600f16908110610424576104246106b4565b01602001516001600160f81b0319168261043f8360026106e0565b61044a9060036106f7565b8151811061045a5761045a6106b4565b60200101906001600160f81b031916908160001a9053508061047b8161070a565b91505061035e565b60008072184f03e93ff9f4daa797ed6e38ed64bf6a1f0160401b83106104c25772184f03e93ff9f4daa797ed6e38ed64bf6a1f0160401b830492506040015b6d04ee2d6d415b85acef810000000083106104ee576d04ee2d6d415b85acef8100000000830492506020015b662386f26fc10000831061050c57662386f26fc10000830492506010015b6305f5e1008310610524576305f5e100830492506008015b612710831061053857612710830492506004015b6064831061054a576064830492506002015b600a8310610556576001015b92915050565b80356001600160a01b038116811461057357600080fd5b919050565b6000806000806080858703121561058e57600080fd5b6105978561055c565b93506105a56020860161055c565b92506105b36040860161055c565b9396929550929360600135925050565b6000815180845260005b818110156105e9576020818501810151868301820152016105cd565b506000602082860101526020601f19601f83011685010191505092915050565b6000602080830181845280855180835260408601915060408160051b870101925083870160005b8281101561065e57603f1988860301845261064c8583516105c3565b94509285019290850190600101610630565b5092979650505050505050565b60006020828403121561067d57600080fd5b5035919050565b60208152600061069760208301846105c3565b9392505050565b634e487b7160e01b600052604160045260246000fd5b634e487b7160e01b600052603260045260246000fd5b634e487b7160e01b600052601160045260246000fd5b8082028115828204841417610556576105566106ca565b80820180821115610556576105566106ca565b60006001820161071c5761071c6106ca565b506001019056fea2646970667358221220571a540ae2d51a61bb004a6d7322cfc1a1fe098ff5ef3434e348987083ce247364736f6c63430008140033",
    "linkReferences": {}
  },
  "methodIdentifiers": {
    "generateArgForRequest(address,address,address,uint256)": "de8ce1bd",
    "uintToString(uint256)": "e9395679"
  },
  "id": 52
}