{
  "abi": [
    {
      "inputs": [],
      "stateMutability": "nonpayable",
      "type": "constructor"
    },
    {
      "inputs": [],
      "name": "genericSwapFacet",
      "outputs": [
        {
          "internalType": "contract IGenericSwapFacet",
          "name": "",
          "type": "address"
        }
      ],
      "stateMutability": "view",
      "type": "function"
    },
    {
      "inputs": [],
      "name": "integrator",
      "outputs": [
        {
          "internalType": "string",
          "name": "",
          "type": "string"
        }
      ],
      "stateMutability": "view",
      "type": "function"
    },
    {
      "inputs": [],
      "name": "lifiDiamond",
      "outputs": [
        {
          "internalType": "address",
          "name": "",
          "type": "address"
        }
      ],
      "stateMutability": "view",
      "type": "function"
    },
    {
      "inputs": [
        {
          "internalType": "bytes",
          "name": "data",
          "type": "bytes"
        },
        {
          "internalType": "uint256",
          "name": "amountIn",
          "type": "uint256"
        },
        {
          "internalType": "address",
          "name": "receiver",
          "type": "address"
        },
        {
          "internalType": "address",
          "name": "tokenFrom",
          "type": "address"
        },
        {
          "internalType": "address",
          "name": "tokenTo",
          "type": "address"
        }
      ],
      "name": "readResponseAndSwap",
      "outputs": [],
      "stateMutability": "nonpayable",
      "type": "function"
    },
    {
      "inputs": [],
      "name": "referrer",
      "outputs": [
        {
          "internalType": "string",
          "name": "",
          "type": "string"
        }
      ],
      "stateMutability": "view",
      "type": "function"
    }
  ],
  "bytecode": {
    "object": "0x731231deb6f5749ef6ce6943a275a1d3e7486f4eae60805260e0604052600860a0908152676c6966692d61706960c01b60c05260019062000041908262000147565b506040518060600160405280602a815260200162001000602a91396002906200006b908262000147565b503480156200007957600080fd5b50608051600080546001600160a01b0319166001600160a01b0390921691909117905562000213565b634e487b7160e01b600052604160045260246000fd5b600181811c90821680620000cd57607f821691505b602082108103620000ee57634e487b7160e01b600052602260045260246000fd5b50919050565b601f8211156200014257600081815260208120601f850160051c810160208610156200011d5750805b601f850160051c820191505b818110156200013e5782815560010162000129565b5050505b505050565b81516001600160401b03811115620001635762000163620000a2565b6200017b81620001748454620000b8565b84620000f4565b602080601f831160018114620001b357600084156200019a5750858301515b600019600386901b1c1916600185901b1785556200013e565b600085815260208120601f198616915b82811015620001e457888601518255948401946001909101908401620001c3565b5085821015620002035787850151600019600388901b60f8161c191681555b5050505050600190811b01905550565b608051610dcb6200023560003960008181606101526105f60152610dcb6000f3fe608060405234801561001057600080fd5b50600436106100575760003560e01c80632bd16c8f1461005c57806357fa4508146100a057806368447c93146100b5578063ceff496d146100ca578063fc2f7cff146100dd575b600080fd5b6100837f000000000000000000000000000000000000000000000000000000000000000081565b6040516001600160a01b0390911681526020015b60405180910390f35b6100b36100ae366004610919565b6100e5565b005b6100bd610261565b6040516100979190610a56565b600054610083906001600160a01b031681565b6100bd6102ef565b6000806000806100f4896102fc565b935093509350935060008251600261010c9190610a86565b67ffffffffffffffff811115610124576101246108e7565b60405190808252806020026020018201604052801561014d578160200160208202803683370190505b509050868160008151811061016457610164610a9f565b60200260200101906001600160a01b031690816001600160a01b03168152505060005b83518110156101df578381815181106101a2576101a2610a9f565b60200260200101518282600101815181106101bf576101bf610a9f565b6001600160a01b0390921660209283029190910190910152600101610187565b508581600183516101f09190610ab5565b8151811061020057610200610a9f565b6001600160a01b0392909216602092830291909101909101528351825160009161022e918c919085906104d1565b60208701518751875192935090918c91610252918d9060801c85808f8f888b610680565b50505050505050505050505050565b6002805461026e90610ac8565b80601f016020809104026020016040519081016040528092919081815260200182805461029a90610ac8565b80156102e75780601f106102bc576101008083540402835291602001916102e7565b820191906000526020600020905b8154815290600101906020018083116102ca57829003601f168201915b505050505081565b6001805461026e90610ac8565b6103046108ab565b61030c6108c9565b60606103166108c9565b60488551101561036c5760405162461bcd60e51b815260206004820152601a60248201527f44617461206c656e677468206d757374206265203e3d20373221000000000000604482015260640160405180910390fd5b6103746108ab565b61037c6108c9565b6103846108ab565b61038c6108c9565b602089810151855260408a0151845260508a015160601c90850152606489015181528851605c036103bf57605c89015182525b88516070036103da57605c8901518252607089015160208301525b6000805b60028110156104225760008482600281106103fb576103fb610a9f565b60200201516001600160a01b03161461041a5761041782610b02565b91505b6001016103de565b5060008167ffffffffffffffff81111561043e5761043e6108e7565b604051908082528060200260200182016040528015610467578160200160208202803683370190505b50905060005b828110156104be5784816002811061048757610487610a9f565b602002015182828151811061049e5761049e610a9f565b6001600160a01b039092166020928302919091019091015260010161046d565b50949a9399509397509550909350505050565b60606338ed173960e01b60a0600083815b87518110156105875760006001600160a01b031688828151811061050857610508610a9f565b60200260200101516001600160a01b031614610577578161054889838151811061053457610534610a9f565b60200260200101516001600160a01b031690565b604051602001610559929190610b1b565b60405160208183030381529060405291508261057490610b02565b92505b61058081610b02565b90506104e2565b5060405161059c908290600090602001610b3d565b60408051808303601f19018152828252600060208401526fffffffffffffffffffffffffffffffff198b166030840152925085918b91016040516020818303038152906040526105eb90610b69565b856001600160a01b037f00000000000000000000000000000000000000000000000000000000000000001660408051600060208201526001600160e01b03198d16603c8201520160405160208183030381529060405261064a90610b69565b6040516106639695949392919089908990602001610b8d565b604051602081830303815290604052945050505050949350505050565b604080516001808252818301909252600091816020015b6040805160e0810182526000808252602080830182905292820181905260608083018290526080830182905260a083015260c0820152825260001990920191018161069757905050905086816000815181106106f5576106f5610a9f565b6020026020010151600001906001600160a01b031690816001600160a01b031681525050858160008151811061072d5761072d610a9f565b6020026020010151602001906001600160a01b031690816001600160a01b031681525050848160008151811061076557610765610a9f565b6020026020010151604001906001600160a01b031690816001600160a01b031681525050838160008151811061079d5761079d610a9f565b6020026020010151606001906001600160a01b031690816001600160a01b03168152505082816000815181106107d5576107d5610a9f565b6020026020010151608001818152505081816000815181106107f9576107f9610a9f565b602002602001015160a0018190525060018160008151811061081d5761081d610a9f565b602090810291909101015190151560c0909101526000546040516308c6141b60e31b81526001600160a01b0390911690634630a0d89061086d908d906001906002908f908f908990600401610c8a565b600060405180830381600087803b15801561088757600080fd5b505af115801561089b573d6000803e3d6000fd5b5050505050505050505050505050565b60405180604001604052806002906020820280368337509192915050565b60405180602001604052806001906020820280368337509192915050565b634e487b7160e01b600052604160045260246000fd5b80356001600160a01b038116811461091457600080fd5b919050565b600080600080600060a0868803121561093157600080fd5b853567ffffffffffffffff8082111561094957600080fd5b818801915088601f83011261095d57600080fd5b81358181111561096f5761096f6108e7565b604051601f8201601f19908116603f01168101908382118183101715610997576109976108e7565b816040528281528b60208487010111156109b057600080fd5b826020860160208301376000602084830101528099505050505050602086013593506109de604087016108fd565b92506109ec606087016108fd565b91506109fa608087016108fd565b90509295509295909350565b60005b83811015610a21578181015183820152602001610a09565b50506000910152565b60008151808452610a42816020860160208601610a06565b601f01601f19169290920160200192915050565b602081526000610a696020830184610a2a565b9392505050565b634e487b7160e01b600052601160045260246000fd5b80820180821115610a9957610a99610a70565b92915050565b634e487b7160e01b600052603260045260246000fd5b81810381811115610a9957610a99610a70565b600181811c90821680610adc57607f821691505b602082108103610afc57634e487b7160e01b600052602260045260246000fd5b50919050565b600060018201610b1457610b14610a70565b5060010190565b60008351610b2d818460208801610a06565b9190910191825250602001919050565b60008351610b4f818460208801610a06565b63ffffffff199390931691909201908152601c0192915050565b80516020808301519190811015610afc5760001960209190910360031b1b16919050565b63ffffffff60e01b891681528760048201528660248201528560448201528460648201528360848201528260a482015260008251610bd28160c4850160208701610a06565b9190910160c4019998505050505050505050565b8054600090600181811c9080831680610c0057607f831692505b60208084108203610c2157634e487b7160e01b600052602260045260246000fd5b83885260208801828015610c3c5760018114610c5257610c7d565b60ff198716825285151560051b82019750610c7d565b60008981526020902060005b87811015610c7757815484820152908601908401610c5e565b83019850505b5050505050505092915050565b600060c088835260208181850152610ca48285018a610be6565b604085820381870152610cb7828b610be6565b9150606060018060a01b03808b168289015260808a818a015260a0898603818b0152858b518088528888019150888160051b890101898e0160005b83811015610d7a57601f198b840301855281518051891684528c81015189168d8501528a81015189168b850152898101516001600160a01b03168a85015287810151888501528681015160e088860181905290610d5182870182610a2a565b9150508e8201519150610d678f86018315159052565b958d0195935050908b0190600101610cf2565b5050809b50505050505050505050505097965050505050505056fea26469706673582212203bd7b0509179892e5bfca6882c8e8bf5daedde3c9721adbc0be4b5f7294039aa64736f6c63430008140033307830303030303030303030303030303030303030303030303030303030303030303030303030303030",
    "linkReferences": {}
  },
  "methodIdentifiers": {
    "genericSwapFacet()": "ceff496d",
    "integrator()": "fc2f7cff",
    "lifiDiamond()": "2bd16c8f",
    "readResponseAndSwap(bytes,uint256,address,address,address)": "57fa4508",
    "referrer()": "68447c93"
  },
  "id": 46
}