{
  "abi": [
    {
      "inputs": [
        {
          "internalType": "address",
          "name": "_router",
          "type": "address"
        }
      ],
      "stateMutability": "nonpayable",
      "type": "constructor"
    },
    {
      "inputs": [],
      "name": "EmptyArgs",
      "type": "error"
    },
    {
      "inputs": [],
      "name": "EmptySource",
      "type": "error"
    },
    {
      "inputs": [
        {
          "internalType": "address",
          "name": "caller",
          "type": "address"
        },
        {
          "internalType": "address",
          "name": "owner",
          "type": "address"
        },
        {
          "internalType": "address",
          "name": "automationRegistry",
          "type": "address"
        }
      ],
      "name": "NotAllowedCaller",
      "type": "error"
    },
    {
      "inputs": [],
      "name": "OnlyRouterCanFulfill",
      "type": "error"
    },
    {
      "anonymous": false,
      "inputs": [
        {
          "indexed": true,
          "internalType": "address",
          "name": "user",
          "type": "address"
        },
        {
          "components": [
            {
              "internalType": "address",
              "name": "user",
              "type": "address"
            },
            {
              "internalType": "address",
              "name": "tokenIn",
              "type": "address"
            },
            {
              "internalType": "address",
              "name": "tokenOut",
              "type": "address"
            },
            {
              "internalType": "uint256",
              "name": "timeInterval",
              "type": "uint256"
            },
            {
              "internalType": "uint256",
              "name": "nextExecution",
              "type": "uint256"
            },
            {
              "internalType": "uint256",
              "name": "amount",
              "type": "uint256"
            },
            {
              "internalType": "uint256",
              "name": "limit",
              "type": "uint256"
            },
            {
              "internalType": "bytes",
              "name": "lastResponse",
              "type": "bytes"
            }
          ],
          "indexed": false,
          "internalType": "struct ILighterFi.UserStrategy",
          "name": "userStrategy",
          "type": "tuple"
        },
        {
          "indexed": false,
          "internalType": "uint256",
          "name": "strategyIndex",
          "type": "uint256"
        }
      ],
      "name": "NewUserStrategy",
      "type": "event"
    },
    {
      "anonymous": false,
      "inputs": [
        {
          "indexed": true,
          "internalType": "address",
          "name": "from",
          "type": "address"
        },
        {
          "indexed": true,
          "internalType": "address",
          "name": "to",
          "type": "address"
        }
      ],
      "name": "OwnershipTransferRequested",
      "type": "event"
    },
    {
      "anonymous": false,
      "inputs": [
        {
          "indexed": true,
          "internalType": "address",
          "name": "from",
          "type": "address"
        },
        {
          "indexed": true,
          "internalType": "address",
          "name": "to",
          "type": "address"
        }
      ],
      "name": "OwnershipTransferred",
      "type": "event"
    },
    {
      "anonymous": false,
      "inputs": [
        {
          "indexed": true,
          "internalType": "address",
          "name": "user",
          "type": "address"
        },
        {
          "indexed": false,
          "internalType": "uint256",
          "name": "strategyIndex",
          "type": "uint256"
        }
      ],
      "name": "RemovedUserStrategy",
      "type": "event"
    },
    {
      "anonymous": false,
      "inputs": [
        {
          "indexed": true,
          "internalType": "bytes32",
          "name": "id",
          "type": "bytes32"
        }
      ],
      "name": "RequestFulfilled",
      "type": "event"
    },
    {
      "anonymous": false,
      "inputs": [
        {
          "indexed": true,
          "internalType": "bytes32",
          "name": "requestId",
          "type": "bytes32"
        },
        {
          "indexed": false,
          "internalType": "uint256",
          "name": "strategyIndex",
          "type": "uint256"
        }
      ],
      "name": "RequestReceived",
      "type": "event"
    },
    {
      "anonymous": false,
      "inputs": [
        {
          "indexed": true,
          "internalType": "bytes32",
          "name": "id",
          "type": "bytes32"
        }
      ],
      "name": "RequestSent",
      "type": "event"
    },
    {
      "anonymous": false,
      "inputs": [
        {
          "indexed": true,
          "internalType": "bytes32",
          "name": "requestId",
          "type": "bytes32"
        },
        {
          "indexed": false,
          "internalType": "bytes",
          "name": "response",
          "type": "bytes"
        },
        {
          "indexed": false,
          "internalType": "bytes",
          "name": "err",
          "type": "bytes"
        }
      ],
      "name": "Response",
      "type": "event"
    },
    {
      "anonymous": false,
      "inputs": [
        {
          "indexed": true,
          "internalType": "bytes32",
          "name": "requestId",
          "type": "bytes32"
        },
        {
          "indexed": false,
          "internalType": "uint256",
          "name": "strategyIndex",
          "type": "uint256"
        },
        {
          "indexed": false,
          "internalType": "uint256",
          "name": "amountIn",
          "type": "uint256"
        },
        {
          "indexed": false,
          "internalType": "address",
          "name": "user",
          "type": "address"
        },
        {
          "indexed": false,
          "internalType": "address",
          "name": "tokenIn",
          "type": "address"
        },
        {
          "indexed": false,
          "internalType": "address",
          "name": "tokenOut",
          "type": "address"
        }
      ],
      "name": "SwapExecuted",
      "type": "event"
    },
    {
      "anonymous": false,
      "inputs": [
        {
          "indexed": true,
          "internalType": "address",
          "name": "user",
          "type": "address"
        },
        {
          "components": [
            {
              "internalType": "address",
              "name": "user",
              "type": "address"
            },
            {
              "internalType": "address",
              "name": "tokenIn",
              "type": "address"
            },
            {
              "internalType": "address",
              "name": "tokenOut",
              "type": "address"
            },
            {
              "internalType": "uint256",
              "name": "timeInterval",
              "type": "uint256"
            },
            {
              "internalType": "uint256",
              "name": "nextExecution",
              "type": "uint256"
            },
            {
              "internalType": "uint256",
              "name": "amount",
              "type": "uint256"
            },
            {
              "internalType": "uint256",
              "name": "limit",
              "type": "uint256"
            },
            {
              "internalType": "bytes",
              "name": "lastResponse",
              "type": "bytes"
            }
          ],
          "indexed": false,
          "internalType": "struct ILighterFi.UserStrategy",
          "name": "userStrategy",
          "type": "tuple"
        },
        {
          "indexed": false,
          "internalType": "uint256",
          "name": "strategyIndex",
          "type": "uint256"
        }
      ],
      "name": "UpdatedUserStrategy",
      "type": "event"
    },
    {
      "inputs": [
        {
          "internalType": "uint256",
          "name": "amountIn",
          "type": "uint256"
        },
        {
          "internalType": "bytes16",
          "name": "minAmount",
          "type": "bytes16"
        },
        {
          "internalType": "address[]",
          "name": "path",
          "type": "address[]"
        },
        {
          "internalType": "bytes4",
          "name": "routerSelector",
          "type": "bytes4"
        }
      ],
      "name": "ConcatCalldata",
      "outputs": [
        {
          "internalType": "bytes",
          "name": "",
          "type": "bytes"
        }
      ],
      "stateMutability": "view",
      "type": "function"
    },
    {
      "inputs": [
        {
          "internalType": "int256",
          "name": "fuzz",
          "type": "int256"
        }
      ],
      "name": "_batchQuery",
      "outputs": [
        {
          "internalType": "uint256[]",
          "name": "",
          "type": "uint256[]"
        }
      ],
      "stateMutability": "view",
      "type": "function"
    },
    {
      "inputs": [
        {
          "internalType": "address[]",
          "name": "tokenAddresses",
          "type": "address[]"
        }
      ],
      "name": "_mapAddresses",
      "outputs": [],
      "stateMutability": "nonpayable",
      "type": "function"
    },
    {
      "inputs": [],
      "name": "acceptOwnership",
      "outputs": [],
      "stateMutability": "nonpayable",
      "type": "function"
    },
    {
      "inputs": [],
      "name": "addressMappinglength",
      "outputs": [
        {
          "internalType": "uint256",
          "name": "",
          "type": "uint256"
        }
      ],
      "stateMutability": "view",
      "type": "function"
    },
    {
      "inputs": [
        {
          "internalType": "address",
          "name": "addr",
          "type": "address"
        }
      ],
      "name": "addressToBytes32",
      "outputs": [
        {
          "internalType": "bytes32",
          "name": "",
          "type": "bytes32"
        }
      ],
      "stateMutability": "pure",
      "type": "function"
    },
    {
      "inputs": [
        {
          "internalType": "bytes32",
          "name": "b32",
          "type": "bytes32"
        }
      ],
      "name": "bytes32tobytes4",
      "outputs": [
        {
          "internalType": "bytes4",
          "name": "",
          "type": "bytes4"
        }
      ],
      "stateMutability": "pure",
      "type": "function"
    },
    {
      "inputs": [
        {
          "components": [
            {
              "internalType": "uint256",
              "name": "index",
              "type": "uint256"
            },
            {
              "internalType": "uint256",
              "name": "timestamp",
              "type": "uint256"
            },
            {
              "internalType": "bytes32",
              "name": "txHash",
              "type": "bytes32"
            },
            {
              "internalType": "uint256",
              "name": "blockNumber",
              "type": "uint256"
            },
            {
              "internalType": "bytes32",
              "name": "blockHash",
              "type": "bytes32"
            },
            {
              "internalType": "address",
              "name": "source",
              "type": "address"
            },
            {
              "internalType": "bytes32[]",
              "name": "topics",
              "type": "bytes32[]"
            },
            {
              "internalType": "bytes",
              "name": "data",
              "type": "bytes"
            }
          ],
          "internalType": "struct Log",
          "name": "log",
          "type": "tuple"
        },
        {
          "internalType": "bytes",
          "name": "",
          "type": "bytes"
        }
      ],
      "name": "checkLog",
      "outputs": [
        {
          "internalType": "bool",
          "name": "upkeepNeeded",
          "type": "bool"
        },
        {
          "internalType": "bytes",
          "name": "performData",
          "type": "bytes"
        }
      ],
      "stateMutability": "pure",
      "type": "function"
    },
    {
      "inputs": [
        {
          "internalType": "bytes",
          "name": "",
          "type": "bytes"
        },
        {
          "internalType": "int256",
          "name": "fuzz",
          "type": "int256"
        }
      ],
      "name": "checkUpkeep",
      "outputs": [
        {
          "internalType": "bool",
          "name": "upkeepNeeded",
          "type": "bool"
        },
        {
          "internalType": "bytes",
          "name": "performData",
          "type": "bytes"
        }
      ],
      "stateMutability": "view",
      "type": "function"
    },
    {
      "inputs": [
        {
          "internalType": "address",
          "name": "tokenFrom",
          "type": "address"
        },
        {
          "internalType": "address",
          "name": "tokenTo",
          "type": "address"
        },
        {
          "internalType": "uint256",
          "name": "timeInterval",
          "type": "uint256"
        },
        {
          "internalType": "uint256",
          "name": "tokenInAmount",
          "type": "uint256"
        },
        {
          "internalType": "uint256",
          "name": "limit",
          "type": "uint256"
        }
      ],
      "name": "createStrategy",
      "outputs": [],
      "stateMutability": "nonpayable",
      "type": "function"
    },
    {
      "inputs": [],
      "name": "donID",
      "outputs": [
        {
          "internalType": "bytes32",
          "name": "",
          "type": "bytes32"
        }
      ],
      "stateMutability": "view",
      "type": "function"
    },
    {
      "inputs": [
        {
          "internalType": "bytes32",
          "name": "requestId",
          "type": "bytes32"
        },
        {
          "internalType": "bytes",
          "name": "response",
          "type": "bytes"
        },
        {
          "internalType": "bytes",
          "name": "err",
          "type": "bytes"
        }
      ],
      "name": "fulfillRequest",
      "outputs": [],
      "stateMutability": "nonpayable",
      "type": "function"
    },
    {
      "inputs": [],
      "name": "gasLimit",
      "outputs": [
        {
          "internalType": "uint32",
          "name": "",
          "type": "uint32"
        }
      ],
      "stateMutability": "view",
      "type": "function"
    },
    {
      "inputs": [
        {
          "internalType": "address",
          "name": "_tokenFrom",
          "type": "address"
        },
        {
          "internalType": "address",
          "name": "_tokenTo",
          "type": "address"
        },
        {
          "internalType": "address",
          "name": "user",
          "type": "address"
        },
        {
          "internalType": "uint256",
          "name": "amount",
          "type": "uint256"
        }
      ],
      "name": "generateArgForRequest",
      "outputs": [
        {
          "internalType": "string[]",
          "name": "",
          "type": "string[]"
        }
      ],
      "stateMutability": "pure",
      "type": "function"
    },
    {
      "inputs": [],
      "name": "genericSwapFacet",
      "outputs": [
        {
          "internalType": "contract IGenericSwapFacet",
          "name": "",
          "type": "address"
        }
      ],
      "stateMutability": "view",
      "type": "function"
    },
    {
      "inputs": [
        {
          "internalType": "address",
          "name": "feedAddress",
          "type": "address"
        },
        {
          "internalType": "int256",
          "name": "answer",
          "type": "int256"
        }
      ],
      "name": "getChainlinkDataFeedLatestAnswer",
      "outputs": [
        {
          "internalType": "int256",
          "name": "",
          "type": "int256"
        }
      ],
      "stateMutability": "view",
      "type": "function"
    },
    {
      "inputs": [
        {
          "internalType": "bytes32",
          "name": "requestId",
          "type": "bytes32"
        },
        {
          "internalType": "bytes",
          "name": "response",
          "type": "bytes"
        },
        {
          "internalType": "bytes",
          "name": "err",
          "type": "bytes"
        }
      ],
      "name": "handleOracleFulfillment",
      "outputs": [],
      "stateMutability": "nonpayable",
      "type": "function"
    },
    {
      "inputs": [
        {
          "internalType": "address",
          "name": "_usdcAddress",
          "type": "address"
        },
        {
          "internalType": "uint32",
          "name": "_gasLimit",
          "type": "uint32"
        },
        {
          "internalType": "bytes32",
          "name": "_donID",
          "type": "bytes32"
        },
        {
          "internalType": "uint64",
          "name": "_subscriptionId",
          "type": "uint64"
        },
        {
          "internalType": "address",
          "name": "_upkeepContract1",
          "type": "address"
        },
        {
          "internalType": "address",
          "name": "_upkeepContract2",
          "type": "address"
        }
      ],
      "name": "init",
      "outputs": [],
      "stateMutability": "nonpayable",
      "type": "function"
    },
    {
      "inputs": [],
      "name": "integrator",
      "outputs": [
        {
          "internalType": "string",
          "name": "",
          "type": "string"
        }
      ],
      "stateMutability": "view",
      "type": "function"
    },
    {
      "inputs": [],
      "name": "isInitialized",
      "outputs": [
        {
          "internalType": "bool",
          "name": "",
          "type": "bool"
        }
      ],
      "stateMutability": "view",
      "type": "function"
    },
    {
      "inputs": [],
      "name": "isPaused",
      "outputs": [
        {
          "internalType": "bool",
          "name": "",
          "type": "bool"
        }
      ],
      "stateMutability": "view",
      "type": "function"
    },
    {
      "inputs": [],
      "name": "lifiDiamond",
      "outputs": [
        {
          "internalType": "address",
          "name": "",
          "type": "address"
        }
      ],
      "stateMutability": "view",
      "type": "function"
    },
    {
      "inputs": [
        {
          "internalType": "address[]",
          "name": "tokenAddresses",
          "type": "address[]"
        }
      ],
      "name": "mapAddresses",
      "outputs": [],
      "stateMutability": "nonpayable",
      "type": "function"
    },
    {
      "inputs": [],
      "name": "owner",
      "outputs": [
        {
          "internalType": "address",
          "name": "",
          "type": "address"
        }
      ],
      "stateMutability": "view",
      "type": "function"
    },
    {
      "inputs": [
        {
          "internalType": "bytes",
          "name": "performData",
          "type": "bytes"
        }
      ],
      "name": "performUpkeep",
      "outputs": [],
      "stateMutability": "nonpayable",
      "type": "function"
    },
    {
      "inputs": [
        {
          "internalType": "bytes",
          "name": "data",
          "type": "bytes"
        },
        {
          "internalType": "uint256",
          "name": "amountIn",
          "type": "uint256"
        },
        {
          "internalType": "address",
          "name": "receiver",
          "type": "address"
        },
        {
          "internalType": "address",
          "name": "tokenFrom",
          "type": "address"
        },
        {
          "internalType": "address",
          "name": "tokenTo",
          "type": "address"
        }
      ],
      "name": "readResponseAndSwap",
      "outputs": [],
      "stateMutability": "nonpayable",
      "type": "function"
    },
    {
      "inputs": [],
      "name": "referrer",
      "outputs": [
        {
          "internalType": "string",
          "name": "",
          "type": "string"
        }
      ],
      "stateMutability": "view",
      "type": "function"
    },
    {
      "inputs": [
        {
          "internalType": "uint256",
          "name": "index",
          "type": "uint256"
        }
      ],
      "name": "removeStrategy",
      "outputs": [],
      "stateMutability": "nonpayable",
      "type": "function"
    },
    {
      "inputs": [
        {
          "internalType": "bytes32",
          "name": "",
          "type": "bytes32"
        }
      ],
      "name": "requestsIds",
      "outputs": [
        {
          "internalType": "uint256",
          "name": "",
          "type": "uint256"
        }
      ],
      "stateMutability": "view",
      "type": "function"
    },
    {
      "inputs": [
        {
          "internalType": "int256",
          "name": "price",
          "type": "int256"
        }
      ],
      "name": "reseizeDecimals",
      "outputs": [
        {
          "internalType": "uint256",
          "name": "",
          "type": "uint256"
        }
      ],
      "stateMutability": "pure",
      "type": "function"
    },
    {
      "inputs": [
        {
          "internalType": "uint256",
          "name": "",
          "type": "uint256"
        }
      ],
      "name": "s_usersStrategies",
      "outputs": [
        {
          "internalType": "address",
          "name": "user",
          "type": "address"
        },
        {
          "internalType": "address",
          "name": "tokenIn",
          "type": "address"
        },
        {
          "internalType": "address",
          "name": "tokenOut",
          "type": "address"
        },
        {
          "internalType": "uint256",
          "name": "timeInterval",
          "type": "uint256"
        },
        {
          "internalType": "uint256",
          "name": "nextExecution",
          "type": "uint256"
        },
        {
          "internalType": "uint256",
          "name": "amount",
          "type": "uint256"
        },
        {
          "internalType": "uint256",
          "name": "limit",
          "type": "uint256"
        },
        {
          "internalType": "bytes",
          "name": "lastResponse",
          "type": "bytes"
        }
      ],
      "stateMutability": "view",
      "type": "function"
    },
    {
      "inputs": [],
      "name": "s_usersStrategiesLength",
      "outputs": [
        {
          "internalType": "uint256",
          "name": "",
          "type": "uint256"
        }
      ],
      "stateMutability": "view",
      "type": "function"
    },
    {
      "inputs": [
        {
          "internalType": "uint256",
          "name": "index",
          "type": "uint256"
        }
      ],
      "name": "sendRequest",
      "outputs": [],
      "stateMutability": "nonpayable",
      "type": "function"
    },
    {
      "inputs": [
        {
          "internalType": "bool",
          "name": "pause",
          "type": "bool"
        }
      ],
      "name": "setPause",
      "outputs": [
        {
          "internalType": "bool",
          "name": "",
          "type": "bool"
        }
      ],
      "stateMutability": "nonpayable",
      "type": "function"
    },
    {
      "inputs": [
        {
          "internalType": "address",
          "name": "_upkeepContract1",
          "type": "address"
        },
        {
          "internalType": "address",
          "name": "_upkeepContract2",
          "type": "address"
        }
      ],
      "name": "setUpkeepForwarders",
      "outputs": [],
      "stateMutability": "nonpayable",
      "type": "function"
    },
    {
      "inputs": [],
      "name": "strategyIndex",
      "outputs": [
        {
          "internalType": "uint256",
          "name": "",
          "type": "uint256"
        }
      ],
      "stateMutability": "view",
      "type": "function"
    },
    {
      "inputs": [],
      "name": "subscriptionId",
      "outputs": [
        {
          "internalType": "uint64",
          "name": "",
          "type": "uint64"
        }
      ],
      "stateMutability": "view",
      "type": "function"
    },
    {
      "inputs": [
        {
          "internalType": "bytes32",
          "name": "_transactionId",
          "type": "bytes32"
        },
        {
          "internalType": "address payable",
          "name": "_receiver",
          "type": "address"
        },
        {
          "internalType": "uint256",
          "name": "_minAmount",
          "type": "uint256"
        },
        {
          "internalType": "address",
          "name": "_callTo",
          "type": "address"
        },
        {
          "internalType": "address",
          "name": "_approveTo",
          "type": "address"
        },
        {
          "internalType": "address",
          "name": "_sendingAssetId",
          "type": "address"
        },
        {
          "internalType": "address",
          "name": "_receivingAssetId",
          "type": "address"
        },
        {
          "internalType": "uint256",
          "name": "_fromAmount",
          "type": "uint256"
        },
        {
          "internalType": "bytes",
          "name": "_calldata",
          "type": "bytes"
        }
      ],
      "name": "swap",
      "outputs": [],
      "stateMutability": "nonpayable",
      "type": "function"
    },
    {
      "inputs": [
        {
          "internalType": "address",
          "name": "",
          "type": "address"
        }
      ],
      "name": "tokenAllowed",
      "outputs": [
        {
          "internalType": "bool",
          "name": "",
          "type": "bool"
        }
      ],
      "stateMutability": "view",
      "type": "function"
    },
    {
      "inputs": [
        {
          "internalType": "address",
          "name": "",
          "type": "address"
        }
      ],
      "name": "tokenIndexes",
      "outputs": [
        {
          "internalType": "uint256",
          "name": "",
          "type": "uint256"
        }
      ],
      "stateMutability": "view",
      "type": "function"
    },
    {
      "inputs": [
        {
          "internalType": "address",
          "name": "to",
          "type": "address"
        }
      ],
      "name": "transferOwnership",
      "outputs": [],
      "stateMutability": "nonpayable",
      "type": "function"
    },
    {
      "inputs": [
        {
          "internalType": "uint256",
          "name": "u256",
          "type": "uint256"
        }
      ],
      "name": "uintToBytes32",
      "outputs": [
        {
          "internalType": "bytes32",
          "name": "",
          "type": "bytes32"
        }
      ],
      "stateMutability": "pure",
      "type": "function"
    },
    {
      "inputs": [
        {
          "internalType": "uint256",
          "name": "value",
          "type": "uint256"
        }
      ],
      "name": "uintToString",
      "outputs": [
        {
          "internalType": "string",
          "name": "",
          "type": "string"
        }
      ],
      "stateMutability": "pure",
      "type": "function"
    },
    {
      "inputs": [
        {
          "internalType": "bytes",
          "name": "data",
          "type": "bytes"
        }
      ],
      "name": "unpackBytes",
      "outputs": [
        {
          "internalType": "bytes32[2]",
          "name": "",
          "type": "bytes32[2]"
        },
        {
          "internalType": "bytes16[1]",
          "name": "",
          "type": "bytes16[1]"
        },
        {
          "internalType": "address[]",
          "name": "",
          "type": "address[]"
        },
        {
          "internalType": "bytes4[1]",
          "name": "",
          "type": "bytes4[1]"
        }
      ],
      "stateMutability": "pure",
      "type": "function"
    },
    {
      "inputs": [
        {
          "internalType": "uint256",
          "name": "index",
          "type": "uint256"
        },
        {
          "internalType": "address",
          "name": "tokenFrom",
          "type": "address"
        },
        {
          "internalType": "address",
          "name": "tokenTo",
          "type": "address"
        },
        {
          "internalType": "uint256",
          "name": "timeInterval",
          "type": "uint256"
        },
        {
          "internalType": "uint256",
          "name": "amountTokenIn",
          "type": "uint256"
        },
        {
          "internalType": "uint256",
          "name": "limit",
          "type": "uint256"
        }
      ],
      "name": "upgradeStrategy",
      "outputs": [],
      "stateMutability": "nonpayable",
      "type": "function"
    },
    {
      "inputs": [],
      "name": "upkeepContract1",
      "outputs": [
        {
          "internalType": "address",
          "name": "",
          "type": "address"
        }
      ],
      "stateMutability": "view",
      "type": "function"
    },
    {
      "inputs": [],
      "name": "upkeepContract2",
      "outputs": [
        {
          "internalType": "address",
          "name": "",
          "type": "address"
        }
      ],
      "stateMutability": "view",
      "type": "function"
    },
    {
      "inputs": [],
      "name": "usdcAddress",
      "outputs": [
        {
          "internalType": "address",
          "name": "",
          "type": "address"
        }
      ],
      "stateMutability": "view",
      "type": "function"
    }
  ],
  "bytecode": {
    "object": "0x61012060405273d0d5e3db44de05e9f294bb0a3beeaf030de24ada60c0908152731c2252aeed50e0c9b64bdff2735ee3c932f5c40860e052730715a7794a1dc8e42615f059dd6e406a6594651a6101005262000060906002906003620002c6565b50731231deb6f5749ef6ce6943a275a1d3e7486f4eae60a0526040805180820190915260088152676c6966692d61706960c01b6020820152600790620000a79082620003ec565b506040518060600160405280602a8152602001620042ee602a9139600890620000d19082620003ec565b50604051806103e001604052806103a98152602001620043186103a99139601190620000fe9082620003ec565b503480156200010c57600080fd5b50604051620046c1380380620046c18339810160408190526200012f91620004b8565b6001600160a01b0381166080523380600081620001935760405162461bcd60e51b815260206004820152601860248201527f43616e6e6f7420736574206f776e657220746f207a65726f000000000000000060448201526064015b60405180910390fd5b600080546001600160a01b0319166001600160a01b0384811691909117909155811615620001c657620001c6816200021b565b505060a051600680546001600160a01b039092166001600160a01b03199092169190911790555050600e8054600161ff0160a01b031916732791bca1f2de4661ed88a30c99a7a9449aa84174179055620004ea565b336001600160a01b03821603620002755760405162461bcd60e51b815260206004820152601760248201527f43616e6e6f74207472616e7366657220746f2073656c6600000000000000000060448201526064016200018a565b600180546001600160a01b0319166001600160a01b0383811691821790925560008054604051929316917fed8889f560326eb138920d842192f0eb3dd22b4f139c87a2c57538e05bae12789190a350565b8280548282559060005260206000209081019282156200031e579160200282015b828111156200031e57825182546001600160a01b0319166001600160a01b03909116178255602090920191600190910190620002e7565b506200032c92915062000330565b5090565b5b808211156200032c576000815560010162000331565b634e487b7160e01b600052604160045260246000fd5b600181811c908216806200037257607f821691505b6020821081036200039357634e487b7160e01b600052602260045260246000fd5b50919050565b601f821115620003e757600081815260208120601f850160051c81016020861015620003c25750805b601f850160051c820191505b81811015620003e357828155600101620003ce565b5050505b505050565b81516001600160401b0381111562000408576200040862000347565b62000420816200041984546200035d565b8462000399565b602080601f8311600181146200045857600084156200043f5750858301515b600019600386901b1c1916600185901b178555620003e3565b600085815260208120601f198616915b82811015620004895788860151825594840194600190910190840162000468565b5085821015620004a85787850151600019600388901b60f8161c191681555b5050505050600190811b01905550565b600060208284031215620004cb57600080fd5b81516001600160a01b0381168114620004e357600080fd5b9392505050565b60805160a051613dd762000517600039600081816103b60152612088015260006107c20152613dd76000f3fe608060405234801561001057600080fd5b50600436106102a05760003560e01c806368447c9311610167578063bedb86fb116100ce578063de8ce1bd11610087578063de8ce1bd14610696578063e6446373146106b6578063e9395679146106bf578063f2fde38b146106d2578063f68016b7146106e5578063fc2f7cff1461070a57600080fd5b8063bedb86fb1461062e578063c0cbbca614610641578063cdbd375914610654578063ceff496d14610667578063d16360951461067a578063d201b2641461068357600080fd5b80638da5cb5b116101205780638da5cb5b146105945780638ee8306b146105a5578063a854af2c146105b8578063b187bd26146105d3578063b21ca099146105e7578063b39ef9c81461060757600080fd5b806368447c93146105305780636e74336b1461054557806371bdb5de1461054e57806379ba50971461056157806382c947b714610569578063886d3db91461058357600080fd5b806340691db41161020b578063549e2b7f116101c4578063549e2b7f146104a857806355219d5a146104bb5780635591ddc6146104de57806357fa4508146104f15780635e92e6921461050457806365170a471461052757600080fd5b806340691db4146104225780634506fd26146104355780634585e33b146104485780634ce3fa521461045b5780634f8391bc1461046e57806352f61f411461049557600080fd5b806321d1fdd01161025d57806321d1fdd01461037d578063289e5bb91461039e5780632bd16c8f146103b157806331e70508146103d8578063392e53cd146103eb57806339b051221461040f57600080fd5b806302d45457146102a557806304bc3b1c146102d557806309c1ba2e146103035780630b790986146103355780630ca76175146103555780630e372ff01461036a575b600080fd5b600e546102b8906001600160a01b031681565b6040516001600160a01b0390911681526020015b60405180910390f35b6102f56102e3366004612cd7565b60046020526000908152604090205481565b6040519081526020016102cc565b600b5461031d90600160c01b90046001600160401b031681565b6040516001600160401b0390911681526020016102cc565b610348610343366004612cfb565b610712565b6040516102cc9190612d14565b610368610363366004612e0d565b6107b7565b005b6102f5610378366004612cfb565b61083b565b61039061038b366004612ec1565b61084e565b6040516102cc929190612f5c565b6102f56103ac366004612f7f565b919050565b6102b87f000000000000000000000000000000000000000000000000000000000000000081565b6103686103e6366004612cfb565b610ace565b600e546103ff90600160a81b900460ff1681565b60405190151581526020016102cc565b61036861041d366004612e0d565b610d54565b610390610430366004612fab565b610dbf565b610368610443366004613017565b610e1c565b6103686104563660046130ce565b611047565b61036861046936600461310f565b6112a3565b61048161047c366004612cfb565b6112e9565b6040516102cc989796959493929190613148565b600c546102b8906001600160a01b031681565b6103686104b63660046131a3565b6113c6565b6103ff6104c9366004612cd7565b60056020526000908152604090205460ff1681565b6103686104ec3660046131f4565b61178f565b6103686104ff366004613268565b6117a5565b6105176105123660046132e8565b611920565b6040516102cc9493929190613393565b6102f560095481565b610538611af0565b6040516102cc919061341b565b6102f5600a5481565b61036861055c36600461342e565b611b7e565b610368611ec2565b6102f5610577366004612cd7565b6001600160a01b031690565b6102f5610591366004612cfb565b90565b6000546001600160a01b03166102b8565b6105386105b33660046134a2565b611f6c565b600b546102b89064010000000090046001600160a01b031681565b600e546103ff90600160a01b900460ff1681565b6102f56105f5366004612cfb565b60106020526000908152604090205481565b610615610591366004612cfb565b6040516001600160e01b031990911681526020016102cc565b6103ff61063c36600461358f565b612112565b61036861064f366004612cfb565b612144565b6103686106623660046131f4565b612375565b6006546102b8906001600160a01b031681565b6102f560035481565b6103686106913660046135b1565b61248b565b6106a96106a436600461363f565b61258b565b6040516102cc9190613690565b6102f5600d5481565b6105386106cd366004612cfb565b6126e5565b6103686106e0366004612cd7565b612777565b600b546106f59063ffffffff1681565b60405163ffffffff90911681526020016102cc565b61053861278b565b6002546060906000816001600160401b0381111561073257610732612d58565b60405190808252806020026020018201604052801561075b578160200160208202803683370190505b50905060005b828110156107af5761078a61037860028381548110610782576107826136f2565b506000528690565b82828151811061079c5761079c6136f2565b6020908102919091010152600101610761565b509392505050565b336001600160a01b037f000000000000000000000000000000000000000000000000000000000000000016146108005760405163c6829f8360e01b815260040160405180910390fd5b61080b838383610d54565b60405183907f85e1543bf2f84fe80c6badbce3648c8539ad1df4d2b3d822938ca0538be727e690600090a2505050565b600061084860648361371e565b92915050565b60006060600061085d84610712565b905060008060008060005b600954811015610abf576000818152600f6020908152604080832081516101008101835281546001600160a01b03908116825260018301548116948201949094526002820154909316918301919091526003810154606083015260048101546080830152600581015460a0830152600681015460c083015260078101805460e0840191906108f590613740565b80601f016020809104026020016040519081016040528092919081815260200182805461092190613740565b801561096e5780601f106109435761010080835404028352916020019161096e565b820191906000526020600020905b81548152906001019060200180831161095157829003601f168201915b5050509190925250508151919250506001600160a01b031615610aac576060810151156109a057806080015142101593505b60608101511580156109b5575060c081015115155b15610a5a57600e5460208201516001600160a01b03908116911614610a195760c08101516020808301516001600160a01b031660009081526004909152604090205488518991908110610a0a57610a0a6136f2565b60200260200101511015610a57565b60c08101516040808301516001600160a01b031660009081526004602052205488518991908110610a4c57610a4c6136f2565b602002602001015111155b92505b8280610a635750835b15610aac5760019850816000604051602001610a89929190918252602082015260400190565b60405160208183030381529060405297508815610aac5750505050505050610ac6565b5080610ab78161377a565b915050610868565b5050505050505b935093915050565b610b0f6040805160e0810190915280600081526020016000815260200160008152602001606081526020016060815260200160608152602001606081525090565b610bac60118054610b1f90613740565b80601f0160208091040260200160405190810160405280929190818152602001828054610b4b90613740565b8015610b985780601f10610b6d57610100808354040283529160200191610b98565b820191906000526020600020905b815481529060010190602001808311610b7b57829003601f168201915b50505050508261279890919063ffffffff16565b6000828152600f6020908152604080832081516101008101835281546001600160a01b03908116825260018301548116948201949094526002820154909316918301919091526003810154606083015260048101546080830152600581015460a0830152600681015460c083015260078101805460e084019190610c2f90613740565b80601f0160208091040260200160405190810160405280929190818152602001828054610c5b90613740565b8015610ca85780601f10610c7d57610100808354040283529160200191610ca8565b820191906000526020600020905b815481529060010190602001808311610c8b57829003601f168201915b50505050508152505090506000610cd18260200151836040015184600001518560a0015161258b565b9050610cdd83826127a5565b681c995c5d595cdd125960ba1b6000819052601060209081527fbbdbb72e8f82049b214755d692907364a2285e3e4225b3dd9ae52821e20afb3c86905560405186815282917f7b0781c2059d56137f2d3814f1213c0bbbd546ff1f4e1a95a7b41f4234e9ee32910160405180910390a25050505050565b600083815260106020908152604080832054808452600f909252909120600701610d7e84826137e1565b50837f7873807bf6ddc50401cd3d29bbe0decee23fd4d68d273f4b5eb83cded4d2f1728484604051610db19291906138a0565b60405180910390a250505050565b60016060610dd060c08501856138c5565b6000818110610de157610de16136f2565b905060200201356001604051602001610e04929190918252602082015260400190565b60405160208183030381529060405290509250929050565b604080516001808252818301909252600091816020015b6040805160e0810182526000808252602080830182905292820181905260608083018290526080830182905260a083015260c08201528252600019909201910181610e335790505090508681600081518110610e9157610e916136f2565b6020026020010151600001906001600160a01b031690816001600160a01b0316815250508581600081518110610ec957610ec96136f2565b6020026020010151602001906001600160a01b031690816001600160a01b0316815250508481600081518110610f0157610f016136f2565b6020026020010151604001906001600160a01b031690816001600160a01b0316815250508381600081518110610f3957610f396136f2565b6020026020010151606001906001600160a01b031690816001600160a01b0316815250508281600081518110610f7157610f716136f2565b602002602001015160800181815250508181600081518110610f9557610f956136f2565b602002602001015160a00181905250600181600081518110610fb957610fb96136f2565b602090810291909101015190151560c0909101526006546040516308c6141b60e31b81526001600160a01b0390911690634630a0d890611009908d906007906008908f908f90899060040161398b565b600060405180830381600087803b15801561102357600080fd5b505af1158015611037573d6000803e3d6000fd5b5050505050505050505050505050565b6000546001600160a01b031633148015906110755750600b5464010000000090046001600160a01b03163314155b801561108c5750600c546001600160a01b03163314155b156110e957336110a46000546001600160a01b031690565b600b5460405163426fbc7160e01b81526001600160a01b0393841660048201529183166024830152640100000000900490911660448201526064015b60405180910390fd5b60006110f782840184613a96565b9150508060000361115e57600061111083850185613a96565b506000818152600f602052604090206003810154919250901561114657600381015461113c9042613ab8565b600482015561114e565b600060068201555b61115782610ace565b5050505050565b600061116c83850185613a96565b50600081815260106020908152604080832054808452600f909252909120600681015492935090911561122e576000828152600f6020526040812080546001600160a01b0319908116825560018201805482169055600282018054909116905560038101829055600481018290556005810182905560068101829055906111f66007830182612c33565b505060405182815233907fd4bcfe01803d6cc1b6cb87942924062b921ce853a0e0ad1a59cb92fa77f3a8cc9060200160405180910390a25b60058101548154600183015460028401546040805187815260208101959095526001600160a01b0393841690850152908216606084015216608082015283907f2cbc8e6970e7a6e926100654a692677c7960085229cf130f3afa93a8b89ed3879060a00160405180910390a25050505b505050565b6112ab6127cf565b600b8054640100000000600160c01b0319166401000000006001600160a01b0394851602179055600c80546001600160a01b03191691909216179055565b600f60205260009081526040902080546001820154600283015460038401546004850154600586015460068701546007880180546001600160a01b0398891699978916989096169694959394929391929161134390613740565b80601f016020809104026020016040519081016040528092919081815260200182805461136f90613740565b80156113bc5780601f10611391576101008083540402835291602001916113bc565b820191906000526020600020905b81548152906001019060200180831161139f57829003601f168201915b5050505050905088565b600e54600160a01b900460ff16156114125760405162461bcd60e51b815260206004820152600f60248201526e18dbdb9d1c9858dd081c185d5cd959608a1b60448201526064016110e0565b816000036114625760405162461bcd60e51b815260206004820152601d60248201527f696e76616c696420737472617465677920706172616d20616d6f756e7400000060448201526064016110e0565b6001600160a01b03841660009081526005602052604090205460ff166114ca5760405162461bcd60e51b815260206004820152601e60248201527f696e76616c696420737472617465677920706172616d20746f6b656e546f000060448201526064016110e0565b6001600160a01b03851660009081526005602052604090205460ff166115325760405162461bcd60e51b815260206004820181905260248201527f696e76616c696420737472617465677920706172616d20746f6b656e46726f6d60448201526064016110e0565b82158061153d575080155b6115595760405162461bcd60e51b81526004016110e090613acb565b82158015611565575080155b156115b25760405162461bcd60e51b815260206004820152601c60248201527f4c696d697420616e642054696d65496e74657276616c2061726520300000000060448201526064016110e0565b600083156115c7576115c48442613ab8565b90505b6000604051806101000160405280336001600160a01b03168152602001600087116115f257886115ff565b600e546001600160a01b03165b6001600160a01b03168152602001876001600160a01b031681526020018681526020018381526020018581526020018481526020016040518060400160405280600181526020016000815250815250905080604001516001600160a01b031681602001516001600160a01b0316036116895760405162461bcd60e51b81526004016110e090613b0d565b600d546000818152600f6020908152604091829020845181546001600160a01b03199081166001600160a01b03928316178355928601516001830180548516918316919091179055928501516002820180549093169316929092179055606083015160038201556080830151600482015560a0830151600582015560c0830151600682015560e0830151839190600782019061172590826137e1565b5050600d805460019081019091556009805490910190555081516040516001600160a01b03909116907f76077091b25b37316df3930ef4f2b6248911c2aead51908ad20525fc8e099ea59061177d9085908590613b54565b60405180910390a25050505050505050565b6117976127cf565b6117a18282612375565b5050565b6000806000806117b489611920565b93509350935093506000825160026117cc9190613ab8565b6001600160401b038111156117e3576117e3612d58565b60405190808252806020026020018201604052801561180c578160200160208202803683370190505b5090508681600081518110611823576118236136f2565b60200260200101906001600160a01b031690816001600160a01b03168152505060005b835181101561189e57838181518110611861576118616136f2565b602002602001015182826001018151811061187e5761187e6136f2565b6001600160a01b0390921660209283029190910190910152600101611846565b508581600183516118af9190613be9565b815181106118bf576118bf6136f2565b6001600160a01b039290921660209283029190910190910152835182516000916118ed918c91908590611f6c565b60208701518751875192935090918c91611911918d9060801c85808f8f888b610e1c565b50505050505050505050505050565b611928612c6d565b611930612c8b565b606061193a612c8b565b60488551101561198c5760405162461bcd60e51b815260206004820152601a60248201527f44617461206c656e677468206d757374206265203e3d2037322100000000000060448201526064016110e0565b611994612c6d565b61199c612c8b565b6119a4612c6d565b6119ac612c8b565b602089810151855260408a0151845260508a015160601c90850152606489015181528851605c036119df57605c89015182525b88516070036119fa57605c8901518252607089015160208301525b6000805b6002811015611a42576000848260028110611a1b57611a1b6136f2565b60200201516001600160a01b031614611a3a57611a378261377a565b91505b6001016119fe565b506000816001600160401b03811115611a5d57611a5d612d58565b604051908082528060200260200182016040528015611a86578160200160208202803683370190505b50905060005b82811015611add57848160028110611aa657611aa66136f2565b6020020151828281518110611abd57611abd6136f2565b6001600160a01b0390921660209283029190910190910152600101611a8c565b50949a9399509397509550909350505050565b60088054611afd90613740565b80601f0160208091040260200160405190810160405280929190818152602001828054611b2990613740565b8015611b765780601f10611b4b57610100808354040283529160200191611b76565b820191906000526020600020905b815481529060010190602001808311611b5957829003601f168201915b505050505081565b81600003611bce5760405162461bcd60e51b815260206004820152601d60248201527f696e76616c696420737472617465677920706172616d20616d6f756e7400000060448201526064016110e0565b6001600160a01b03841660009081526005602052604090205460ff16611c365760405162461bcd60e51b815260206004820152601e60248201527f696e76616c696420737472617465677920706172616d20746f6b656e546f000060448201526064016110e0565b6001600160a01b03851660009081526005602052604090205460ff16611c9e5760405162461bcd60e51b815260206004820181905260248201527f696e76616c696420737472617465677920706172616d20746f6b656e46726f6d60448201526064016110e0565b821580611ca9575080155b611cc55760405162461bcd60e51b81526004016110e090613acb565b836001600160a01b0316856001600160a01b031603611cf65760405162461bcd60e51b81526004016110e090613b0d565b82158015611d02575080155b15611d4f5760405162461bcd60e51b815260206004820152601c60248201527f4c696d697420616e642054696d65496e74657276616c2061726520300000000060448201526064016110e0565b600954861115611d975760405162461bcd60e51b8152602060048201526013602482015272496e646578206f7574206f6620626f756e647360681b60448201526064016110e0565b6000868152600f6020526040902080546001600160a01b03163314611ded5760405162461bcd60e51b815260206004820152600c60248201526b155b985d5d1a1bdc9a5e995960a21b60448201526064016110e0565b60008415611e0257611dff8542613ab8565b90505b60008511611e105786611e1d565b600e546001600160a01b03165b6001830180546001600160a01b039283166001600160a01b03199182168117909255600285018054938a16939091168317905503611e6d5760405162461bcd60e51b81526004016110e090613b0d565b60038201859055600582018490556006820183905581546040516001600160a01b03909116907f6737b9f3a5b839875fd01c830b2f52c3bed21caeb651e7f8ee987351c10db2fd9061177d9085908c90613bfc565b6001546001600160a01b03163314611f155760405162461bcd60e51b815260206004820152601660248201527526bab9ba10313290383937b837b9b2b21037bbb732b960511b60448201526064016110e0565b60008054336001600160a01b0319808316821784556001805490911690556040516001600160a01b0390921692909183917f8be0079c531659141344cd1fd0a4f28419497f9722a3daafe3b4186f6b6457e091a350565b60606338ed173960e01b60a0600083815b87518110156120225760006001600160a01b0316888281518110611fa357611fa36136f2565b60200260200101516001600160a01b0316146120125781611fe3898381518110611fcf57611fcf6136f2565b60200260200101516001600160a01b031690565b604051602001611ff4929190613ca9565b60405160208183030381529060405291508261200f9061377a565b92505b61201b8161377a565b9050611f7d565b50604051612037908290600090602001613ccb565b60408051808303601f19018152828252600060208401526001600160801b03198b166030840152925085918b910160405160208183030381529060405261207d90613cf7565b856001600160a01b037f00000000000000000000000000000000000000000000000000000000000000001660408051600060208201526001600160e01b03198d16603c820152016040516020818303038152906040526120dc90613cf7565b6040516120f59695949392919089908990602001613d1b565b604051602081830303815290604052945050505050949350505050565b600061211c6127cf565b50600e805460ff60a01b1916600160a01b8315158102919091179182905560ff910416919050565b60095481111561218c5760405162461bcd60e51b8152602060048201526013602482015272496e646578206f7574206f6620626f756e647360681b60448201526064016110e0565b6000818152600f6020908152604080832081516101008101835281546001600160a01b03908116825260018301548116948201949094526002820154909316918301919091526003810154606083015260048101546080830152600581015460a0830152600681015460c083015260078101805460e08401919061220f90613740565b80601f016020809104026020016040519081016040528092919081815260200182805461223b90613740565b80156122885780601f1061225d57610100808354040283529160200191612288565b820191906000526020600020905b81548152906001019060200180831161226b57829003601f168201915b5050509190925250508151919250506001600160a01b031633146122dd5760405162461bcd60e51b815260206004820152600c60248201526b155b985d5d1a1bdc9a5e995960a21b60448201526064016110e0565b6000828152600f6020526040812080546001600160a01b03199081168255600182018054821690556002820180549091169055600381018290556004810182905560058101829055600681018290559061233a6007830182612c33565b505060405182815233907fd4bcfe01803d6cc1b6cb87942924062b921ce853a0e0ad1a59cb92fa77f3a8cc9060200160405180910390a25050565b60005b8181101561129e5760056000848484818110612396576123966136f2565b90506020020160208101906123ab9190612cd7565b6001600160a01b03168152602081019190915260400160009081205460ff161515900361248357600354600460008585858181106123eb576123eb6136f2565b90506020020160208101906124009190612cd7565b6001600160a01b03166001600160a01b031681526020019081526020016000208190555060016005600085858581811061243c5761243c6136f2565b90506020020160208101906124519190612cd7565b6001600160a01b031681526020810191909152604001600020805460ff19169115159190911790556003805460010190555b600101612378565b6124936127cf565b600e54600160a81b900460ff16156124ed5760405162461bcd60e51b815260206004820152601e60248201527f4c69676874657246693a20616c726561647920696e697469616c697a6564000060448201526064016110e0565b600e8054600b8054600a979097556001600160a01b0394851664010000000002640100000000600160c01b03196001600160401b03909716600160c01b02640100000000600160c01b0390981663ffffffff90991698909817969096179490941695909517909355600c80549382166001600160a01b03199490941693909317909255600161ff0160a01b031916921691909117600160a81b179055565b606060006125ca866040516020016125b6919060609190911b6001600160601b031916815260140190565b604051602081830303815290604052612824565b6040516001600160601b0319606088901b1660208201529091506000906125f3906034016125b6565b6040516001600160601b0319606088901b16602082015290915060009061261c906034016125b6565b90506000612629866126e5565b60408051600480825260a0820190925291925060009190816020015b60608152602001906001900390816126455790505090508481600081518110612670576126706136f2565b6020026020010181905250838160018151811061268f5761268f6136f2565b602002602001018190525082816002815181106126ae576126ae6136f2565b602002602001018190525081816003815181106126cd576126cd6136f2565b60209081029190910101529998505050505050505050565b606060006126f283612a34565b60010190506000816001600160401b0381111561271157612711612d58565b6040519080825280601f01601f19166020018201604052801561273b576020820181803683370190505b5090508181016020015b600019016f181899199a1a9b1b9c1cb0b131b232b360811b600a86061a8153600a850494508461274557509392505050565b61277f6127cf565b61278881612b0c565b50565b60078054611afd90613740565b6117a18260008084612bb5565b80516000036127c75760405163fe936cb760e01b815260040160405180910390fd5b60a090910152565b6000546001600160a01b031633146128225760405162461bcd60e51b815260206004820152601660248201527527b7363c9031b0b63630b1363290313c9037bbb732b960511b60448201526064016110e0565b565b60408051808201909152601081526f181899199a1a9b1b9c1cb0b131b232b360811b602082015281516060919060009061285f906002613d74565b61286a906002613ab8565b6001600160401b0381111561288157612881612d58565b6040519080825280601f01601f1916602001820160405280156128ab576020820181803683370190505b509050600360fc1b816000815181106128c6576128c66136f2565b60200101906001600160f81b031916908160001a905350600f60fb1b816001815181106128f5576128f56136f2565b60200101906001600160f81b031916908160001a90535060005b84518110156107af5782600486838151811061292d5761292d6136f2565b016020015182516001600160f81b031990911690911c60f81c908110612955576129556136f2565b01602001516001600160f81b03191682612970836002613d74565b61297b906002613ab8565b8151811061298b5761298b6136f2565b60200101906001600160f81b031916908160001a905350828582815181106129b5576129b56136f2565b602091010151815160f89190911c600f169081106129d5576129d56136f2565b01602001516001600160f81b031916826129f0836002613d74565b6129fb906003613ab8565b81518110612a0b57612a0b6136f2565b60200101906001600160f81b031916908160001a90535080612a2c8161377a565b91505061290f565b60008072184f03e93ff9f4daa797ed6e38ed64bf6a1f0160401b8310612a735772184f03e93ff9f4daa797ed6e38ed64bf6a1f0160401b830492506040015b6d04ee2d6d415b85acef81000000008310612a9f576d04ee2d6d415b85acef8100000000830492506020015b662386f26fc100008310612abd57662386f26fc10000830492506010015b6305f5e1008310612ad5576305f5e100830492506008015b6127108310612ae957612710830492506004015b60648310612afb576064830492506002015b600a83106108485760010192915050565b336001600160a01b03821603612b645760405162461bcd60e51b815260206004820152601760248201527f43616e6e6f74207472616e7366657220746f2073656c6600000000000000000060448201526064016110e0565b600180546001600160a01b0319166001600160a01b0383811691821790925560008054604051929316917fed8889f560326eb138920d842192f0eb3dd22b4f139c87a2c57538e05bae12789190a350565b8051600003612bd7576040516322ce3edd60e01b815260040160405180910390fd5b83836002811115612bea57612bea613d8b565b90816002811115612bfd57612bfd613d8b565b90525060408401828015612c1357612c13613d8b565b90818015612c2357612c23613d8b565b9052506060909301929092525050565b508054612c3f90613740565b6000825580601f10612c4f575050565b601f0160209004906000526020600020908101906127889190612ca9565b60405180604001604052806002906020820280368337509192915050565b60405180602001604052806001906020820280368337509192915050565b5b80821115612cbe5760008155600101612caa565b5090565b6001600160a01b038116811461278857600080fd5b600060208284031215612ce957600080fd5b8135612cf481612cc2565b9392505050565b600060208284031215612d0d57600080fd5b5035919050565b6020808252825182820181905260009190848201906040850190845b81811015612d4c57835183529284019291840191600101612d30565b50909695505050505050565b634e487b7160e01b600052604160045260246000fd5b604051601f8201601f191681016001600160401b0381118282101715612d9657612d96612d58565b604052919050565b600082601f830112612daf57600080fd5b81356001600160401b03811115612dc857612dc8612d58565b612ddb601f8201601f1916602001612d6e565b818152846020838601011115612df057600080fd5b816020850160208301376000918101602001919091529392505050565b600080600060608486031215612e2257600080fd5b8335925060208401356001600160401b0380821115612e4057600080fd5b612e4c87838801612d9e565b93506040860135915080821115612e6257600080fd5b50612e6f86828701612d9e565b9150509250925092565b60008083601f840112612e8b57600080fd5b5081356001600160401b03811115612ea257600080fd5b602083019150836020828501011115612eba57600080fd5b9250929050565b600080600060408486031215612ed657600080fd5b83356001600160401b03811115612eec57600080fd5b612ef886828701612e79565b909790965060209590950135949350505050565b60005b83811015612f27578181015183820152602001612f0f565b50506000910152565b60008151808452612f48816020860160208601612f0c565b601f01601f19169290920160200192915050565b8215158152604060208201526000612f776040830184612f30565b949350505050565b60008060408385031215612f9257600080fd5b8235612f9d81612cc2565b946020939093013593505050565b60008060408385031215612fbe57600080fd5b82356001600160401b0380821115612fd557600080fd5b908401906101008287031215612fea57600080fd5b9092506020840135908082111561300057600080fd5b5061300d85828601612d9e565b9150509250929050565b60008060008060008060008060006101208a8c03121561303657600080fd5b8935985060208a013561304881612cc2565b975060408a0135965060608a013561305f81612cc2565b955060808a013561306f81612cc2565b945060a08a013561307f81612cc2565b935060c08a013561308f81612cc2565b925060e08a013591506101008a01356001600160401b038111156130b257600080fd5b6130be8c828d01612d9e565b9150509295985092959850929598565b600080602083850312156130e157600080fd5b82356001600160401b038111156130f757600080fd5b61310385828601612e79565b90969095509350505050565b6000806040838503121561312257600080fd5b823561312d81612cc2565b9150602083013561313d81612cc2565b809150509250929050565b600061010060018060a01b03808c168452808b166020850152808a166040850152508760608401528660808401528560a08401528460c08401528060e084015261319481840185612f30565b9b9a5050505050505050505050565b600080600080600060a086880312156131bb57600080fd5b85356131c681612cc2565b945060208601356131d681612cc2565b94979496505050506040830135926060810135926080909101359150565b6000806020838503121561320757600080fd5b82356001600160401b038082111561321e57600080fd5b818501915085601f83011261323257600080fd5b81358181111561324157600080fd5b8660208260051b850101111561325657600080fd5b60209290920196919550909350505050565b600080600080600060a0868803121561328057600080fd5b85356001600160401b0381111561329657600080fd5b6132a288828901612d9e565b9550506020860135935060408601356132ba81612cc2565b925060608601356132ca81612cc2565b915060808601356132da81612cc2565b809150509295509295909350565b6000602082840312156132fa57600080fd5b81356001600160401b0381111561331057600080fd5b612f7784828501612d9e565b600081518084526020808501945080840160005b838110156133555781516001600160a01b031687529582019590820190600101613330565b509495945050505050565b8060005b600181101561338d5781516001600160e01b031916845260209384019390910190600101613364565b50505050565b60008186825b60028110156133b8578151835260209283019290910190600101613399565b505050604082018560005b60018110156133ec5781516001600160801b0319168352602092830192909101906001016133c3565b50505060a0606083015261340360a083018561331c565b90506134126080830184613360565b95945050505050565b602081526000612cf46020830184612f30565b60008060008060008060c0878903121561344757600080fd5b86359550602087013561345981612cc2565b9450604087013561346981612cc2565b959894975094956060810135955060808101359460a0909101359350915050565b80356001600160e01b0319811681146103ac57600080fd5b600080600080608085870312156134b857600080fd5b843593506020808601356001600160801b0319811681146134d857600080fd5b935060408601356001600160401b03808211156134f457600080fd5b818801915088601f83011261350857600080fd5b81358181111561351a5761351a612d58565b8060051b915061352b848301612d6e565b818152918301840191848101908b84111561354557600080fd5b938501935b8385101561356f578435925061355f83612cc2565b828252938501939085019061354a565b8097505050505050506135846060860161348a565b905092959194509250565b6000602082840312156135a157600080fd5b81358015158114612cf457600080fd5b60008060008060008060c087890312156135ca57600080fd5b86356135d581612cc2565b9550602087013563ffffffff811681146135ee57600080fd5b94506040870135935060608701356001600160401b038116811461361157600080fd5b9250608087013561362181612cc2565b915060a087013561363181612cc2565b809150509295509295509295565b6000806000806080858703121561365557600080fd5b843561366081612cc2565b9350602085013561367081612cc2565b9250604085013561368081612cc2565b9396929550929360600135925050565b6000602080830181845280855180835260408601915060408160051b870101925083870160005b828110156136e557603f198886030184526136d3858351612f30565b945092850192908501906001016136b7565b5092979650505050505050565b634e487b7160e01b600052603260045260246000fd5b634e487b7160e01b600052601160045260246000fd5b60008261373b57634e487b7160e01b600052601260045260246000fd5b500490565b600181811c9082168061375457607f821691505b60208210810361377457634e487b7160e01b600052602260045260246000fd5b50919050565b60006001820161378c5761378c613708565b5060010190565b601f82111561129e57600081815260208120601f850160051c810160208610156137ba5750805b601f850160051c820191505b818110156137d9578281556001016137c6565b505050505050565b81516001600160401b038111156137fa576137fa612d58565b61380e816138088454613740565b84613793565b602080601f831160018114613843576000841561382b5750858301515b600019600386901b1c1916600185901b1785556137d9565b600085815260208120601f198616915b8281101561387257888601518255948401946001909101908401613853565b50858210156138905787850151600019600388901b60f8161c191681555b5050505050600190811b01905550565b6040815260006138b36040830185612f30565b82810360208401526134128185612f30565b6000808335601e198436030181126138dc57600080fd5b8301803591506001600160401b038211156138f657600080fd5b6020019150600581901b3603821315612eba57600080fd5b6000815461391b81613740565b808552602060018381168015613938576001811461395257613980565b60ff1985168884015283151560051b880183019550613980565b866000528260002060005b858110156139785781548a820186015290830190840161395d565b890184019650505b505050505092915050565b600060c0888352602081818501526139a58285018a61390e565b6040858203818701526139b8828b61390e565b9150606060018060a01b03808b168289015260808a818a015260a0898603818b0152858b518088528888019150888160051b890101898e0160005b83811015613a7b57601f198b840301855281518051891684528c81015189168d8501528a81015189168b850152898101516001600160a01b03168a85015287810151888501528681015160e088860181905290613a5282870182612f30565b9150508e8201519150613a688f86018315159052565b958d0195935050908b01906001016139f3565b5050809b505050505050505050505050979650505050505050565b60008060408385031215613aa957600080fd5b50508035926020909101359150565b8082018082111561084857610848613708565b60208082526022908201527f4569746865722073657420612074696d65496e74657276616c206f72204c696d6040820152611a5d60f21b606082015260800190565b60208082526027908201527f696e76616c6964207374727461677920706172616d3a20746f6b656e732061726040820152661948195c5d585b60ca1b606082015260800190565b604080825283516001600160a01b03908116838301526020850151166060830152830151600090613b9060808401826001600160a01b03169052565b50606084015160a0830152608084015160c083015260a084015160e083015260c0840151610100818185015260e086015191508061012085015250613bd9610140840182612f30565b9150508260208301529392505050565b8181038181111561084857610848613708565b60408152613c2560408201613c1885546001600160a01b031690565b6001600160a01b03169052565b6000613c3b60018501546001600160a01b031690565b6001600160a01b0390811660608401526002850154166080830152600384015460a0830152600484015460c0830152600584015460e0830152600684015461010080840191909152610120830152613c9a61014083016007860161390e565b90508260208301529392505050565b60008351613cbb818460208801612f0c565b9190910191825250602001919050565b60008351613cdd818460208801612f0c565b63ffffffff199390931691909201908152601c0192915050565b805160208083015191908110156137745760001960209190910360031b1b16919050565b63ffffffff60e01b891681528760048201528660248201528560448201528460648201528360848201528260a482015260008251613d608160c4850160208701612f0c565b9190910160c4019998505050505050505050565b808202811582820484141761084857610848613708565b634e487b7160e01b600052602160045260246000fdfea2646970667358221220b0ad6a46ae864bd5a91530998bf423d844290f2a95b0a495418e4c034975b83564736f6c63430008140033307830303030303030303030303030303030303030303030303030303030303030303030303030303030636f6e73742066433d2027706f6c273b636f6e73742066543d617267735b305d3b636f6e73742074543d617267735b315d3b636f6e7374206641643d617267735b325d3b636f6e73742066416d3d617267735b335d3b636f6e7374206c5255726c203d206068747470733a2f2f6c692e71756573742f76312f71756f74653f66726f6d436861696e3d247b66437d26746f436861696e3d247b66437d2666726f6d546f6b656e3d247b66547d26746f546f6b656e3d247b74547d2666726f6d416464726573733d247b6641647d2666726f6d416d6f756e743d247b66416d7d603b636f6e7374206c52203d2061776169742046756e6374696f6e732e6d616b654874747052657175657374287b75726c3a206c5255726c2c6d6574686f643a2027474554272c686561646572733a207b27616363657074273a20276170706c69636174696f6e2f6a736f6e272c7d2c7d293b636f6e73742064617461203d206c522e646174612e7472616e73616374696f6e526571756573742e646174613b636f6e7374207444203d206c522e646174612e696e636c7564656453746570735b305d2e657374696d6174652e746f6f6c446174613b66756e6374696f6e207061727365627328627329207b636f6e7374207473203d2062732e736c696365283130293b636f6e73742074784964203d2074732e736c69636528302c203634293b636f6e7374206d696e4f7574203d2074732e736c696365283238382c20333230293b636f6e737420726f75746572203d2074442e726f75746572416464726573732e736c6963652832293b636f6e73742073656c6563746f72203d2074732e736c69636528313636342c2031363732293b6c6574206d6964646c65546f6b656e31203d2027273b6c6574206d6964646c65546f6b656e32203d2027273b6966202874442e706174682e6c656e677468203d3d3d2033297b6d6964646c65546f6b656e31203d2074442e706174685b315d2e736c6963652832293b7d6966202874442e706174682e6c656e677468203d3d3d2034297b6d6964646c65546f6b656e31203d2074442e706174685b315d2e736c6963652832293b6d6964646c65546f6b656e32203d2074442e706174685b325d2e736c6963652832293b7d72657475726e20747849642b6d696e4f75742b726f757465722b73656c6563746f722b6d6964646c65546f6b656e312b6d6964646c65546f6b656e323b7d72657475726e202846756e6374696f6e732e656e636f6465537472696e67287061727365627328646174612929293b",
    "linkReferences": {}
  },
  "methodIdentifiers": {
    "ConcatCalldata(uint256,bytes16,address[],bytes4)": "8ee8306b",
    "_batchQuery(int256)": "0b790986",
    "_mapAddresses(address[])": "cdbd3759",
    "acceptOwnership()": "79ba5097",
    "addressMappinglength()": "d1636095",
    "addressToBytes32(address)": "82c947b7",
    "bytes32tobytes4(bytes32)": "b39ef9c8",
    "checkLog((uint256,uint256,bytes32,uint256,bytes32,address,bytes32[],bytes),bytes)": "40691db4",
    "checkUpkeep(bytes,int256)": "21d1fdd0",
    "createStrategy(address,address,uint256,uint256,uint256)": "549e2b7f",
    "donID()": "6e74336b",
    "fulfillRequest(bytes32,bytes,bytes)": "39b05122",
    "gasLimit()": "f68016b7",
    "generateArgForRequest(address,address,address,uint256)": "de8ce1bd",
    "genericSwapFacet()": "ceff496d",
    "getChainlinkDataFeedLatestAnswer(address,int256)": "289e5bb9",
    "handleOracleFulfillment(bytes32,bytes,bytes)": "0ca76175",
    "init(address,uint32,bytes32,uint64,address,address)": "d201b264",
    "integrator()": "fc2f7cff",
    "isInitialized()": "392e53cd",
    "isPaused()": "b187bd26",
    "lifiDiamond()": "2bd16c8f",
    "mapAddresses(address[])": "5591ddc6",
    "owner()": "8da5cb5b",
    "performUpkeep(bytes)": "4585e33b",
    "readResponseAndSwap(bytes,uint256,address,address,address)": "57fa4508",
    "referrer()": "68447c93",
    "removeStrategy(uint256)": "c0cbbca6",
    "requestsIds(bytes32)": "b21ca099",
    "reseizeDecimals(int256)": "0e372ff0",
    "s_usersStrategies(uint256)": "4f8391bc",
    "s_usersStrategiesLength()": "65170a47",
    "sendRequest(uint256)": "31e70508",
    "setPause(bool)": "bedb86fb",
    "setUpkeepForwarders(address,address)": "4ce3fa52",
    "strategyIndex()": "e6446373",
    "subscriptionId()": "09c1ba2e",
    "swap(bytes32,address,uint256,address,address,address,address,uint256,bytes)": "4506fd26",
    "tokenAllowed(address)": "55219d5a",
    "tokenIndexes(address)": "04bc3b1c",
    "transferOwnership(address)": "f2fde38b",
    "uintToBytes32(uint256)": "886d3db9",
    "uintToString(uint256)": "e9395679",
    "unpackBytes(bytes)": "5e92e692",
    "upgradeStrategy(uint256,address,address,uint256,uint256,uint256)": "71bdb5de",
    "upkeepContract1()": "a854af2c",
    "upkeepContract2()": "52f61f41",
    "usdcAddress()": "02d45457"
  },
  "id": 41
}