{
  "abi": [
    {
      "inputs": [
        {
          "internalType": "address",
          "name": "_tokenFrom",
          "type": "address"
        },
        {
          "internalType": "address",
          "name": "_tokenTo",
          "type": "address"
        },
        {
          "internalType": "address",
          "name": "user",
          "type": "address"
        },
        {
          "internalType": "uint256",
          "name": "amount",
          "type": "uint256"
        }
      ],
      "name": "generateArgForRequest",
      "outputs": [
        {
          "internalType": "string[]",
          "name": "",
          "type": "string[]"
        }
      ],
      "stateMutability": "pure",
      "type": "function"
    },
    {
      "inputs": [
        {
          "internalType": "uint256",
          "name": "value",
          "type": "uint256"
        }
      ],
      "name": "uintToString",
      "outputs": [
        {
          "internalType": "string",
          "name": "",
          "type": "string"
        }
      ],
      "stateMutability": "pure",
      "type": "function"
    }
  ],
  "bytecode": {
    "object": "0x608080604052346100165761064a908161001c8239f35b600080fdfe60806040818152600436101561001457600080fd5b600091823560e01c908163de8ce1bd14610073575063e93956791461003857600080fd5b3461006f57602036600319011261006f5761006b906100586004356104ac565b9051918291602083526020830190610232565b0390f35b5080fd5b8391503461006f576080918260031936011261022f57600435926001600160a01b03808516850361022b57602435908082168203610227576044359081168103610227576101206bffffffffffffffffffffffff19916101086100ef6060988560209b8b1b168b820152601481526100ea81610272565b610346565b94848b51918a1b168a820152601481526100ea81610272565b92895191881b1688820152601481526100ea81610272565b9161012c6064356104ac565b9388519660a0880188811067ffffffffffffffff821117610213578a526004885288875b8381106102045750505050610164866102c6565b5261016e856102c6565b50610178856102e9565b52610182846102e9565b5061018c846102f9565b52610196836102f9565b506101a083610309565b526101aa82610309565b5083519280840190808552835180925280868601968360051b870101940192955b8287106101d85785850386f35b9091929382806101f4600193603f198a82030186528851610232565b96019201960195929190926101cb565b8282828c010152018990610150565b634e487b7160e01b88526041600452602488fd5b8380fd5b8280fd5b80fd5b919082519283825260005b84811061025e575050826000602080949584010152601f8019910116010190565b60208183018101518483018201520161023d565b6040810190811067ffffffffffffffff82111761028e57604052565b634e487b7160e01b600052604160045260246000fd5b90601f8019910116810190811067ffffffffffffffff82111761028e57604052565b8051156102d35760200190565b634e487b7160e01b600052603260045260246000fd5b8051600110156102d35760400190565b8051600210156102d35760600190565b8051600310156102d35760800190565b67ffffffffffffffff811161028e57601f01601f191660200190565b9081518110156102d3570160200190565b6040519061035382610272565b601082526f181899199a1a9b1b9c1cb0b131b232b360811b602083015280519060019180831b60029180820483149015171561049157810193848211610491576103b561039f86610319565b956103ad60405197886102a4565b808752610319565b6020860190601f19013682378551156102d3576030905384518410156102d3578392607860218701536000935b6103ef575b505050505090565b80518410156104a7576001600160f81b03198061041961040f8785610335565b5160fc1c85610335565b51169085871b918683048614871517156104915782860190818711610491576104469060001a918a610335565b53610461600f6104568886610335565b5160f81c1685610335565b511660039182018092116104915761047d9060001a9188610335565b5360001984146104915784809401936103e2565b634e487b7160e01b600052601160045260246000fd5b6103e7565b806000917a184f03e93ff9f4daa797ed6e38ed64bf6a1f01000000000000000080821015610606575b506d04ee2d6d415b85acef8100000000808310156105f7575b50662386f26fc10000808310156105e8575b506305f5e100808310156105d9575b50612710808310156105ca575b5060648210156105ba575b600a809210156105b0575b6001908160218186019561054587610319565b9661055360405198896102a4565b808852610562601f1991610319565b01366020890137860101905b61057a575b5050505090565b600019019083906f181899199a1a9b1b9c1cb0b131b232b360811b8282061a8353049182156105ab5791908261056e565b610573565b9160010191610532565b9190606460029104910191610527565b6004919392049101913861051c565b6008919392049101913861050f565b60109193920491019138610500565b602091939204910191386104ee565b6040935081049150386104d556fea264697066735822122010afb6c695b3d700f5fbf0b9503c1383881504ffe9ba483ddcf6c0ada9330a9d64736f6c63430008140033",
    "linkReferences": {}
  },
  "methodIdentifiers": {
    "generateArgForRequest(address,address,address,uint256)": "de8ce1bd",
    "uintToString(uint256)": "e9395679"
  },
  "id": 52
}