{
  "abi": [
    {
      "inputs": [
        {
          "internalType": "address",
          "name": "_router",
          "type": "address"
        }
      ],
      "stateMutability": "nonpayable",
      "type": "constructor"
    },
    {
      "inputs": [],
      "name": "EmptyArgs",
      "type": "error"
    },
    {
      "inputs": [],
      "name": "EmptySource",
      "type": "error"
    },
    {
      "inputs": [
        {
          "internalType": "address",
          "name": "caller",
          "type": "address"
        },
        {
          "internalType": "address",
          "name": "owner",
          "type": "address"
        },
        {
          "internalType": "address",
          "name": "automationRegistry",
          "type": "address"
        }
      ],
      "name": "NotAllowedCaller",
      "type": "error"
    },
    {
      "inputs": [],
      "name": "OnlyRouterCanFulfill",
      "type": "error"
    },
    {
      "anonymous": false,
      "inputs": [
        {
          "indexed": true,
          "internalType": "address",
          "name": "user",
          "type": "address"
        },
        {
          "components": [
            {
              "internalType": "address",
              "name": "user",
              "type": "address"
            },
            {
              "internalType": "address",
              "name": "tokenIn",
              "type": "address"
            },
            {
              "internalType": "address",
              "name": "tokenOut",
              "type": "address"
            },
            {
              "internalType": "uint256",
              "name": "timeInterval",
              "type": "uint256"
            },
            {
              "internalType": "uint256",
              "name": "nextExecution",
              "type": "uint256"
            },
            {
              "internalType": "uint256",
              "name": "amount",
              "type": "uint256"
            },
            {
              "internalType": "uint256",
              "name": "limit",
              "type": "uint256"
            },
            {
              "internalType": "bytes",
              "name": "lastResponse",
              "type": "bytes"
            }
          ],
          "indexed": false,
          "internalType": "struct ILighterFi.UserStrategy",
          "name": "userStrategy",
          "type": "tuple"
        },
        {
          "indexed": false,
          "internalType": "uint256",
          "name": "strategyIndex",
          "type": "uint256"
        }
      ],
      "name": "NewUserStrategy",
      "type": "event"
    },
    {
      "anonymous": false,
      "inputs": [
        {
          "indexed": true,
          "internalType": "address",
          "name": "from",
          "type": "address"
        },
        {
          "indexed": true,
          "internalType": "address",
          "name": "to",
          "type": "address"
        }
      ],
      "name": "OwnershipTransferRequested",
      "type": "event"
    },
    {
      "anonymous": false,
      "inputs": [
        {
          "indexed": true,
          "internalType": "address",
          "name": "from",
          "type": "address"
        },
        {
          "indexed": true,
          "internalType": "address",
          "name": "to",
          "type": "address"
        }
      ],
      "name": "OwnershipTransferred",
      "type": "event"
    },
    {
      "anonymous": false,
      "inputs": [
        {
          "indexed": true,
          "internalType": "address",
          "name": "user",
          "type": "address"
        },
        {
          "indexed": false,
          "internalType": "uint256",
          "name": "strategyIndex",
          "type": "uint256"
        }
      ],
      "name": "RemovedUserStrategy",
      "type": "event"
    },
    {
      "anonymous": false,
      "inputs": [
        {
          "indexed": true,
          "internalType": "bytes32",
          "name": "id",
          "type": "bytes32"
        }
      ],
      "name": "RequestFulfilled",
      "type": "event"
    },
    {
      "anonymous": false,
      "inputs": [
        {
          "indexed": true,
          "internalType": "bytes32",
          "name": "requestId",
          "type": "bytes32"
        },
        {
          "indexed": false,
          "internalType": "uint256",
          "name": "strategyIndex",
          "type": "uint256"
        }
      ],
      "name": "RequestReceived",
      "type": "event"
    },
    {
      "anonymous": false,
      "inputs": [
        {
          "indexed": true,
          "internalType": "bytes32",
          "name": "id",
          "type": "bytes32"
        }
      ],
      "name": "RequestSent",
      "type": "event"
    },
    {
      "anonymous": false,
      "inputs": [
        {
          "indexed": true,
          "internalType": "bytes32",
          "name": "requestId",
          "type": "bytes32"
        },
        {
          "indexed": false,
          "internalType": "bytes",
          "name": "response",
          "type": "bytes"
        },
        {
          "indexed": false,
          "internalType": "bytes",
          "name": "err",
          "type": "bytes"
        }
      ],
      "name": "Response",
      "type": "event"
    },
    {
      "anonymous": false,
      "inputs": [
        {
          "indexed": true,
          "internalType": "bytes32",
          "name": "requestId",
          "type": "bytes32"
        },
        {
          "indexed": false,
          "internalType": "uint256",
          "name": "strategyIndex",
          "type": "uint256"
        },
        {
          "indexed": false,
          "internalType": "uint256",
          "name": "amountIn",
          "type": "uint256"
        },
        {
          "indexed": false,
          "internalType": "address",
          "name": "user",
          "type": "address"
        },
        {
          "indexed": false,
          "internalType": "address",
          "name": "tokenIn",
          "type": "address"
        },
        {
          "indexed": false,
          "internalType": "address",
          "name": "tokenOut",
          "type": "address"
        }
      ],
      "name": "SwapExecuted",
      "type": "event"
    },
    {
      "anonymous": false,
      "inputs": [
        {
          "indexed": true,
          "internalType": "address",
          "name": "user",
          "type": "address"
        },
        {
          "components": [
            {
              "internalType": "address",
              "name": "user",
              "type": "address"
            },
            {
              "internalType": "address",
              "name": "tokenIn",
              "type": "address"
            },
            {
              "internalType": "address",
              "name": "tokenOut",
              "type": "address"
            },
            {
              "internalType": "uint256",
              "name": "timeInterval",
              "type": "uint256"
            },
            {
              "internalType": "uint256",
              "name": "nextExecution",
              "type": "uint256"
            },
            {
              "internalType": "uint256",
              "name": "amount",
              "type": "uint256"
            },
            {
              "internalType": "uint256",
              "name": "limit",
              "type": "uint256"
            },
            {
              "internalType": "bytes",
              "name": "lastResponse",
              "type": "bytes"
            }
          ],
          "indexed": false,
          "internalType": "struct ILighterFi.UserStrategy",
          "name": "userStrategy",
          "type": "tuple"
        },
        {
          "indexed": false,
          "internalType": "uint256",
          "name": "strategyIndex",
          "type": "uint256"
        }
      ],
      "name": "UpdatedUserStrategy",
      "type": "event"
    },
    {
      "inputs": [
        {
          "internalType": "uint256",
          "name": "amountIn",
          "type": "uint256"
        },
        {
          "internalType": "bytes16",
          "name": "minAmount",
          "type": "bytes16"
        },
        {
          "internalType": "address[]",
          "name": "path",
          "type": "address[]"
        },
        {
          "internalType": "bytes4",
          "name": "routerSelector",
          "type": "bytes4"
        }
      ],
      "name": "ConcatCalldata",
      "outputs": [
        {
          "internalType": "bytes",
          "name": "",
          "type": "bytes"
        }
      ],
      "stateMutability": "view",
      "type": "function"
    },
    {
      "inputs": [
        {
          "internalType": "int256",
          "name": "fuzz",
          "type": "int256"
        }
      ],
      "name": "_batchQuery",
      "outputs": [
        {
          "internalType": "uint256[]",
          "name": "",
          "type": "uint256[]"
        }
      ],
      "stateMutability": "view",
      "type": "function"
    },
    {
      "inputs": [
        {
          "internalType": "address[]",
          "name": "tokenAddresses",
          "type": "address[]"
        }
      ],
      "name": "_mapAddresses",
      "outputs": [],
      "stateMutability": "nonpayable",
      "type": "function"
    },
    {
      "inputs": [],
      "name": "acceptOwnership",
      "outputs": [],
      "stateMutability": "nonpayable",
      "type": "function"
    },
    {
      "inputs": [],
      "name": "addressMappinglength",
      "outputs": [
        {
          "internalType": "uint256",
          "name": "",
          "type": "uint256"
        }
      ],
      "stateMutability": "view",
      "type": "function"
    },
    {
      "inputs": [
        {
          "internalType": "address",
          "name": "addr",
          "type": "address"
        }
      ],
      "name": "addressToBytes32",
      "outputs": [
        {
          "internalType": "bytes32",
          "name": "",
          "type": "bytes32"
        }
      ],
      "stateMutability": "pure",
      "type": "function"
    },
    {
      "inputs": [
        {
          "internalType": "bytes32",
          "name": "b32",
          "type": "bytes32"
        }
      ],
      "name": "bytes32tobytes4",
      "outputs": [
        {
          "internalType": "bytes4",
          "name": "",
          "type": "bytes4"
        }
      ],
      "stateMutability": "pure",
      "type": "function"
    },
    {
      "inputs": [
        {
          "components": [
            {
              "internalType": "uint256",
              "name": "index",
              "type": "uint256"
            },
            {
              "internalType": "uint256",
              "name": "timestamp",
              "type": "uint256"
            },
            {
              "internalType": "bytes32",
              "name": "txHash",
              "type": "bytes32"
            },
            {
              "internalType": "uint256",
              "name": "blockNumber",
              "type": "uint256"
            },
            {
              "internalType": "bytes32",
              "name": "blockHash",
              "type": "bytes32"
            },
            {
              "internalType": "address",
              "name": "source",
              "type": "address"
            },
            {
              "internalType": "bytes32[]",
              "name": "topics",
              "type": "bytes32[]"
            },
            {
              "internalType": "bytes",
              "name": "data",
              "type": "bytes"
            }
          ],
          "internalType": "struct Log",
          "name": "log",
          "type": "tuple"
        },
        {
          "internalType": "bytes",
          "name": "",
          "type": "bytes"
        }
      ],
      "name": "checkLog",
      "outputs": [
        {
          "internalType": "bool",
          "name": "upkeepNeeded",
          "type": "bool"
        },
        {
          "internalType": "bytes",
          "name": "performData",
          "type": "bytes"
        }
      ],
      "stateMutability": "pure",
      "type": "function"
    },
    {
      "inputs": [
        {
          "internalType": "bytes",
          "name": "",
          "type": "bytes"
        },
        {
          "internalType": "int256",
          "name": "fuzz",
          "type": "int256"
        }
      ],
      "name": "checkUpkeep",
      "outputs": [
        {
          "internalType": "bool",
          "name": "upkeepNeeded",
          "type": "bool"
        },
        {
          "internalType": "bytes",
          "name": "performData",
          "type": "bytes"
        }
      ],
      "stateMutability": "view",
      "type": "function"
    },
    {
      "inputs": [
        {
          "internalType": "address",
          "name": "tokenFrom",
          "type": "address"
        },
        {
          "internalType": "address",
          "name": "tokenTo",
          "type": "address"
        },
        {
          "internalType": "uint256",
          "name": "timeInterval",
          "type": "uint256"
        },
        {
          "internalType": "uint256",
          "name": "tokenInAmount",
          "type": "uint256"
        },
        {
          "internalType": "uint256",
          "name": "limit",
          "type": "uint256"
        }
      ],
      "name": "createStrategy",
      "outputs": [],
      "stateMutability": "nonpayable",
      "type": "function"
    },
    {
      "inputs": [],
      "name": "donID",
      "outputs": [
        {
          "internalType": "bytes32",
          "name": "",
          "type": "bytes32"
        }
      ],
      "stateMutability": "view",
      "type": "function"
    },
    {
      "inputs": [
        {
          "internalType": "bytes32",
          "name": "requestId",
          "type": "bytes32"
        },
        {
          "internalType": "bytes",
          "name": "response",
          "type": "bytes"
        },
        {
          "internalType": "bytes",
          "name": "err",
          "type": "bytes"
        }
      ],
      "name": "fulfillRequest",
      "outputs": [],
      "stateMutability": "nonpayable",
      "type": "function"
    },
    {
      "inputs": [],
      "name": "gasLimit",
      "outputs": [
        {
          "internalType": "uint32",
          "name": "",
          "type": "uint32"
        }
      ],
      "stateMutability": "view",
      "type": "function"
    },
    {
      "inputs": [
        {
          "internalType": "address",
          "name": "_tokenFrom",
          "type": "address"
        },
        {
          "internalType": "address",
          "name": "_tokenTo",
          "type": "address"
        },
        {
          "internalType": "address",
          "name": "user",
          "type": "address"
        },
        {
          "internalType": "uint256",
          "name": "amount",
          "type": "uint256"
        }
      ],
      "name": "generateArgForRequest",
      "outputs": [
        {
          "internalType": "string[]",
          "name": "",
          "type": "string[]"
        }
      ],
      "stateMutability": "pure",
      "type": "function"
    },
    {
      "inputs": [],
      "name": "genericSwapFacet",
      "outputs": [
        {
          "internalType": "contract IGenericSwapFacet",
          "name": "",
          "type": "address"
        }
      ],
      "stateMutability": "view",
      "type": "function"
    },
    {
      "inputs": [
        {
          "internalType": "address",
          "name": "feedAddress",
          "type": "address"
        },
        {
          "internalType": "int256",
          "name": "answer",
          "type": "int256"
        }
      ],
      "name": "getChainlinkDataFeedLatestAnswer",
      "outputs": [
        {
          "internalType": "int256",
          "name": "",
          "type": "int256"
        }
      ],
      "stateMutability": "view",
      "type": "function"
    },
    {
      "inputs": [
        {
          "internalType": "bytes32",
          "name": "requestId",
          "type": "bytes32"
        },
        {
          "internalType": "bytes",
          "name": "response",
          "type": "bytes"
        },
        {
          "internalType": "bytes",
          "name": "err",
          "type": "bytes"
        }
      ],
      "name": "handleOracleFulfillment",
      "outputs": [],
      "stateMutability": "nonpayable",
      "type": "function"
    },
    {
      "inputs": [
        {
          "internalType": "address",
          "name": "_usdcAddress",
          "type": "address"
        },
        {
          "internalType": "uint32",
          "name": "_gasLimit",
          "type": "uint32"
        },
        {
          "internalType": "bytes32",
          "name": "_donID",
          "type": "bytes32"
        },
        {
          "internalType": "uint64",
          "name": "_subscriptionId",
          "type": "uint64"
        },
        {
          "internalType": "address",
          "name": "_upkeepContract1",
          "type": "address"
        },
        {
          "internalType": "address",
          "name": "_upkeepContract2",
          "type": "address"
        }
      ],
      "name": "init",
      "outputs": [],
      "stateMutability": "nonpayable",
      "type": "function"
    },
    {
      "inputs": [],
      "name": "integrator",
      "outputs": [
        {
          "internalType": "string",
          "name": "",
          "type": "string"
        }
      ],
      "stateMutability": "view",
      "type": "function"
    },
    {
      "inputs": [],
      "name": "isInitialized",
      "outputs": [
        {
          "internalType": "bool",
          "name": "",
          "type": "bool"
        }
      ],
      "stateMutability": "view",
      "type": "function"
    },
    {
      "inputs": [],
      "name": "isPaused",
      "outputs": [
        {
          "internalType": "bool",
          "name": "",
          "type": "bool"
        }
      ],
      "stateMutability": "view",
      "type": "function"
    },
    {
      "inputs": [],
      "name": "lifiDiamond",
      "outputs": [
        {
          "internalType": "address",
          "name": "",
          "type": "address"
        }
      ],
      "stateMutability": "view",
      "type": "function"
    },
    {
      "inputs": [
        {
          "internalType": "address[]",
          "name": "tokenAddresses",
          "type": "address[]"
        }
      ],
      "name": "mapAddresses",
      "outputs": [],
      "stateMutability": "nonpayable",
      "type": "function"
    },
    {
      "inputs": [],
      "name": "owner",
      "outputs": [
        {
          "internalType": "address",
          "name": "",
          "type": "address"
        }
      ],
      "stateMutability": "view",
      "type": "function"
    },
    {
      "inputs": [
        {
          "internalType": "bytes",
          "name": "performData",
          "type": "bytes"
        }
      ],
      "name": "performUpkeep",
      "outputs": [],
      "stateMutability": "nonpayable",
      "type": "function"
    },
    {
      "inputs": [
        {
          "internalType": "bytes",
          "name": "data",
          "type": "bytes"
        },
        {
          "internalType": "uint256",
          "name": "amountIn",
          "type": "uint256"
        },
        {
          "internalType": "address",
          "name": "receiver",
          "type": "address"
        },
        {
          "internalType": "address",
          "name": "tokenFrom",
          "type": "address"
        },
        {
          "internalType": "address",
          "name": "tokenTo",
          "type": "address"
        }
      ],
      "name": "readResponseAndSwap",
      "outputs": [],
      "stateMutability": "nonpayable",
      "type": "function"
    },
    {
      "inputs": [],
      "name": "referrer",
      "outputs": [
        {
          "internalType": "string",
          "name": "",
          "type": "string"
        }
      ],
      "stateMutability": "view",
      "type": "function"
    },
    {
      "inputs": [
        {
          "internalType": "uint256",
          "name": "index",
          "type": "uint256"
        }
      ],
      "name": "removeStrategy",
      "outputs": [],
      "stateMutability": "nonpayable",
      "type": "function"
    },
    {
      "inputs": [
        {
          "internalType": "bytes32",
          "name": "",
          "type": "bytes32"
        }
      ],
      "name": "requestsIds",
      "outputs": [
        {
          "internalType": "uint256",
          "name": "",
          "type": "uint256"
        }
      ],
      "stateMutability": "view",
      "type": "function"
    },
    {
      "inputs": [
        {
          "internalType": "int256",
          "name": "price",
          "type": "int256"
        }
      ],
      "name": "reseizeDecimals",
      "outputs": [
        {
          "internalType": "uint256",
          "name": "",
          "type": "uint256"
        }
      ],
      "stateMutability": "pure",
      "type": "function"
    },
    {
      "inputs": [
        {
          "internalType": "uint256",
          "name": "",
          "type": "uint256"
        }
      ],
      "name": "s_usersStrategies",
      "outputs": [
        {
          "internalType": "address",
          "name": "user",
          "type": "address"
        },
        {
          "internalType": "address",
          "name": "tokenIn",
          "type": "address"
        },
        {
          "internalType": "address",
          "name": "tokenOut",
          "type": "address"
        },
        {
          "internalType": "uint256",
          "name": "timeInterval",
          "type": "uint256"
        },
        {
          "internalType": "uint256",
          "name": "nextExecution",
          "type": "uint256"
        },
        {
          "internalType": "uint256",
          "name": "amount",
          "type": "uint256"
        },
        {
          "internalType": "uint256",
          "name": "limit",
          "type": "uint256"
        },
        {
          "internalType": "bytes",
          "name": "lastResponse",
          "type": "bytes"
        }
      ],
      "stateMutability": "view",
      "type": "function"
    },
    {
      "inputs": [],
      "name": "s_usersStrategiesLength",
      "outputs": [
        {
          "internalType": "uint256",
          "name": "",
          "type": "uint256"
        }
      ],
      "stateMutability": "view",
      "type": "function"
    },
    {
      "inputs": [
        {
          "internalType": "uint256",
          "name": "index",
          "type": "uint256"
        }
      ],
      "name": "sendRequest",
      "outputs": [],
      "stateMutability": "nonpayable",
      "type": "function"
    },
    {
      "inputs": [
        {
          "internalType": "bool",
          "name": "pause",
          "type": "bool"
        }
      ],
      "name": "setPause",
      "outputs": [
        {
          "internalType": "bool",
          "name": "",
          "type": "bool"
        }
      ],
      "stateMutability": "nonpayable",
      "type": "function"
    },
    {
      "inputs": [
        {
          "internalType": "address",
          "name": "_upkeepContract1",
          "type": "address"
        },
        {
          "internalType": "address",
          "name": "_upkeepContract2",
          "type": "address"
        }
      ],
      "name": "setUpkeepForwarders",
      "outputs": [],
      "stateMutability": "nonpayable",
      "type": "function"
    },
    {
      "inputs": [],
      "name": "strategyIndex",
      "outputs": [
        {
          "internalType": "uint256",
          "name": "",
          "type": "uint256"
        }
      ],
      "stateMutability": "view",
      "type": "function"
    },
    {
      "inputs": [],
      "name": "subscriptionId",
      "outputs": [
        {
          "internalType": "uint64",
          "name": "",
          "type": "uint64"
        }
      ],
      "stateMutability": "view",
      "type": "function"
    },
    {
      "inputs": [
        {
          "internalType": "bytes32",
          "name": "_transactionId",
          "type": "bytes32"
        },
        {
          "internalType": "address payable",
          "name": "_receiver",
          "type": "address"
        },
        {
          "internalType": "uint256",
          "name": "_minAmount",
          "type": "uint256"
        },
        {
          "internalType": "address",
          "name": "_callTo",
          "type": "address"
        },
        {
          "internalType": "address",
          "name": "_approveTo",
          "type": "address"
        },
        {
          "internalType": "address",
          "name": "_sendingAssetId",
          "type": "address"
        },
        {
          "internalType": "address",
          "name": "_receivingAssetId",
          "type": "address"
        },
        {
          "internalType": "uint256",
          "name": "_fromAmount",
          "type": "uint256"
        },
        {
          "internalType": "bytes",
          "name": "_calldata",
          "type": "bytes"
        }
      ],
      "name": "swap",
      "outputs": [],
      "stateMutability": "nonpayable",
      "type": "function"
    },
    {
      "inputs": [
        {
          "internalType": "address",
          "name": "",
          "type": "address"
        }
      ],
      "name": "tokenAllowed",
      "outputs": [
        {
          "internalType": "bool",
          "name": "",
          "type": "bool"
        }
      ],
      "stateMutability": "view",
      "type": "function"
    },
    {
      "inputs": [
        {
          "internalType": "address",
          "name": "",
          "type": "address"
        }
      ],
      "name": "tokenIndexes",
      "outputs": [
        {
          "internalType": "uint256",
          "name": "",
          "type": "uint256"
        }
      ],
      "stateMutability": "view",
      "type": "function"
    },
    {
      "inputs": [
        {
          "internalType": "address",
          "name": "to",
          "type": "address"
        }
      ],
      "name": "transferOwnership",
      "outputs": [],
      "stateMutability": "nonpayable",
      "type": "function"
    },
    {
      "inputs": [
        {
          "internalType": "uint256",
          "name": "u256",
          "type": "uint256"
        }
      ],
      "name": "uintToBytes32",
      "outputs": [
        {
          "internalType": "bytes32",
          "name": "",
          "type": "bytes32"
        }
      ],
      "stateMutability": "pure",
      "type": "function"
    },
    {
      "inputs": [
        {
          "internalType": "uint256",
          "name": "value",
          "type": "uint256"
        }
      ],
      "name": "uintToString",
      "outputs": [
        {
          "internalType": "string",
          "name": "",
          "type": "string"
        }
      ],
      "stateMutability": "pure",
      "type": "function"
    },
    {
      "inputs": [
        {
          "internalType": "bytes",
          "name": "data",
          "type": "bytes"
        }
      ],
      "name": "unpackBytes",
      "outputs": [
        {
          "internalType": "bytes32[2]",
          "name": "",
          "type": "bytes32[2]"
        },
        {
          "internalType": "bytes16[1]",
          "name": "",
          "type": "bytes16[1]"
        },
        {
          "internalType": "address[]",
          "name": "",
          "type": "address[]"
        },
        {
          "internalType": "bytes4[1]",
          "name": "",
          "type": "bytes4[1]"
        }
      ],
      "stateMutability": "pure",
      "type": "function"
    },
    {
      "inputs": [
        {
          "internalType": "uint256",
          "name": "index",
          "type": "uint256"
        },
        {
          "internalType": "address",
          "name": "tokenFrom",
          "type": "address"
        },
        {
          "internalType": "address",
          "name": "tokenTo",
          "type": "address"
        },
        {
          "internalType": "uint256",
          "name": "timeInterval",
          "type": "uint256"
        },
        {
          "internalType": "uint256",
          "name": "amountTokenIn",
          "type": "uint256"
        },
        {
          "internalType": "uint256",
          "name": "limit",
          "type": "uint256"
        }
      ],
      "name": "upgradeStrategy",
      "outputs": [],
      "stateMutability": "nonpayable",
      "type": "function"
    },
    {
      "inputs": [],
      "name": "upkeepContract1",
      "outputs": [
        {
          "internalType": "address",
          "name": "",
          "type": "address"
        }
      ],
      "stateMutability": "view",
      "type": "function"
    },
    {
      "inputs": [],
      "name": "upkeepContract2",
      "outputs": [
        {
          "internalType": "address",
          "name": "",
          "type": "address"
        }
      ],
      "stateMutability": "view",
      "type": "function"
    },
    {
      "inputs": [],
      "name": "usdcAddress",
      "outputs": [
        {
          "internalType": "address",
          "name": "",
          "type": "address"
        }
      ],
      "stateMutability": "view",
      "type": "function"
    }
  ],
  "bytecode": {
    "object": "0x61012060405273d0d5e3db44de05e9f294bb0a3beeaf030de24ada60c0908152731c2252aeed50e0c9b64bdff2735ee3c932f5c40860e052730715a7794a1dc8e42615f059dd6e406a6594651a6101005262000060906002906003620002aa565b50731231deb6f5749ef6ce6943a275a1d3e7486f4eae60a0526040805180820190915260088152676c6966692d61706960c01b6020820152600790620000a79082620003d0565b506040518060600160405280602a8152602001620045d1602a9139600890620000d19082620003d0565b50604051806103e001604052806103a98152602001620045fb6103a99139601190620000fe9082620003d0565b503480156200010c57600080fd5b50604051620049a4380380620049a48339810160408190526200012f916200049c565b6001600160a01b0381166080523380600081620001935760405162461bcd60e51b815260206004820152601860248201527f43616e6e6f7420736574206f776e657220746f207a65726f000000000000000060448201526064015b60405180910390fd5b600080546001600160a01b0319166001600160a01b0384811691909117909155811615620001c657620001c681620001ff565b505060a051600680546001600160a01b0319166001600160a01b039092169190911790555050600e805460ff60a81b19169055620004ce565b336001600160a01b03821603620002595760405162461bcd60e51b815260206004820152601760248201527f43616e6e6f74207472616e7366657220746f2073656c6600000000000000000060448201526064016200018a565b600180546001600160a01b0319166001600160a01b0383811691821790925560008054604051929316917fed8889f560326eb138920d842192f0eb3dd22b4f139c87a2c57538e05bae12789190a350565b82805482825590600052602060002090810192821562000302579160200282015b828111156200030257825182546001600160a01b0319166001600160a01b03909116178255602090920191600190910190620002cb565b506200031092915062000314565b5090565b5b8082111562000310576000815560010162000315565b634e487b7160e01b600052604160045260246000fd5b600181811c908216806200035657607f821691505b6020821081036200037757634e487b7160e01b600052602260045260246000fd5b50919050565b601f821115620003cb57600081815260208120601f850160051c81016020861015620003a65750805b601f850160051c820191505b81811015620003c757828155600101620003b2565b5050505b505050565b81516001600160401b03811115620003ec57620003ec6200032b565b6200040481620003fd845462000341565b846200037d565b602080601f8311600181146200043c5760008415620004235750858301515b600019600386901b1c1916600185901b178555620003c7565b600085815260208120601f198616915b828110156200046d578886015182559484019460019091019084016200044c565b50858210156200048c5787850151600019600388901b60f8161c191681555b5050505050600190811b01905550565b600060208284031215620004af57600080fd5b81516001600160a01b0381168114620004c757600080fd5b9392505050565b60805160a0516140d6620004fb600039600081816103b6015261234d015260006107c201526140d66000f3fe608060405234801561001057600080fd5b50600436106102a05760003560e01c806368447c9311610167578063bedb86fb116100ce578063de8ce1bd11610087578063de8ce1bd14610696578063e6446373146106b6578063e9395679146106bf578063f2fde38b146106d2578063f68016b7146106e5578063fc2f7cff1461070a57600080fd5b8063bedb86fb1461062e578063c0cbbca614610641578063cdbd375914610654578063ceff496d14610667578063d16360951461067a578063d201b2641461068357600080fd5b80638da5cb5b116101205780638da5cb5b146105945780638ee8306b146105a5578063a854af2c146105b8578063b187bd26146105d3578063b21ca099146105e7578063b39ef9c81461060757600080fd5b806368447c93146105305780636e74336b1461054557806371bdb5de1461054e57806379ba50971461056157806382c947b714610569578063886d3db91461058357600080fd5b806340691db41161020b578063549e2b7f116101c4578063549e2b7f146104a857806355219d5a146104bb5780635591ddc6146104de57806357fa4508146104f15780635e92e6921461050457806365170a471461052757600080fd5b806340691db4146104225780634506fd26146104355780634585e33b146104485780634ce3fa521461045b5780634f8391bc1461046e57806352f61f411461049557600080fd5b806321d1fdd01161025d57806321d1fdd01461037d578063289e5bb91461039e5780632bd16c8f146103b157806331e70508146103d8578063392e53cd146103eb57806339b051221461040f57600080fd5b806302d45457146102a557806304bc3b1c146102d557806309c1ba2e146103035780630b790986146103355780630ca76175146103555780630e372ff01461036a575b600080fd5b600e546102b8906001600160a01b031681565b6040516001600160a01b0390911681526020015b60405180910390f35b6102f56102e3366004612f97565b60046020526000908152604090205481565b6040519081526020016102cc565b600b5461031d90600160c01b90046001600160401b031681565b6040516001600160401b0390911681526020016102cc565b610348610343366004612fbb565b610712565b6040516102cc9190612fd4565b6103686103633660046130cd565b6107b7565b005b6102f5610378366004612fbb565b61083b565b61039061038b366004613181565b61084e565b6040516102cc92919061321c565b6102f56103ac36600461323f565b919050565b6102b87f000000000000000000000000000000000000000000000000000000000000000081565b6103686103e6366004612fbb565b610d16565b600e546103ff90600160a81b900460ff1681565b60405190151581526020016102cc565b61036861041d3660046130cd565b610f9c565b61039061043036600461326b565b611007565b6103686104433660046132d7565b61109e565b61036861045636600461338e565b6112c9565b6103686104693660046133cf565b611568565b61048161047c366004612fbb565b6115ae565b6040516102cc989796959493929190613408565b600c546102b8906001600160a01b031681565b6103686104b6366004613463565b61168b565b6103ff6104c9366004612f97565b60056020526000908152604090205460ff1681565b6103686104ec3660046134b4565b611a54565b6103686104ff366004613528565b611a6a565b6105176105123660046135a8565b611be5565b6040516102cc9493929190613653565b6102f560095481565b610538611db5565b6040516102cc91906136db565b6102f5600a5481565b61036861055c3660046136ee565b611e43565b610368612187565b6102f5610577366004612f97565b6001600160a01b031690565b6102f5610591366004612fbb565b90565b6000546001600160a01b03166102b8565b6105386105b3366004613762565b612231565b600b546102b89064010000000090046001600160a01b031681565b600e546103ff90600160a01b900460ff1681565b6102f56105f5366004612fbb565b60106020526000908152604090205481565b610615610591366004612fbb565b6040516001600160e01b031990911681526020016102cc565b6103ff61063c36600461385d565b6123d7565b61036861064f366004612fbb565b612409565b6103686106623660046134b4565b61263a565b6006546102b8906001600160a01b031681565b6102f560035481565b61036861069136600461387a565b612750565b6106a96106a4366004613908565b612850565b6040516102cc9190613959565b6102f5600d5481565b6105386106cd366004612fbb565b6129aa565b6103686106e0366004612f97565b612a3c565b600b546106f59063ffffffff1681565b60405163ffffffff90911681526020016102cc565b610538612a50565b6002546060906000816001600160401b0381111561073257610732613018565b60405190808252806020026020018201604052801561075b578160200160208202803683370190505b50905060005b828110156107af5761078a61037860028381548110610782576107826139bb565b506000528690565b82828151811061079c5761079c6139bb565b6020908102919091010152600101610761565b509392505050565b336001600160a01b037f000000000000000000000000000000000000000000000000000000000000000016146108005760405163c6829f8360e01b815260040160405180910390fd5b61080b838383610f9c565b60405183907f85e1543bf2f84fe80c6badbce3648c8539ad1df4d2b3d822938ca0538be727e690600090a2505050565b60006108486064836139e7565b92915050565b60006060600061085d84610712565b905060008060008060005b600954811015610d07576000818152600f6020908152604080832081516101008101835281546001600160a01b03908116825260018301548116948201949094526002820154909316918301919091526003810154606083015260048101546080830152600581015460a0830152600681015460c083015260078101805460e0840191906108f590613a09565b80601f016020809104026020016040519081016040528092919081815260200182805461092190613a09565b801561096e5780601f106109435761010080835404028352916020019161096e565b820191906000526020600020905b81548152906001019060200180831161095157829003601f168201915b5050509190925250508151919250506001600160a01b031615610cf457606081015115610ae357608081015160a0820151600e5483516040516370a0823160e01b81526001600160a01b039182166004820152429490941015975091929116906370a0823190602401602060405180830381865afa1580156109f4573d6000803e3d6000fd5b505050506040513d601f19601f82011682018060405250810190610a189190613a43565b60a0830151600e548451604051636eb1769f60e11b81526001600160a01b03918216600482015230602482015294909310159950909291169063dd62ed3e90604401602060405180830381865afa158015610a77573d6000803e3d6000fd5b505050506040513d601f19601f82011682018060405250810190610a9b9190613a43565b10159450838015610aa95750855b8015610ab25750845b9850816000604051602001610ad1929190918252602082015260400190565b60405160208183030381529060405297505b6060810151158015610af8575060c081015115155b15610ce257600e5460208201516001600160a01b03908116911614610b5c5760c08101516020808301516001600160a01b031660009081526004909152604090205488518991908110610b4d57610b4d6139bb565b60200260200101511015610b9a565b60c08101516040808301516001600160a01b031660009081526004602052205488518991908110610b8f57610b8f6139bb565b602002602001015111155b60a0820151602083015183516040516370a0823160e01b81526001600160a01b03918216600482015293965091929116906370a0823190602401602060405180830381865afa158015610bf1573d6000803e3d6000fd5b505050506040513d601f19601f82011682018060405250810190610c159190613a43565b60a083015160208401518451604051636eb1769f60e11b81526001600160a01b03918216600482015230602482015294909310159950909291169063dd62ed3e90604401602060405180830381865afa158015610c76573d6000803e3d6000fd5b505050506040513d601f19601f82011682018060405250810190610c9a9190613a43565b10159450828015610ca85750855b8015610cb15750845b9850816000604051602001610cd0929190918252602082015260400190565b60405160208183030381529060405297505b8815610cf45750505050505050610d0e565b5080610cff81613a5c565b915050610868565b5050505050505b935093915050565b610d576040805160e0810190915280600081526020016000815260200160008152602001606081526020016060815260200160608152602001606081525090565b610df460118054610d6790613a09565b80601f0160208091040260200160405190810160405280929190818152602001828054610d9390613a09565b8015610de05780601f10610db557610100808354040283529160200191610de0565b820191906000526020600020905b815481529060010190602001808311610dc357829003601f168201915b505050505082612a5d90919063ffffffff16565b6000828152600f6020908152604080832081516101008101835281546001600160a01b03908116825260018301548116948201949094526002820154909316918301919091526003810154606083015260048101546080830152600581015460a0830152600681015460c083015260078101805460e084019190610e7790613a09565b80601f0160208091040260200160405190810160405280929190818152602001828054610ea390613a09565b8015610ef05780601f10610ec557610100808354040283529160200191610ef0565b820191906000526020600020905b815481529060010190602001808311610ed357829003601f168201915b50505050508152505090506000610f198260200151836040015184600001518560a00151612850565b9050610f258382612a6a565b681c995c5d595cdd125960ba1b6000819052601060209081527fbbdbb72e8f82049b214755d692907364a2285e3e4225b3dd9ae52821e20afb3c86905560405186815282917f7b0781c2059d56137f2d3814f1213c0bbbd546ff1f4e1a95a7b41f4234e9ee32910160405180910390a25050505050565b600083815260106020908152604080832054808452600f909252909120600701610fc68482613ac3565b50837f7873807bf6ddc50401cd3d29bbe0decee23fd4d68d273f4b5eb83cded4d2f1728484604051610ff9929190613b82565b60405180910390a250505050565b6000606061101860c0850185613ba7565b6002818110611029576110296139bb565b905060200201356000146110405760009150611045565b600191505b61105260c0850185613ba7565b6000818110611063576110636139bb565b905060200201356001604051602001611086929190918252602082015260400190565b60405160208183030381529060405290509250929050565b604080516001808252818301909252600091816020015b6040805160e0810182526000808252602080830182905292820181905260608083018290526080830182905260a083015260c082015282526000199092019101816110b55790505090508681600081518110611113576111136139bb565b6020026020010151600001906001600160a01b031690816001600160a01b031681525050858160008151811061114b5761114b6139bb565b6020026020010151602001906001600160a01b031690816001600160a01b0316815250508481600081518110611183576111836139bb565b6020026020010151604001906001600160a01b031690816001600160a01b03168152505083816000815181106111bb576111bb6139bb565b6020026020010151606001906001600160a01b031690816001600160a01b03168152505082816000815181106111f3576111f36139bb565b602002602001015160800181815250508181600081518110611217576112176139bb565b602002602001015160a0018190525060018160008151811061123b5761123b6139bb565b602090810291909101015190151560c0909101526006546040516308c6141b60e31b81526001600160a01b0390911690634630a0d89061128b908d906007906008908f908f908990600401613c6d565b600060405180830381600087803b1580156112a557600080fd5b505af11580156112b9573d6000803e3d6000fd5b5050505050505050505050505050565b6000546001600160a01b031633148015906112f75750600b5464010000000090046001600160a01b03163314155b801561130e5750600c546001600160a01b03163314155b1561136b57336113266000546001600160a01b031690565b600b5460405163426fbc7160e01b81526001600160a01b0393841660048201529183166024830152640100000000900490911660448201526064015b60405180910390fd5b600061137982840184613d78565b915050806000036113e057600061139283850185613d78565b506000818152600f60205260409020600381015491925090156113c85760038101546113be9042613d9a565b60048201556113d0565b600060068201555b6113d982610d16565b5050505050565b60006113ee83850185613d78565b50600081815260106020908152604080832054808452600f909252909120600681015492935090911561146c576000828152600f6020526040808220600601919091555133907fd4bcfe01803d6cc1b6cb87942924062b921ce853a0e0ad1a59cb92fa77f3a8cc906114639085815260200190565b60405180910390a25b6001810154815460058301546040516323b872dd60e01b81526001600160a01b03928316600482015230602482015260448101919091529116906323b872dd906064016020604051808303816000875af11580156114ce573d6000803e3d6000fd5b505050506040513d601f19601f820116820180604052508101906114f29190613dad565b5060058101548154600183015460028401546040805187815260208101959095526001600160a01b0393841690850152908216606084015216608082015283907f2cbc8e6970e7a6e926100654a692677c7960085229cf130f3afa93a8b89ed3879060a00160405180910390a25050505b505050565b611570612a94565b600b8054640100000000600160c01b0319166401000000006001600160a01b0394851602179055600c80546001600160a01b03191691909216179055565b600f60205260009081526040902080546001820154600283015460038401546004850154600586015460068701546007880180546001600160a01b0398891699978916989096169694959394929391929161160890613a09565b80601f016020809104026020016040519081016040528092919081815260200182805461163490613a09565b80156116815780601f1061165657610100808354040283529160200191611681565b820191906000526020600020905b81548152906001019060200180831161166457829003601f168201915b5050505050905088565b600e54600160a01b900460ff16156116d75760405162461bcd60e51b815260206004820152600f60248201526e18dbdb9d1c9858dd081c185d5cd959608a1b6044820152606401611362565b816000036117275760405162461bcd60e51b815260206004820152601d60248201527f696e76616c696420737472617465677920706172616d20616d6f756e740000006044820152606401611362565b6001600160a01b03841660009081526005602052604090205460ff1661178f5760405162461bcd60e51b815260206004820152601e60248201527f696e76616c696420737472617465677920706172616d20746f6b656e546f00006044820152606401611362565b6001600160a01b03851660009081526005602052604090205460ff166117f75760405162461bcd60e51b815260206004820181905260248201527f696e76616c696420737472617465677920706172616d20746f6b656e46726f6d6044820152606401611362565b821580611802575080155b61181e5760405162461bcd60e51b815260040161136290613dca565b8215801561182a575080155b156118775760405162461bcd60e51b815260206004820152601c60248201527f4c696d697420616e642054696d65496e74657276616c206172652030000000006044820152606401611362565b6000831561188c576118898442613d9a565b90505b6000604051806101000160405280336001600160a01b03168152602001600087116118b757886118c4565b600e546001600160a01b03165b6001600160a01b03168152602001876001600160a01b031681526020018681526020018381526020018581526020018481526020016040518060400160405280600181526020016000815250815250905080604001516001600160a01b031681602001516001600160a01b03160361194e5760405162461bcd60e51b815260040161136290613e0c565b600d546000818152600f6020908152604091829020845181546001600160a01b03199081166001600160a01b03928316178355928601516001830180548516918316919091179055928501516002820180549093169316929092179055606083015160038201556080830151600482015560a0830151600582015560c0830151600682015560e083015183919060078201906119ea9082613ac3565b5050600d805460019081019091556009805490910190555081516040516001600160a01b03909116907f76077091b25b37316df3930ef4f2b6248911c2aead51908ad20525fc8e099ea590611a429085908590613e53565b60405180910390a25050505050505050565b611a5c612a94565b611a66828261263a565b5050565b600080600080611a7989611be5565b9350935093509350600082516002611a919190613d9a565b6001600160401b03811115611aa857611aa8613018565b604051908082528060200260200182016040528015611ad1578160200160208202803683370190505b5090508681600081518110611ae857611ae86139bb565b60200260200101906001600160a01b031690816001600160a01b03168152505060005b8351811015611b6357838181518110611b2657611b266139bb565b6020026020010151828260010181518110611b4357611b436139bb565b6001600160a01b0390921660209283029190910190910152600101611b0b565b50858160018351611b749190613ee8565b81518110611b8457611b846139bb565b6001600160a01b03929092166020928302919091019091015283518251600091611bb2918c91908590612231565b60208701518751875192935090918c91611bd6918d9060801c85808f8f888b61109e565b50505050505050505050505050565b611bed612ef8565b611bf5612f16565b6060611bff612f16565b604885511015611c515760405162461bcd60e51b815260206004820152601a60248201527f44617461206c656e677468206d757374206265203e3d203732210000000000006044820152606401611362565b611c59612ef8565b611c61612f16565b611c69612ef8565b611c71612f16565b602089810151855260408a0151845260508a015160601c90850152606489015181528851605c03611ca457605c89015182525b8851607003611cbf57605c8901518252607089015160208301525b6000805b6002811015611d07576000848260028110611ce057611ce06139bb565b60200201516001600160a01b031614611cff57611cfc82613a5c565b91505b600101611cc3565b506000816001600160401b03811115611d2257611d22613018565b604051908082528060200260200182016040528015611d4b578160200160208202803683370190505b50905060005b82811015611da257848160028110611d6b57611d6b6139bb565b6020020151828281518110611d8257611d826139bb565b6001600160a01b0390921660209283029190910190910152600101611d51565b50949a9399509397509550909350505050565b60088054611dc290613a09565b80601f0160208091040260200160405190810160405280929190818152602001828054611dee90613a09565b8015611e3b5780601f10611e1057610100808354040283529160200191611e3b565b820191906000526020600020905b815481529060010190602001808311611e1e57829003601f168201915b505050505081565b81600003611e935760405162461bcd60e51b815260206004820152601d60248201527f696e76616c696420737472617465677920706172616d20616d6f756e740000006044820152606401611362565b6001600160a01b03841660009081526005602052604090205460ff16611efb5760405162461bcd60e51b815260206004820152601e60248201527f696e76616c696420737472617465677920706172616d20746f6b656e546f00006044820152606401611362565b6001600160a01b03851660009081526005602052604090205460ff16611f635760405162461bcd60e51b815260206004820181905260248201527f696e76616c696420737472617465677920706172616d20746f6b656e46726f6d6044820152606401611362565b821580611f6e575080155b611f8a5760405162461bcd60e51b815260040161136290613dca565b836001600160a01b0316856001600160a01b031603611fbb5760405162461bcd60e51b815260040161136290613e0c565b82158015611fc7575080155b156120145760405162461bcd60e51b815260206004820152601c60248201527f4c696d697420616e642054696d65496e74657276616c206172652030000000006044820152606401611362565b60095486111561205c5760405162461bcd60e51b8152602060048201526013602482015272496e646578206f7574206f6620626f756e647360681b6044820152606401611362565b6000868152600f6020526040902080546001600160a01b031633146120b25760405162461bcd60e51b815260206004820152600c60248201526b155b985d5d1a1bdc9a5e995960a21b6044820152606401611362565b600084156120c7576120c48542613d9a565b90505b600085116120d557866120e2565b600e546001600160a01b03165b6001830180546001600160a01b039283166001600160a01b03199182168117909255600285018054938a169390911683179055036121325760405162461bcd60e51b815260040161136290613e0c565b60038201859055600582018490556006820183905581546040516001600160a01b03909116907f6737b9f3a5b839875fd01c830b2f52c3bed21caeb651e7f8ee987351c10db2fd90611a429085908c90613efb565b6001546001600160a01b031633146121da5760405162461bcd60e51b815260206004820152601660248201527526bab9ba10313290383937b837b9b2b21037bbb732b960511b6044820152606401611362565b60008054336001600160a01b0319808316821784556001805490911690556040516001600160a01b0390921692909183917f8be0079c531659141344cd1fd0a4f28419497f9722a3daafe3b4186f6b6457e091a350565b60606338ed173960e01b60a0600083815b87518110156122e75760006001600160a01b0316888281518110612268576122686139bb565b60200260200101516001600160a01b0316146122d757816122a8898381518110612294576122946139bb565b60200260200101516001600160a01b031690565b6040516020016122b9929190613fa8565b6040516020818303038152906040529150826122d490613a5c565b92505b6122e081613a5c565b9050612242565b506040516122fc908290600090602001613fca565b60408051808303601f19018152828252600060208401526001600160801b03198b166030840152925085918b910160405160208183030381529060405261234290613ff6565b856001600160a01b037f00000000000000000000000000000000000000000000000000000000000000001660408051600060208201526001600160e01b03198d16603c820152016040516020818303038152906040526123a190613ff6565b6040516123ba969594939291908990899060200161401a565b604051602081830303815290604052945050505050949350505050565b60006123e1612a94565b50600e805460ff60a01b1916600160a01b8315158102919091179182905560ff910416919050565b6009548111156124515760405162461bcd60e51b8152602060048201526013602482015272496e646578206f7574206f6620626f756e647360681b6044820152606401611362565b6000818152600f6020908152604080832081516101008101835281546001600160a01b03908116825260018301548116948201949094526002820154909316918301919091526003810154606083015260048101546080830152600581015460a0830152600681015460c083015260078101805460e0840191906124d490613a09565b80601f016020809104026020016040519081016040528092919081815260200182805461250090613a09565b801561254d5780601f106125225761010080835404028352916020019161254d565b820191906000526020600020905b81548152906001019060200180831161253057829003601f168201915b5050509190925250508151919250506001600160a01b031633146125a25760405162461bcd60e51b815260206004820152600c60248201526b155b985d5d1a1bdc9a5e995960a21b6044820152606401611362565b6000828152600f6020526040812080546001600160a01b0319908116825560018201805482169055600282018054909116905560038101829055600481018290556005810182905560068101829055906125ff6007830182612f34565b505060405182815233907fd4bcfe01803d6cc1b6cb87942924062b921ce853a0e0ad1a59cb92fa77f3a8cc9060200160405180910390a25050565b60005b81811015611563576005600084848481811061265b5761265b6139bb565b90506020020160208101906126709190612f97565b6001600160a01b03168152602081019190915260400160009081205460ff161515900361274857600354600460008585858181106126b0576126b06139bb565b90506020020160208101906126c59190612f97565b6001600160a01b03166001600160a01b0316815260200190815260200160002081905550600160056000858585818110612701576127016139bb565b90506020020160208101906127169190612f97565b6001600160a01b031681526020810191909152604001600020805460ff19169115159190911790556003805460010190555b60010161263d565b612758612a94565b600e54600160a81b900460ff16156127b25760405162461bcd60e51b815260206004820152601e60248201527f4c69676874657246693a20616c726561647920696e697469616c697a656400006044820152606401611362565b600e8054600b8054600a979097556001600160a01b0394851664010000000002640100000000600160c01b03196001600160401b03909716600160c01b02640100000000600160c01b0390981663ffffffff90991698909817969096179490941695909517909355600c80549382166001600160a01b03199490941693909317909255600161ff0160a01b031916921691909117600160a81b179055565b6060600061288f8660405160200161287b919060609190911b6001600160601b031916815260140190565b604051602081830303815290604052612ae9565b6040516001600160601b0319606088901b1660208201529091506000906128b89060340161287b565b6040516001600160601b0319606088901b1660208201529091506000906128e19060340161287b565b905060006128ee866129aa565b60408051600480825260a0820190925291925060009190816020015b606081526020019060019003908161290a5790505090508481600081518110612935576129356139bb565b60200260200101819052508381600181518110612954576129546139bb565b60200260200101819052508281600281518110612973576129736139bb565b60200260200101819052508181600381518110612992576129926139bb565b60209081029190910101529998505050505050505050565b606060006129b783612cf9565b60010190506000816001600160401b038111156129d6576129d6613018565b6040519080825280601f01601f191660200182016040528015612a00576020820181803683370190505b5090508181016020015b600019016f181899199a1a9b1b9c1cb0b131b232b360811b600a86061a8153600a8504945084612a0a57509392505050565b612a44612a94565b612a4d81612dd1565b50565b60078054611dc290613a09565b611a668260008084612e7a565b8051600003612a8c5760405163fe936cb760e01b815260040160405180910390fd5b60a090910152565b6000546001600160a01b03163314612ae75760405162461bcd60e51b815260206004820152601660248201527527b7363c9031b0b63630b1363290313c9037bbb732b960511b6044820152606401611362565b565b60408051808201909152601081526f181899199a1a9b1b9c1cb0b131b232b360811b6020820152815160609190600090612b24906002614073565b612b2f906002613d9a565b6001600160401b03811115612b4657612b46613018565b6040519080825280601f01601f191660200182016040528015612b70576020820181803683370190505b509050600360fc1b81600081518110612b8b57612b8b6139bb565b60200101906001600160f81b031916908160001a905350600f60fb1b81600181518110612bba57612bba6139bb565b60200101906001600160f81b031916908160001a90535060005b84518110156107af57826004868381518110612bf257612bf26139bb565b016020015182516001600160f81b031990911690911c60f81c908110612c1a57612c1a6139bb565b01602001516001600160f81b03191682612c35836002614073565b612c40906002613d9a565b81518110612c5057612c506139bb565b60200101906001600160f81b031916908160001a90535082858281518110612c7a57612c7a6139bb565b602091010151815160f89190911c600f16908110612c9a57612c9a6139bb565b01602001516001600160f81b03191682612cb5836002614073565b612cc0906003613d9a565b81518110612cd057612cd06139bb565b60200101906001600160f81b031916908160001a90535080612cf181613a5c565b915050612bd4565b60008072184f03e93ff9f4daa797ed6e38ed64bf6a1f0160401b8310612d385772184f03e93ff9f4daa797ed6e38ed64bf6a1f0160401b830492506040015b6d04ee2d6d415b85acef81000000008310612d64576d04ee2d6d415b85acef8100000000830492506020015b662386f26fc100008310612d8257662386f26fc10000830492506010015b6305f5e1008310612d9a576305f5e100830492506008015b6127108310612dae57612710830492506004015b60648310612dc0576064830492506002015b600a83106108485760010192915050565b336001600160a01b03821603612e295760405162461bcd60e51b815260206004820152601760248201527f43616e6e6f74207472616e7366657220746f2073656c660000000000000000006044820152606401611362565b600180546001600160a01b0319166001600160a01b0383811691821790925560008054604051929316917fed8889f560326eb138920d842192f0eb3dd22b4f139c87a2c57538e05bae12789190a350565b8051600003612e9c576040516322ce3edd60e01b815260040160405180910390fd5b83836002811115612eaf57612eaf61408a565b90816002811115612ec257612ec261408a565b90525060408401828015612ed857612ed861408a565b90818015612ee857612ee861408a565b9052506060909301929092525050565b60405180604001604052806002906020820280368337509192915050565b60405180602001604052806001906020820280368337509192915050565b508054612f4090613a09565b6000825580601f10612f50575050565b601f016020900490600052602060002090810190612a4d91905b80821115612f7e5760008155600101612f6a565b5090565b6001600160a01b0381168114612a4d57600080fd5b600060208284031215612fa957600080fd5b8135612fb481612f82565b9392505050565b600060208284031215612fcd57600080fd5b5035919050565b6020808252825182820181905260009190848201906040850190845b8181101561300c57835183529284019291840191600101612ff0565b50909695505050505050565b634e487b7160e01b600052604160045260246000fd5b604051601f8201601f191681016001600160401b038111828210171561305657613056613018565b604052919050565b600082601f83011261306f57600080fd5b81356001600160401b0381111561308857613088613018565b61309b601f8201601f191660200161302e565b8181528460208386010111156130b057600080fd5b816020850160208301376000918101602001919091529392505050565b6000806000606084860312156130e257600080fd5b8335925060208401356001600160401b038082111561310057600080fd5b61310c8783880161305e565b9350604086013591508082111561312257600080fd5b5061312f8682870161305e565b9150509250925092565b60008083601f84011261314b57600080fd5b5081356001600160401b0381111561316257600080fd5b60208301915083602082850101111561317a57600080fd5b9250929050565b60008060006040848603121561319657600080fd5b83356001600160401b038111156131ac57600080fd5b6131b886828701613139565b909790965060209590950135949350505050565b60005b838110156131e75781810151838201526020016131cf565b50506000910152565b600081518084526132088160208601602086016131cc565b601f01601f19169290920160200192915050565b821515815260406020820152600061323760408301846131f0565b949350505050565b6000806040838503121561325257600080fd5b823561325d81612f82565b946020939093013593505050565b6000806040838503121561327e57600080fd5b82356001600160401b038082111561329557600080fd5b9084019061010082870312156132aa57600080fd5b909250602084013590808211156132c057600080fd5b506132cd8582860161305e565b9150509250929050565b60008060008060008060008060006101208a8c0312156132f657600080fd5b8935985060208a013561330881612f82565b975060408a0135965060608a013561331f81612f82565b955060808a013561332f81612f82565b945060a08a013561333f81612f82565b935060c08a013561334f81612f82565b925060e08a013591506101008a01356001600160401b0381111561337257600080fd5b61337e8c828d0161305e565b9150509295985092959850929598565b600080602083850312156133a157600080fd5b82356001600160401b038111156133b757600080fd5b6133c385828601613139565b90969095509350505050565b600080604083850312156133e257600080fd5b82356133ed81612f82565b915060208301356133fd81612f82565b809150509250929050565b600061010060018060a01b03808c168452808b166020850152808a166040850152508760608401528660808401528560a08401528460c08401528060e0840152613454818401856131f0565b9b9a5050505050505050505050565b600080600080600060a0868803121561347b57600080fd5b853561348681612f82565b9450602086013561349681612f82565b94979496505050506040830135926060810135926080909101359150565b600080602083850312156134c757600080fd5b82356001600160401b03808211156134de57600080fd5b818501915085601f8301126134f257600080fd5b81358181111561350157600080fd5b8660208260051b850101111561351657600080fd5b60209290920196919550909350505050565b600080600080600060a0868803121561354057600080fd5b85356001600160401b0381111561355657600080fd5b6135628882890161305e565b95505060208601359350604086013561357a81612f82565b9250606086013561358a81612f82565b9150608086013561359a81612f82565b809150509295509295909350565b6000602082840312156135ba57600080fd5b81356001600160401b038111156135d057600080fd5b6132378482850161305e565b600081518084526020808501945080840160005b838110156136155781516001600160a01b0316875295820195908201906001016135f0565b509495945050505050565b8060005b600181101561364d5781516001600160e01b031916845260209384019390910190600101613624565b50505050565b60008186825b6002811015613678578151835260209283019290910190600101613659565b505050604082018560005b60018110156136ac5781516001600160801b031916835260209283019290910190600101613683565b50505060a060608301526136c360a08301856135dc565b90506136d26080830184613620565b95945050505050565b602081526000612fb460208301846131f0565b60008060008060008060c0878903121561370757600080fd5b86359550602087013561371981612f82565b9450604087013561372981612f82565b959894975094956060810135955060808101359460a0909101359350915050565b80356001600160e01b0319811681146103ac57600080fd5b6000806000806080858703121561377857600080fd5b843593506020808601356001600160801b03198116811461379857600080fd5b935060408601356001600160401b03808211156137b457600080fd5b818801915088601f8301126137c857600080fd5b8135818111156137da576137da613018565b8060051b91506137eb84830161302e565b818152918301840191848101908b84111561380557600080fd5b938501935b8385101561382f578435925061381f83612f82565b828252938501939085019061380a565b8097505050505050506138446060860161374a565b905092959194509250565b8015158114612a4d57600080fd5b60006020828403121561386f57600080fd5b8135612fb48161384f565b60008060008060008060c0878903121561389357600080fd5b863561389e81612f82565b9550602087013563ffffffff811681146138b757600080fd5b94506040870135935060608701356001600160401b03811681146138da57600080fd5b925060808701356138ea81612f82565b915060a08701356138fa81612f82565b809150509295509295509295565b6000806000806080858703121561391e57600080fd5b843561392981612f82565b9350602085013561393981612f82565b9250604085013561394981612f82565b9396929550929360600135925050565b6000602080830181845280855180835260408601915060408160051b870101925083870160005b828110156139ae57603f1988860301845261399c8583516131f0565b94509285019290850190600101613980565b5092979650505050505050565b634e487b7160e01b600052603260045260246000fd5b634e487b7160e01b600052601160045260246000fd5b600082613a0457634e487b7160e01b600052601260045260246000fd5b500490565b600181811c90821680613a1d57607f821691505b602082108103613a3d57634e487b7160e01b600052602260045260246000fd5b50919050565b600060208284031215613a5557600080fd5b5051919050565b600060018201613a6e57613a6e6139d1565b5060010190565b601f82111561156357600081815260208120601f850160051c81016020861015613a9c5750805b601f850160051c820191505b81811015613abb57828155600101613aa8565b505050505050565b81516001600160401b03811115613adc57613adc613018565b613af081613aea8454613a09565b84613a75565b602080601f831160018114613b255760008415613b0d5750858301515b600019600386901b1c1916600185901b178555613abb565b600085815260208120601f198616915b82811015613b5457888601518255948401946001909101908401613b35565b5085821015613b725787850151600019600388901b60f8161c191681555b5050505050600190811b01905550565b604081526000613b9560408301856131f0565b82810360208401526136d281856131f0565b6000808335601e19843603018112613bbe57600080fd5b8301803591506001600160401b03821115613bd857600080fd5b6020019150600581901b360382131561317a57600080fd5b60008154613bfd81613a09565b808552602060018381168015613c1a5760018114613c3457613c62565b60ff1985168884015283151560051b880183019550613c62565b866000528260002060005b85811015613c5a5781548a8201860152908301908401613c3f565b890184019650505b505050505092915050565b600060c088835260208181850152613c878285018a613bf0565b604085820381870152613c9a828b613bf0565b9150606060018060a01b03808b168289015260808a818a015260a0898603818b0152858b518088528888019150888160051b890101898e0160005b83811015613d5d57601f198b840301855281518051891684528c81015189168d8501528a81015189168b850152898101516001600160a01b03168a85015287810151888501528681015160e088860181905290613d34828701826131f0565b9150508e8201519150613d4a8f86018315159052565b958d0195935050908b0190600101613cd5565b5050809b505050505050505050505050979650505050505050565b60008060408385031215613d8b57600080fd5b50508035926020909101359150565b80820180821115610848576108486139d1565b600060208284031215613dbf57600080fd5b8151612fb48161384f565b60208082526022908201527f4569746865722073657420612074696d65496e74657276616c206f72204c696d6040820152611a5d60f21b606082015260800190565b60208082526027908201527f696e76616c6964207374727461677920706172616d3a20746f6b656e732061726040820152661948195c5d585b60ca1b606082015260800190565b604080825283516001600160a01b03908116838301526020850151166060830152830151600090613e8f60808401826001600160a01b03169052565b50606084015160a0830152608084015160c083015260a084015160e083015260c0840151610100818185015260e086015191508061012085015250613ed86101408401826131f0565b9150508260208301529392505050565b81810381811115610848576108486139d1565b60408152613f2460408201613f1785546001600160a01b031690565b6001600160a01b03169052565b6000613f3a60018501546001600160a01b031690565b6001600160a01b0390811660608401526002850154166080830152600384015460a0830152600484015460c0830152600584015460e0830152600684015461010080840191909152610120830152613f99610140830160078601613bf0565b90508260208301529392505050565b60008351613fba8184602088016131cc565b9190910191825250602001919050565b60008351613fdc8184602088016131cc565b63ffffffff199390931691909201908152601c0192915050565b80516020808301519190811015613a3d5760001960209190910360031b1b16919050565b63ffffffff60e01b891681528760048201528660248201528560448201528460648201528360848201528260a48201526000825161405f8160c48501602087016131cc565b9190910160c4019998505050505050505050565b8082028115828204841417610848576108486139d1565b634e487b7160e01b600052602160045260246000fdfea26469706673582212200c4bee59b5ffbcef52777f3170673aa0d6de5b3b0aeb6149634e369d333be73664736f6c63430008140033307830303030303030303030303030303030303030303030303030303030303030303030303030303030636f6e73742066433d2027706f6c273b636f6e73742066543d617267735b305d3b636f6e73742074543d617267735b315d3b636f6e7374206641643d617267735b325d3b636f6e73742066416d3d617267735b335d3b636f6e7374206c5255726c203d206068747470733a2f2f6c692e71756573742f76312f71756f74653f66726f6d436861696e3d247b66437d26746f436861696e3d247b66437d2666726f6d546f6b656e3d247b66547d26746f546f6b656e3d247b74547d2666726f6d416464726573733d247b6641647d2666726f6d416d6f756e743d247b66416d7d603b636f6e7374206c52203d2061776169742046756e6374696f6e732e6d616b654874747052657175657374287b75726c3a206c5255726c2c6d6574686f643a2027474554272c686561646572733a207b27616363657074273a20276170706c69636174696f6e2f6a736f6e272c7d2c7d293b636f6e73742064617461203d206c522e646174612e7472616e73616374696f6e526571756573742e646174613b636f6e7374207444203d206c522e646174612e696e636c7564656453746570735b305d2e657374696d6174652e746f6f6c446174613b66756e6374696f6e207061727365627328627329207b636f6e7374207473203d2062732e736c696365283130293b636f6e73742074784964203d2074732e736c69636528302c203634293b636f6e7374206d696e4f7574203d2074732e736c696365283238382c20333230293b636f6e737420726f75746572203d2074442e726f75746572416464726573732e736c6963652832293b636f6e73742073656c6563746f72203d2074732e736c69636528313636342c2031363732293b6c6574206d6964646c65546f6b656e31203d2027273b6c6574206d6964646c65546f6b656e32203d2027273b6966202874442e706174682e6c656e677468203d3d3d2033297b6d6964646c65546f6b656e31203d2074442e706174685b315d2e736c6963652832293b7d6966202874442e706174682e6c656e677468203d3d3d2034297b6d6964646c65546f6b656e31203d2074442e706174685b315d2e736c6963652832293b6d6964646c65546f6b656e32203d2074442e706174685b325d2e736c6963652832293b7d72657475726e20747849642b6d696e4f75742b726f757465722b73656c6563746f722b6d6964646c65546f6b656e312b6d6964646c65546f6b656e323b7d72657475726e202846756e6374696f6e732e656e636f6465537472696e67287061727365627328646174612929293b",
    "linkReferences": {}
  },
  "methodIdentifiers": {
    "ConcatCalldata(uint256,bytes16,address[],bytes4)": "8ee8306b",
    "_batchQuery(int256)": "0b790986",
    "_mapAddresses(address[])": "cdbd3759",
    "acceptOwnership()": "79ba5097",
    "addressMappinglength()": "d1636095",
    "addressToBytes32(address)": "82c947b7",
    "bytes32tobytes4(bytes32)": "b39ef9c8",
    "checkLog((uint256,uint256,bytes32,uint256,bytes32,address,bytes32[],bytes),bytes)": "40691db4",
    "checkUpkeep(bytes,int256)": "21d1fdd0",
    "createStrategy(address,address,uint256,uint256,uint256)": "549e2b7f",
    "donID()": "6e74336b",
    "fulfillRequest(bytes32,bytes,bytes)": "39b05122",
    "gasLimit()": "f68016b7",
    "generateArgForRequest(address,address,address,uint256)": "de8ce1bd",
    "genericSwapFacet()": "ceff496d",
    "getChainlinkDataFeedLatestAnswer(address,int256)": "289e5bb9",
    "handleOracleFulfillment(bytes32,bytes,bytes)": "0ca76175",
    "init(address,uint32,bytes32,uint64,address,address)": "d201b264",
    "integrator()": "fc2f7cff",
    "isInitialized()": "392e53cd",
    "isPaused()": "b187bd26",
    "lifiDiamond()": "2bd16c8f",
    "mapAddresses(address[])": "5591ddc6",
    "owner()": "8da5cb5b",
    "performUpkeep(bytes)": "4585e33b",
    "readResponseAndSwap(bytes,uint256,address,address,address)": "57fa4508",
    "referrer()": "68447c93",
    "removeStrategy(uint256)": "c0cbbca6",
    "requestsIds(bytes32)": "b21ca099",
    "reseizeDecimals(int256)": "0e372ff0",
    "s_usersStrategies(uint256)": "4f8391bc",
    "s_usersStrategiesLength()": "65170a47",
    "sendRequest(uint256)": "31e70508",
    "setPause(bool)": "bedb86fb",
    "setUpkeepForwarders(address,address)": "4ce3fa52",
    "strategyIndex()": "e6446373",
    "subscriptionId()": "09c1ba2e",
    "swap(bytes32,address,uint256,address,address,address,address,uint256,bytes)": "4506fd26",
    "tokenAllowed(address)": "55219d5a",
    "tokenIndexes(address)": "04bc3b1c",
    "transferOwnership(address)": "f2fde38b",
    "uintToBytes32(uint256)": "886d3db9",
    "uintToString(uint256)": "e9395679",
    "unpackBytes(bytes)": "5e92e692",
    "upgradeStrategy(uint256,address,address,uint256,uint256,uint256)": "71bdb5de",
    "upkeepContract1()": "a854af2c",
    "upkeepContract2()": "52f61f41",
    "usdcAddress()": "02d45457"
  },
  "id": 41
}